{"abi":[{"type":"constructor","inputs":[{"name":"_service","type":"address","internalType":"address"},{"name":"_chainA","type":"uint256","internalType":"uint256"},{"name":"_chainB","type":"uint256","internalType":"uint256"},{"name":"_walletSwapA","type":"address","internalType":"address"},{"name":"_walletSwapB","type":"address","internalType":"address"}],"stateMutability":"payable"},{"type":"receive","stateMutability":"payable"},{"type":"function","name":"ORDER_INITIATED_TOPIC","inputs":[],"outputs":[{"name":"","type":"uint256","internalType":"uint256"}],"stateMutability":"view"},{"type":"function","name":"chainA","inputs":[],"outputs":[{"name":"","type":"uint256","internalType":"uint256"}],"stateMutability":"view"},{"type":"function","name":"chainB","inputs":[],"outputs":[{"name":"","type":"uint256","internalType":"uint256"}],"stateMutability":"view"},{"type":"function","name":"coverDebt","inputs":[],"outputs":[],"stateMutability":"nonpayable"},{"type":"function","name":"getOrder","inputs":[{"name":"chainId","type":"uint256","internalType":"uint256"},{"name":"tIn","type":"address","internalType":"address"},{"name":"tOut","type":"address","internalType":"address"},{"name":"index","type":"uint256","internalType":"uint256"}],"outputs":[{"name":"","type":"tuple","internalType":"struct SwapMatcherRSCv3.Order","components":[{"name":"orderId","type":"bytes32","internalType":"bytes32"},{"name":"maker","type":"address","internalType":"address"},{"name":"tokenIn","type":"address","internalType":"address"},{"name":"tokenOut","type":"address","internalType":"address"},{"name":"typeIn","type":"uint8","internalType":"uint8"},{"name":"typeOut","type":"uint8","internalType":"uint8"},{"name":"amountIn","type":"uint256","internalType":"uint256"},{"name":"amountOut","type":"uint256","internalType":"uint256"},{"name":"timestamp","type":"uint256","internalType":"uint256"},{"name":"chainId","type":"uint256","internalType":"uint256"},{"name":"targetChainId","type":"uint256","internalType":"uint256"}]}],"stateMutability":"view"},{"type":"function","name":"getOrderCount","inputs":[{"name":"chainId","type":"uint256","internalType":"uint256"},{"name":"tIn","type":"address","internalType":"address"},{"name":"tOut","type":"address","internalType":"address"}],"outputs":[{"name":"","type":"uint256","internalType":"uint256"}],"stateMutability":"view"},{"type":"function","name":"manualSubscribe","inputs":[{"name":"chainId","type":"uint256","internalType":"uint256"},{"name":"contractAddr","type":"address","internalType":"address"}],"outputs":[],"stateMutability":"nonpayable"},{"type":"function","name":"owner","inputs":[],"outputs":[{"name":"","type":"address","internalType":"address"}],"stateMutability":"view"},{"type":"function","name":"pay","inputs":[{"name":"amount","type":"uint256","internalType":"uint256"}],"outputs":[],"stateMutability":"nonpayable"},{"type":"function","name":"react","inputs":[{"name":"log","type":"tuple","internalType":"struct IReactive.LogRecord","components":[{"name":"chain_id","type":"uint256","internalType":"uint256"},{"name":"_contract","type":"address","internalType":"address"},{"name":"topic_0","type":"uint256","internalType":"uint256"},{"name":"topic_1","type":"uint256","internalType":"uint256"},{"name":"topic_2","type":"uint256","internalType":"uint256"},{"name":"topic_3","type":"uint256","internalType":"uint256"},{"name":"data","type":"bytes","internalType":"bytes"},{"name":"block_number","type":"uint256","internalType":"uint256"},{"name":"op_code","type":"uint256","internalType":"uint256"},{"name":"block_hash","type":"uint256","internalType":"uint256"},{"name":"tx_hash","type":"uint256","internalType":"uint256"},{"name":"log_index","type":"uint256","internalType":"uint256"}]}],"outputs":[],"stateMutability":"nonpayable"},{"type":"function","name":"reactCount","inputs":[],"outputs":[{"name":"","type":"uint256","internalType":"uint256"}],"stateMutability":"view"},{"type":"function","name":"walletSwapA","inputs":[],"outputs":[{"name":"","type":"address","internalType":"address"}],"stateMutability":"view"},{"type":"function","name":"walletSwapB","inputs":[],"outputs":[{"name":"","type":"address","internalType":"address"}],"stateMutability":"view"},{"type":"event","name":"Callback","inputs":[{"name":"chain_id","type":"uint256","indexed":true,"internalType":"uint256"},{"name":"_contract","type":"address","indexed":true,"internalType":"address"},{"name":"gas_limit","type":"uint64","indexed":true,"internalType":"uint64"},{"name":"payload","type":"bytes","indexed":false,"internalType":"bytes"}],"anonymous":false},{"type":"event","name":"MatchFound","inputs":[{"name":"orderA","type":"bytes32","indexed":true,"internalType":"bytes32"},{"name":"orderB","type":"bytes32","indexed":true,"internalType":"bytes32"},{"name":"timestamp","type":"uint256","indexed":false,"internalType":"uint256"}],"anonymous":false},{"type":"event","name":"OrderStored","inputs":[{"name":"orderId","type":"bytes32","indexed":true,"internalType":"bytes32"},{"name":"chainId","type":"uint256","indexed":false,"internalType":"uint256"},{"name":"tokenIn","type":"address","indexed":false,"internalType":"address"},{"name":"tokenOut","type":"address","indexed":false,"internalType":"address"}],"anonymous":false},{"type":"event","name":"ReactCalled","inputs":[{"name":"chainId","type":"uint256","indexed":false,"internalType":"uint256"},{"name":"topic0","type":"uint256","indexed":false,"internalType":"uint256"},{"name":"blockNumber","type":"uint256","indexed":false,"internalType":"uint256"}],"anonymous":false}],"bytecode":{"object":"0x6080601f61135b38819003918201601f19168301916001600160401b038311848410176101295780849260a094604052833981010312610124576100428161013f565b906020810151604082015190610066608061005f6060860161013f565b940161013f565b60028054600080546001600160a01b031990811662ffffff908117835591829052600160208190527f82ea04094b91fdbcc6bc700815069948943553fb456ac308389bf83006127735805460ff191690911790556001600160a81b0319909216903b1560ff1617600897881b610100600160a81b0316179091558554811633179095556004919091556005919091556006805484166001600160a01b0393841617905560078054909316911617905560405161120790816101548239f35b600080fd5b634e487b7160e01b600052604160045260246000fd5b51906001600160a01b03821682036101245756fe608080604052600436101561001d575b50361561001b57600080fd5b005b600090813560e01c9081630d152c2c146105e85750806310a4a506146105bf57806340800c49146105845780634b6dd86f14610566578063578ebb591461041f5780637a90b99014610389578063874e6bc81461036b5780638da5cb5b14610342578063a12c915e14610324578063abc1fd9e146101b7578063c290d69114610143578063c74fb4c2146100e05763dc85ea0b0361000f57346100dd57806003193601126100dd576006546040516001600160a01b039091168152602090f35b80fd5b50346100dd5760603660031901126100dd576100fa610665565b6040610104610680565b9260043581526003602052209060018060a01b031660005260205260406000209060018060a01b03166000526020526020604060002054604051908152f35b50346100dd5760203660031901126100dd57338152600160205260ff6040822054161561017957610176600435336110dc565b80f35b60405162461bcd60e51b8152602060048201526016602482015275417574686f72697a65642073656e646572206f6e6c7960501b6044820152606490fd5b50346100dd5760403660031901126100dd576101d1610665565b6008546001600160a01b031633036102f257600254829160089190911c6001600160a01b031690813b156102ee57829160c4839260405195869384926305a6aced60e41b8452600435600485015260018060a01b031660248401527f058e802e2eed1657b621419f51940b8d60d9ff78dca249f3908460679669533360448401527fa65f96fc951c35ead38878e0f0b7a3c744a6f5ccc1476b313353ce31712313ad60648401527fa65f96fc951c35ead38878e0f0b7a3c744a6f5ccc1476b313353ce31712313ad60848401527fa65f96fc951c35ead38878e0f0b7a3c744a6f5ccc1476b313353ce31712313ad60a48401525af180156102e1576102d35780f35b6102dc916106eb565b388180f35b50604051903d90823e3d90fd5b5050fd5b60405162461bcd60e51b815260206004820152600a60248201526927b7363c9037bbb732b960b11b6044820152606490fd5b50346100dd57806003193601126100dd576020600554604051908152f35b50346100dd57806003193601126100dd576008546040516001600160a01b039091168152602090f35b50346100dd57806003193601126100dd576020600454604051908152f35b50346100dd57806003193601126100dd5780546040516326db15bb60e21b8152306004820152906001600160a01b0316602082602481845afa9081156104145783916103da575b61017692506110dc565b90506020823d60201161040c575b816103f5602093836106eb565b81010312610408576101769151906103d0565b8280fd5b3d91506103e8565b6040513d85823e3d90fd5b50346100dd5760803660031901126100dd576104d56104cf604061016093610445610665565b61044d610680565b9082610140855161045d816106b8565b82815282602082015282878201528260608201528260808201528260a08201528260c08201528260e082015282610100820152826101208201520152600435835260036020528383209060018060a01b031683526020528282209060018060a01b03168252602052206064359061070d565b5061073f565b610140604051918051835260018060a01b03602082015116602084015260018060a01b03604082015116604084015260018060a01b03606082015116606084015260ff608082015116608084015260ff60a08201511660a084015260c081015160c084015260e081015160e08401526101008101516101008401526101208101516101208401520151610140820152f35b50346100dd57806003193601126100dd576020600954604051908152f35b50346100dd57806003193601126100dd5760206040517f058e802e2eed1657b621419f51940b8d60d9ff78dca249f390846067966953338152f35b50346100dd57806003193601126100dd576007546040516001600160a01b039091168152602090f35b905034610661576020366003190112610661576004359067ffffffffffffffff82116104085761018060031983360301126104085760ff6002541615610635575061017690600401610818565b62461bcd60e51b8152602060048201526007602482015266564d206f6e6c7960c81b6044820152606490fd5b5080fd5b602435906001600160a01b038216820361067b57565b600080fd5b604435906001600160a01b038216820361067b57565b35906001600160a01b038216820361067b57565b359060ff8216820361067b57565b610160810190811067ffffffffffffffff8211176106d557604052565b634e487b7160e01b600052604160045260246000fd5b90601f8019910116810190811067ffffffffffffffff8211176106d557604052565b8054821015610729576000526009602060002091020190600090565b634e487b7160e01b600052603260045260246000fd5b9060405161074c816106b8565b8254815260018301546001600160a01b0390811660208301526002840154811660408301526003840154908116606083015260ff60a082811c8216608085015260a89290921c1690820152600483015460c0820152600583015460e082015260068301546101008201526007830154610120820152600890920154610140830152565b91909160208152825180602083015260005b818110610802575060409293506000838284010152601f8019910116010190565b80602080928701015160408286010152016107e1565b6009546000198114610d3f576001016009557f058e802e2eed1657b621419f51940b8d60d9ff78dca249f3908460679669533360408201357f59c4902123db3b8141785fe1d345f34afe2798a1b67b127cb9e23ae711cddf6760606040518535815283602082015260e08601356040820152a1036110d95760c081013590601e198136030182121561067b578181013567ffffffffffffffff811161067b5760208383010190803603821361067b57610100838501918201919091031261067b576108e290610696565b6108f0604084840101610696565b916108ff6060858301016106aa565b61090d6080868401016106aa565b93600454808435146000146110d35750600554935b60405160609561093287836106eb565b6002825260208201601f198801368237825115610729578635905281516001101561072957604082979498939201526000955b8051871015610ee65760008151881015610ed25750600587901b81016020015193868a0160e0013580151590610ec2575b610eb45760008581526003602090815260408083206001600160a01b038d811685529083528184209087168452909152812099905b8a5480821015610e9c576109e26104cf838e61070d565b6101408101518015159081610e90575b50610e735760ff881660ff6080830151161480610e7d575b15610e7357600060ff8b1660011480610e66575b15610d9557508d60c0818d01013560c0830151149081610d81575b505b610a4b5750506001905b016109cb565b98509950999a505050505050610b6c624c4b40917f8dd725fa9d6cd150017ab9e60318d40616439424e2fade9c1c58854950917dfc610b9360045480883514600014610d6f576006546001600160a01b0316905b8403610d55578588610aff85610b2860018060a01b0360065416955b6020808e0151604051633139d9ab60e11b92810192909252306024830152606087013560448301526001600160a01b0316606482015293610b0d9085906084820190565b03601f1981018652856106eb565b6040516001600160a01b0390911694359390918291826107cf565b0390a48651604051633139d9ab60e11b6020820152306024820152604481019190915260808901356001600160a01b0316606482015294610b7a9086906084820190565b03601f1981018752866106eb565b6040516001600160a01b039091169490918291826107cf565b0390a451907ec414646b48cd4d9d3256391ddee84de51d6b1ad896e9ea6a5550b3b916c9246020606060405193428552013592a36000198101908111610d3f57610be0610be8918461070d565b50918361070d565b919091610c4b57808203610c77575b505080548015610c61576000190190610c10828261070d565b610c4b576008600091828155826001820155826002820155826003820155826004820155826005820155826006820155826007820155015555565b634e487b7160e01b600052600060045260246000fd5b634e487b7160e01b600052603160045260246000fd5b8054825560018082015490830180546001600160a01b03199081166001600160a01b03938416179091556002808401549085018054831691841691909117905560038084018054918601805493841692909416918217845580546001600160a81b03198416831760ff60a01b9091169081178555905460ff60a81b166001600160b01b03199093169091171717905560089081906004810154600485015560058101546005850155600681015460068501556007810154600785015501549101553880610bf7565b634e487b7160e01b600052601160045260246000fd5b8588610aff85610b2860018060a01b036007541695610abb565b6007546001600160a01b031690610a9f565b60a091508c01013560e0820151148e610a39565b60ff8b16158080610e5b575b15610dda5750508d60c0818d01013560c083015110159081610dc5575b505b610a3b565b60a091508c01013560e082015111158e610dbe565b60ff8c1660011480610e50575b15610e1d5750508d60c0818d01013560c083015110159081610e095750610a3b565b60a091508c01013560e0820151148e610dbe565b80610e43575b15610dc057508d60c0818d01013560c0830151149081610dc55750610a3b565b50600160ff8a1614610e23565b5060ff8a1615610de7565b5060ff8a1615610da1565b50600160ff8a1614610a1e565b5050600190610a45565b5060ff8a1660ff60a08301511614610a0a565b90508b351415386109f2565b5050945096600191929398505b019592969190610965565b966001919293989450610ea9565b508460e08b890101351415610996565b634e487b7160e01b81526032600452602490fd5b50843560009081526003602090815260408083206001600160a01b038086168552908352818420908b1684529091529081902090519198929793965094939091610f2f836106b8565b60608501358352602083019560018060a01b036080870135168752604084019260018060a01b038b1684528885019060018060a01b038716825260ff608087019116815260ff60a087019b168b5260c0860160a0858a010135815260e087019160c0868b0101358352610100880193610100878c01013585526101208901958b35875260e06101408b01988d01013588528054680100000000000000008110156106d557610fe29160018201815561070d565b999099610c4b575189559a516001890180546001600160a01b039283166001600160a01b031991821617909155975160028a018054918316919099161790975599516003880180549b519d5160ff60a81b60a89190911b166001600160b01b0319909c16919097161760ff60a01b60a09d909d1b9c909c169b909b17989098179093557fa99a17044e00645d33552d563bdca938e1668bc2d17ea74b506d4c1d4f3bf2e398606097600894915160048701555160058601555160068501555160078401555191015560408051833581526001600160a01b0397881660208201529190961695810195909552013592a2565b93610922565b50565b81471061119757816110ec575050565b600080916020936040519061110186836106eb565b83825285820191601f19870136843751926001600160a01b03165af13d15611192573d67ffffffffffffffff81116106d5576040519061114a601f8201601f19168501836106eb565b81526000833d92013e5b1561115c5750565b6064906040519062461bcd60e51b82526004820152600f60248201526e151c985b9cd9995c8819985a5b1959608a1b6044820152fd5b611154565b60405162461bcd60e51b8152602060048201526012602482015271496e73756666696369656e742066756e647360701b6044820152606490fdfea264697066735822122068c2ee69c2d4460f659eebca92bdeaee5f2d2597b8ef3257a454ae6bd8322e8664736f6c63430008210033","linkReferences":{}},"methodIdentifiers":{"ORDER_INITIATED_TOPIC()":"40800c49","chainA()":"874e6bc8","chainB()":"a12c915e","coverDebt()":"7a90b990","getOrder(uint256,address,address,uint256)":"578ebb59","getOrderCount(uint256,address,address)":"c74fb4c2","manualSubscribe(uint256,address)":"abc1fd9e","owner()":"8da5cb5b","pay(uint256)":"c290d691","react((uint256,address,uint256,uint256,uint256,uint256,bytes,uint256,uint256,uint256,uint256,uint256))":"0d152c2c","reactCount()":"4b6dd86f","walletSwapA()":"dc85ea0b","walletSwapB()":"10a4a506"},"id":24}