{"abi":[{"type":"constructor","inputs":[{"name":"_originChainId","type":"uint256","internalType":"uint256"},{"name":"_originContract","type":"address","internalType":"address"},{"name":"_destinationChainId","type":"uint256","internalType":"uint256"},{"name":"_callbackReceiver","type":"address","internalType":"address"}],"stateMutability":"payable"},{"type":"receive","stateMutability":"payable"},{"type":"function","name":"APPROVAL_TOPIC","inputs":[],"outputs":[{"name":"","type":"uint256","internalType":"uint256"}],"stateMutability":"view"},{"type":"function","name":"REACTIVE_IGNORE","inputs":[],"outputs":[{"name":"","type":"uint256","internalType":"uint256"}],"stateMutability":"view"},{"type":"function","name":"SERVICE_ADDR","inputs":[],"outputs":[{"name":"","type":"address","internalType":"contract ISystemContract"}],"stateMutability":"view"},{"type":"function","name":"callbackReceiver","inputs":[],"outputs":[{"name":"","type":"address","internalType":"address"}],"stateMutability":"view"},{"type":"function","name":"destinationChainId","inputs":[],"outputs":[{"name":"","type":"uint256","internalType":"uint256"}],"stateMutability":"view"},{"type":"function","name":"manualSubscribe","inputs":[],"outputs":[],"stateMutability":"nonpayable"},{"type":"function","name":"originChainId","inputs":[],"outputs":[{"name":"","type":"uint256","internalType":"uint256"}],"stateMutability":"view"},{"type":"function","name":"originContract","inputs":[],"outputs":[{"name":"","type":"address","internalType":"address"}],"stateMutability":"view"},{"type":"function","name":"react","inputs":[{"name":"log","type":"tuple","internalType":"struct IReactive.LogRecord","components":[{"name":"chain_id","type":"uint256","internalType":"uint256"},{"name":"_contract","type":"address","internalType":"address"},{"name":"topic_0","type":"uint256","internalType":"uint256"},{"name":"topic_1","type":"uint256","internalType":"uint256"},{"name":"topic_2","type":"uint256","internalType":"uint256"},{"name":"topic_3","type":"uint256","internalType":"uint256"},{"name":"data","type":"bytes","internalType":"bytes"}]}],"outputs":[],"stateMutability":"nonpayable"},{"type":"function","name":"reactCount","inputs":[],"outputs":[{"name":"","type":"uint256","internalType":"uint256"}],"stateMutability":"view"},{"type":"function","name":"vm","inputs":[],"outputs":[{"name":"","type":"bool","internalType":"bool"}],"stateMutability":"view"},{"type":"event","name":"Callback","inputs":[{"name":"chainId","type":"uint256","indexed":true,"internalType":"uint256"},{"name":"_contract","type":"address","indexed":true,"internalType":"address"},{"name":"gasLimit","type":"uint64","indexed":false,"internalType":"uint64"},{"name":"payload","type":"bytes","indexed":false,"internalType":"bytes"}],"anonymous":false},{"type":"event","name":"Reacted","inputs":[{"name":"chainId","type":"uint256","indexed":false,"internalType":"uint256"},{"name":"_contract","type":"address","indexed":false,"internalType":"address"},{"name":"topic0","type":"uint256","indexed":false,"internalType":"uint256"}],"anonymous":false},{"type":"event","name":"Subscribed","inputs":[{"name":"chainId","type":"uint256","indexed":false,"internalType":"uint256"},{"name":"_contract","type":"address","indexed":false,"internalType":"address"},{"name":"topic","type":"uint256","indexed":false,"internalType":"uint256"}],"anonymous":false}],"bytecode":{"object":"0x608060405260405161102b38038061102b8339818101604052810190610025919061034e565b835f819055508260015f6101000a81548173ffffffffffffffffffffffffffffffffffffffff021916908373ffffffffffffffffffffffffffffffffffffffff160217905550816002819055508060035f6101000a81548173ffffffffffffffffffffffffffffffffffffffff021916908373ffffffffffffffffffffffffffffffffffffffff1602179055506100c061026960201b60201c565b600360146101000a81548160ff021916908315150217905550600360149054906101000a900460ff166102605762ffffff73ffffffffffffffffffffffffffffffffffffffff16635a6aced05f5460015f9054906101000a900473ffffffffffffffffffffffffffffffffffffffff167f8c5be1e5ebec7d5bd14f71427d1e84f3dd0314c0f7b2291e5b200ac8c7c3b9257fa65f96fc951c35ead38878e0f0b7a3c744a6f5ccc1476b313353ce31712313ad807fa65f96fc951c35ead38878e0f0b7a3c744a6f5ccc1476b313353ce31712313ad6040518763ffffffff1660e01b81526004016101b5969594939291906103d0565b5f604051808303815f87803b1580156101cc575f5ffd5b505af11580156101de573d5f5f3e3d5ffd5b505050507fad24110dc4e3726555debcc81d3781cc9bc21a42b15c56fd9c90177a1a1007175f5460015f9054906101000a900473ffffffffffffffffffffffffffffffffffffffff167f8c5be1e5ebec7d5bd14f71427d1e84f3dd0314c0f7b2291e5b200ac8c7c3b9256040516102579392919061042f565b60405180910390a15b50505050610464565b5f5f737109709ecfa91a80626ff3989d68f67f5b1dd12d3f90505f5f1b81141580156102b757507fc5d2460186f7233c927e7db2dcc703c0e500b653ca82273b7bfad8045d85a4705f1b8114155b91505090565b5f5ffd5b5f819050919050565b6102d3816102c1565b81146102dd575f5ffd5b50565b5f815190506102ee816102ca565b92915050565b5f73ffffffffffffffffffffffffffffffffffffffff82169050919050565b5f61031d826102f4565b9050919050565b61032d81610313565b8114610337575f5ffd5b50565b5f8151905061034881610324565b92915050565b5f5f5f5f60808587031215610366576103656102bd565b5b5f610373878288016102e0565b94505060206103848782880161033a565b9350506040610395878288016102e0565b92505060606103a68782880161033a565b91505092959194509250565b6103bb816102c1565b82525050565b6103ca81610313565b82525050565b5f60c0820190506103e35f8301896103b2565b6103f060208301886103c1565b6103fd60408301876103b2565b61040a60608301866103b2565b61041760808301856103b2565b61042460a08301846103b2565b979650505050505050565b5f6060820190506104425f8301866103b2565b61044f60208301856103c1565b61045c60408301846103b2565b949350505050565b610bba806104715f395ff3fe60806040526004361061009f575f3560e01c80635a9125f8116100635780635a9125f81461017a5780638671b5da146101905780639afb416c146101ba578063b0750611146101e4578063e01c7ca71461020e578063edcc2ddd14610238576100a6565b80630ac7f561146100aa5780631d805b03146100d45780633a768463146100fe5780634237463b146101285780634b6dd86f14610150576100a6565b366100a657005b5f5ffd5b3480156100b5575f5ffd5b506100be610262565b6040516100cb91906106d4565b60405180910390f35b3480156100df575f5ffd5b506100e8610267565b6040516100f5919061072c565b60405180910390f35b348015610109575f5ffd5b5061011261028c565b60405161011f919061075f565b60405180910390f35b348015610133575f5ffd5b5061014e600480360381019061014991906107a2565b61029f565b005b34801561015b575f5ffd5b506101646104c8565b60405161017191906106d4565b60405180910390f35b348015610185575f5ffd5b5061018e6104ce565b005b34801561019b575f5ffd5b506101a4610642565b6040516101b191906106d4565b60405180910390f35b3480156101c5575f5ffd5b506101ce610666565b6040516101db919061072c565b60405180910390f35b3480156101ef575f5ffd5b506101f861068b565b60405161020591906106d4565b60405180910390f35b348015610219575f5ffd5b50610222610691565b60405161022f9190610844565b60405180910390f35b348015610243575f5ffd5b5061024c610698565b60405161025991906106d4565b60405180910390f35b5f5481565b60035f9054906101000a900473ffffffffffffffffffffffffffffffffffffffff1681565b600360149054906101000a900460ff1681565b62ffffff73ffffffffffffffffffffffffffffffffffffffff163373ffffffffffffffffffffffffffffffffffffffff1614806102e85750600360149054906101000a900460ff165b610327576040517f08c379a000000000000000000000000000000000000000000000000000000000815260040161031e906108b7565b60405180910390fd5b60045f81548092919061033990610902565b91905055507f33550d34d16f807fb7e0a8bd93b15b7ed76caf3ef22014c58eabbd2e58056dcf815f01358260200160208101906103769190610973565b836040013560405161038a9392919061099e565b60405180910390a17f8c5be1e5ebec7d5bd14f71427d1e84f3dd0314c0f7b2291e5b200ac8c7c3b9258160400135036104c5575f6040516024016103cd90610a1d565b6040516020818303038152906040527f3adb191b000000000000000000000000000000000000000000000000000000007bffffffffffffffffffffffffffffffffffffffffffffffffffffffff19166020820180517bffffffffffffffffffffffffffffffffffffffffffffffffffffffff8381831617835250505050905060035f9054906101000a900473ffffffffffffffffffffffffffffffffffffffff1673ffffffffffffffffffffffffffffffffffffffff166002547f8dd725fa9d6cd150017ab9e60318d40616439424e2fade9c1c58854950917dfc620f4240846040516104bb929190610af7565b60405180910390a3505b50565b60045481565b62ffffff73ffffffffffffffffffffffffffffffffffffffff16635a6aced05f5460015f9054906101000a900473ffffffffffffffffffffffffffffffffffffffff167f8c5be1e5ebec7d5bd14f71427d1e84f3dd0314c0f7b2291e5b200ac8c7c3b9257fa65f96fc951c35ead38878e0f0b7a3c744a6f5ccc1476b313353ce31712313ad807fa65f96fc951c35ead38878e0f0b7a3c744a6f5ccc1476b313353ce31712313ad6040518763ffffffff1660e01b815260040161059696959493929190610b25565b5f604051808303815f87803b1580156105ad575f5ffd5b505af11580156105bf573d5f5f3e3d5ffd5b505050507fad24110dc4e3726555debcc81d3781cc9bc21a42b15c56fd9c90177a1a1007175f5460015f9054906101000a900473ffffffffffffffffffffffffffffffffffffffff167f8c5be1e5ebec7d5bd14f71427d1e84f3dd0314c0f7b2291e5b200ac8c7c3b9256040516106389392919061099e565b60405180910390a1565b7fa65f96fc951c35ead38878e0f0b7a3c744a6f5ccc1476b313353ce31712313ad81565b60015f9054906101000a900473ffffffffffffffffffffffffffffffffffffffff1681565b60025481565b62ffffff81565b7f8c5be1e5ebec7d5bd14f71427d1e84f3dd0314c0f7b2291e5b200ac8c7c3b92581565b5f819050919050565b6106ce816106bc565b82525050565b5f6020820190506106e75f8301846106c5565b92915050565b5f73ffffffffffffffffffffffffffffffffffffffff82169050919050565b5f610716826106ed565b9050919050565b6107268161070c565b82525050565b5f60208201905061073f5f83018461071d565b92915050565b5f8115159050919050565b61075981610745565b82525050565b5f6020820190506107725f830184610750565b92915050565b5f5ffd5b5f5ffd5b5f5ffd5b5f60e0828403121561079957610798610780565b5b81905092915050565b5f602082840312156107b7576107b6610778565b5b5f82013567ffffffffffffffff8111156107d4576107d361077c565b5b6107e084828501610784565b91505092915050565b5f819050919050565b5f61080c610807610802846106ed565b6107e9565b6106ed565b9050919050565b5f61081d826107f2565b9050919050565b5f61082e82610813565b9050919050565b61083e81610824565b82525050565b5f6020820190506108575f830184610835565b92915050565b5f82825260208201905092915050565b7f556e617574686f72697a656400000000000000000000000000000000000000005f82015250565b5f6108a1600c8361085d565b91506108ac8261086d565b602082019050919050565b5f6020820190508181035f8301526108ce81610895565b9050919050565b7f4e487b71000000000000000000000000000000000000000000000000000000005f52601160045260245ffd5b5f61090c826106bc565b91507fffffffffffffffffffffffffffffffffffffffffffffffffffffffffffffffff820361093e5761093d6108d5565b5b600182019050919050565b6109528161070c565b811461095c575f5ffd5b50565b5f8135905061096d81610949565b92915050565b5f6020828403121561098857610987610778565b5b5f6109958482850161095f565b91505092915050565b5f6060820190506109b15f8301866106c5565b6109be602083018561071d565b6109cb60408301846106c5565b949350505050565b7f48656c6c6f2066726f6d205265616374697665210000000000000000000000005f82015250565b5f610a0760148361085d565b9150610a12826109d3565b602082019050919050565b5f6020820190508181035f830152610a34816109fb565b9050919050565b5f819050919050565b5f67ffffffffffffffff82169050919050565b5f610a71610a6c610a6784610a3b565b6107e9565b610a44565b9050919050565b610a8181610a57565b82525050565b5f81519050919050565b5f82825260208201905092915050565b8281835e5f83830152505050565b5f601f19601f8301169050919050565b5f610ac982610a87565b610ad38185610a91565b9350610ae3818560208601610aa1565b610aec81610aaf565b840191505092915050565b5f604082019050610b0a5f830185610a78565b8181036020830152610b1c8184610abf565b90509392505050565b5f60c082019050610b385f8301896106c5565b610b45602083018861071d565b610b5260408301876106c5565b610b5f60608301866106c5565b610b6c60808301856106c5565b610b7960a08301846106c5565b97965050505050505056fea2646970667358221220adada115723c3c66a06f2a57b511c20eca2addba78e6696c9802b0e7a8f8ce2264736f6c63430008210033","linkReferences":{}},"methodIdentifiers":{"APPROVAL_TOPIC()":"edcc2ddd","REACTIVE_IGNORE()":"8671b5da","SERVICE_ADDR()":"e01c7ca7","callbackReceiver()":"1d805b03","destinationChainId()":"b0750611","manualSubscribe()":"5a9125f8","originChainId()":"0ac7f561","originContract()":"9afb416c","react((uint256,address,uint256,uint256,uint256,uint256,bytes))":"4237463b","reactCount()":"4b6dd86f","vm()":"3a768463"},"id":17}