{"abi":[{"type":"constructor","inputs":[{"name":"_defaultTrustWallet","type":"address","internalType":"address"}],"stateMutability":"nonpayable"},{"type":"receive","stateMutability":"payable"},{"type":"function","name":"FEE_RATE","inputs":[],"outputs":[{"name":"","type":"uint256","internalType":"uint256"}],"stateMutability":"view"},{"type":"function","name":"MIN_FEE_MINUTES","inputs":[],"outputs":[{"name":"","type":"uint256","internalType":"uint256"}],"stateMutability":"view"},{"type":"function","name":"SYSTEM_CONTRACT","inputs":[],"outputs":[{"name":"","type":"address","internalType":"address"}],"stateMutability":"view"},{"type":"function","name":"accumulatedFees","inputs":[{"name":"","type":"address","internalType":"address"}],"outputs":[{"name":"","type":"uint256","internalType":"uint256"}],"stateMutability":"view"},{"type":"function","name":"autoCheckAndCoverDebt","inputs":[{"name":"reactiveContract","type":"address","internalType":"address"},{"name":"token","type":"address","internalType":"address"}],"outputs":[],"stateMutability":"nonpayable"},{"type":"function","name":"bulkSetTrustWalletAddresses","inputs":[{"name":"tokens","type":"address[]","internalType":"address[]"},{"name":"wallets","type":"address[]","internalType":"address[]"}],"outputs":[],"stateMutability":"nonpayable"},{"type":"function","name":"calculateFee","inputs":[{"name":"","type":"address","internalType":"address"},{"name":"assetType","type":"uint8","internalType":"enum TrustWalletFeeDistributor.AssetType"},{"name":"amount","type":"uint256","internalType":"uint256"},{"name":"minutesValuation","type":"uint256","internalType":"uint256"}],"outputs":[{"name":"","type":"uint256","internalType":"uint256"}],"stateMutability":"pure"},{"type":"function","name":"contractsWithDebt","inputs":[{"name":"","type":"uint256","internalType":"uint256"}],"outputs":[{"name":"","type":"address","internalType":"address"}],"stateMutability":"view"},{"type":"function","name":"coverReactiveDebt","inputs":[{"name":"reactiveContract","type":"address","internalType":"address"},{"name":"token","type":"address","internalType":"address"}],"outputs":[],"stateMutability":"payable"},{"type":"function","name":"debtCoverageThreshold","inputs":[],"outputs":[{"name":"","type":"uint256","internalType":"uint256"}],"stateMutability":"view"},{"type":"function","name":"debtsCovered","inputs":[{"name":"","type":"address","internalType":"address"}],"outputs":[{"name":"","type":"uint256","internalType":"uint256"}],"stateMutability":"view"},{"type":"function","name":"defaultTrustWallet","inputs":[],"outputs":[{"name":"","type":"address","internalType":"address"}],"stateMutability":"view"},{"type":"function","name":"distributeFee","inputs":[{"name":"token","type":"address","internalType":"address"},{"name":"assetType","type":"uint8","internalType":"enum TrustWalletFeeDistributor.AssetType"},{"name":"amount","type":"uint256","internalType":"uint256"},{"name":"minutesValuation","type":"uint256","internalType":"uint256"},{"name":"sender","type":"address","internalType":"address"},{"name":"orderId","type":"bytes32","internalType":"bytes32"}],"outputs":[{"name":"","type":"uint256","internalType":"uint256"}],"stateMutability":"payable"},{"type":"function","name":"feeHistory","inputs":[{"name":"","type":"uint256","internalType":"uint256"}],"outputs":[{"name":"token","type":"address","internalType":"address"},{"name":"recipient","type":"address","internalType":"address"},{"name":"amount","type":"uint256","internalType":"uint256"},{"name":"timestamp","type":"uint256","internalType":"uint256"},{"name":"orderId","type":"bytes32","internalType":"bytes32"}],"stateMutability":"view"},{"type":"function","name":"getAccumulatedFees","inputs":[{"name":"token","type":"address","internalType":"address"}],"outputs":[{"name":"","type":"uint256","internalType":"uint256"}],"stateMutability":"view"},{"type":"function","name":"getContractWithDebt","inputs":[{"name":"index","type":"uint256","internalType":"uint256"}],"outputs":[{"name":"","type":"address","internalType":"address"}],"stateMutability":"view"},{"type":"function","name":"getContractsWithDebtCount","inputs":[],"outputs":[{"name":"","type":"uint256","internalType":"uint256"}],"stateMutability":"view"},{"type":"function","name":"getFeeHistoryLength","inputs":[],"outputs":[{"name":"","type":"uint256","internalType":"uint256"}],"stateMutability":"view"},{"type":"function","name":"getFeeRecord","inputs":[{"name":"index","type":"uint256","internalType":"uint256"}],"outputs":[{"name":"","type":"tuple","internalType":"struct TrustWalletFeeDistributor.FeeRecord","components":[{"name":"token","type":"address","internalType":"address"},{"name":"recipient","type":"address","internalType":"address"},{"name":"amount","type":"uint256","internalType":"uint256"},{"name":"timestamp","type":"uint256","internalType":"uint256"},{"name":"orderId","type":"bytes32","internalType":"bytes32"}]}],"stateMutability":"view"},{"type":"function","name":"getTotalDebtsCovered","inputs":[{"name":"reactiveContract","type":"address","internalType":"address"}],"outputs":[{"name":"","type":"uint256","internalType":"uint256"}],"stateMutability":"view"},{"type":"function","name":"getTrustWalletForToken","inputs":[{"name":"token","type":"address","internalType":"address"}],"outputs":[{"name":"","type":"address","internalType":"address"}],"stateMutability":"view"},{"type":"function","name":"isNativeToken","inputs":[{"name":"token","type":"address","internalType":"address"}],"outputs":[{"name":"","type":"bool","internalType":"bool"}],"stateMutability":"pure"},{"type":"function","name":"isReactiveContract","inputs":[{"name":"","type":"address","internalType":"address"}],"outputs":[{"name":"","type":"bool","internalType":"bool"}],"stateMutability":"view"},{"type":"function","name":"owner","inputs":[],"outputs":[{"name":"","type":"address","internalType":"address"}],"stateMutability":"view"},{"type":"function","name":"registerReactiveContract","inputs":[{"name":"reactiveContract","type":"address","internalType":"address"}],"outputs":[],"stateMutability":"nonpayable"},{"type":"function","name":"renounceOwnership","inputs":[],"outputs":[],"stateMutability":"nonpayable"},{"type":"function","name":"setDebtCoverageThreshold","inputs":[{"name":"newThreshold","type":"uint256","internalType":"uint256"}],"outputs":[],"stateMutability":"nonpayable"},{"type":"function","name":"setDefaultTrustWallet","inputs":[{"name":"wallet","type":"address","internalType":"address"}],"outputs":[],"stateMutability":"nonpayable"},{"type":"function","name":"setTrustWalletAddress","inputs":[{"name":"token","type":"address","internalType":"address"},{"name":"wallet","type":"address","internalType":"address"}],"outputs":[],"stateMutability":"nonpayable"},{"type":"function","name":"transferOwnership","inputs":[{"name":"newOwner","type":"address","internalType":"address"}],"outputs":[],"stateMutability":"nonpayable"},{"type":"function","name":"trustWalletAddresses","inputs":[{"name":"","type":"address","internalType":"address"}],"outputs":[{"name":"","type":"address","internalType":"address"}],"stateMutability":"view"},{"type":"function","name":"unregisterReactiveContract","inputs":[{"name":"reactiveContract","type":"address","internalType":"address"}],"outputs":[],"stateMutability":"nonpayable"},{"type":"function","name":"withdrawFees","inputs":[{"name":"token","type":"address","internalType":"address"}],"outputs":[],"stateMutability":"nonpayable"},{"type":"event","name":"DebtCoverageThresholdUpdated","inputs":[{"name":"newThreshold","type":"uint256","indexed":false,"internalType":"uint256"}],"anonymous":false},{"type":"event","name":"DebtCovered","inputs":[{"name":"reactiveContract","type":"address","indexed":true,"internalType":"address"},{"name":"amount","type":"uint256","indexed":false,"internalType":"uint256"},{"name":"timestamp","type":"uint256","indexed":false,"internalType":"uint256"}],"anonymous":false},{"type":"event","name":"DefaultTrustWalletSet","inputs":[{"name":"wallet","type":"address","indexed":false,"internalType":"address"}],"anonymous":false},{"type":"event","name":"FeeDistributed","inputs":[{"name":"token","type":"address","indexed":true,"internalType":"address"},{"name":"recipient","type":"address","indexed":true,"internalType":"address"},{"name":"amount","type":"uint256","indexed":false,"internalType":"uint256"},{"name":"orderId","type":"bytes32","indexed":true,"internalType":"bytes32"},{"name":"timestamp","type":"uint256","indexed":false,"internalType":"uint256"}],"anonymous":false},{"type":"event","name":"FeeDistributorInitialized","inputs":[{"name":"owner","type":"address","indexed":true,"internalType":"address"},{"name":"defaultWallet","type":"address","indexed":false,"internalType":"address"}],"anonymous":false},{"type":"event","name":"OwnershipTransferred","inputs":[{"name":"previousOwner","type":"address","indexed":true,"internalType":"address"},{"name":"newOwner","type":"address","indexed":true,"internalType":"address"}],"anonymous":false},{"type":"event","name":"ReactiveContractRegistered","inputs":[{"name":"contractAddr","type":"address","indexed":true,"internalType":"address"},{"name":"isReactive","type":"bool","indexed":false,"internalType":"bool"}],"anonymous":false},{"type":"event","name":"TrustWalletAddressSet","inputs":[{"name":"token","type":"address","indexed":true,"internalType":"address"},{"name":"wallet","type":"address","indexed":false,"internalType":"address"}],"anonymous":false}],"bytecode":{"object":"0x60803461016257601f611caf38819003918201601f19168301916001600160401b038311848410176101675780849260209460405283398101031261016257516001600160a01b038116908190036101625760008054336001600160a01b03198216811783556040519290916001600160a01b0316907f8be0079c531659141344cd1fd0a4f28419497f9722a3daafe3b4186f6b6457e09080a3662386f26fc100006007558115610120577ff6037bafb2d7efe72a6c8833e19e94cf966f3034294060988897cace3b4bf2656020838060018060a01b031960025416176002556040518181527fb7eb30dc63925b699e137f9113fd2814a6f7613e812de07ea4c56a63f44970b3833392a2604051908152a1604051611b31908161017e8239f35b62461bcd60e51b815260206004820152601660248201527f496e76616c69642064656661756c742077616c6c6574000000000000000000006044820152606490fd5b600080fd5b634e487b7160e01b600052604160045260246000fdfe6080604052600436101561001b575b361561001957600080fd5b005b60003560e01c806309f7259b146114ca5780630ca0b6d3146114885780630d3517cf1461145f5780630d35a167146113f2578063164e68de146112a15780632d11c58a146112855780632d8897a1146112465780632db8cef31461121957806332306162146111fb5780633bd7dc5d1461106357806345b315b014610ff05780634e68a51214610fc5578063524c289114610d73578063551d4a59146108fc578063564201f91461018c5780636a18a5f9146108de578063715018a6146108855780637573ca921461086757806381ae4a701461081b578063862e6817146107da5780638da5cb5b146107b1578063916086e014610604578063a16e8941146101e9578063a88c0a06146105e8578063ad8b13911461057d578063bddddbab146104da578063c420f0591461040e578063ec3647551461032c578063f2fde38b14610265578063f43877ab14610223578063fc8d53f4146101e9578063fcf36898146101cb5763fcf666640361000e575b346101c65760203660031901126101c6576001600160a01b036101ad611542565b1660005260046020526020604060002054604051908152f35b600080fd5b346101c65760003660031901126101c6576020600354604051908152f35b346101c65760203660031901126101c6576001600160a01b0361020a611542565b1660005260056020526020604060002054604051908152f35b346101c65760203660031901126101c6576004356006548110156101c65761024c6020916115d4565b905460405160039290921b1c6001600160a01b03168152f35b346101c65760203660031901126101c65761027e611542565b6102866118de565b6001600160a01b031680156102d857600080546001600160a01b03198116831782556001600160a01b0316907f8be0079c531659141344cd1fd0a4f28419497f9722a3daafe3b4186f6b6457e09080a3005b60405162461bcd60e51b815260206004820152602660248201527f4f776e61626c653a206e6577206f776e657220697320746865207a65726f206160448201526564647265737360d01b6064820152608490fd5b346101c65760203660031901126101c657610345611542565b61034d6118de565b6001600160a01b03166103618115156115ef565b80600052600860205260ff604060002054161561037a57005b8060005260086020526040600020600160ff19825416179055600654600160401b8110156103f8578060016103b292016006556115d4565b81549060031b9083821b9160018060a01b03901b19161790557f6899f537de8826f5e893752eade33397c7be98b908e5858a18ba25da7a2c622b602060405160018152a2005b634e487b7160e01b600052604160045260246000fd5b346101c65760203660031901126101c65760a0610460600435600060806040516104378161162e565b828152826020820152826040820152826060820152015261045b6003548210611749565b61156e565b5060405161046d8161162e565b600180841b0382541691828252600180851b036001820154166020830190815260028201549060408401918252608060046003850154946060870195865201549401938452604051948552600180871b039051166020850152516040840152516060830152516080820152f35b346101c65760403660031901126101c6576104f3611542565b7f894dec398e2419b3582d6a351352f5c67293d9202f01ee15c24f84cb565eaf80602061051e611558565b926105276118de565b6001600160a01b03169261053c8415156116d0565b6001600160a01b031661055081151561170c565b83600052600182526040600020816bffffffffffffffffffffffff60a01b825416179055604051908152a2005b346101c65760203660031901126101c6576001600160a01b0361059e611542565b166000908152600160205260409020546001600160a01b031680156105d3576020905b6040516001600160a01b039091168152f35b506002546020906001600160a01b03166105c1565b346101c65760003660031901126101c657602060405160008152f35b346101c65760403660031901126101c65761061d611542565b610625611558565b6001600160a01b039091169061063c8215156115ef565b81600052600860205261065660ff6040600020541661178b565b6001600160a01b0316600081815260046020526040902054600754111561067957005b6000806040516020810190632ecd4e7d60e01b8252856024820152602481526106a360448261164a565b519062ffffff5afa6106b361166c565b90806107a7575b6106c057005b8051602080830192600092810103126107a4575051908115158061078c575b6106e557005b600080604051602081019063b760faf960e01b82528660248201526024815261070f60448261164a565b51908562ffffff5af161072061166c565b5015610019577f48e5ab2e54781b9981ff25b9e51100f7441e9083e82300d41e1ef9dbb3d86c5b916040916000526004602052816000206107628282546117d7565b90558360005260056020528160002061077c8282546117fa565b90558151908152426020820152a2005b508060005260046020528160406000205410156106df565b80fd5b50805115156106ba565b346101c65760003660031901126101c6576000546040516001600160a01b039091168152602090f35b346101c65760803660031901126101c6576107f3611542565b5060243560028110156101c6576108136020916064359060443590611807565b604051908152f35b346101c65760203660031901126101c6577f52874ced8e4305fc1ebe94dc5d6205bf67bf916a0c7c4dc05e6b3e42b425b9d0602060043561085a6118de565b80600755604051908152a1005b346101c65760003660031901126101c657602060405162ffffff8152f35b346101c65760003660031901126101c65761089e6118de565b600080546001600160a01b0319811682556001600160a01b03167f8be0079c531659141344cd1fd0a4f28419497f9722a3daafe3b4186f6b6457e08280a3005b346101c65760003660031901126101c6576020600654604051908152f35b60c03660031901126101c657610910611542565b6024359060028210156101c6576084356001600160a01b03811692908390036101c65760a435908315610d3d5761094c60643560443583611807565b928361095e575b602084604051908152f35b6001600160a01b039081166000818152600160205260409020549095911615610d2b576000858152600160205260409020546001600160a01b0316905b6001600160a01b038216928315610cef578615908115610ce4575b5015610ca35750833410610c4b578390600080806040516020810190632ecd4e7d60e01b8252336024820152602481526109f160448261164a565b519062ffffff5afa610a0161166c565b9080610c41575b610c24575b5080610b73575b5081610b10575b50505b60405193610a2b8561162e565b80855260208501948286526040810190858252606081014281526080820190868252600354600160401b8110156103f857806001610a6c920160035561156e565b949094610afa57925184546001600160a01b03199081166001600160a01b039283161786559951600186018054909b169116179098559051600283015595516003820155945160049590950194909455604080518481524260208281019190915295917f1e1e59ba994a6c1733c7b48707becd3c9ed68e7c24edb9d0e52aa049690f803391a4828080610953565b634e487b7160e01b600052600060045260246000fd5b600080809381935af1610b2161166c565b5015610b2e578480610a1b565b60405162461bcd60e51b815260206004820152601f60248201527f5472616e7366657220746f2054727573742057616c6c6574206661696c6564006044820152606490fd5b80861115610c1d575b600080604051602081019063b760faf960e01b825233602482015260248152610ba660448261164a565b51908462ffffff5af1610bb761166c565b5015610a14579150610bc982866117d7565b913360005260056020526040600020610be38282546117fa565b90556040519081524260208201527f48e5ab2e54781b9981ff25b9e51100f7441e9083e82300d41e1ef9dbb3d86c5b60403392a286610a14565b5084610b7c565b90602082519281808201948592010103126107a457505187610a0d565b5080511515610a08565b60405162461bcd60e51b815260206004820152602a60248201527f496e73756666696369656e74206665652070726f766964656420696e206e617460448201526969766520746f6b656e7360b01b6064820152608490fd5b610cdf9150604051906323b872dd60e01b6020830152602482015282604482015284606482015260648152610cd960848261164a565b85611936565b610a1e565b6001915014876109b6565b60405162461bcd60e51b8152602060048201526014602482015273151c9d5cdd0815d85b1b195d081b9bdd081cd95d60621b6044820152606490fd5b6002546001600160a01b03169061099b565b60405162461bcd60e51b815260206004820152600e60248201526d24b73b30b634b21039b2b73232b960911b6044820152606490fd5b60403660031901126101c657610d87611542565b610d8f611558565b6001600160a01b0390911690610da68215156115ef565b816000526008602052610dc060ff6040600020541661178b565b600080806040516020810190632ecd4e7d60e01b825286602482015260248152610deb60448261164a565b519062ffffff5afa610dfb61166c565b9080610fbb575b610f9e575b508015610f6357341590600082610f47575034905b8110610f0357600080604051602081019063b760faf960e01b825287602482015260248152610e4c60448261164a565b51908462ffffff5af1610e5d61166c565b5015610ecd577f48e5ab2e54781b9981ff25b9e51100f7441e9083e82300d41e1ef9dbb3d86c5b92604092610ea6575b508360005260056020528160002061077c8282546117fa565b60018060a01b0316600052600460205281600020610ec58282546117d7565b905584610e8d565b60405162461bcd60e51b815260206004820152600e60248201526d11195c1bdcda5d0819985a5b195960921b6044820152606490fd5b606460405162461bcd60e51b815260206004820152602060248201527f496e73756666696369656e742066756e647320746f20636f76657220646562746044820152fd5b6001600160a01b03841681526004602052604090205490610e1c565b60405162461bcd60e51b8152602060048201526013602482015272139bc81bdd5d1cdd185b991a5b99c81919589d606a1b6044820152606490fd5b90602082519281808201948592010103126107a457505183610e07565b5080511515610e02565b346101c65760203660031901126101c657602061024c600435610feb6006548210611749565b6115d4565b346101c65760203660031901126101c6577ff6037bafb2d7efe72a6c8833e19e94cf966f3034294060988897cace3b4bf265602061102c611542565b6110346118de565b6001600160a01b031661104881151561170c565b600280546001600160a01b03191682179055604051908152a1005b346101c65760403660031901126101c65760043567ffffffffffffffff81116101c6576110949036906004016115a3565b60243567ffffffffffffffff81116101c6576110b49036906004016115a3565b926110bd6118de565b8383036111be5760005b8381106110d057005b6001906110f96001600160a01b036110f16110ec8489886116ac565b6116bc565b1615156116d0565b611118828060a01b036111106110ec848a896116ac565b16151561170c565b6111266110ec8288876116ac565b828060a01b0361113a6110ec8489886116ac565b1660005282602052604060002090838060a01b03166bffffffffffffffffffffffff60a01b8254161790556111736110ec8287866116ac565b7f894dec398e2419b3582d6a351352f5c67293d9202f01ee15c24f84cb565eaf8060206111a46110ec858b8a6116ac565b60405160a087901b8790039182168152931692a2016110c7565b60405162461bcd60e51b8152602060048201526015602482015274082e4e4c2f240d8cadccee8d040dad2e6dac2e8c6d605b1b6044820152606490fd5b346101c65760003660031901126101c6576020600754604051908152f35b346101c65760203660031901126101c65760206001600160a01b0361123c611542565b1615604051908152f35b346101c65760203660031901126101c6576001600160a01b03611267611542565b166000526008602052602060ff604060002054166040519015158152f35b346101c65760003660031901126101c657602060405160648152f35b346101c65760203660031901126101c6576112ba611542565b6112c26118de565b6001600160a01b03166000818152600460205260409020549081156113b757600081815260046020908152604080832083905560019091529020546001600160a01b03169081156113a4575b806113645750600080809381935af161132561166c565b501561132d57005b60405162461bcd60e51b815260206004820152600f60248201526e151c985b9cd9995c8819985a5b1959608a1b6044820152606490fd5b60405163a9059cbb60e01b60208201526001600160a01b0390921660248301526044808301939093529181526100199161139f60648361164a565b611936565b6002546001600160a01b0316915061130e565b60405162461bcd60e51b81526020600482015260136024820152724e6f206665657320746f20776974686472617760681b6044820152606490fd5b346101c65760203660031901126101c6576004356003548110156101c65761141b60a09161156e565b50600180831b0381541690600180841b0360018201541690600281015460046003830154920154926040519485526020850152604084015260608301526080820152f35b346101c65760003660031901126101c6576002546040516001600160a01b039091168152602090f35b346101c65760203660031901126101c6576001600160a01b036114a9611542565b166000526001602052602060018060a01b0360406000205416604051908152f35b346101c65760203660031901126101c6576114e3611542565b6114eb6118de565b6001600160a01b03166114ff8115156115ef565b806000526008602052604060002060ff1981541690557f6899f537de8826f5e893752eade33397c7be98b908e5858a18ba25da7a2c622b602060405160008152a2005b600435906001600160a01b03821682036101c657565b602435906001600160a01b03821682036101c657565b60035481101561158d5760036000526005602060002091020190600090565b634e487b7160e01b600052603260045260246000fd5b9181601f840112156101c65782359167ffffffffffffffff83116101c6576020808501948460051b0101116101c657565b60065481101561158d57600660005260206000200190600090565b156115f657565b60405162461bcd60e51b815260206004820152601060248201526f125b9d985b1a590818dbdb9d1c9858dd60821b6044820152606490fd5b60a0810190811067ffffffffffffffff8211176103f857604052565b90601f8019910116810190811067ffffffffffffffff8211176103f857604052565b3d156116a7573d9067ffffffffffffffff82116103f8576040519161169b601f8201601f19166020018461164a565b82523d6000602084013e565b606090565b919081101561158d5760051b0190565b356001600160a01b03811681036101c65790565b156116d757565b60405162461bcd60e51b815260206004820152600d60248201526c24b73b30b634b2103a37b5b2b760991b6044820152606490fd5b1561171357565b60405162461bcd60e51b815260206004820152600e60248201526d125b9d985b1a59081dd85b1b195d60921b6044820152606490fd5b1561175057565b60405162461bcd60e51b8152602060048201526013602482015272496e646578206f7574206f6620626f756e647360681b6044820152606490fd5b1561179257565b60405162461bcd60e51b815260206004820152601760248201527f436f6e7472616374206e6f7420726567697374657265640000000000000000006044820152606490fd5b919082039182116117e457565b634e487b7160e01b600052601160045260246000fd5b919082018092116117e457565b91909160028110156118c8576001146118ad576064820282159281046064148317156117e45761271090049080159060648102046064148117156117e4578015806118a5575b15611898576118825760018217156117e45760009115611879575b80821115611874575090565b905090565b60019150611868565b634e487b7160e01b600052601260045260246000fd5b9091506118a25790565b90565b50600061184d565b6064808202925081159183041417156117e457612710900490565b634e487b7160e01b600052602160045260246000fd5b6000546001600160a01b031633036118f257565b606460405162461bcd60e51b815260206004820152602060248201527f4f776e61626c653a2063616c6c6572206973206e6f7420746865206f776e65726044820152fd5b60408051909261199b926001600160a01b0316906000908190611959878661164a565b602085527f5361666545524332303a206c6f772d6c6576656c2063616c6c206661696c6564602086015260208151910182855af161199561166c565b91611a2b565b8051908115918215611a08575b5050156119b25750565b5162461bcd60e51b815260206004820152602a60248201527f5361666545524332303a204552433230206f7065726174696f6e20646964206e6044820152691bdd081cdd58d8d9595960b21b6064820152608490fd5b81925090602091810103126101c6576020015180151581036101c65738806119a8565b91929015611a8d5750815115611a3f575090565b3b15611a485790565b60405162461bcd60e51b815260206004820152601d60248201527f416464726573733a2063616c6c20746f206e6f6e2d636f6e74726163740000006044820152606490fd5b825190915015611aa05750805190602001fd5b6040519062461bcd60e51b8252602060048301528181519182602483015260005b838110611ae35750508160006044809484010152601f80199101168101030190fd5b60208282018101516044878401015285935001611ac156fea26469706673582212206eaf74ea6a86a5a7837a3f2f14f307a69753da1561778e04e88fb78eafbdcc4564736f6c63430008210033","linkReferences":{}},"methodIdentifiers":{"FEE_RATE()":"2d11c58a","MIN_FEE_MINUTES()":"a88c0a06","SYSTEM_CONTRACT()":"7573ca92","accumulatedFees(address)":"fcf66664","autoCheckAndCoverDebt(address,address)":"916086e0","bulkSetTrustWalletAddresses(address[],address[])":"3bd7dc5d","calculateFee(address,uint8,uint256,uint256)":"862e6817","contractsWithDebt(uint256)":"f43877ab","coverReactiveDebt(address,address)":"524c2891","debtCoverageThreshold()":"32306162","debtsCovered(address)":"fc8d53f4","defaultTrustWallet()":"0d3517cf","distributeFee(address,uint8,uint256,uint256,address,bytes32)":"551d4a59","feeHistory(uint256)":"0d35a167","getAccumulatedFees(address)":"564201f9","getContractWithDebt(uint256)":"4e68a512","getContractsWithDebtCount()":"6a18a5f9","getFeeHistoryLength()":"fcf36898","getFeeRecord(uint256)":"c420f059","getTotalDebtsCovered(address)":"a16e8941","getTrustWalletForToken(address)":"ad8b1391","isNativeToken(address)":"2db8cef3","isReactiveContract(address)":"2d8897a1","owner()":"8da5cb5b","registerReactiveContract(address)":"ec364755","renounceOwnership()":"715018a6","setDebtCoverageThreshold(uint256)":"81ae4a70","setDefaultTrustWallet(address)":"45b315b0","setTrustWalletAddress(address,address)":"bddddbab","transferOwnership(address)":"f2fde38b","trustWalletAddresses(address)":"0ca0b6d3","unregisterReactiveContract(address)":"09f7259b","withdrawFees(address)":"164e68de"},"id":66}