{"abi":[{"type":"constructor","inputs":[{"name":"_originChainId","type":"uint256","internalType":"uint256"},{"name":"_originOrderProcessor","type":"address","internalType":"address"},{"name":"_originWalletSwapMain","type":"address","internalType":"address"},{"name":"_destinationChainId","type":"uint256","internalType":"uint256"},{"name":"_destinationOrderProcessor","type":"address","internalType":"address"},{"name":"_destinationWalletSwapMain","type":"address","internalType":"address"}],"stateMutability":"payable"},{"type":"receive","stateMutability":"payable"},{"type":"function","name":"ORDER_CREATED_TOPIC_0","inputs":[],"outputs":[{"name":"","type":"uint256","internalType":"uint256"}],"stateMutability":"view"},{"type":"function","name":"coverDebt","inputs":[],"outputs":[],"stateMutability":"nonpayable"},{"type":"function","name":"destinationChainId","inputs":[],"outputs":[{"name":"","type":"uint256","internalType":"uint256"}],"stateMutability":"view"},{"type":"function","name":"destinationOrderProcessor","inputs":[],"outputs":[{"name":"","type":"address","internalType":"address"}],"stateMutability":"view"},{"type":"function","name":"destinationWalletSwapMain","inputs":[],"outputs":[{"name":"","type":"address","internalType":"address"}],"stateMutability":"view"},{"type":"function","name":"orderBookByChain","inputs":[{"name":"","type":"uint256","internalType":"uint256"},{"name":"","type":"address","internalType":"address"},{"name":"","type":"address","internalType":"address"},{"name":"","type":"uint256","internalType":"uint256"}],"outputs":[{"name":"orderId","type":"bytes32","internalType":"bytes32"},{"name":"maker","type":"address","internalType":"address"},{"name":"tokenIn","type":"address","internalType":"address"},{"name":"tokenOut","type":"address","internalType":"address"},{"name":"amountIn","type":"uint256","internalType":"uint256"},{"name":"amountOut","type":"uint256","internalType":"uint256"},{"name":"sourceChainId","type":"uint256","internalType":"uint256"}],"stateMutability":"view"},{"type":"function","name":"originChainId","inputs":[],"outputs":[{"name":"","type":"uint256","internalType":"uint256"}],"stateMutability":"view"},{"type":"function","name":"originOrderProcessor","inputs":[],"outputs":[{"name":"","type":"address","internalType":"address"}],"stateMutability":"view"},{"type":"function","name":"originWalletSwapMain","inputs":[],"outputs":[{"name":"","type":"address","internalType":"address"}],"stateMutability":"view"},{"type":"function","name":"pay","inputs":[{"name":"amount","type":"uint256","internalType":"uint256"}],"outputs":[],"stateMutability":"nonpayable"},{"type":"function","name":"react","inputs":[{"name":"log","type":"tuple","internalType":"struct IReactive.LogRecord","components":[{"name":"chain_id","type":"uint256","internalType":"uint256"},{"name":"_contract","type":"address","internalType":"address"},{"name":"topic_0","type":"uint256","internalType":"uint256"},{"name":"topic_1","type":"uint256","internalType":"uint256"},{"name":"topic_2","type":"uint256","internalType":"uint256"},{"name":"topic_3","type":"uint256","internalType":"uint256"},{"name":"data","type":"bytes","internalType":"bytes"},{"name":"block_number","type":"uint256","internalType":"uint256"},{"name":"op_code","type":"uint256","internalType":"uint256"},{"name":"block_hash","type":"uint256","internalType":"uint256"},{"name":"tx_hash","type":"uint256","internalType":"uint256"},{"name":"log_index","type":"uint256","internalType":"uint256"}]}],"outputs":[],"stateMutability":"nonpayable"},{"type":"function","name":"subscribe","inputs":[],"outputs":[],"stateMutability":"payable"},{"type":"function","name":"unsubscribe","inputs":[],"outputs":[],"stateMutability":"nonpayable"},{"type":"event","name":"Callback","inputs":[{"name":"chain_id","type":"uint256","indexed":true,"internalType":"uint256"},{"name":"_contract","type":"address","indexed":true,"internalType":"address"},{"name":"gas_limit","type":"uint64","indexed":true,"internalType":"uint64"},{"name":"payload","type":"bytes","indexed":false,"internalType":"bytes"}],"anonymous":false}],"bytecode":{"object":"0x60808060405260009060c081611365803803809161001d82856102c6565b8339810103126102c257805190610036602082016102ff565b610042604083016102ff565b60608301519161006060a0610059608087016102ff565b95016102ff565b60028054610100600160a81b03191663ffffff0017815587546001600160a01b03191662ffffff90811789558089526001602081905260408a20805460ff1990811690921790558254913b1560ff16911617905594600355600480546001600160a01b03199081166001600160a01b0393841617909155600580548216938316939093179092556006929092556007805482169383169390931790925560088054909216921691909117905560025460ff16156102a4575b60025460ff811615610134575b60405161100c90816103198239f35b6003546004546001600160a01b0360089390931c83169284929116833b15610283576040516305a6aced60e41b815260048101929092526001600160a01b031660248201526000805160206113258339815191526044820152600080516020611345833981519152606482018190526084820181905260a4820152918190839060c490829084905af1801561029757610287575b5050600254600654600754909183916001600160a01b039081169160081c16803b15610283576040516305a6aced60e41b815260048101949094526001600160a01b039190911660248401526000805160206113258339815191526044840152600080516020611345833981519152606484018190526084840181905260a4840152829060c490829084905af1801561027857156101255761026b8280926102c6565b6102755780610125565b80fd5b6040513d84823e3d90fd5b8280fd5b610290916102c6565b38816101c8565b50604051903d90823e3d90fd5b6102bd62ffffff3b1560ff801960025416911617600255565b610118565b5080fd5b601f909101601f19168101906001600160401b038211908210176102e957604052565b634e487b7160e01b600052604160045260246000fd5b51906001600160a01b038216820361031357565b600080fdfe608080604052600436101561001d575b50361561001b57600080fd5b005b600090813560e01c9081630ac7f561146105f4575080630d152c2c1461057b57806344ea62fe14610494578063618bbca51461046b57806362c368cd1461044257806372ae5b28146104075780637a90b990146103755780638de0422e1461034c5780638f449a0514610272578063b075061114610254578063c290d691146101e0578063ca34841e146101b75763fcae44840361000f573461018f578060031936011261018f57806002546100d660ff821615610e0a565b6003546004546001600160a01b0360089390931c83169216823b1561019d57610118928492836040518096819582946317c0399b60e11b845260048401610e4e565b03925af18015610192576101a2575b506002546006546007546001600160a01b0360089390931c83169216823b1561019d5761016d928492836040518096819582946317c0399b60e11b845260048401610e4e565b03925af180156101925761017e5750f35b8161018891610655565b61018f5780f35b80fd5b6040513d84823e3d90fd5b505050fd5b816101ac91610655565b61018f578038610127565b503461018f578060031936011261018f576005546040516001600160a01b039091168152602090f35b503461018f57602036600319011261018f57338152600160205260ff604082205416156102165761021360043533610ec1565b80f35b60405162461bcd60e51b8152602060048201526016602482015275417574686f72697a65642073656e646572206f6e6c7960501b6044820152606490fd5b503461018f578060031936011261018f576020600654604051908152f35b508060031936011261018f5760025461028e60ff821615610e0a565b6003546004546001600160a01b0360089390931c83169284929116833b15610348576102d3938392836040518097819582946305a6aced60e41b845260048401610e4e565b03925af1801561033b5761032b575b60025460065460075492935060089190911c6001600160a01b039081169216823b1561019d5761016d928492836040518096819582946305a6aced60e41b845260048401610e4e565b61033491610655565b38816102e2565b50604051903d90823e3d90fd5b8280fd5b503461018f578060031936011261018f576007546040516001600160a01b039091168152602090f35b503461018f578060031936011261018f5780546040516326db15bb60e21b8152306004820152906001600160a01b0316602082602481845afa9081156103fc5783916103c6575b6102139250610ec1565b90506020823d6020116103f4575b816103e160209383610655565b81010312610348576102139151906103bc565b3d91506103d4565b6040513d85823e3d90fd5b503461018f578060031936011261018f5760206040517f54d85ef8201aba816135bce3c50a9e9853f0f63619b192e668d028a9fdaaa7ce8152f35b503461018f578060031936011261018f576004546040516001600160a01b039091168152602090f35b503461018f578060031936011261018f576008546040516001600160a01b039091168152602090f35b503461018f57608036600319011261018f57602435906001600160a01b038216820361018f576044356001600160a01b03811681036105775760043582526009602090815260408084206001600160a01b0395861685528252808420929094168352529081208054606435929083101561018f5760e06105148484610610565b5080549060018060a01b036001820154169060018060a01b0360028201541660018060a01b036003830154166004830154916006600585015494015494604051968752602087015260408601526060850152608084015260a083015260c0820152f35b5080fd5b503461018f57602036600319011261018f5760043567ffffffffffffffff81116105775761018060031982360301126105775760ff60025416156105c557610213906004016107cd565b60405162461bcd60e51b8152602060048201526007602482015266564d206f6e6c7960c81b6044820152606490fd5b9050346105775781600319360112610577576020906003548152f35b805482101561062c576000526007602060002091020190600090565b634e487b7160e01b600052603260045260246000fd5b359060ff8216820361065057565b600080fd5b90601f8019910116810190811067ffffffffffffffff82111761067757604052565b634e487b7160e01b600052604160045260246000fd5b91909160208152825180602083015260005b8181106106c0575060409293506000838284010152601f8019910116010190565b806020809287010151604082860101520161069f565b919061075b578082036106e7575050565b8054825560018082015490830180546001600160a01b039283166001600160a01b031991821617909155600280840154908501805491841691831691909117905560038084015490850180549190931691161790556004808201549083015560058082015490830155600690810154910155565b634e487b7160e01b600052600060045260246000fd5b805480156107b75760001901906107888282610610565b61075b576006600091828155826001820155826002820155826003820155826004820155826005820155015555565b634e487b7160e01b600052603160045260246000fd5b60208101356001600160a01b03811691908135908390036106505760c0820135601e19833603018112156106505782019283359367ffffffffffffffff8511610650576020810191853603831361065057600354908185149384918295610df5575b600654928388149182610de0575b50159081610dd7575b50610877577f54d85ef8201aba816135bce3c50a9e9853f0f63619b192e668d028a9fdaaa7ce604088013514610881575b5050505050505050565b60a08701356001600160a01b03169760e09085018590031261065057356001600160a01b03811690819003610650576108bc60408501610642565b506108c960608501610642565b506040519560e0870187811067ffffffffffffffff82111761067757604052606088013587526020870197608060018060a01b039101351688526040870191898352606088019381855260808901956080880135875260a0808b01980135885260c08a0198848a52600014610dcc5750999897995b60009081526009602090815260408083206001600160a01b038581168552908352818420908d16845290915281209099908a5b815480821015610dba576109858284610610565b5060048101548b51111580610dab575b6109a3575050600101610971565b8e9d509b8b819f6207a1209394969798999a9b9c9d9e846006925193610a1960018060a01b0360018501541695610a0b6040519788926306233b9360e01b602085015260248401909291604090606083019460008452602084015260018060a01b0316910152565b03601f198101875286610655565b825495516040516306233b9360e01b60208201526000602482015260448101979097526001600160a01b03166064808801919091528652610a5b608487610655565b516003549490858103610d8657600554600080516020610fb783398151915290610aa2906001600160a01b03165b6040516001600160a01b0390911694909182918261068d565b0390a40154908103610d61576005546040516001600160a01b0390911692600080516020610fb783398151915291908190610add908261068d565b0390a46000198101908111610d0357610b1392610b08610b00610b0e9385610610565b509184610610565b906106d6565b610771565b60015b8015610bf2575b15610b2a575b5050610877565b60009283526009602090815260408085206001600160a01b039384168652825280852093909216845291909152902080546801000000000000000081101561067757610b7b91600182018155610610565b97909761075b579551875594516001870180546001600160a01b03199081166001600160a01b03938416179091559551600288018054881691831691909117905590516003870180549096169116179093559151600484015590516005830155516006919091015538808080808080808080610b23565b60008481526009602090815260408083206001600160a01b03808816855290835281842090861684529091528120919b9a999897969594939291905b815480821015610d4f57610c428284610610565b5060048101548b51111580610d40575b610c60575050600101610c2e565b8c620f4240929395969798999a9b9c9d9e9f5051905460405191633ff1c13760e11b60208401526024830152604482015260448152610ca0606482610655565b6003548803610d19576005546040516001600160a01b03909116918991600080516020610fb7833981519152918190610cd9908261068d565b0390a46000198101908111610d0357610cfc92610b08610b00610b0e9385610610565b6001610b1d565b634e487b7160e01b600052601160045260246000fd5b6008548890600080516020610fb783398151915290610cd9906001600160a01b0316610a89565b50895160058201541115610c52565b50505090919293949596979899610b1d565b600854600080516020610fb783398151915290610add906001600160a01b0316610a89565b600854600080516020610fb783398151915290610aa2906001600160a01b0316610a89565b50895160058201541115610995565b50505090919293949596979998610b16565b90509998979961093e565b90501538610846565b6007546001600160a01b03161491503861083d565b6004546001600160a01b03168114925061082f565b15610e1157565b60405162461bcd60e51b81526020600482015260156024820152745265616374697665204e6574776f726b206f6e6c7960581b6044820152606490fd5b9081526001600160a01b0390911660208201527f54d85ef8201aba816135bce3c50a9e9853f0f63619b192e668d028a9fdaaa7ce60408201527fa65f96fc951c35ead38878e0f0b7a3c744a6f5ccc1476b313353ce31712313ad606082018190526080820181905260a082015260c00190565b814710610f7c5781610ed1575050565b6000809160209360405190610ee68683610655565b83825285820191601f19870136843751926001600160a01b03165af13d15610f77573d67ffffffffffffffff81116106775760405190610f2f601f8201601f1916850183610655565b81526000833d92013e5b15610f415750565b6064906040519062461bcd60e51b82526004820152600f60248201526e151c985b9cd9995c8819985a5b1959608a1b6044820152fd5b610f39565b60405162461bcd60e51b8152602060048201526012602482015271496e73756666696369656e742066756e647360701b6044820152606490fdfe8dd725fa9d6cd150017ab9e60318d40616439424e2fade9c1c58854950917dfca2646970667358221220a44c2abf80147877ae6fa1f08cdb56f83e57e940718ff52c53e0733448c8f01164736f6c6343000821003354d85ef8201aba816135bce3c50a9e9853f0f63619b192e668d028a9fdaaa7cea65f96fc951c35ead38878e0f0b7a3c744a6f5ccc1476b313353ce31712313ad","linkReferences":{}},"methodIdentifiers":{"ORDER_CREATED_TOPIC_0()":"72ae5b28","coverDebt()":"7a90b990","destinationChainId()":"b0750611","destinationOrderProcessor()":"8de0422e","destinationWalletSwapMain()":"618bbca5","orderBookByChain(uint256,address,address,uint256)":"44ea62fe","originChainId()":"0ac7f561","originOrderProcessor()":"62c368cd","originWalletSwapMain()":"ca34841e","pay(uint256)":"c290d691","react((uint256,address,uint256,uint256,uint256,uint256,bytes,uint256,uint256,uint256,uint256,uint256))":"0d152c2c","subscribe()":"8f449a05","unsubscribe()":"fcae4484"},"id":62}