{"abi":[{"type":"constructor","inputs":[{"name":"_service","type":"address","internalType":"address"},{"name":"_originChainId","type":"uint256","internalType":"uint256"},{"name":"_destinationChainId","type":"uint256","internalType":"uint256"},{"name":"_contract","type":"address","internalType":"address"},{"name":"_topic_0","type":"uint256","internalType":"uint256"},{"name":"_callback","type":"address","internalType":"address"}],"stateMutability":"payable"},{"type":"receive","stateMutability":"payable"},{"type":"function","name":"coverDebt","inputs":[],"outputs":[],"stateMutability":"nonpayable"},{"type":"function","name":"destinationChainId","inputs":[],"outputs":[{"name":"","type":"uint256","internalType":"uint256"}],"stateMutability":"view"},{"type":"function","name":"originChainId","inputs":[],"outputs":[{"name":"","type":"uint256","internalType":"uint256"}],"stateMutability":"view"},{"type":"function","name":"pay","inputs":[{"name":"amount","type":"uint256","internalType":"uint256"}],"outputs":[],"stateMutability":"nonpayable"},{"type":"function","name":"react","inputs":[{"name":"log","type":"tuple","internalType":"struct IReactive.LogRecord","components":[{"name":"chain_id","type":"uint256","internalType":"uint256"},{"name":"_contract","type":"address","internalType":"address"},{"name":"topic_0","type":"uint256","internalType":"uint256"},{"name":"topic_1","type":"uint256","internalType":"uint256"},{"name":"topic_2","type":"uint256","internalType":"uint256"},{"name":"topic_3","type":"uint256","internalType":"uint256"},{"name":"data","type":"bytes","internalType":"bytes"},{"name":"block_number","type":"uint256","internalType":"uint256"},{"name":"op_code","type":"uint256","internalType":"uint256"},{"name":"block_hash","type":"uint256","internalType":"uint256"},{"name":"tx_hash","type":"uint256","internalType":"uint256"},{"name":"log_index","type":"uint256","internalType":"uint256"}]}],"outputs":[],"stateMutability":"nonpayable"},{"type":"function","name":"reactCount","inputs":[],"outputs":[{"name":"","type":"uint256","internalType":"uint256"}],"stateMutability":"view"},{"type":"event","name":"Callback","inputs":[{"name":"chain_id","type":"uint256","indexed":true,"internalType":"uint256"},{"name":"_contract","type":"address","indexed":true,"internalType":"address"},{"name":"gas_limit","type":"uint64","indexed":true,"internalType":"uint64"},{"name":"payload","type":"bytes","indexed":false,"internalType":"bytes"}],"anonymous":false},{"type":"event","name":"ReactCalled","inputs":[{"name":"chainId","type":"uint256","indexed":false,"internalType":"uint256"},{"name":"topic0","type":"uint256","indexed":false,"internalType":"uint256"},{"name":"topic3","type":"uint256","indexed":false,"internalType":"uint256"}],"anonymous":false}],"bytecode":{"object":"0x60808060405260009060c0816106f6803803809161001d82856101bf565b8339810103126101bb57610030816101f8565b602082015190604083015191610048606085016101f8565b9161005a60a0608087015196016101f8565b60028054610100600160a81b03191663ffffff0017815587546001600160a01b031990811662ffffff9081178a55808a526001602081905260408b20805460ff1916909117905582546001600160a81b031916903b1560ff1690811760089590951b610100600160a81b031694909417918290556003859055600496909655600580549096166001600160a01b03929092169190911790945515610108575b6040516104c490816102128239f35b849260081c6001600160a01b031690813b156101b7578360c49260405196879586946305a6aced60e41b8652600486015260018060a01b0316602485015260448401526000805160206106d683398151915260648401526000805160206106d683398151915260848401526000805160206106d683398151915260a48401525af180156101ac5761019c575b8080806100f9565b816101a6916101bf565b38610194565b6040513d84823e3d90fd5b8380fd5b5080fd5b601f909101601f19168101906001600160401b038211908210176101e257604052565b634e487b7160e01b600052604160045260246000fd5b51906001600160a01b038216820361020c57565b600080fdfe608080604052600436101561001d575b50361561001b57600080fd5b005b60003560e01c9081630ac7f56114610346575080630d152c2c146101b45780634b6dd86f146101965780637a90b99014610101578063b0750611146100e35763c290d6911461006c573861000f565b346100de5760203660031901126100de5733600052600160205260ff60406000205416156100a05761001b60043533610399565b60405162461bcd60e51b8152602060048201526016602482015275417574686f72697a65642073656e646572206f6e6c7960501b6044820152606490fd5b600080fd5b346100de5760003660031901126100de576020600454604051908152f35b346100de5760003660031901126100de576000546040516326db15bb60e21b8152306004820152906001600160a01b0316602082602481845afa90811561018a57600091610154575b61001b9250610399565b90506020823d602011610182575b8161016f60209383610361565b810103126100de5761001b91519061014a565b3d9150610162565b6040513d6000823e3d90fd5b346100de5760003660031901126100de576020600654604051908152f35b346100de5760203660031901126100de5760043567ffffffffffffffff81116100de5761018060031982360301126100de5760ff60025416156103175760065490600019821461030157600166038d7ea4c6800092016006557f59c4902123db3b8141785fe1d345f34afe2798a1b67b127cb9e23ae711cddf67606060a4830135926044604051918060040135835201356020820152836040820152a1101561025957005b6040516373027f6d60e01b6020820152600060248201526024815261027f604482610361565b60045460018060a01b03600554169060405160208152835180602083015260005b8181106102eb5750620f4240945090604081836000837f8dd725fa9d6cd150017ab9e60318d40616439424e2fade9c1c58854950917dfc9684010152601f80199101168101030190a4005b80602080928801015160408286010152016102a0565b634e487b7160e01b600052601160045260246000fd5b60405162461bcd60e51b8152602060048201526007602482015266564d206f6e6c7960c81b6044820152606490fd5b346100de5760003660031901126100de576020906003548152f35b90601f8019910116810190811067ffffffffffffffff82111761038357604052565b634e487b7160e01b600052604160045260246000fd5b81471061045457816103a9575050565b60008091602093604051906103be8683610361565b83825285820191601f19870136843751926001600160a01b03165af13d1561044f573d67ffffffffffffffff81116103835760405190610407601f8201601f1916850183610361565b81526000833d92013e5b156104195750565b6064906040519062461bcd60e51b82526004820152600f60248201526e151c985b9cd9995c8819985a5b1959608a1b6044820152fd5b610411565b60405162461bcd60e51b8152602060048201526012602482015271496e73756666696369656e742066756e647360701b6044820152606490fdfea2646970667358221220d6ed7028055f7a54da32deab45e1a7b0104785ab7cc8bf489cfb954d0e89f2c564736f6c63430008210033a65f96fc951c35ead38878e0f0b7a3c744a6f5ccc1476b313353ce31712313ad","linkReferences":{}},"methodIdentifiers":{"coverDebt()":"7a90b990","destinationChainId()":"b0750611","originChainId()":"0ac7f561","pay(uint256)":"c290d691","react((uint256,address,uint256,uint256,uint256,uint256,bytes,uint256,uint256,uint256,uint256,uint256))":"0d152c2c","reactCount()":"4b6dd86f"},"id":7}