{"abi":[{"type":"function","name":"increment","inputs":[],"outputs":[],"stateMutability":"nonpayable"},{"type":"function","name":"number","inputs":[],"outputs":[{"name":"","type":"uint256","internalType":"uint256"}],"stateMutability":"view"},{"type":"function","name":"setNumber","inputs":[{"name":"newNumber","type":"uint256","internalType":"uint256"}],"outputs":[],"stateMutability":"nonpayable"}],"bytecode":{"object":"0x6080806040523460135760df908160198239f35b600080fdfe6080806040526004361015601257600080fd5b60003560e01c9081633fb5c1cb1460925781638381f58a146079575063d09de08a14603c57600080fd5b3460745760003660031901126074576000546000198114605e57600101600055005b634e487b7160e01b600052601160045260246000fd5b600080fd5b3460745760003660031901126074576020906000548152f35b34607457602036600319011260745760043560005500fea2646970667358221220d82acc842d5a15545f122a15e849504d3d342c20efcc400196a3f3ad82b6a88e64736f6c63430008210033","linkReferences":{}},"methodIdentifiers":{"increment()":"d09de08a","number()":"8381f58a","setNumber(uint256)":"3fb5c1cb"},"id":54}