{"abi":[{"type":"constructor","inputs":[{"name":"_defaultTrustWallet","type":"address","internalType":"address"}],"stateMutability":"nonpayable"},{"type":"receive","stateMutability":"payable"},{"type":"function","name":"SYSTEM_CONTRACT","inputs":[],"outputs":[{"name":"","type":"address","internalType":"address"}],"stateMutability":"view"},{"type":"function","name":"accumulatedFees","inputs":[{"name":"","type":"address","internalType":"address"}],"outputs":[{"name":"","type":"uint256","internalType":"uint256"}],"stateMutability":"view"},{"type":"function","name":"autoCheckAndCoverDebt","inputs":[{"name":"reactiveContract","type":"address","internalType":"address"},{"name":"token","type":"address","internalType":"address"}],"outputs":[],"stateMutability":"nonpayable"},{"type":"function","name":"autoRouteNativeToken","inputs":[],"outputs":[{"name":"","type":"bool","internalType":"bool"}],"stateMutability":"view"},{"type":"function","name":"bulkSetTrustWalletAddresses","inputs":[{"name":"tokens","type":"address[]","internalType":"address[]"},{"name":"wallets","type":"address[]","internalType":"address[]"}],"outputs":[],"stateMutability":"nonpayable"},{"type":"function","name":"calculateFee","inputs":[{"name":"","type":"address","internalType":"address"},{"name":"assetType","type":"uint8","internalType":"enum TrustWalletFeeDistributor.AssetType"},{"name":"amount","type":"uint256","internalType":"uint256"},{"name":"minutesValuation","type":"uint256","internalType":"uint256"}],"outputs":[{"name":"","type":"uint256","internalType":"uint256"}],"stateMutability":"view"},{"type":"function","name":"contractsWithDebt","inputs":[{"name":"","type":"uint256","internalType":"uint256"}],"outputs":[{"name":"","type":"address","internalType":"address"}],"stateMutability":"view"},{"type":"function","name":"coverReactiveDebt","inputs":[{"name":"reactiveContract","type":"address","internalType":"address"}],"outputs":[],"stateMutability":"payable"},{"type":"function","name":"debtCoverageThreshold","inputs":[],"outputs":[{"name":"","type":"uint256","internalType":"uint256"}],"stateMutability":"view"},{"type":"function","name":"debtsCovered","inputs":[{"name":"","type":"address","internalType":"address"}],"outputs":[{"name":"","type":"uint256","internalType":"uint256"}],"stateMutability":"view"},{"type":"function","name":"defaultTrustWallet","inputs":[],"outputs":[{"name":"","type":"address","internalType":"address"}],"stateMutability":"view"},{"type":"function","name":"depositGasForDebt","inputs":[{"name":"orderId","type":"bytes32","internalType":"bytes32"}],"outputs":[],"stateMutability":"payable"},{"type":"function","name":"distributeFee","inputs":[{"name":"token","type":"address","internalType":"address"},{"name":"assetType","type":"uint8","internalType":"enum TrustWalletFeeDistributor.AssetType"},{"name":"amount","type":"uint256","internalType":"uint256"},{"name":"minutesValuation","type":"uint256","internalType":"uint256"},{"name":"sender","type":"address","internalType":"address"},{"name":"orderId","type":"bytes32","internalType":"bytes32"}],"outputs":[{"name":"","type":"uint256","internalType":"uint256"}],"stateMutability":"payable"},{"type":"function","name":"feeHistory","inputs":[{"name":"","type":"uint256","internalType":"uint256"}],"outputs":[{"name":"token","type":"address","internalType":"address"},{"name":"recipient","type":"address","internalType":"address"},{"name":"amount","type":"uint256","internalType":"uint256"},{"name":"timestamp","type":"uint256","internalType":"uint256"},{"name":"orderId","type":"bytes32","internalType":"bytes32"}],"stateMutability":"view"},{"type":"function","name":"feeRate","inputs":[],"outputs":[{"name":"","type":"uint256","internalType":"uint256"}],"stateMutability":"view"},{"type":"function","name":"getAccumulatedFees","inputs":[{"name":"token","type":"address","internalType":"address"}],"outputs":[{"name":"","type":"uint256","internalType":"uint256"}],"stateMutability":"view"},{"type":"function","name":"getContractWithDebt","inputs":[{"name":"index","type":"uint256","internalType":"uint256"}],"outputs":[{"name":"","type":"address","internalType":"address"}],"stateMutability":"view"},{"type":"function","name":"getContractsWithDebtCount","inputs":[],"outputs":[{"name":"","type":"uint256","internalType":"uint256"}],"stateMutability":"view"},{"type":"function","name":"getFeeHistoryLength","inputs":[],"outputs":[{"name":"","type":"uint256","internalType":"uint256"}],"stateMutability":"view"},{"type":"function","name":"getFeeRecord","inputs":[{"name":"index","type":"uint256","internalType":"uint256"}],"outputs":[{"name":"","type":"tuple","internalType":"struct TrustWalletFeeDistributor.FeeRecord","components":[{"name":"token","type":"address","internalType":"address"},{"name":"recipient","type":"address","internalType":"address"},{"name":"amount","type":"uint256","internalType":"uint256"},{"name":"timestamp","type":"uint256","internalType":"uint256"},{"name":"orderId","type":"bytes32","internalType":"bytes32"}]}],"stateMutability":"view"},{"type":"function","name":"getTotalDebtsCovered","inputs":[{"name":"reactiveContract","type":"address","internalType":"address"}],"outputs":[{"name":"","type":"uint256","internalType":"uint256"}],"stateMutability":"view"},{"type":"function","name":"getTrustWalletForToken","inputs":[{"name":"token","type":"address","internalType":"address"}],"outputs":[{"name":"","type":"address","internalType":"address"}],"stateMutability":"view"},{"type":"function","name":"isNativeToken","inputs":[{"name":"token","type":"address","internalType":"address"}],"outputs":[{"name":"","type":"bool","internalType":"bool"}],"stateMutability":"pure"},{"type":"function","name":"isReactiveContract","inputs":[{"name":"","type":"address","internalType":"address"}],"outputs":[{"name":"","type":"bool","internalType":"bool"}],"stateMutability":"view"},{"type":"function","name":"minFeeMinutes","inputs":[],"outputs":[{"name":"","type":"uint256","internalType":"uint256"}],"stateMutability":"view"},{"type":"function","name":"minNftFeeWei","inputs":[],"outputs":[{"name":"","type":"uint256","internalType":"uint256"}],"stateMutability":"view"},{"type":"function","name":"owner","inputs":[],"outputs":[{"name":"","type":"address","internalType":"address"}],"stateMutability":"view"},{"type":"function","name":"registerReactiveContract","inputs":[{"name":"reactiveContract","type":"address","internalType":"address"}],"outputs":[],"stateMutability":"nonpayable"},{"type":"function","name":"renounceOwnership","inputs":[],"outputs":[],"stateMutability":"nonpayable"},{"type":"function","name":"setAutoRouteNativeToken","inputs":[{"name":"_autoRoute","type":"bool","internalType":"bool"}],"outputs":[],"stateMutability":"nonpayable"},{"type":"function","name":"setDebtCoverageThreshold","inputs":[{"name":"newThreshold","type":"uint256","internalType":"uint256"}],"outputs":[],"stateMutability":"nonpayable"},{"type":"function","name":"setDefaultTrustWallet","inputs":[{"name":"wallet","type":"address","internalType":"address"}],"outputs":[],"stateMutability":"nonpayable"},{"type":"function","name":"setFeeRate","inputs":[{"name":"newRate","type":"uint256","internalType":"uint256"}],"outputs":[],"stateMutability":"nonpayable"},{"type":"function","name":"setMinFeeMinutes","inputs":[{"name":"_minFeeMinutes","type":"uint256","internalType":"uint256"}],"outputs":[],"stateMutability":"nonpayable"},{"type":"function","name":"setMinNftFeeWei","inputs":[{"name":"_minNftFeeWei","type":"uint256","internalType":"uint256"}],"outputs":[],"stateMutability":"nonpayable"},{"type":"function","name":"setTrustWalletAddress","inputs":[{"name":"token","type":"address","internalType":"address"},{"name":"wallet","type":"address","internalType":"address"}],"outputs":[],"stateMutability":"nonpayable"},{"type":"function","name":"transferOwnership","inputs":[{"name":"newOwner","type":"address","internalType":"address"}],"outputs":[],"stateMutability":"nonpayable"},{"type":"function","name":"trustWalletAddresses","inputs":[{"name":"","type":"address","internalType":"address"}],"outputs":[{"name":"","type":"address","internalType":"address"}],"stateMutability":"view"},{"type":"function","name":"unregisterReactiveContract","inputs":[{"name":"reactiveContract","type":"address","internalType":"address"}],"outputs":[],"stateMutability":"nonpayable"},{"type":"function","name":"withdrawAccumulatedFees","inputs":[{"name":"amount","type":"uint256","internalType":"uint256"},{"name":"to","type":"address","internalType":"address payable"}],"outputs":[],"stateMutability":"nonpayable"},{"type":"function","name":"withdrawFees","inputs":[{"name":"token","type":"address","internalType":"address"}],"outputs":[],"stateMutability":"nonpayable"},{"type":"event","name":"AccumulatedFeesWithdrawn","inputs":[{"name":"owner","type":"address","indexed":true,"internalType":"address"},{"name":"recipient","type":"address","indexed":true,"internalType":"address"},{"name":"amount","type":"uint256","indexed":false,"internalType":"uint256"}],"anonymous":false},{"type":"event","name":"DebtCoverageThresholdUpdated","inputs":[{"name":"newThreshold","type":"uint256","indexed":false,"internalType":"uint256"}],"anonymous":false},{"type":"event","name":"DebtCovered","inputs":[{"name":"reactiveContract","type":"address","indexed":true,"internalType":"address"},{"name":"amount","type":"uint256","indexed":false,"internalType":"uint256"},{"name":"timestamp","type":"uint256","indexed":false,"internalType":"uint256"}],"anonymous":false},{"type":"event","name":"DefaultTrustWalletSet","inputs":[{"name":"wallet","type":"address","indexed":false,"internalType":"address"}],"anonymous":false},{"type":"event","name":"FeeDistributed","inputs":[{"name":"token","type":"address","indexed":true,"internalType":"address"},{"name":"recipient","type":"address","indexed":true,"internalType":"address"},{"name":"amount","type":"uint256","indexed":false,"internalType":"uint256"},{"name":"orderId","type":"bytes32","indexed":true,"internalType":"bytes32"},{"name":"timestamp","type":"uint256","indexed":false,"internalType":"uint256"}],"anonymous":false},{"type":"event","name":"FeeDistributorInitialized","inputs":[{"name":"owner","type":"address","indexed":true,"internalType":"address"},{"name":"defaultWallet","type":"address","indexed":false,"internalType":"address"}],"anonymous":false},{"type":"event","name":"FeeRateUpdated","inputs":[{"name":"oldRate","type":"uint256","indexed":false,"internalType":"uint256"},{"name":"newRate","type":"uint256","indexed":false,"internalType":"uint256"}],"anonymous":false},{"type":"event","name":"OwnershipTransferred","inputs":[{"name":"previousOwner","type":"address","indexed":true,"internalType":"address"},{"name":"newOwner","type":"address","indexed":true,"internalType":"address"}],"anonymous":false},{"type":"event","name":"ReactiveContractRegistered","inputs":[{"name":"contractAddr","type":"address","indexed":true,"internalType":"address"},{"name":"isReactive","type":"bool","indexed":false,"internalType":"bool"}],"anonymous":false},{"type":"event","name":"TrustWalletAddressSet","inputs":[{"name":"token","type":"address","indexed":true,"internalType":"address"},{"name":"wallet","type":"address","indexed":false,"internalType":"address"}],"anonymous":false}],"bytecode":{"object":"0x60803461018157601f61226c38819003918201601f19168301916001600160401b038311848410176101865780849260209460405283398101031261018157516001600160a01b038116908190036101815760008054336001600160a01b03198216811783556040519290916001600160a01b0316907f8be0079c531659141344cd1fd0a4f28419497f9722a3daafe3b4186f6b6457e09080a36005600355600a6004556601c6bf5263400060055560ff19600a5416600a55662386f26fc10000600b55811561013f577ff6037bafb2d7efe72a6c8833e19e94cf966f3034294060988897cace3b4bf2656020838060018060a01b031960025416176002556040518181527fb7eb30dc63925b699e137f9113fd2814a6f7613e812de07ea4c56a63f44970b3833392a2604051908152a16040516120cf908161019d8239f35b62461bcd60e51b815260206004820152601660248201527f496e76616c69642064656661756c742077616c6c6574000000000000000000006044820152606490fd5b600080fd5b634e487b7160e01b600052604160045260246000fdfe608080604052600436101561001d575b50361561001b57600080fd5b005b60003560e01c90816309e4bb70146118965750806309f7259b1461181e5780630ca0b6d3146117dc5780630d3517cf146117b35780630d35a16714611746578063100ab20d1461170d578063164e68de146115bc5780632d8897a11461157d5780632db8cef314611550578063323061621461153257806335d87e27146115145780633bd7dc5d1461137c57806345596e2e146112e557806345b315b0146112725780634e68a5121461124757806351ebcf4c14611226578063551d4a5914610e50578063564201f9146101ed5780636a18a5f914610e32578063715018a614610dd95780637573ca9214610dbb5780637644024f14610d4e57806381ae4a7014610d02578063862e681714610cc15780638da5cb5b14610c98578063916086e014610a9a578063978bbdb914610a7c578063a16e89411461024a578063ad8b139114610a11578063b726962e1461083a578063bddddbab14610797578063c420f059146106cb578063d39afe3a146106a8578063ec364755146105c6578063ec369bf4146103ae578063f2fde38b146102e7578063f43877ab146102a5578063f9ec410f14610284578063fc8d53f41461024a578063fcf368981461022c5763fcf66664146101ed573861000f565b34610227576020366003190112610227576001600160a01b0361020e6118b1565b1660005260076020526020604060002054604051908152f35b600080fd5b34610227576000366003190112610227576020600654604051908152f35b34610227576020366003190112610227576001600160a01b0361026b6118b1565b1660005260086020526020604060002054604051908152f35b346102275760203660031901126102275761029d611d04565b600435600555005b3461022757602036600319011261022757600435600954811015610227576102ce602091611943565b905460405160039290921b1c6001600160a01b03168152f35b34610227576020366003190112610227576103006118b1565b610308611d04565b6001600160a01b0316801561035a57600080546001600160a01b03198116831782556001600160a01b0316907f8be0079c531659141344cd1fd0a4f28419497f9722a3daafe3b4186f6b6457e09080a3005b60405162461bcd60e51b815260206004820152602660248201527f4f776e61626c653a206e6577206f776e657220697320746865207a65726f206160448201526564647265737360d01b6064820152608490fd5b6020366003190112610227576001600160a01b036103ca6118b1565b166103d681151561195e565b80600052600c6020526103f060ff60406000205416611c60565b600080806040516020810190632ecd4e7d60e01b82528560248201526024815261041b6044826119b9565b519062ffffff5afa61042b6119db565b90806105bc575b61059c575b508015610561573415908161055a5734915b156105495750600080526007602052610469816040600020541015611cb9565b6000805260076020526040600020610482828254611cac565b90555b816000526008602052604060002061049e828254611afa565b9055600080604051602081019063b760faf960e01b8252856024820152602481526104ca6044826119b9565b51908462ffffff5af16104db6119db565b50156105135760407f48e5ab2e54781b9981ff25b9e51100f7441e9083e82300d41e1ef9dbb3d86c5b918151908152426020820152a2005b60405162461bcd60e51b815260206004820152600e60248201526d11195c1bdcda5d0819985a5b195960921b6044820152606490fd5b61055590821015611cb9565b610485565b8091610449565b60405162461bcd60e51b8152602060048201526013602482015272139bc81bdd5d1cdd185b991a5b99c81919589d606a1b6044820152606490fd5b90602082519281808201948592010103126105b957505182610437565b80fd5b5080511515610432565b34610227576020366003190112610227576105df6118b1565b6105e7611d04565b6001600160a01b03166105fb81151561195e565b80600052600c60205260ff604060002054161561061457005b80600052600c6020526040600020600160ff19825416179055600954600160401b8110156106925780600161064c9201600955611943565b81549060031b9083821b9160018060a01b03901b19161790557f6899f537de8826f5e893752eade33397c7be98b908e5858a18ba25da7a2c622b602060405160018152a2005b634e487b7160e01b600052604160045260246000fd5b3461022757600036600319011261022757602060ff600a54166040519015158152f35b346102275760203660031901126102275760a061071d600435600060806040516106f48161199d565b82815282602082015282604082015282606082015201526107186006548210611ab8565b6118dd565b5060405161072a8161199d565b600180841b0382541691828252600180851b036001820154166020830190815260028201549060408401918252608060046003850154946060870195865201549401938452604051948552600180871b039051166020850152516040840152516060830152516080820152f35b34610227576040366003190112610227576107b06118b1565b7f894dec398e2419b3582d6a351352f5c67293d9202f01ee15c24f84cb565eaf8060206107db6118c7565b926107e4611d04565b6001600160a01b0316926107f9841515611a3f565b6001600160a01b031661080d811515611a7b565b83600052600182526040600020816bffffffffffffffffffffffff60a01b825416179055604051908152a2005b34610227576040366003190112610227576024356001600160a01b03811690600435908290036102275761086c611d04565b81156109da578015610995576000805260076020527f6d5257204ebe7d88fd91ae87941cb2dd9d8062b64ae5a2bd2d28ec40b9fbf6df5481116109445760008052600760205260406000206108c2828254611cac565b9055600080808084865af16108d56119db565b5015610909576040519081527f6529b2e3abe89b9385b229d775d09828b1df4d560a5d1c36a9824d667453017b60203392a3005b60405162461bcd60e51b8152602060048201526013602482015272115512081d1c985b9cd9995c8819985a5b1959606a1b6044820152606490fd5b60405162461bcd60e51b8152602060048201526024808201527f496e73756666696369656e7420616363756d756c61746564206e6174697665206044820152636665657360e01b6064820152608490fd5b60405162461bcd60e51b815260206004820152601d60248201527f416d6f756e74206d7573742062652067726561746572207468616e20300000006044820152606490fd5b60405162461bcd60e51b815260206004820152600f60248201526e496e76616c6964206164647265737360881b6044820152606490fd5b34610227576020366003190112610227576001600160a01b03610a326118b1565b166000908152600160205260409020546001600160a01b03168015610a67576020905b6040516001600160a01b039091168152f35b506002546020906001600160a01b0316610a55565b34610227576000366003190112610227576020600354604051908152f35b3461022757604036600319011261022757610ab36118b1565b610abb6118c7565b6001600160a01b0390911690610ad282151561195e565b81600052600c602052610aec60ff60406000205416611c60565b6001600160a01b031680610c4957806000526007602052604060002054600b541115610b1457005b6000806040516020810190632ecd4e7d60e01b825285602482015260248152610b3e6044826119b9565b519062ffffff5afa610b4e6119db565b9080610c3f575b610b5b57005b8051602080830192600092810103126105b95750519081151580610c27575b610b8057005b600080604051602081019063b760faf960e01b825286602482015260248152610baa6044826119b9565b51908562ffffff5af1610bbb6119db565b501561001b577f48e5ab2e54781b9981ff25b9e51100f7441e9083e82300d41e1ef9dbb3d86c5b91604091600052600760205281600020610bfd828254611cac565b905583600052600860205281600020610c17828254611afa565b90558151908152426020820152a2005b50806000526007602052816040600020541015610b7a565b5080511515610b55565b60405162461bcd60e51b815260206004820152602160248201527f4f6e6c79206e617469766520746f6b656e732063616e20636f766572206465626044820152601d60fa1b6064820152608490fd5b34610227576000366003190112610227576000546040516001600160a01b039091168152602090f35b3461022757608036600319011261022757610cda6118b1565b50602435600281101561022757610cfa6020916064359060443590611b30565b604051908152f35b34610227576020366003190112610227577f52874ced8e4305fc1ebe94dc5d6205bf67bf916a0c7c4dc05e6b3e42b425b9d06020600435610d41611d04565b80600b55604051908152a1005b6020366003190112610227573415610d84576000805260076020526040600020610d79348254611afa565b905561001b33611d5c565b60405162461bcd60e51b815260206004820152600f60248201526e139bc819d85cc8199959481cd95b9d608a1b6044820152606490fd5b3461022757600036600319011261022757602060405162ffffff8152f35b3461022757600036600319011261022757610df2611d04565b600080546001600160a01b0319811682556001600160a01b03167f8be0079c531659141344cd1fd0a4f28419497f9722a3daafe3b4186f6b6457e08280a3005b34610227576000366003190112610227576020600954604051908152f35b60c036600319011261022757610e646118b1565b602435906002821015610227576084356001600160a01b03811692908390036102275760a4359083156111f057610ea060643560443583611b30565b9283610eb2575b602084604051908152f35b6001600160a01b0390811660008181526001602052604090205490959116156111df576000858152600160205260409020546001600160a01b03165b6001600160a01b03169182156111a3578515908115611198575b501561115d575082341061111857600a5460ff161561107057600080808086855af1610f326119db565b501561102b575b60405193610f468561199d565b80855260208501948286526040810190858252606081014281526080820190868252600654600160401b81101561069257806001610f8792016006556118dd565b94909461101557925184546001600160a01b03199081166001600160a01b039283161786559951600186018054909b169116179098559051600283015595516003820155945160049590950194909455604080518481524260208281019190915295917f1e1e59ba994a6c1733c7b48707becd3c9ed68e7c24edb9d0e52aa049690f803391a4828080610ea7565b634e487b7160e01b600052600060045260246000fd5b60405162461bcd60e51b815260206004820152601a60248201527f4e617469766520666565207472616e73666572206661696c65640000000000006044820152606490fd5b6000805260076020526040600020611089848254611afa565b905561109433611d5c565b6009546110a1575b610f39565b919060005b600954811015611110576000805260076020527f6d5257204ebe7d88fd91ae87941cb2dd9d8062b64ae5a2bd2d28ec40b9fbf6df5466038d7ea4c6800011611110578061110a6110f7600193611943565b848060a01b0391549060031b1c16611d5c565b016110a6565b509091610f39565b60405162461bcd60e51b815260206004820152601c60248201527f496e73756666696369656e74206e6174697665206665652073656e74000000006044820152606490fd5b61109c90604051906323b872dd60e01b60208301526024820152826044820152846064820152606481526111926084826119b9565b85611ed4565b600191501486610f08565b60405162461bcd60e51b8152602060048201526014602482015273151c9d5cdd0815d85b1b195d081b9bdd081cd95d60621b6044820152606490fd5b6002546001600160a01b0316610eee565b60405162461bcd60e51b815260206004820152600e60248201526d24b73b30b634b21039b2b73232b960911b6044820152606490fd5b346102275760203660031901126102275761123f611d04565b600480359055005b346102275760203660031901126102275760206102ce60043561126d6009548210611ab8565b611943565b34610227576020366003190112610227577ff6037bafb2d7efe72a6c8833e19e94cf966f3034294060988897cace3b4bf26560206112ae6118b1565b6112b6611d04565b6001600160a01b03166112ca811515611a7b565b600280546001600160a01b03191682179055604051908152a1005b3461022757602036600319011261022757600435611301611d04565b6103e881116113435760407f14914da2bf76024616fbe1859783fcd4dbddcb179b1f3a854949fbf920dcb95791600354908060035582519182526020820152a1005b60405162461bcd60e51b815260206004820152601160248201527008ccaca40e4c2e8ca40e8dede40d0d2ced607b1b6044820152606490fd5b346102275760403660031901126102275760043567ffffffffffffffff8111610227576113ad903690600401611912565b60243567ffffffffffffffff8111610227576113cd903690600401611912565b926113d6611d04565b8383036114d75760005b8381106113e957005b6001906114126001600160a01b0361140a611405848988611a1b565b611a2b565b161515611a3f565b611431828060a01b03611429611405848a89611a1b565b161515611a7b565b61143f611405828887611a1b565b828060a01b03611453611405848988611a1b565b1660005282602052604060002090838060a01b03166bffffffffffffffffffffffff60a01b82541617905561148c611405828786611a1b565b7f894dec398e2419b3582d6a351352f5c67293d9202f01ee15c24f84cb565eaf8060206114bd611405858b8a611a1b565b60405160a087901b8790039182168152931692a2016113e0565b60405162461bcd60e51b8152602060048201526015602482015274082e4e4c2f240d8cadccee8d040dad2e6dac2e8c6d605b1b6044820152606490fd5b34610227576000366003190112610227576020600454604051908152f35b34610227576000366003190112610227576020600b54604051908152f35b346102275760203660031901126102275760206001600160a01b036115736118b1565b1615604051908152f35b34610227576020366003190112610227576001600160a01b0361159e6118b1565b16600052600c602052602060ff604060002054166040519015158152f35b34610227576020366003190112610227576115d56118b1565b6115dd611d04565b6001600160a01b03166000818152600760205260409020549081156116d257600081815260076020908152604080832083905560019091529020546001600160a01b03169081156116bf575b8061167f5750600080809381935af16116406119db565b501561164857005b60405162461bcd60e51b815260206004820152600f60248201526e151c985b9cd9995c8819985a5b1959608a1b6044820152606490fd5b60405163a9059cbb60e01b60208201526001600160a01b03909216602483015260448083019390935291815261001b916116ba6064836119b9565b611ed4565b6002546001600160a01b03169150611629565b60405162461bcd60e51b81526020600482015260136024820152724e6f206665657320746f20776974686472617760681b6044820152606490fd5b346102275760203660031901126102275760043580151580910361022757611733611d04565b60ff8019600a5416911617600a55600080f35b34610227576020366003190112610227576004356006548110156102275761176f60a0916118dd565b50600180831b0381541690600180841b0360018201541690600281015460046003830154920154926040519485526020850152604084015260608301526080820152f35b34610227576000366003190112610227576002546040516001600160a01b039091168152602090f35b34610227576020366003190112610227576001600160a01b036117fd6118b1565b166000526001602052602060018060a01b0360406000205416604051908152f35b34610227576020366003190112610227576118376118b1565b61183f611d04565b6001600160a01b031661185381151561195e565b80600052600c602052604060002060ff1981541690557f6899f537de8826f5e893752eade33397c7be98b908e5858a18ba25da7a2c622b602060405160008152a2005b34610227576000366003190112610227576020906005548152f35b600435906001600160a01b038216820361022757565b602435906001600160a01b038216820361022757565b6006548110156118fc5760066000526005602060002091020190600090565b634e487b7160e01b600052603260045260246000fd5b9181601f840112156102275782359167ffffffffffffffff8311610227576020808501948460051b01011161022757565b6009548110156118fc57600960005260206000200190600090565b1561196557565b60405162461bcd60e51b815260206004820152601060248201526f125b9d985b1a590818dbdb9d1c9858dd60821b6044820152606490fd5b60a0810190811067ffffffffffffffff82111761069257604052565b90601f8019910116810190811067ffffffffffffffff82111761069257604052565b3d15611a16573d9067ffffffffffffffff82116106925760405191611a0a601f8201601f1916602001846119b9565b82523d6000602084013e565b606090565b91908110156118fc5760051b0190565b356001600160a01b03811681036102275790565b15611a4657565b60405162461bcd60e51b815260206004820152600d60248201526c24b73b30b634b2103a37b5b2b760991b6044820152606490fd5b15611a8257565b60405162461bcd60e51b815260206004820152600e60248201526d125b9d985b1a59081dd85b1b195d60921b6044820152606490fd5b15611abf57565b60405162461bcd60e51b8152602060048201526013602482015272496e646578206f7574206f6620626f756e647360681b6044820152606490fd5b91908201809211611b0757565b634e487b7160e01b600052601160045260246000fd5b81810292918115918404141715611b0757565b9190916002811015611c4a57600114611c165760035490612710611b6081611b588587611b1d565b049383611b1d565b0481159081159081611c0a575b5015611bfc5760045490670de0b6b3a7640000820291808304670de0b6b3a76400001490151715611b0757611be657670de0b6b3a764000091611bb1910484611b1d565b049182159081611bdc575b50611bd3575b80821115611bce575090565b905090565b60019150611bc2565b9050151538611bbc565b634e487b7160e01b600052601260045260246000fd5b91925050611c075790565b90565b90506004541138611b6d565b6003546127109250611c2791611b1d565b04600454808210611c42575b50600554808210611bce575090565b905038611c33565b634e487b7160e01b600052602160045260246000fd5b15611c6757565b60405162461bcd60e51b815260206004820152601760248201527f436f6e7472616374206e6f7420726567697374657265640000000000000000006044820152606490fd5b91908203918211611b0757565b15611cc057565b606460405162461bcd60e51b815260206004820152602060248201527f496e73756666696369656e742066756e647320746f20636f76657220646562746044820152fd5b6000546001600160a01b03163303611d1857565b606460405162461bcd60e51b815260206004820152602060248201527f4f776e61626c653a2063616c6c6572206973206e6f7420746865206f776e65726044820152fd5b6001600160a01b03166000818152600c602052604090205460ff1615611ed1576000806040516020810190632ecd4e7d60e01b825284602482015260248152611da66044826119b9565b519062ffffff5afa611db66119db565b9080611ec7575b611dc6575b5050565b8051602080830192600092810103126105b957505180151580611e93575b611dec575050565b600080604051602081019063b760faf960e01b825285602482015260248152611e166044826119b9565b51908462ffffff5af1611e276119db565b5015611dc25760407f48e5ab2e54781b9981ff25b9e51100f7441e9083e82300d41e1ef9dbb3d86c5b9160008052600760205281600020611e69828254611cac565b905583600052600860205281600020611e83828254611afa565b90558151908152426020820152a2565b506000805260076020527f6d5257204ebe7d88fd91ae87941cb2dd9d8062b64ae5a2bd2d28ec40b9fbf6df54811115611de4565b5080511515611dbd565b50565b604080519092611f39926001600160a01b0316906000908190611ef787866119b9565b602085527f5361666545524332303a206c6f772d6c6576656c2063616c6c206661696c6564602086015260208151910182855af1611f336119db565b91611fc9565b8051908115918215611fa6575b505015611f505750565b5162461bcd60e51b815260206004820152602a60248201527f5361666545524332303a204552433230206f7065726174696f6e20646964206e6044820152691bdd081cdd58d8d9595960b21b6064820152608490fd5b819250906020918101031261022757602001518015158103610227573880611f46565b9192901561202b5750815115611fdd575090565b3b15611fe65790565b60405162461bcd60e51b815260206004820152601d60248201527f416464726573733a2063616c6c20746f206e6f6e2d636f6e74726163740000006044820152606490fd5b82519091501561203e5750805190602001fd5b6040519062461bcd60e51b8252602060048301528181519182602483015260005b8381106120815750508160006044809484010152601f80199101168101030190fd5b6020828201810151604487840101528593500161205f56fea26469706673582212204a50a171d32b9ca03ed5757b599da5c3e145c0047623c798344212cd73cdf04b64736f6c63430008210033","linkReferences":{}},"methodIdentifiers":{"SYSTEM_CONTRACT()":"7573ca92","accumulatedFees(address)":"fcf66664","autoCheckAndCoverDebt(address,address)":"916086e0","autoRouteNativeToken()":"d39afe3a","bulkSetTrustWalletAddresses(address[],address[])":"3bd7dc5d","calculateFee(address,uint8,uint256,uint256)":"862e6817","contractsWithDebt(uint256)":"f43877ab","coverReactiveDebt(address)":"ec369bf4","debtCoverageThreshold()":"32306162","debtsCovered(address)":"fc8d53f4","defaultTrustWallet()":"0d3517cf","depositGasForDebt(bytes32)":"7644024f","distributeFee(address,uint8,uint256,uint256,address,bytes32)":"551d4a59","feeHistory(uint256)":"0d35a167","feeRate()":"978bbdb9","getAccumulatedFees(address)":"564201f9","getContractWithDebt(uint256)":"4e68a512","getContractsWithDebtCount()":"6a18a5f9","getFeeHistoryLength()":"fcf36898","getFeeRecord(uint256)":"c420f059","getTotalDebtsCovered(address)":"a16e8941","getTrustWalletForToken(address)":"ad8b1391","isNativeToken(address)":"2db8cef3","isReactiveContract(address)":"2d8897a1","minFeeMinutes()":"35d87e27","minNftFeeWei()":"09e4bb70","owner()":"8da5cb5b","registerReactiveContract(address)":"ec364755","renounceOwnership()":"715018a6","setAutoRouteNativeToken(bool)":"100ab20d","setDebtCoverageThreshold(uint256)":"81ae4a70","setDefaultTrustWallet(address)":"45b315b0","setFeeRate(uint256)":"45596e2e","setMinFeeMinutes(uint256)":"51ebcf4c","setMinNftFeeWei(uint256)":"f9ec410f","setTrustWalletAddress(address,address)":"bddddbab","transferOwnership(address)":"f2fde38b","trustWalletAddresses(address)":"0ca0b6d3","unregisterReactiveContract(address)":"09f7259b","withdrawAccumulatedFees(uint256,address)":"b726962e","withdrawFees(address)":"164e68de"},"id":56}