{"abi":[{"type":"constructor","inputs":[{"name":"_liquidityPool","type":"address","internalType":"address"},{"name":"_feeDistributor","type":"address","internalType":"address"},{"name":"_assetVerifier","type":"address","internalType":"address"}],"stateMutability":"nonpayable"},{"type":"function","name":"BPS_MAX","inputs":[],"outputs":[{"name":"","type":"uint256","internalType":"uint256"}],"stateMutability":"view"},{"type":"function","name":"LARGE_ORDER_REBOOK_THRESHOLD","inputs":[],"outputs":[{"name":"","type":"uint256","internalType":"uint256"}],"stateMutability":"view"},{"type":"function","name":"LARGE_ORDER_THRESHOLD","inputs":[],"outputs":[{"name":"","type":"uint256","internalType":"uint256"}],"stateMutability":"view"},{"type":"function","name":"MAX_REBOOK_ATTEMPTS","inputs":[],"outputs":[{"name":"","type":"uint8","internalType":"uint8"}],"stateMutability":"view"},{"type":"function","name":"MEGA_ORDER_REBOOK_THRESHOLD","inputs":[],"outputs":[{"name":"","type":"uint256","internalType":"uint256"}],"stateMutability":"view"},{"type":"function","name":"MEGA_ORDER_THRESHOLD","inputs":[],"outputs":[{"name":"","type":"uint256","internalType":"uint256"}],"stateMutability":"view"},{"type":"function","name":"MINIMUM_ORDER_VALUE","inputs":[],"outputs":[{"name":"","type":"uint256","internalType":"uint256"}],"stateMutability":"view"},{"type":"function","name":"assetVerifier","inputs":[],"outputs":[{"name":"","type":"address","internalType":"contract AssetVerifier"}],"stateMutability":"view"},{"type":"function","name":"cancelOrder","inputs":[{"name":"orderId","type":"bytes32","internalType":"bytes32"}],"outputs":[],"stateMutability":"nonpayable"},{"type":"function","name":"createOrder","inputs":[{"name":"maker","type":"address","internalType":"address"},{"name":"tokenIn","type":"address","internalType":"address"},{"name":"tokenOut","type":"address","internalType":"address"},{"name":"typeIn","type":"uint8","internalType":"enum EulerLagrangeOrderProcessor.AssetType"},{"name":"typeOut","type":"uint8","internalType":"enum EulerLagrangeOrderProcessor.AssetType"},{"name":"amountIn","type":"uint256","internalType":"uint256"},{"name":"amountOut","type":"uint256","internalType":"uint256"},{"name":"minutesValueIn","type":"uint256","internalType":"uint256"},{"name":"minutesValueOut","type":"uint256","internalType":"uint256"},{"name":"slippageTolerance","type":"uint256","internalType":"uint256"},{"name":"expiration","type":"uint256","internalType":"uint256"},{"name":"enableRebooking","type":"bool","internalType":"bool"},{"name":"targetChainId","type":"uint256","internalType":"uint256"}],"outputs":[{"name":"","type":"bytes32","internalType":"bytes32"}],"stateMutability":"nonpayable"},{"type":"function","name":"feeDistributor","inputs":[],"outputs":[{"name":"","type":"address","internalType":"contract TrustWalletFeeDistributor"}],"stateMutability":"view"},{"type":"function","name":"findMatchingOrder","inputs":[{"name":"tokenIn","type":"address","internalType":"address"},{"name":"tokenOut","type":"address","internalType":"address"},{"name":"amountIn","type":"uint256","internalType":"uint256"},{"name":"amountOut","type":"uint256","internalType":"uint256"}],"outputs":[{"name":"matchedOrderId","type":"bytes32","internalType":"bytes32"}],"stateMutability":"view"},{"type":"function","name":"getOrder","inputs":[{"name":"orderId","type":"bytes32","internalType":"bytes32"}],"outputs":[{"name":"","type":"tuple","internalType":"struct EulerLagrangeOrderProcessor.Order","components":[{"name":"maker","type":"address","internalType":"address"},{"name":"tokenIn","type":"address","internalType":"address"},{"name":"tokenOut","type":"address","internalType":"address"},{"name":"typeIn","type":"uint8","internalType":"enum EulerLagrangeOrderProcessor.AssetType"},{"name":"typeOut","type":"uint8","internalType":"enum EulerLagrangeOrderProcessor.AssetType"},{"name":"amountIn","type":"uint256","internalType":"uint256"},{"name":"amountOut","type":"uint256","internalType":"uint256"},{"name":"minutesValueIn","type":"uint256","internalType":"uint256"},{"name":"minutesValueOut","type":"uint256","internalType":"uint256"},{"name":"slippageTolerance","type":"uint256","internalType":"uint256"},{"name":"filledAmount","type":"uint256","internalType":"uint256"},{"name":"timestamp","type":"uint256","internalType":"uint256"},{"name":"expiration","type":"uint256","internalType":"uint256"},{"name":"status","type":"uint8","internalType":"enum EulerLagrangeOrderProcessor.OrderStatus"},{"name":"rebookEnabled","type":"bool","internalType":"bool"},{"name":"rebookAttempts","type":"uint8","internalType":"uint8"},{"name":"verificationId","type":"bytes32","internalType":"bytes32"},{"name":"targetChainId","type":"uint256","internalType":"uint256"}]}],"stateMutability":"view"},{"type":"function","name":"getOrderCount","inputs":[],"outputs":[{"name":"","type":"uint256","internalType":"uint256"}],"stateMutability":"view"},{"type":"function","name":"getOrderQueueLength","inputs":[],"outputs":[{"name":"","type":"uint256","internalType":"uint256"}],"stateMutability":"view"},{"type":"function","name":"liquidityPool","inputs":[],"outputs":[{"name":"","type":"address","internalType":"contract VirtualLiquidityPool"}],"stateMutability":"view"},{"type":"function","name":"orderIds","inputs":[{"name":"","type":"uint256","internalType":"uint256"}],"outputs":[{"name":"","type":"bytes32","internalType":"bytes32"}],"stateMutability":"view"},{"type":"function","name":"orderQueue","inputs":[{"name":"","type":"uint256","internalType":"uint256"}],"outputs":[{"name":"","type":"bytes32","internalType":"bytes32"}],"stateMutability":"view"},{"type":"function","name":"orderSizes","inputs":[{"name":"","type":"bytes32","internalType":"bytes32"}],"outputs":[{"name":"","type":"uint256","internalType":"uint256"}],"stateMutability":"view"},{"type":"function","name":"orders","inputs":[{"name":"","type":"bytes32","internalType":"bytes32"}],"outputs":[{"name":"maker","type":"address","internalType":"address"},{"name":"tokenIn","type":"address","internalType":"address"},{"name":"tokenOut","type":"address","internalType":"address"},{"name":"typeIn","type":"uint8","internalType":"enum EulerLagrangeOrderProcessor.AssetType"},{"name":"typeOut","type":"uint8","internalType":"enum EulerLagrangeOrderProcessor.AssetType"},{"name":"amountIn","type":"uint256","internalType":"uint256"},{"name":"amountOut","type":"uint256","internalType":"uint256"},{"name":"minutesValueIn","type":"uint256","internalType":"uint256"},{"name":"minutesValueOut","type":"uint256","internalType":"uint256"},{"name":"slippageTolerance","type":"uint256","internalType":"uint256"},{"name":"filledAmount","type":"uint256","internalType":"uint256"},{"name":"timestamp","type":"uint256","internalType":"uint256"},{"name":"expiration","type":"uint256","internalType":"uint256"},{"name":"status","type":"uint8","internalType":"enum EulerLagrangeOrderProcessor.OrderStatus"},{"name":"rebookEnabled","type":"bool","internalType":"bool"},{"name":"rebookAttempts","type":"uint8","internalType":"uint8"},{"name":"verificationId","type":"bytes32","internalType":"bytes32"},{"name":"targetChainId","type":"uint256","internalType":"uint256"}],"stateMutability":"view"},{"type":"function","name":"ordersByPair","inputs":[{"name":"","type":"address","internalType":"address"},{"name":"","type":"address","internalType":"address"},{"name":"","type":"uint256","internalType":"uint256"}],"outputs":[{"name":"","type":"bytes32","internalType":"bytes32"}],"stateMutability":"view"},{"type":"function","name":"owner","inputs":[],"outputs":[{"name":"","type":"address","internalType":"address"}],"stateMutability":"view"},{"type":"function","name":"processOrders","inputs":[],"outputs":[],"stateMutability":"nonpayable"},{"type":"function","name":"rebookQueue","inputs":[{"name":"","type":"uint256","internalType":"uint256"}],"outputs":[{"name":"","type":"bytes32","internalType":"bytes32"}],"stateMutability":"view"},{"type":"function","name":"rebookTime","inputs":[{"name":"","type":"bytes32","internalType":"bytes32"}],"outputs":[{"name":"","type":"uint256","internalType":"uint256"}],"stateMutability":"view"},{"type":"function","name":"removeFromPairIndex","inputs":[{"name":"orderId","type":"bytes32","internalType":"bytes32"}],"outputs":[],"stateMutability":"nonpayable"},{"type":"function","name":"renounceOwnership","inputs":[],"outputs":[],"stateMutability":"nonpayable"},{"type":"function","name":"setWalletSwapMain","inputs":[{"name":"_walletSwapMain","type":"address","internalType":"address"}],"outputs":[],"stateMutability":"nonpayable"},{"type":"function","name":"tokenMonthlyVolume","inputs":[{"name":"","type":"address","internalType":"address"},{"name":"","type":"uint256","internalType":"uint256"}],"outputs":[{"name":"","type":"uint256","internalType":"uint256"}],"stateMutability":"view"},{"type":"function","name":"transferOwnership","inputs":[{"name":"newOwner","type":"address","internalType":"address"}],"outputs":[],"stateMutability":"nonpayable"},{"type":"function","name":"updateOrderFill","inputs":[{"name":"orderId","type":"bytes32","internalType":"bytes32"},{"name":"amountFilled","type":"uint256","internalType":"uint256"}],"outputs":[],"stateMutability":"nonpayable"},{"type":"function","name":"updateOrderStatus","inputs":[{"name":"orderId","type":"bytes32","internalType":"bytes32"},{"name":"newStatus","type":"uint8","internalType":"enum EulerLagrangeOrderProcessor.OrderStatus"}],"outputs":[],"stateMutability":"nonpayable"},{"type":"function","name":"walletSwapMain","inputs":[],"outputs":[{"name":"","type":"address","internalType":"address"}],"stateMutability":"view"},{"type":"function","name":"whitelistToken","inputs":[{"name":"","type":"address","internalType":"address"}],"outputs":[],"stateMutability":"pure"},{"type":"event","name":"CrossChainOrderCreated","inputs":[{"name":"orderId","type":"bytes32","indexed":true,"internalType":"bytes32"},{"name":"targetChainId","type":"uint256","indexed":false,"internalType":"uint256"},{"name":"timestamp","type":"uint256","indexed":false,"internalType":"uint256"}],"anonymous":false},{"type":"event","name":"OrderCancelled","inputs":[{"name":"orderId","type":"bytes32","indexed":true,"internalType":"bytes32"},{"name":"reason","type":"string","indexed":false,"internalType":"string"},{"name":"timestamp","type":"uint256","indexed":false,"internalType":"uint256"}],"anonymous":false},{"type":"event","name":"OrderCreated","inputs":[{"name":"orderId","type":"bytes32","indexed":true,"internalType":"bytes32"},{"name":"maker","type":"address","indexed":true,"internalType":"address"},{"name":"tokenIn","type":"address","indexed":true,"internalType":"address"},{"name":"tokenOut","type":"address","indexed":false,"internalType":"address"},{"name":"typeIn","type":"uint8","indexed":false,"internalType":"enum EulerLagrangeOrderProcessor.AssetType"},{"name":"typeOut","type":"uint8","indexed":false,"internalType":"enum EulerLagrangeOrderProcessor.AssetType"},{"name":"amountIn","type":"uint256","indexed":false,"internalType":"uint256"},{"name":"amountOut","type":"uint256","indexed":false,"internalType":"uint256"},{"name":"minutesValueIn","type":"uint256","indexed":false,"internalType":"uint256"},{"name":"targetChainId","type":"uint256","indexed":false,"internalType":"uint256"},{"name":"timestamp","type":"uint256","indexed":false,"internalType":"uint256"}],"anonymous":false},{"type":"event","name":"OrderExpired","inputs":[{"name":"orderId","type":"bytes32","indexed":true,"internalType":"bytes32"},{"name":"timestamp","type":"uint256","indexed":false,"internalType":"uint256"}],"anonymous":false},{"type":"event","name":"OrderFilled","inputs":[{"name":"orderId","type":"bytes32","indexed":true,"internalType":"bytes32"},{"name":"filledAmount","type":"uint256","indexed":false,"internalType":"uint256"},{"name":"remainingAmount","type":"uint256","indexed":false,"internalType":"uint256"},{"name":"timestamp","type":"uint256","indexed":false,"internalType":"uint256"}],"anonymous":false},{"type":"event","name":"OrderMatched","inputs":[{"name":"orderIdA","type":"bytes32","indexed":true,"internalType":"bytes32"},{"name":"orderIdB","type":"bytes32","indexed":true,"internalType":"bytes32"},{"name":"timestamp","type":"uint256","indexed":false,"internalType":"uint256"}],"anonymous":false},{"type":"event","name":"OrderPartiallyFilled","inputs":[{"name":"orderId","type":"bytes32","indexed":true,"internalType":"bytes32"},{"name":"filledAmount","type":"uint256","indexed":false,"internalType":"uint256"},{"name":"remainingAmount","type":"uint256","indexed":false,"internalType":"uint256"},{"name":"timestamp","type":"uint256","indexed":false,"internalType":"uint256"}],"anonymous":false},{"type":"event","name":"OrderProcessorInitialized","inputs":[{"name":"owner","type":"address","indexed":true,"internalType":"address"}],"anonymous":false},{"type":"event","name":"OrderRebooked","inputs":[{"name":"orderId","type":"bytes32","indexed":true,"internalType":"bytes32"},{"name":"attempt","type":"uint8","indexed":false,"internalType":"uint8"},{"name":"newExpiry","type":"uint256","indexed":false,"internalType":"uint256"}],"anonymous":false},{"type":"event","name":"OwnershipTransferred","inputs":[{"name":"previousOwner","type":"address","indexed":true,"internalType":"address"},{"name":"newOwner","type":"address","indexed":true,"internalType":"address"}],"anonymous":false}],"bytecode":{"object":"0x60803461021257601f6124b838819003918201601f19168301916001600160401b0383118484101761021757808492606094604052833981010312610212576100478161022d565b9061006060406100596020840161022d565b920161022d565b60008054336001600160a01b0319821681178355604051959394939290916001600160a01b0316907f8be0079c531659141344cd1fd0a4f28419497f9722a3daafe3b4186f6b6457e09080a3600180556001600160a01b03169283156101d057506001600160a01b031690811561018b576001600160a01b03169182156101465760018060a01b0319600254161760025560018060a01b0319600354161760035560018060a01b03196004541617600455604051337f3a6fa654aaa7e925b6a99dfcdc904947dadeb0153635377836a5888ffe81ef50600080a261227690816102428239f35b60405162461bcd60e51b815260206004820152601660248201527f496e76616c6964206173736574207665726966696572000000000000000000006044820152606490fd5b60405162461bcd60e51b815260206004820152601760248201527f496e76616c696420666565206469737472696275746f720000000000000000006044820152606490fd5b62461bcd60e51b815260206004820152601660248201527f496e76616c6964206c697175696469747920706f6f6c000000000000000000006044820152606490fd5b600080fd5b634e487b7160e01b600052604160045260246000fd5b51906001600160a01b03821682036102125756fe6080604052600436101561001257600080fd5b60003560e01c80625fdc0a146119f457806301fbac8f146119cb57806304749b001461198f5780630d43e8ad146119665780630f25e8301461194857806312d35eed146118225780631fd321ed146117bf5780632372208414611781578063270f6a04146117655780633921a778146117485780633eb6e8461461172b5780635778472a146114925780636247f6f214611479578063665a11ca146114505780636ebbabe9146113d1578063715018a61461137857806373baee2514610b625780637489ec2314610961578063829c6088146109355780638685664b146109095780638d0a5fbb146108eb5780638d200083146108995780638da5cb5b146108705780638f7c0fbf146108285780639c3f1e90146106f75780639e8de3ed146106ce578063afaf0d8b1461045f578063afdec19e14610427578063b867404414610403578063e4d95e2c146103df578063e895b59a146103c2578063f2fde38b146102fb578063fbc90984146102df5763fe8576c71461019157600080fd5b346102da5760203660031901126102da5760043560018060a01b0360055416331480156102c6575b6101c2906120c8565b600081815260066020908152604080832060018101546002909101546001600160a01b039182168552600d845282852091168452909152812091905b8254808210156102c457826102138386611d38565b90549060031b1c1461022857506001016101fe565b6000198101925082116102ae5761025361024561026c9385611d38565b90549060031b1c9184611d38565b90919082549060031b91821b91600019901b1916179055565b805480156102985760001901906102838282611d38565b8154906000199060031b1b1916905555600080f35b634e487b7160e01b600052603160045260246000fd5b634e487b7160e01b600052601160045260246000fd5b005b506000546001600160a01b031633146101b9565b600080fd5b346102da5760003660031901126102da57602060405160008152f35b346102da5760203660031901126102da57610314611cdb565b61031c6121e8565b6001600160a01b0316801561036e57600080546001600160a01b03198116831782556001600160a01b0316907f8be0079c531659141344cd1fd0a4f28419497f9722a3daafe3b4186f6b6457e09080a3005b60405162461bcd60e51b815260206004820152602660248201527f4f776e61626c653a206e6577206f776e657220697320746865207a65726f206160448201526564647265737360d01b6064820152608490fd5b346102da5760003660031901126102da5760206040516123288152f35b346102da5760003660031901126102da576020604051681b1ae4d6e2ef5000008152f35b346102da5760003660031901126102da576020604051683635c9adc5dea000008152f35b346102da5760203660031901126102da576004356008548110156102da57610450602091611d07565b90549060031b1c604051908152f35b346102da5760403660031901126102da576004356024359060018060a01b0360055416331480156106ba575b610494906120c8565b806000526006602052604060002090600b82019260ff84541660058110156106a4578015908115610699575b50156106615760088301936104d6828654612185565b94858155600485019283549081881161062f57816104fc6105019260058a015490611d77565b611d8a565b96036105db57507fe678418be901ac9a27919225bd4d60e450082ef609d1c5e6790e2a201b0e043091606091600160ff198254161790555460405190815260006020820152426040820152a25b8161055557005b60028054600183015492909101546001600160a01b0390811693928116929116803b156102da576040516350da5ecf60e01b81526001600160a01b03938416600482015293909216602484015260448301526000908290818381606481015b03925af180156105cf576105c457005b60006102c491612120565b6040513d6000823e3d90fd5b916106187fe4ad01a1e9b8a9a59f1a6c25343628c6f961b0f66f58ff8e76cf900ae06c95ad93606093600260ff1982541617905554809254611d6a565b6040519182526020820152426040820152a261054e565b60405162461bcd60e51b815260206004820152600a60248201526913dd995c999a5b1b195960b21b6044820152606490fd5b60405162461bcd60e51b815260206004820152601060248201526f4f72646572206e6f742061637469766560801b6044820152606490fd5b6002915014856104c0565b634e487b7160e01b600052602160045260246000fd5b506000546001600160a01b0316331461048b565b346102da5760003660031901126102da576004546040516001600160a01b039091168152602090f35b346102da5760203660031901126102da5760043560005260066020526040600020600160a01b6001900381541690600160a01b600190036001820154169060028101546003820154600483015460058401546006850154600786015490600887015492600988015494600a89015496600b8a015498600c8b01549a600d01549b604051809e8152602001528c600160a01b600190038216906040015260608d018160a01c60ff16906107a891611d50565b60808d019060a81c60ff16906107bd91611d50565b60a08c015260c08b015260e08a01526101008901526101208801526101408701526101608601526101808501526107fb6101a0850160ff8316611d5d565b8060081c60ff1615156101c085015260101c60ff166101e084015261020083015261022082015261024090f35b346102da5760403660031901126102da576001600160a01b03610849611cdb565b16600052600c60205260406000206024356000526020526020604060002054604051908152f35b346102da5760003660031901126102da576000546040516001600160a01b039091168152602090f35b346102da5760203660031901126102da57600435600a548110156102da57600090600a548110156108d757602082600a829452200154604051908152f35b634e487b7160e01b82526032600452602482fd5b346102da5760003660031901126102da576020600754604051908152f35b346102da5760203660031901126102da5760043560005260096020526020604060002054604051908152f35b346102da5760203660031901126102da57600435600052600b6020526020604060002054604051908152f35b346102da5760203660031901126102da5760043561097d612192565b806000526006602052604060002060018060a01b0381541633148015610b4e575b8015610b3a575b6109ae906120c8565b600b810160ff81541660058110156106a4578015908115610b2f575b5015610af257600360ff19825416179055610a0d6005820154610a076109f4826008860154611d77565b600485015480610aec5750600190611d8a565b90611d6a565b9081610a6a575b827f9fd0bba2c594ed767890777df1ba413a19b3ba8007b41fe1abbc056e66706342608060405160408152600e60408201526d155cd95c8818d85b98d95b1b195960921b6060820152426020820152a260018055005b60028054600183015492909101546001600160a01b0390811693928116929116803b156102da576040516350da5ecf60e01b81526001600160a01b03938416600482015293909216602484015260448301526000908290606490829084905af180156105cf57610adb575b80610a14565b6000610ae691612120565b81610ad5565b90611d8a565b60405162461bcd60e51b81526020600482015260156024820152744f72646572206e6f742063616e63656c6c61626c6560581b6044820152606490fd5b6002915014846109ca565b506005546001600160a01b031633146109a5565b506000546001600160a01b0316331461099e565b346102da576101a03660031901126102da57610b7c611cdb565b610b84611cf1565b90604435906001600160a01b03821682036102da57600260643510156102da57600260843510156102da57610164359182151583036102da576101843593610bca612192565b6001600160a01b03811615801590611366575b801561135c575b156113045760a4351515806112f9575b156112c25760e4351515806112b6575b1561127157426101443511156112375760405160208101906001600160601b03198560601b1682526001600160601b03198360601b1660348201526001600160601b03198460601b166048820152610c61605c820160643561214e565b610c70605d820160843561214e565b60a435605e82015260c435607e82015260e435609e8201526101043560be8201524260de8201524360fe82015260fe8152610cad61011e82612120565b519020600081815260066020819052604090912080546001600160a01b03199081166001600160a01b0388811691909117835560018084018054909316878316179092556002830180546001600160b01b0319169188169190911760643560a081901b60ff60a01b169190911760843560a81b60ff60a81b161790915560a435600384015560c435600484015560e4356005840155610104359383019390935561012435600783015542600983015561014435600a830155600b8201805461ffff191698151560081b61ff001698909817909755600d810188905591950361111f576004805460405163ba576ef360e01b81526001600160a01b0385811693820193909352868316602482015260a4356044820152929160209184916064918391600091165af19182156105cf576000926110ea575b50600c01555b600754600160401b8110156110035784610253826001610e0e94016007556007611d38565b83600052600960205260e4356040600020556008548060005b8181106110b4575b5081810361102a575050610e428461215e565b6002546001600160a01b031692833b156102da57604051637253b39360e11b81526001600160a01b0383811660048301528416602482015260e4356044820152936000908590606490829084905af19384156105cf57604094611019575b5060018060a01b038216600052600c6020528360002062278d00420460005260205283600020610ed360e4358254612185565b905583516001600160a01b0384168152610ef260208201606435611d50565b610f00858201608435611d50565b60a435606082015260c435608082015260e43560a082015260c081018790524260e08201526001600160a01b0383811692169086907ff4481b89f4e50abc64d93b0364ace034134256f8ae5b8bb26d6429d26680addc9061010090a46001600160a01b039081166000908152600d60209081528482209390921681529190522080549092600160401b82101561100357610fa7836102538460209760018497018155611d38565b80151580610ff9575b610fc3575b505060018055604051908152f35b60407fb92fdedb2eafbdfb4c63efe5e12ad5465c5696045bf8ef323c9bd6624e4f5db29181519081524286820152a28083610fb5565b5046811415610fb0565b634e487b7160e01b600052604160045260246000fd5b600061102491612120565b86610ea0565b60001981019081116102ae5761104261104e91611d07565b90549060031b1c61215e565b60085460011981019081116102ae5785905b828111611079575061025361107492611d07565b610e42565b905060001981018181116102ae576110936110a391611d07565b90549060031b1c61025383611d07565b80156102ae57859060001901611060565b6110bd81611d07565b90549060031b1c600052600960205260e435604060002054116110e257600101610e27565b915087610e2f565b9091506020813d602011611117575b8161110660209383612120565b810103126102da575190600c610de3565b3d91506110f9565b6001600160a01b0382161580611223575b1561119057600c60405160208101906001600160601b03198560601b1682526001600160601b03198760601b16603482015260a43560488201524260688201524360888201526088815261118560a882612120565b519020910155610de9565b6004805460405163025364b960e01b81526001600160a01b0385811693820193909352868316602482015260a4356044820152929160209184916064918391600091165af19182156105cf576000926111ee575b50600c0155610de9565b9091506020813d60201161121b575b8161120a60209383612120565b810103126102da575190600c6111e4565b3d91506111fd565b506005546001600160a01b03163314611130565b60405162461bcd60e51b815260206004820152601260248201527124b73b30b634b21032bc3834b930ba34b7b760711b6044820152606490fd5b60405162461bcd60e51b815260206004820152601960248201527f496e76616c6964206d696e757465732076616c756174696f6e000000000000006044820152606490fd5b50610104351515610c04565b60405162461bcd60e51b815260206004820152600f60248201526e496e76616c696420616d6f756e747360881b6044820152606490fd5b5060c4351515610bf4565b60405162461bcd60e51b815260206004820152602a60248201527f426f746820746f6b656e732063616e6e6f74206265206e6174697665206f6e2060448201526939b0b6b29031b430b4b760b11b6064820152608490fd5b5046851415610be4565b506001600160a01b0382161515610bdd565b346102da5760003660031901126102da576113916121e8565b600080546001600160a01b0319811682556001600160a01b03167f8be0079c531659141344cd1fd0a4f28419497f9722a3daafe3b4186f6b6457e08280a3005b346102da5760203660031901126102da576113ea611cdb565b6113f26121e8565b6001600160a01b03168015611419576001600160601b0360a01b6005541617600555600080f35b60405162461bcd60e51b815260206004820152600f60248201526e496e76616c6964206164647265737360881b6044820152606490fd5b346102da5760003660031901126102da576002546040516001600160a01b039091168152602090f35b346102da5760203660031901126102da576102c4611cdb565b346102da5760203660031901126102da5760006102206040516114b481612103565b8281528260208201528260408201528260608201528260808201528260a08201528260c08201528260e08201528261010082015282610120820152826101408201528261016082015282610180820152826101a0820152826101c0820152826101e08201528261020082015201526004356000526006602052604060002060405161153e81612103565b81546001600160a01b0390811682526001830154811660208301526002830154908116604083015261158d9060ff9061158060a082901c831660608601612142565b60a81c1660808301612142565b600382015460a0820152600482015460c0820152600582015460e08201526006820154610100820152600782015461012082015260088201546101408201526009820154610160820152600a820154610180820152600b82015460ff81169260058410156106a45760ff600d92610240956101a0860152818160081c1615156101c086015260101c166101e0840152600c81015461020084015201546102208201526102206040519160018060a01b03815116835260018060a01b03602082015116602084015260018060a01b03604082015116604084015261167860608201516060850190611d50565b61168a60808201516080850190611d50565b60a081015160a084015260c081015160c084015260e081015160e08401526101008101516101008401526101208101516101208401526101408101516101408401526101608101516101608401526101808101516101808401526116f86101a08201516101a0850190611d5d565b6101c081015115156101c084015260ff6101e0820151166101e08401526102008101516102008401520151610220820152f35b346102da5760003660031901126102da5760206040516127108152f35b346102da5760003660031901126102da5760206040516103e88152f35b346102da5760003660031901126102da57602060405160038152f35b346102da5760203660031901126102da576004356007548110156102da576000906007548110156108d7576020826007829452200154604051908152f35b346102da5760603660031901126102da576117d8611cdb565b6117e0611cf1565b6044359160018060a01b0316600052600d60205260406000209060018060a01b0316600052602052604060002080548210156102da5760209161045091611d38565b346102da5760403660031901126102da5760243560043560058210156102da576000546001600160a01b031633148015611934575b611860906120c8565b8060005260066020526001604060002092600b840160ff1981541660ff83161790551461188957005b7fe678418be901ac9a27919225bd4d60e450082ef609d1c5e6790e2a201b0e04306060600484015480600886015560405190815260006020820152426040820152a2600280546001830154918301546005909301546001600160a01b039384169392831692909116803b156102da576040516350da5ecf60e01b81526001600160a01b03938416600482015293909216602484015260448301526000908290818381606481016105b4565b506005546001600160a01b03163314611857565b346102da5760003660031901126102da576020600854604051908152f35b346102da5760003660031901126102da576003546040516001600160a01b039091168152602090f35b346102da5760803660031901126102da5760206119c36119ad611cdb565b6119b5611cf1565b906064359160443591611daa565b604051908152f35b346102da5760003660031901126102da576005546040516001600160a01b039091168152602090f35b346102da5760003660031901126102da57611a0d612192565b60005b600854811015611cd557611a2381611d07565b90549060031b1c908160005260066020526040600020600a8101544211611a50575b506001915001611a10565b600b015460ff1660058110156106a45715611a6c575b81611a45565b8160005260066020526040600020600b8101805460ff8160081c169081611cc3575b5015611c30576008820191825461271081029080820461271014901517156102ae57611ac1600591600484015490611d8a565b910154683635c9adc5dea00000811115611c0e57506103e8905b1015611bc2575050816000526006602052604060002091600b8301805460ff8160101c1660ff81146102ae57600162ff0000910160101b169062ff0000191617815560006008600a860195611b42611b398854600984015490611d6a565b60011c42612185565b87550155805460ff19168155600a5490600160401b8210156110035760019460ff604092611b9c86610253878b7f9deddb45f59cb5786543eaa633ac0f194c80315177f55cb470072ae29163525c9901600a55600a611d38565b85600052600b6020524284600020555460101c16905482519182526020820152a2611a66565b6060600194927fe678418be901ac9a27919225bd4d60e450082ef609d1c5e6790e2a201b0e0430928660ff198254161790555460405190815260006020820152426040820152a2611a66565b681b1ae4d6e2ef5000001015611c275761232890611adb565b61138890611adb565b9050600460ff19825416179055817fb558d5482812b2534f438b36f51829f6e03f661867361d72cedc9b2ce486d9596020604051428152a26005546001600160a01b031680611c84575b5060019150611a66565b803b156102da5760008091602460019560405194859384926332bc3ff360e01b845260048401525af115611c7a576000611cbd91612120565b82611c7a565b6003915060ff9060101c161085611a8e565b60018055005b600435906001600160a01b03821682036102da57565b602435906001600160a01b03821682036102da57565b600854811015611d2257600860005260206000200190600090565b634e487b7160e01b600052603260045260246000fd5b8054821015611d225760005260206000200190600090565b9060028210156106a45752565b9060058210156106a45752565b919082039182116102ae57565b818102929181159184041417156102ae57565b8115611d94570490565b634e487b7160e01b600052601260045260246000fd5b6001600160a01b039182166000908152600d60209081526040808320949093168252929092528120805493915b848110611de8575050505050600090565b611df28183611d38565b90549060031b1c806000526006602052604060002060ff600b8201541690600582101591826106a457801515806120b9575b80156120ac575b61209557600d82015480151590816120a1575b5061209557600882015492831561208357611e70611e6160048501549586611d6a565b946104fc600386015487611d77565b925b6002600091015460ff8160a01c1690600282101561206f578115918280612058575b15611ef25750505050505090611eaa8783611d77565b611eb48288611d77565b11159182611ee8575b5081611ede575b505b611ed557506001905b01611dd7565b94505050505090565b9050151538611ec4565b1515915038611ebd565b60011491828061202d575b15611f3c57505050506106a45787916002889214611f2f57149182611f24575b5050611ec6565b111590508538611f1d565b5050505050600190611ecf565b80612000575b15611f72575050506106a45787916002889214611f2f5710159182611f68575050611ec6565b1490508538611f1d565b919593929181611fd2575b50611f8c575b50505050611ec6565b9390919293611fbe575086916002899214611f2f57149182611fb4575b505038808080611f83565b1490508438611fa9565b634e487b7160e01b81526021600452602490fd5b60ff915060a81c166002811015611fec5760011438611f7d565b634e487b7160e01b86526021600452602486fd5b5060ff8160a81c16600281101561201957600114611f42565b634e487b7160e01b84526021600452602484fd5b5060ff8260a81c1660028110156120445715611efd565b634e487b7160e01b85526021600452602485fd5b5060ff8260a81c1660028110156120445715611e94565b634e487b7160e01b83526021600452602483fd5b60038301546004840154945092611e72565b50505050600190611ecf565b905046141538611e3e565b50600a8201544211611e2b565b50600092506002811415611e24565b156120cf57565b60405162461bcd60e51b815260206004820152600c60248201526b155b985d5d1a1bdc9a5e995960a21b6044820152606490fd5b610240810190811067ffffffffffffffff82111761100357604052565b90601f8019910116810190811067ffffffffffffffff82111761100357604052565b60028210156106a45752565b60028110156106a45760f81b9052565b60085490600160401b8210156110035761025382600161218394016008556008611d38565b565b919082018092116102ae57565b6002600154146121a3576002600155565b60405162461bcd60e51b815260206004820152601f60248201527f5265656e7472616e637947756172643a207265656e7472616e742063616c6c006044820152606490fd5b6000546001600160a01b031633036121fc57565b606460405162461bcd60e51b815260206004820152602060248201527f4f776e61626c653a2063616c6c6572206973206e6f7420746865206f776e65726044820152fdfea26469706673582212202ac6655b1efb208e28dd2bbd231182232a30446818b75ffe0704c90fb2d9346164736f6c63430008210033","linkReferences":{}},"methodIdentifiers":{"BPS_MAX()":"3eb6e846","LARGE_ORDER_REBOOK_THRESHOLD()":"e895b59a","LARGE_ORDER_THRESHOLD()":"e4d95e2c","MAX_REBOOK_ATTEMPTS()":"270f6a04","MEGA_ORDER_REBOOK_THRESHOLD()":"3921a778","MEGA_ORDER_THRESHOLD()":"b8674044","MINIMUM_ORDER_VALUE()":"fbc90984","assetVerifier()":"9e8de3ed","cancelOrder(bytes32)":"7489ec23","createOrder(address,address,address,uint8,uint8,uint256,uint256,uint256,uint256,uint256,uint256,bool,uint256)":"73baee25","feeDistributor()":"0d43e8ad","findMatchingOrder(address,address,uint256,uint256)":"04749b00","getOrder(bytes32)":"5778472a","getOrderCount()":"8d0a5fbb","getOrderQueueLength()":"0f25e830","liquidityPool()":"665a11ca","orderIds(uint256)":"23722084","orderQueue(uint256)":"afdec19e","orderSizes(bytes32)":"8685664b","orders(bytes32)":"9c3f1e90","ordersByPair(address,address,uint256)":"1fd321ed","owner()":"8da5cb5b","processOrders()":"005fdc0a","rebookQueue(uint256)":"8d200083","rebookTime(bytes32)":"829c6088","removeFromPairIndex(bytes32)":"fe8576c7","renounceOwnership()":"715018a6","setWalletSwapMain(address)":"6ebbabe9","tokenMonthlyVolume(address,uint256)":"8f7c0fbf","transferOwnership(address)":"f2fde38b","updateOrderFill(bytes32,uint256)":"afaf0d8b","updateOrderStatus(bytes32,uint8)":"12d35eed","walletSwapMain()":"01fbac8f","whitelistToken(address)":"6247f6f2"},"id":44}