{"abi":[{"type":"constructor","inputs":[],"stateMutability":"nonpayable"},{"type":"function","name":"activeVerificationIds","inputs":[{"name":"","type":"uint256","internalType":"uint256"}],"outputs":[{"name":"","type":"bytes32","internalType":"bytes32"}],"stateMutability":"view"},{"type":"function","name":"checkVerification","inputs":[{"name":"verificationId","type":"bytes32","internalType":"bytes32"}],"outputs":[{"name":"","type":"bool","internalType":"bool"}],"stateMutability":"view"},{"type":"function","name":"endVerification","inputs":[{"name":"verificationId","type":"bytes32","internalType":"bytes32"}],"outputs":[],"stateMutability":"nonpayable"},{"type":"function","name":"getActiveVerificationCount","inputs":[],"outputs":[{"name":"","type":"uint256","internalType":"uint256"}],"stateMutability":"view"},{"type":"function","name":"getActiveVerifications","inputs":[],"outputs":[{"name":"","type":"bytes32[]","internalType":"bytes32[]"}],"stateMutability":"view"},{"type":"function","name":"getVerification","inputs":[{"name":"verificationId","type":"bytes32","internalType":"bytes32"}],"outputs":[{"name":"","type":"tuple","internalType":"struct AssetVerifier.Verification","components":[{"name":"token","type":"address","internalType":"address"},{"name":"owner","type":"address","internalType":"address"},{"name":"amount","type":"uint256","internalType":"uint256"},{"name":"tokenId","type":"uint256","internalType":"uint256"},{"name":"isNft","type":"bool","internalType":"bool"},{"name":"timestamp","type":"uint256","internalType":"uint256"},{"name":"active","type":"bool","internalType":"bool"}]}],"stateMutability":"view"},{"type":"function","name":"owner","inputs":[],"outputs":[{"name":"","type":"address","internalType":"address"}],"stateMutability":"view"},{"type":"function","name":"renounceOwnership","inputs":[],"outputs":[],"stateMutability":"nonpayable"},{"type":"function","name":"transferOwnership","inputs":[{"name":"newOwner","type":"address","internalType":"address"}],"outputs":[],"stateMutability":"nonpayable"},{"type":"function","name":"verificationIndex","inputs":[{"name":"","type":"bytes32","internalType":"bytes32"}],"outputs":[{"name":"","type":"uint256","internalType":"uint256"}],"stateMutability":"view"},{"type":"function","name":"verifications","inputs":[{"name":"","type":"bytes32","internalType":"bytes32"}],"outputs":[{"name":"token","type":"address","internalType":"address"},{"name":"owner","type":"address","internalType":"address"},{"name":"amount","type":"uint256","internalType":"uint256"},{"name":"tokenId","type":"uint256","internalType":"uint256"},{"name":"isNft","type":"bool","internalType":"bool"},{"name":"timestamp","type":"uint256","internalType":"uint256"},{"name":"active","type":"bool","internalType":"bool"}],"stateMutability":"view"},{"type":"function","name":"verifyNft","inputs":[{"name":"token","type":"address","internalType":"address"},{"name":"owner","type":"address","internalType":"address"},{"name":"tokenId","type":"uint256","internalType":"uint256"}],"outputs":[{"name":"","type":"bytes32","internalType":"bytes32"}],"stateMutability":"nonpayable"},{"type":"function","name":"verifyToken","inputs":[{"name":"token","type":"address","internalType":"address"},{"name":"owner","type":"address","internalType":"address"},{"name":"amount","type":"uint256","internalType":"uint256"}],"outputs":[{"name":"","type":"bytes32","internalType":"bytes32"}],"stateMutability":"nonpayable"},{"type":"event","name":"AssetMoved","inputs":[{"name":"verificationId","type":"bytes32","indexed":true,"internalType":"bytes32"},{"name":"token","type":"address","indexed":true,"internalType":"address"},{"name":"from","type":"address","indexed":true,"internalType":"address"},{"name":"to","type":"address","indexed":false,"internalType":"address"}],"anonymous":false},{"type":"event","name":"AssetVerifierInitialized","inputs":[{"name":"owner","type":"address","indexed":true,"internalType":"address"}],"anonymous":false},{"type":"event","name":"OwnershipTransferred","inputs":[{"name":"previousOwner","type":"address","indexed":true,"internalType":"address"},{"name":"newOwner","type":"address","indexed":true,"internalType":"address"}],"anonymous":false},{"type":"event","name":"VerificationEnded","inputs":[{"name":"verificationId","type":"bytes32","indexed":true,"internalType":"bytes32"},{"name":"success","type":"bool","indexed":false,"internalType":"bool"}],"anonymous":false},{"type":"event","name":"VerificationStarted","inputs":[{"name":"verificationId","type":"bytes32","indexed":true,"internalType":"bytes32"},{"name":"token","type":"address","indexed":true,"internalType":"address"},{"name":"owner","type":"address","indexed":true,"internalType":"address"},{"name":"amount","type":"uint256","indexed":false,"internalType":"uint256"},{"name":"isNft","type":"bool","indexed":false,"internalType":"bool"}],"anonymous":false}],"bytecode":{"object":"0x6080806040523460805760008054336001600160a01b0319821681178355916001600160a01b03909116907f8be0079c531659141344cd1fd0a4f28419497f9722a3daafe3b4186f6b6457e09080a3337f62a7e204bbc7da659e2cbc5b4640ea5d23f458d04b3ea00a0b0eaa07265793db600080a2610f0990816100868239f35b600080fdfe6080604052600436101561001257600080fd5b60003560e01c8063025364b91461091357806310c74e161461088c5780633ce92b00146107d25780635546ef68146107a6578063715018a61461074d5780637a21baa0146107255780638da5cb5b146106fc57806394ef2440146105f75780639c733430146105d9578063ba576ef314610322578063c5cb851d146101b3578063f2fde38b146100e85763fd07833c146100ab57600080fd5b346100e35760203660031901126100e3576004356002548110156100e3576100d4602091610b9f565b90549060031b1c604051908152f35b600080fd5b346100e35760203660031901126100e3576004356001600160a01b038116908190036100e357610116610e7b565b801561015f57600080546001600160a01b03198116831782556001600160a01b0316907f8be0079c531659141344cd1fd0a4f28419497f9722a3daafe3b4186f6b6457e09080a3005b60405162461bcd60e51b815260206004820152602660248201527f4f776e61626c653a206e6577206f776e657220697320746865207a65726f206160448201526564647265737360d01b6064820152608490fd5b346100e35760203660031901126100e3576004358060005260016020526006604060002001805460ff8116156102dd5760ff19169055806000526003602052604060002054600254808210610270575b5050600254801561025a576000190161021b81610b9f565b8154906000199060031b1b191690556002557f855cfeb3f328c60ce0ecf32fb59945d27bbd3ace71cedba0b4bd64a00f7f2efb602060405160018152a2005b634e487b7160e01b600052603160045260246000fd5b60001981019081116102c75761028590610b9f565b90549060031b1c6102b28161029984610b9f565b90919082549060031b91821b91600019901b1916179055565b60005260036020526040600020558180610203565b634e487b7160e01b600052601160045260246000fd5b60405162461bcd60e51b815260206004820152601760248201527f566572696669636174696f6e206e6f74206163746976650000000000000000006044820152606490fd5b346100e35761033036610b65565b906001600160a01b03831680156105a4576001600160a01b03821691610357831515610bd0565b6040516331a9108f60e11b815260048101859052602081602481865afa60009181610573575b506103c75760405162461bcd60e51b815260206004820152601a60248201527f4e4654206f776e65727368697020636865636b206661696c65640000000000006044820152606490fd5b6001600160a01b031683900361053e576020946103f96104076104eb936040519283918a8301958a4392429289610c60565b03601f198101835282610c3e565b5190209360066040519161041a83610c0c565b848352878301908682526104cf6040850191600083526060860190815260808601906001825260a087019342855260c0880195600187528c60005260018e5260406000209860018060a01b039060018060a01b03905116166001600160601b0360a01b8a541617895560018060a01b03905116600189019060018060a01b03166001600160601b0360a01b825416179055516002880155516003870155511515600486019060ff801983541691151516179055565b51600584015551151591019060ff801983541691151516179055565b600254836000526003855260406000205561050583610c9d565b827f79c83391cfccac95f733ad7950aee12248ec67f64a653a4a9fce9d0e2d2aab316040805160008152600188820152a4604051908152f35b60405162461bcd60e51b815260206004820152600d60248201526c2737ba103a34329037bbb732b960991b6044820152606490fd5b61059691925060203d60201161059d575b61058e8183610c3e565b810190610d0a565b908761037d565b503d610584565b60405162461bcd60e51b815260206004820152600d60248201526c24b73b30b634b2103a37b5b2b760991b6044820152606490fd5b346100e35760003660031901126100e3576020600254604051908152f35b346100e35760203660031901126100e357600060c060405161061881610c0c565b8281528260208201528260408201528260608201528260808201528260a08201520152600435600052600160205260e0604060002060405161065981610c0c565b60018060a01b038254169182825260018060a01b03600182015416602083019081526002820154604084019081526003830154906060850191825260ff6004850154169260808601931515845260c060ff600660058801549760a08a019889520154169601951515865260405196875260018060a01b03905116602087015251604086015251606085015251151560808401525160a083015251151560c0820152f35b346100e35760003660031901126100e3576000546040516001600160a01b039091168152602090f35b346100e35760203660031901126100e3576020610743600435610d29565b6040519015158152f35b346100e35760003660031901126100e357610766610e7b565b600080546001600160a01b0319811682556001600160a01b03167f8be0079c531659141344cd1fd0a4f28419497f9722a3daafe3b4186f6b6457e08280a3005b346100e35760203660031901126100e35760043560005260036020526020604060002054604051908152f35b346100e35760003660031901126100e3576040518060206002549283815201809260026000527f405787fa12a823e0f2b7631cc41b3ba8828b3321ca811111fa75cd3aa3bb5ace9060005b8181106108765750505081610833910382610c3e565b6040519182916020830190602084525180915260408301919060005b81811061085d575050500390f35b825184528594506020938401939092019160010161084f565b825484526020909301926001928301920161081d565b346100e35760203660031901126100e357600435600052600160205260e0604060002060018060a01b038154169060018060a01b03600182015416906002810154600382015460ff6004840154169160ff6006600586015495015416946040519687526020870152604086015260608501521515608084015260a0830152151560c0820152f35b346100e35761092136610b65565b9091906001600160a01b0383169061093a821515610bd0565b8015610b2f576001600160a01b03831690600082610ab457508085315b10610a78577f79c83391cfccac95f733ad7950aee12248ec67f64a653a4a9fce9d0e2d2aab316040946103f961099d60209888519283918b830195884392429289610c60565b519020948592610a4b82516109b181610c0c565b868152898101888152848201848152600060608401818152608085018281524260a08701908152600160c088018181528d86526020829052948b9020975188546001600160a01b039182166001600160a01b0319918216178a559751918901805492909116919097161790955592516002860155516003850155905160048401805460ff191691151560ff169190911790556006916104cf565b60025484600052600389528260002055610a6484610c9d565b8151908152600088820152a4604051908152f35b60405162461bcd60e51b8152602060048201526014602482015273496e73756666696369656e742062616c616e636560601b6044820152606490fd5b6040516370a0823160e01b815260048101859052602081602481875afa918215610b235790818493610ae8575b5050610957565b915091506020823d602011610b1b575b81610b0560209383610c3e565b81010312610b1857508190518780610ae1565b80fd5b3d9150610af8565b604051903d90823e3d90fd5b60405162461bcd60e51b815260206004820152600e60248201526d125b9d985b1a5908185b5bdd5b9d60921b6044820152606490fd5b60609060031901126100e3576004356001600160a01b03811681036100e357906024356001600160a01b03811681036100e3579060443590565b600254811015610bba57600260005260206000200190600090565b634e487b7160e01b600052603260045260246000fd5b15610bd757565b60405162461bcd60e51b815260206004820152600d60248201526c24b73b30b634b21037bbb732b960991b6044820152606490fd5b60e0810190811067ffffffffffffffff821117610c2857604052565b634e487b7160e01b600052604160045260246000fd5b90601f8019910116810190811067ffffffffffffffff821117610c2857604052565b939160889593916001600160601b03199060601b1685526001600160601b03199060601b1660148501526028840152604883015260688201520190565b906002549168010000000000000000831015610c285760018301600255600092600254811015610cf65760029093527f405787fa12a823e0f2b7631cc41b3ba8828b3321ca811111fa75cd3aa3bb5ace90920191909155565b634e487b7160e01b84526032600452602484fd5b908160209103126100e357516001600160a01b03811681036100e35790565b6000526001602052604060002060ff60068201541615610e7557600481015460ff1615610dc75760018060a01b0381541690602060038201546024604051809581936331a9108f60e11b835260048301525afa60009281610da6575b50610d91575050600090565b600101546001600160a01b0391821691161490565b610dc091935060203d60201161059d5761058e8183610c3e565b9138610d85565b80546001600160a01b0316600081610df657505060018101546001600160a01b031631906002905b0154111590565b602060018060a01b036001850154166024604051809581936370a0823160e01b835260048301525afa90918282610e3e575b5050610e35575050600090565b60029091610def565b909192506020823d602011610e6d575b81610e5b60209383610c3e565b81010312610b18575051903880610e28565b3d9150610e4e565b50600090565b6000546001600160a01b03163303610e8f57565b606460405162461bcd60e51b815260206004820152602060248201527f4f776e61626c653a2063616c6c6572206973206e6f7420746865206f776e65726044820152fdfea264697066735822122013eaf6b1b791352865e1d1824cbba0a11fc2823820034bf6adb957b2157a12ca64736f6c63430008210033","linkReferences":{}},"methodIdentifiers":{"activeVerificationIds(uint256)":"fd07833c","checkVerification(bytes32)":"7a21baa0","endVerification(bytes32)":"c5cb851d","getActiveVerificationCount()":"9c733430","getActiveVerifications()":"3ce92b00","getVerification(bytes32)":"94ef2440","owner()":"8da5cb5b","renounceOwnership()":"715018a6","transferOwnership(address)":"f2fde38b","verificationIndex(bytes32)":"5546ef68","verifications(bytes32)":"10c74e16","verifyNft(address,address,uint256)":"ba576ef3","verifyToken(address,address,uint256)":"025364b9"},"id":53}