{"abi":[{"type":"constructor","inputs":[],"stateMutability":"nonpayable"},{"type":"function","name":"activeVerificationIds","inputs":[{"name":"","type":"uint256","internalType":"uint256"}],"outputs":[{"name":"","type":"bytes32","internalType":"bytes32"}],"stateMutability":"view"},{"type":"function","name":"authorizedCallers","inputs":[{"name":"","type":"address","internalType":"address"}],"outputs":[{"name":"","type":"bool","internalType":"bool"}],"stateMutability":"view"},{"type":"function","name":"checkVerification","inputs":[{"name":"verificationId","type":"bytes32","internalType":"bytes32"}],"outputs":[{"name":"","type":"bool","internalType":"bool"}],"stateMutability":"view"},{"type":"function","name":"endVerification","inputs":[{"name":"verificationId","type":"bytes32","internalType":"bytes32"}],"outputs":[],"stateMutability":"nonpayable"},{"type":"function","name":"getActiveVerificationCount","inputs":[],"outputs":[{"name":"","type":"uint256","internalType":"uint256"}],"stateMutability":"view"},{"type":"function","name":"getActiveVerifications","inputs":[],"outputs":[{"name":"","type":"bytes32[]","internalType":"bytes32[]"}],"stateMutability":"view"},{"type":"function","name":"getVerification","inputs":[{"name":"verificationId","type":"bytes32","internalType":"bytes32"}],"outputs":[{"name":"","type":"tuple","internalType":"struct AssetVerifier.Verification","components":[{"name":"token","type":"address","internalType":"address"},{"name":"owner","type":"address","internalType":"address"},{"name":"amount","type":"uint256","internalType":"uint256"},{"name":"tokenId","type":"uint256","internalType":"uint256"},{"name":"isNft","type":"bool","internalType":"bool"},{"name":"timestamp","type":"uint256","internalType":"uint256"},{"name":"active","type":"bool","internalType":"bool"},{"name":"creator","type":"address","internalType":"address"}]}],"stateMutability":"view"},{"type":"function","name":"owner","inputs":[],"outputs":[{"name":"","type":"address","internalType":"address"}],"stateMutability":"view"},{"type":"function","name":"renounceOwnership","inputs":[],"outputs":[],"stateMutability":"nonpayable"},{"type":"function","name":"setAuthorizedCaller","inputs":[{"name":"caller","type":"address","internalType":"address"},{"name":"authorized","type":"bool","internalType":"bool"}],"outputs":[],"stateMutability":"nonpayable"},{"type":"function","name":"transferOwnership","inputs":[{"name":"newOwner","type":"address","internalType":"address"}],"outputs":[],"stateMutability":"nonpayable"},{"type":"function","name":"verificationIndex","inputs":[{"name":"","type":"bytes32","internalType":"bytes32"}],"outputs":[{"name":"","type":"uint256","internalType":"uint256"}],"stateMutability":"view"},{"type":"function","name":"verifications","inputs":[{"name":"","type":"bytes32","internalType":"bytes32"}],"outputs":[{"name":"token","type":"address","internalType":"address"},{"name":"owner","type":"address","internalType":"address"},{"name":"amount","type":"uint256","internalType":"uint256"},{"name":"tokenId","type":"uint256","internalType":"uint256"},{"name":"isNft","type":"bool","internalType":"bool"},{"name":"timestamp","type":"uint256","internalType":"uint256"},{"name":"active","type":"bool","internalType":"bool"},{"name":"creator","type":"address","internalType":"address"}],"stateMutability":"view"},{"type":"function","name":"verifyNft","inputs":[{"name":"token","type":"address","internalType":"address"},{"name":"owner","type":"address","internalType":"address"},{"name":"tokenId","type":"uint256","internalType":"uint256"}],"outputs":[{"name":"","type":"bytes32","internalType":"bytes32"}],"stateMutability":"nonpayable"},{"type":"function","name":"verifyToken","inputs":[{"name":"token","type":"address","internalType":"address"},{"name":"owner","type":"address","internalType":"address"},{"name":"amount","type":"uint256","internalType":"uint256"}],"outputs":[{"name":"","type":"bytes32","internalType":"bytes32"}],"stateMutability":"nonpayable"},{"type":"event","name":"AssetMoved","inputs":[{"name":"verificationId","type":"bytes32","indexed":true,"internalType":"bytes32"},{"name":"token","type":"address","indexed":true,"internalType":"address"},{"name":"from","type":"address","indexed":true,"internalType":"address"},{"name":"to","type":"address","indexed":false,"internalType":"address"}],"anonymous":false},{"type":"event","name":"AssetVerifierInitialized","inputs":[{"name":"owner","type":"address","indexed":true,"internalType":"address"}],"anonymous":false},{"type":"event","name":"AuthorizedCallerSet","inputs":[{"name":"caller","type":"address","indexed":true,"internalType":"address"},{"name":"authorized","type":"bool","indexed":false,"internalType":"bool"}],"anonymous":false},{"type":"event","name":"OwnershipTransferred","inputs":[{"name":"previousOwner","type":"address","indexed":true,"internalType":"address"},{"name":"newOwner","type":"address","indexed":true,"internalType":"address"}],"anonymous":false},{"type":"event","name":"VerificationEnded","inputs":[{"name":"verificationId","type":"bytes32","indexed":true,"internalType":"bytes32"},{"name":"success","type":"bool","indexed":false,"internalType":"bool"}],"anonymous":false},{"type":"event","name":"VerificationStarted","inputs":[{"name":"verificationId","type":"bytes32","indexed":true,"internalType":"bytes32"},{"name":"token","type":"address","indexed":true,"internalType":"address"},{"name":"owner","type":"address","indexed":true,"internalType":"address"},{"name":"amount","type":"uint256","indexed":false,"internalType":"uint256"},{"name":"isNft","type":"bool","indexed":false,"internalType":"bool"}],"anonymous":false}],"bytecode":{"object":"0x6080806040523460805760008054336001600160a01b0319821681178355916001600160a01b03909116907f8be0079c531659141344cd1fd0a4f28419497f9722a3daafe3b4186f6b6457e09080a3337f62a7e204bbc7da659e2cbc5b4640ea5d23f458d04b3ea00a0b0eaa07265793db600080a261115890816100868239f35b600080fdfe6080604052600436101561001257600080fd5b60003560e01c8063025364b914610b1157806310c74e1614610a775780633ce92b00146109bd578063454bbd2914610935578063536fff6c146108f65780635546ef68146108ca578063715018a6146108715780637a21baa0146108495780638da5cb5b1461082057806394ef2440146106f05780639c733430146106d2578063ba576ef31461040a578063c5cb851d146101c5578063f2fde38b146100fe5763fd07833c146100c157600080fd5b346100f95760203660031901126100f9576004356002548110156100f9576100ea602091610de3565b90549060031b1c604051908152f35b600080fd5b346100f95760203660031901126100f957610117610d93565b61011f6110ca565b6001600160a01b0316801561017157600080546001600160a01b03198116831782556001600160a01b0316907f8be0079c531659141344cd1fd0a4f28419497f9722a3daafe3b4186f6b6457e09080a3005b60405162461bcd60e51b815260206004820152602660248201527f4f776e61626c653a206e6577206f776e657220697320746865207a65726f206160448201526564647265737360d01b6064820152608490fd5b346100f95760203660031901126100f9576004358060005260016020526040600020600681019081549060ff8216156103c55733600883901c6001600160a01b0316149081156103ae575b50801561039a575b8015610382575b1561031e5760ff191690558060005260036020526040600020546002548082106102b1575b5050600254801561029b576000190161025c81610de3565b8154906000199060031b1b191690556002557f855cfeb3f328c60ce0ecf32fb59945d27bbd3ace71cedba0b4bd64a00f7f2efb602060405160018152a2005b634e487b7160e01b600052603160045260246000fd5b6000198101908111610308576102c690610de3565b90549060031b1c6102f3816102da84610de3565b90919082549060031b91821b91600019901b1916179055565b60005260036020526040600020558180610244565b634e487b7160e01b600052601160045260246000fd5b60405162461bcd60e51b815260206004820152603660248201527f556e617574686f72697a65643a206e6f742063726561746f722c206f776e6572604482015275161037b91030baba3437b934bd32b21031b0b63632b960511b6064820152608490fd5b5033600052600460205260ff6040600020541661021f565b506000546001600160a01b03163314610218565b600101546001600160a01b03163314905084610210565b60405162461bcd60e51b815260206004820152601760248201527f566572696669636174696f6e206e6f74206163746976650000000000000000006044820152606490fd5b346100f95761041836610da9565b90916001600160a01b038116801561069d576001600160a01b03841691610440831515610e14565b6040516331a9108f60e11b815260048101859052602081602481865afa6000918161066c575b506104b05760405162461bcd60e51b815260206004820152601a60248201527f4e4654206f776e65727368697020636865636b206661696c65640000000000006044820152606490fd5b6001600160a01b0316839003610637576104de6104ec60209660405192839189830195894392429289610ea5565b03601f198101835282610e83565b519020926040516104fc81610e50565b82815285810184815260006040808401828152606085019586526001608086018181524260a0880190815260c088018381523360e08a019081528d8852848f5295909620975188546001600160a01b039182166001600160a01b0319918216178a55975193890180549490911693909716929092179095559051600286015594516003850155915160048401805460ff191691151560ff169190911790559290916105c391600691905b5160058201550192511515839060ff801983541691151516179055565b518154610100600160a81b03191660089190911b610100600160a81b031617905560025460008481526003865260409020556105fe83610eec565b827f79c83391cfccac95f733ad7950aee12248ec67f64a653a4a9fce9d0e2d2aab316040805160008152600188820152a4604051908152f35b60405162461bcd60e51b815260206004820152600d60248201526c2737ba103a34329037bbb732b960991b6044820152606490fd5b61068f91925060203d602011610696575b6106878183610e83565b810190610f59565b9087610466565b503d61067d565b60405162461bcd60e51b815260206004820152600d60248201526c24b73b30b634b2103a37b5b2b760991b6044820152606490fd5b346100f95760003660031901126100f9576020600254604051908152f35b346100f95760203660031901126100f957600060e060405161071181610e50565b8281528260208201528260408201528260608201528260808201528260a08201528260c08201520152600435600052600160205261010060406000206040519061075a82610e50565b60018060a01b038154169182815260018060a01b03600183015416916020820192835260028101546040830190815260038201546060840190815260ff60048401541691608085019215158352600660058501549460a0870195865201549560e060c087019660ff891615158852019660018060a01b039060081c16875260405197885260018060a01b03905116602088015251604087015251606086015251151560808501525160a084015251151560c083015260018060a01b0390511660e0820152f35b346100f95760003660031901126100f9576000546040516001600160a01b039091168152602090f35b346100f95760203660031901126100f9576020610867600435610f78565b6040519015158152f35b346100f95760003660031901126100f95761088a6110ca565b600080546001600160a01b0319811682556001600160a01b03167f8be0079c531659141344cd1fd0a4f28419497f9722a3daafe3b4186f6b6457e08280a3005b346100f95760203660031901126100f95760043560005260036020526020604060002054604051908152f35b346100f95760203660031901126100f9576001600160a01b03610917610d93565b166000526004602052602060ff604060002054166040519015158152f35b346100f95760403660031901126100f95761094e610d93565b60243590811515908183036100f9577f1eff62a53441c7d0125c22f2a9a324e206b34efa41e19469d7efb9bb703d21a3916109b460209261098d6110ca565b60018060a01b031694856000526004845260406000209060ff801983541691151516179055565b604051908152a2005b346100f95760003660031901126100f9576040518060206002549283815201809260026000527f405787fa12a823e0f2b7631cc41b3ba8828b3321ca811111fa75cd3aa3bb5ace9060005b818110610a615750505081610a1e910382610e83565b6040519182916020830190602084525180915260408301919060005b818110610a48575050500390f35b8251845285945060209384019390920191600101610a3a565b8254845260209093019260019283019201610a08565b346100f95760203660031901126100f9576004356000526001602052610100604060002060018060a01b038154169060018060a01b03600182015416906002810154600382015460ff6004840154169160066005850154940154946040519687526020870152604086015260608501521515608084015260a083015260ff8116151560c083015260018060a01b039060081c1660e0820152f35b346100f957610b1f36610da9565b9091906001600160a01b03831690610b38821515610e14565b8015610d5d576001600160a01b03831690600082610ce257508085315b10610ca6577f79c83391cfccac95f733ad7950aee12248ec67f64a653a4a9fce9d0e2d2aab316040946104de610b9b60209888519283918b830195884392429289610ea5565b5190209485928151610bac81610e50565b858152888101878152838201838152600060608401818152608085018281524260a08701908152600160c088018181523360e08a019081528d87526020839052958b9020985189546001600160a01b039182166001600160a01b0319918216178b559851928a01805493909116929098169190911790965593516002870155905160038601555160048501805460ff191691151560ff169190911790559192610c5891600691906105a6565b518154610100600160a81b03191660089190911b610100600160a81b0316179055600254600085815260038a5283902055610c9284610eec565b8151908152600088820152a4604051908152f35b60405162461bcd60e51b8152602060048201526014602482015273496e73756666696369656e742062616c616e636560601b6044820152606490fd5b6040516370a0823160e01b815260048101859052602081602481875afa918215610d515790818493610d16575b5050610b55565b915091506020823d602011610d49575b81610d3360209383610e83565b81010312610d4657508190518780610d0f565b80fd5b3d9150610d26565b604051903d90823e3d90fd5b60405162461bcd60e51b815260206004820152600e60248201526d125b9d985b1a5908185b5bdd5b9d60921b6044820152606490fd5b600435906001600160a01b03821682036100f957565b60609060031901126100f9576004356001600160a01b03811681036100f957906024356001600160a01b03811681036100f9579060443590565b600254811015610dfe57600260005260206000200190600090565b634e487b7160e01b600052603260045260246000fd5b15610e1b57565b60405162461bcd60e51b815260206004820152600d60248201526c24b73b30b634b21037bbb732b960991b6044820152606490fd5b610100810190811067ffffffffffffffff821117610e6d57604052565b634e487b7160e01b600052604160045260246000fd5b90601f8019910116810190811067ffffffffffffffff821117610e6d57604052565b939160889593916bffffffffffffffffffffffff199060601b1685526bffffffffffffffffffffffff199060601b1660148501526028840152604883015260688201520190565b906002549168010000000000000000831015610e6d5760018301600255600092600254811015610f455760029093527f405787fa12a823e0f2b7631cc41b3ba8828b3321ca811111fa75cd3aa3bb5ace90920191909155565b634e487b7160e01b84526032600452602484fd5b908160209103126100f957516001600160a01b03811681036100f95790565b6000526001602052604060002060ff600682015416156110c457600481015460ff16156110165760018060a01b0381541690602060038201546024604051809581936331a9108f60e11b835260048301525afa60009281610ff5575b50610fe0575050600090565b600101546001600160a01b0391821691161490565b61100f91935060203d602011610696576106878183610e83565b9138610fd4565b80546001600160a01b031660008161104557505060018101546001600160a01b031631906002905b0154111590565b602060018060a01b036001850154166024604051809581936370a0823160e01b835260048301525afa9091828261108d575b5050611084575050600090565b6002909161103e565b909192506020823d6020116110bc575b816110aa60209383610e83565b81010312610d46575051903880611077565b3d915061109d565b50600090565b6000546001600160a01b031633036110de57565b606460405162461bcd60e51b815260206004820152602060248201527f4f776e61626c653a2063616c6c6572206973206e6f7420746865206f776e65726044820152fdfea26469706673582212201c7f9891f367ce942ce2516f84e8215f4aeb5a3903ca20275018682091f1411b64736f6c63430008210033","linkReferences":{}},"methodIdentifiers":{"activeVerificationIds(uint256)":"fd07833c","authorizedCallers(address)":"536fff6c","checkVerification(bytes32)":"7a21baa0","endVerification(bytes32)":"c5cb851d","getActiveVerificationCount()":"9c733430","getActiveVerifications()":"3ce92b00","getVerification(bytes32)":"94ef2440","owner()":"8da5cb5b","renounceOwnership()":"715018a6","setAuthorizedCaller(address,bool)":"454bbd29","transferOwnership(address)":"f2fde38b","verificationIndex(bytes32)":"5546ef68","verifications(bytes32)":"10c74e16","verifyNft(address,address,uint256)":"ba576ef3","verifyToken(address,address,uint256)":"025364b9"},"id":67}