{"abi":[{"type":"constructor","inputs":[{"name":"_liquidityPool","type":"address","internalType":"address"},{"name":"_feeDistributor","type":"address","internalType":"address"},{"name":"_assetVerifier","type":"address","internalType":"address"}],"stateMutability":"nonpayable"},{"type":"function","name":"BPS_MAX","inputs":[],"outputs":[{"name":"","type":"uint256","internalType":"uint256"}],"stateMutability":"view"},{"type":"function","name":"LARGE_ORDER_REBOOK_THRESHOLD","inputs":[],"outputs":[{"name":"","type":"uint256","internalType":"uint256"}],"stateMutability":"view"},{"type":"function","name":"LARGE_ORDER_THRESHOLD","inputs":[],"outputs":[{"name":"","type":"uint256","internalType":"uint256"}],"stateMutability":"view"},{"type":"function","name":"MAX_REBOOK_ATTEMPTS","inputs":[],"outputs":[{"name":"","type":"uint8","internalType":"uint8"}],"stateMutability":"view"},{"type":"function","name":"MEGA_ORDER_REBOOK_THRESHOLD","inputs":[],"outputs":[{"name":"","type":"uint256","internalType":"uint256"}],"stateMutability":"view"},{"type":"function","name":"MEGA_ORDER_THRESHOLD","inputs":[],"outputs":[{"name":"","type":"uint256","internalType":"uint256"}],"stateMutability":"view"},{"type":"function","name":"assetVerifier","inputs":[],"outputs":[{"name":"","type":"address","internalType":"contract AssetVerifier"}],"stateMutability":"view"},{"type":"function","name":"cancelOrder","inputs":[{"name":"orderId","type":"bytes32","internalType":"bytes32"}],"outputs":[],"stateMutability":"nonpayable"},{"type":"function","name":"createOrder","inputs":[{"name":"maker","type":"address","internalType":"address"},{"name":"tokenIn","type":"address","internalType":"address"},{"name":"tokenOut","type":"address","internalType":"address"},{"name":"typeIn","type":"uint8","internalType":"enum EulerLagrangeOrderProcessor.AssetType"},{"name":"typeOut","type":"uint8","internalType":"enum EulerLagrangeOrderProcessor.AssetType"},{"name":"amountIn","type":"uint256","internalType":"uint256"},{"name":"amountOut","type":"uint256","internalType":"uint256"},{"name":"minutesValueIn","type":"uint256","internalType":"uint256"},{"name":"minutesValueOut","type":"uint256","internalType":"uint256"},{"name":"slippageTolerance","type":"uint256","internalType":"uint256"},{"name":"expiration","type":"uint256","internalType":"uint256"},{"name":"enableRebooking","type":"bool","internalType":"bool"},{"name":"targetChainId","type":"uint256","internalType":"uint256"}],"outputs":[{"name":"","type":"bytes32","internalType":"bytes32"}],"stateMutability":"nonpayable"},{"type":"function","name":"feeDistributor","inputs":[],"outputs":[{"name":"","type":"address","internalType":"contract TrustWalletFeeDistributor"}],"stateMutability":"view"},{"type":"function","name":"findMatchingOrder","inputs":[{"name":"tokenIn","type":"address","internalType":"address"},{"name":"tokenOut","type":"address","internalType":"address"},{"name":"amountIn","type":"uint256","internalType":"uint256"},{"name":"amountOut","type":"uint256","internalType":"uint256"}],"outputs":[{"name":"matchedOrderId","type":"bytes32","internalType":"bytes32"}],"stateMutability":"view"},{"type":"function","name":"getOrder","inputs":[{"name":"orderId","type":"bytes32","internalType":"bytes32"}],"outputs":[{"name":"","type":"tuple","internalType":"struct EulerLagrangeOrderProcessor.Order","components":[{"name":"maker","type":"address","internalType":"address"},{"name":"tokenIn","type":"address","internalType":"address"},{"name":"tokenOut","type":"address","internalType":"address"},{"name":"typeIn","type":"uint8","internalType":"enum EulerLagrangeOrderProcessor.AssetType"},{"name":"typeOut","type":"uint8","internalType":"enum EulerLagrangeOrderProcessor.AssetType"},{"name":"amountIn","type":"uint256","internalType":"uint256"},{"name":"amountOut","type":"uint256","internalType":"uint256"},{"name":"minutesValueIn","type":"uint256","internalType":"uint256"},{"name":"minutesValueOut","type":"uint256","internalType":"uint256"},{"name":"slippageTolerance","type":"uint256","internalType":"uint256"},{"name":"filledAmount","type":"uint256","internalType":"uint256"},{"name":"timestamp","type":"uint256","internalType":"uint256"},{"name":"expiration","type":"uint256","internalType":"uint256"},{"name":"status","type":"uint8","internalType":"enum EulerLagrangeOrderProcessor.OrderStatus"},{"name":"rebookEnabled","type":"bool","internalType":"bool"},{"name":"rebookAttempts","type":"uint8","internalType":"uint8"},{"name":"verificationId","type":"bytes32","internalType":"bytes32"},{"name":"targetChainId","type":"uint256","internalType":"uint256"}]}],"stateMutability":"view"},{"type":"function","name":"getOrderCount","inputs":[],"outputs":[{"name":"","type":"uint256","internalType":"uint256"}],"stateMutability":"view"},{"type":"function","name":"liquidityPool","inputs":[],"outputs":[{"name":"","type":"address","internalType":"contract VirtualLiquidityPool"}],"stateMutability":"view"},{"type":"function","name":"minimumOrderValue","inputs":[],"outputs":[{"name":"","type":"uint256","internalType":"uint256"}],"stateMutability":"view"},{"type":"function","name":"orderIds","inputs":[{"name":"","type":"uint256","internalType":"uint256"}],"outputs":[{"name":"","type":"bytes32","internalType":"bytes32"}],"stateMutability":"view"},{"type":"function","name":"orders","inputs":[{"name":"","type":"bytes32","internalType":"bytes32"}],"outputs":[{"name":"maker","type":"address","internalType":"address"},{"name":"tokenIn","type":"address","internalType":"address"},{"name":"tokenOut","type":"address","internalType":"address"},{"name":"typeIn","type":"uint8","internalType":"enum EulerLagrangeOrderProcessor.AssetType"},{"name":"typeOut","type":"uint8","internalType":"enum EulerLagrangeOrderProcessor.AssetType"},{"name":"amountIn","type":"uint256","internalType":"uint256"},{"name":"amountOut","type":"uint256","internalType":"uint256"},{"name":"minutesValueIn","type":"uint256","internalType":"uint256"},{"name":"minutesValueOut","type":"uint256","internalType":"uint256"},{"name":"slippageTolerance","type":"uint256","internalType":"uint256"},{"name":"filledAmount","type":"uint256","internalType":"uint256"},{"name":"timestamp","type":"uint256","internalType":"uint256"},{"name":"expiration","type":"uint256","internalType":"uint256"},{"name":"status","type":"uint8","internalType":"enum EulerLagrangeOrderProcessor.OrderStatus"},{"name":"rebookEnabled","type":"bool","internalType":"bool"},{"name":"rebookAttempts","type":"uint8","internalType":"uint8"},{"name":"verificationId","type":"bytes32","internalType":"bytes32"},{"name":"targetChainId","type":"uint256","internalType":"uint256"}],"stateMutability":"view"},{"type":"function","name":"ordersByPair","inputs":[{"name":"","type":"address","internalType":"address"},{"name":"","type":"address","internalType":"address"},{"name":"","type":"uint256","internalType":"uint256"}],"outputs":[{"name":"","type":"bytes32","internalType":"bytes32"}],"stateMutability":"view"},{"type":"function","name":"owner","inputs":[],"outputs":[{"name":"","type":"address","internalType":"address"}],"stateMutability":"view"},{"type":"function","name":"processOrderBatch","inputs":[{"name":"orderIdsBatch","type":"bytes32[]","internalType":"bytes32[]"}],"outputs":[],"stateMutability":"nonpayable"},{"type":"function","name":"rebookQueue","inputs":[{"name":"","type":"uint256","internalType":"uint256"}],"outputs":[{"name":"","type":"bytes32","internalType":"bytes32"}],"stateMutability":"view"},{"type":"function","name":"rebookTime","inputs":[{"name":"","type":"bytes32","internalType":"bytes32"}],"outputs":[{"name":"","type":"uint256","internalType":"uint256"}],"stateMutability":"view"},{"type":"function","name":"removeFromPairIndex","inputs":[{"name":"orderId","type":"bytes32","internalType":"bytes32"}],"outputs":[],"stateMutability":"nonpayable"},{"type":"function","name":"renounceOwnership","inputs":[],"outputs":[],"stateMutability":"nonpayable"},{"type":"function","name":"setMinimumOrderValue","inputs":[{"name":"_minimumOrderValue","type":"uint256","internalType":"uint256"}],"outputs":[],"stateMutability":"nonpayable"},{"type":"function","name":"setWalletSwapMain","inputs":[{"name":"_walletSwapMain","type":"address","internalType":"address"}],"outputs":[],"stateMutability":"nonpayable"},{"type":"function","name":"tokenMonthlyVolume","inputs":[{"name":"","type":"address","internalType":"address"},{"name":"","type":"uint256","internalType":"uint256"}],"outputs":[{"name":"","type":"uint256","internalType":"uint256"}],"stateMutability":"view"},{"type":"function","name":"transferOwnership","inputs":[{"name":"newOwner","type":"address","internalType":"address"}],"outputs":[],"stateMutability":"nonpayable"},{"type":"function","name":"updateOrderFill","inputs":[{"name":"orderId","type":"bytes32","internalType":"bytes32"},{"name":"amountFilled","type":"uint256","internalType":"uint256"}],"outputs":[],"stateMutability":"nonpayable"},{"type":"function","name":"updateOrderStatus","inputs":[{"name":"orderId","type":"bytes32","internalType":"bytes32"},{"name":"newStatus","type":"uint8","internalType":"enum EulerLagrangeOrderProcessor.OrderStatus"}],"outputs":[],"stateMutability":"nonpayable"},{"type":"function","name":"walletSwapMain","inputs":[],"outputs":[{"name":"","type":"address","internalType":"address"}],"stateMutability":"view"},{"type":"function","name":"whitelistToken","inputs":[{"name":"","type":"address","internalType":"address"}],"outputs":[],"stateMutability":"pure"},{"type":"event","name":"CrossChainOrderCreated","inputs":[{"name":"orderId","type":"bytes32","indexed":true,"internalType":"bytes32"},{"name":"targetChainId","type":"uint256","indexed":false,"internalType":"uint256"},{"name":"timestamp","type":"uint256","indexed":false,"internalType":"uint256"}],"anonymous":false},{"type":"event","name":"OrderCancelled","inputs":[{"name":"orderId","type":"bytes32","indexed":true,"internalType":"bytes32"},{"name":"reason","type":"string","indexed":false,"internalType":"string"},{"name":"timestamp","type":"uint256","indexed":false,"internalType":"uint256"}],"anonymous":false},{"type":"event","name":"OrderCreated","inputs":[{"name":"orderId","type":"bytes32","indexed":true,"internalType":"bytes32"},{"name":"maker","type":"address","indexed":true,"internalType":"address"},{"name":"tokenIn","type":"address","indexed":true,"internalType":"address"},{"name":"tokenOut","type":"address","indexed":false,"internalType":"address"},{"name":"typeIn","type":"uint8","indexed":false,"internalType":"enum EulerLagrangeOrderProcessor.AssetType"},{"name":"typeOut","type":"uint8","indexed":false,"internalType":"enum EulerLagrangeOrderProcessor.AssetType"},{"name":"amountIn","type":"uint256","indexed":false,"internalType":"uint256"},{"name":"amountOut","type":"uint256","indexed":false,"internalType":"uint256"},{"name":"minutesValueIn","type":"uint256","indexed":false,"internalType":"uint256"},{"name":"targetChainId","type":"uint256","indexed":false,"internalType":"uint256"},{"name":"timestamp","type":"uint256","indexed":false,"internalType":"uint256"},{"name":"expiration","type":"uint256","indexed":false,"internalType":"uint256"}],"anonymous":false},{"type":"event","name":"OrderExpired","inputs":[{"name":"orderId","type":"bytes32","indexed":true,"internalType":"bytes32"},{"name":"timestamp","type":"uint256","indexed":false,"internalType":"uint256"}],"anonymous":false},{"type":"event","name":"OrderFilled","inputs":[{"name":"orderId","type":"bytes32","indexed":true,"internalType":"bytes32"},{"name":"filledAmount","type":"uint256","indexed":false,"internalType":"uint256"},{"name":"remainingAmount","type":"uint256","indexed":false,"internalType":"uint256"},{"name":"timestamp","type":"uint256","indexed":false,"internalType":"uint256"}],"anonymous":false},{"type":"event","name":"OrderMatched","inputs":[{"name":"orderIdA","type":"bytes32","indexed":true,"internalType":"bytes32"},{"name":"orderIdB","type":"bytes32","indexed":true,"internalType":"bytes32"},{"name":"timestamp","type":"uint256","indexed":false,"internalType":"uint256"}],"anonymous":false},{"type":"event","name":"OrderPartiallyFilled","inputs":[{"name":"orderId","type":"bytes32","indexed":true,"internalType":"bytes32"},{"name":"filledAmount","type":"uint256","indexed":false,"internalType":"uint256"},{"name":"remainingAmount","type":"uint256","indexed":false,"internalType":"uint256"},{"name":"timestamp","type":"uint256","indexed":false,"internalType":"uint256"}],"anonymous":false},{"type":"event","name":"OrderProcessorInitialized","inputs":[{"name":"owner","type":"address","indexed":true,"internalType":"address"}],"anonymous":false},{"type":"event","name":"OrderRebooked","inputs":[{"name":"orderId","type":"bytes32","indexed":true,"internalType":"bytes32"},{"name":"attempt","type":"uint8","indexed":false,"internalType":"uint8"},{"name":"newExpiry","type":"uint256","indexed":false,"internalType":"uint256"}],"anonymous":false},{"type":"event","name":"OwnershipTransferred","inputs":[{"name":"previousOwner","type":"address","indexed":true,"internalType":"address"},{"name":"newOwner","type":"address","indexed":true,"internalType":"address"}],"anonymous":false}],"bytecode":{"object":"0x60803461021757601f61259f38819003918201601f19168301916001600160401b0383118484101761021c578084926060946040528339810103126102175761004781610232565b90610060604061005960208401610232565b9201610232565b60008054336001600160a01b0319821681178355604051959394939290916001600160a01b0316907f8be0079c531659141344cd1fd0a4f28419497f9722a3daafe3b4186f6b6457e09080a36001805560006009556001600160a01b03169283156101d557506001600160a01b0316908115610190576001600160a01b031691821561014b5760018060a01b0319600254161760025560018060a01b0319600354161760035560018060a01b03196004541617600455604051337f3a6fa654aaa7e925b6a99dfcdc904947dadeb0153635377836a5888ffe81ef50600080a261235890816102478239f35b60405162461bcd60e51b815260206004820152601660248201527f496e76616c6964206173736574207665726966696572000000000000000000006044820152606490fd5b60405162461bcd60e51b815260206004820152601760248201527f496e76616c696420666565206469737472696275746f720000000000000000006044820152606490fd5b62461bcd60e51b815260206004820152601660248201527f496e76616c6964206c697175696469747920706f6f6c000000000000000000006044820152606490fd5b600080fd5b634e487b7160e01b600052604160045260246000fd5b51906001600160a01b03821682036102175756fe608080604052600436101561001357600080fd5b600090813560e01c90816301fbac8f14611dd45750806304749b0014611d975780630d43e8ad14611d6e57806312d35eed14611bff5780631fd321ed14611b8c5780632372208414611b49578063270f6a0414611b2d5780632b8aef7314611b0f5780633921a77814611af25780633eb6e84614611ad5578063443c0efe146116ed5780635778472a1461143d5780635d0ab5aa1461141a5780636247f6f2146113fc578063665a11ca146113d35780636ebbabe914611355578063715018a6146112fb57806373baee2514610b2c5780637489ec23146108ee578063829c6088146108c45780638d0a5fbb146108a65780638d2000831461084f5780638da5cb5b146108285780638f7c0fbf146107e55780639c3f1e90146106b55780639e8de3ed1461068c578063afaf0d8b146103f9578063b8674044146103d5578063e4d95e2c146103b1578063e895b59a14610394578063f2fde38b146102ce5763fe8576c71461018157600080fd5b346102cb5760203660031901126102cb5760043560018060a01b0360055416331480156102b8575b6101b2906121bb565b80825260066020908152604080842060018101546002909101546001600160a01b039182168652600d84528286209116600090815292529020825b8154808210156102b157836102028385611e25565b90549060031b1c1461021757506001016101ed565b91925090600019810190811161029d579061024661023861025f9385611e25565b90549060031b1c9184611e25565b90919082549060031b91821b91600019901b1916179055565b805480156102895760001901906102768282611e25565b8154906000199060031b1b191690555580f35b634e487b7160e01b83526031600452602483fd5b634e487b7160e01b84526011600452602484fd5b5050505080f35b5081546001600160a01b031633146101a9565b80fd5b50346102cb5760203660031901126102cb576102e8611df9565b6102f06122ca565b6001600160a01b031680156103405781546001600160a01b03198116821783556001600160a01b03167f8be0079c531659141344cd1fd0a4f28419497f9722a3daafe3b4186f6b6457e08380a380f35b60405162461bcd60e51b815260206004820152602660248201527f4f776e61626c653a206e6577206f776e657220697320746865207a65726f206160448201526564647265737360d01b6064820152608490fd5b50346102cb57806003193601126102cb5760206040516123288152f35b50346102cb57806003193601126102cb576020604051681b1ae4d6e2ef5000008152f35b50346102cb57806003193601126102cb576020604051683635c9adc5dea000008152f35b50346102cb5760403660031901126102cb576004356024359060018060a01b036005541633148015610679575b61042f906121bb565b808352600660205260408320600b81019160ff835416600581101561066557801590811561065a575b5015610622576008820161046d858254612267565b93848255600484019182548087116105f0576104bb866104b6836104aa6104af828f9e60058f6104aa926104a091611e83565b9701548097611ea6565b611eb9565b938c611ea6565b611e83565b960361059c57507fe678418be901ac9a27919225bd4d60e450082ef609d1c5e6790e2a201b0e043091606091600160ff1982541617905554604051908152866020820152426040820152a25b81610510575050f35b60028054600183015492909101546001600160a01b0390811693928116929116803b15610598576040516350da5ecf60e01b81526001600160a01b039384166004820152939092166024840152604483015282908290606490829084905af1801561058d5761057c5750f35b8161058691612229565b6102cb5780f35b6040513d84823e3d90fd5b8480fd5b916105d97fe4ad01a1e9b8a9a59f1a6c25343628c6f961b0f66f58ff8e76cf900ae06c95ad93606093600260ff1982541617905554809254611e83565b6040519182526020820152426040820152a2610507565b60405162461bcd60e51b815260206004820152600a60248201526913dd995c999a5b1b195960b21b6044820152606490fd5b60405162461bcd60e51b815260206004820152601060248201526f4f72646572206e6f742061637469766560801b6044820152606490fd5b600291501438610458565b634e487b7160e01b86526021600452602486fd5b5082546001600160a01b03163314610426565b50346102cb57806003193601126102cb576004546040516001600160a01b039091168152602090f35b50346102cb5760203660031901126102cb576004358152600660205260409020600160a01b6001900381541690600160a01b600190036001820154169060028101546003820154600483015460058401546006850154600786015490600887015492600988015494600a89015496600b8a015498600c8b01549a600d01549b604051809e8152602001528c600160a01b600190038216906040015260608d018160a01c60ff169061076591611e53565b60808d019060a81c60ff169061077a91611e53565b60a08c015260c08b015260e08a01526101008901526101208801526101408701526101608601526101808501526107b86101a0850160ff8316611e76565b8060081c60ff1615156101c085015260101c60ff166101e084015261020083015261022082015261024090f35b50346102cb5760403660031901126102cb576020906040906001600160a01b0361080d611df9565b168152600c8352818120602435825283522054604051908152f35b50346102cb57806003193601126102cb57546040516001600160a01b039091168152602090f35b50346102cb5760203660031901126102cb5760043590600a548210156102cb57600a5482101561089257602091600a825282822001549060031b1c604051908152f35b634e487b7160e01b81526032600452602490fd5b50346102cb57806003193601126102cb576020600754604051908152f35b50346102cb5760203660031901126102cb5760406020916004358152600b83522054604051908152f35b50346102cb5760203660031901126102cb5760043561090b612274565b80825260066020526040822080546001600160a01b031633148015610b19575b8015610b05575b61093b906121bb565b600b81019060ff82541660058110159081610665578015918215610af8575b8215610ad3575b505015610a96578391600360ff198254161790556109a760058201546109a161098e826008860154611ea6565b600485015480610a905750600190611eb9565b90611e83565b9081610a07575b5050507f9fd0bba2c594ed767890777df1ba413a19b3ba8007b41fe1abbc056e66706342608060405160408152600e60408201526d155cd95c8818d85b98d95b1b195960921b6060820152426020820152a26001805580f35b60028054600183015492909101546001600160a01b0390811693928116929116803b15610598576040516350da5ecf60e01b81526001600160a01b039384166004820152939092166024840152604483015282908290606490829084905af1801561058d57610a77575b806109ae565b81610a8191612229565b610a8c578138610a71565b5080fd5b90611eb9565b60405162461bcd60e51b81526020600482015260156024820152744f72646572206e6f742063616e63656c6c61626c6560581b6044820152606490fd5b909150610ae4576004143880610961565b634e487b7160e01b85526021600452602485fd5b506002811491508561095a565b506005546001600160a01b03163314610932565b5082546001600160a01b0316331461092b565b50346102cb576101a03660031901126102cb57610b47611df9565b610b4f611e0f565b906044356001600160a01b03811681036112f757600260643510156112f757600260843510156112f7576101643592831515840361059857610b8f612274565b6001600160a01b038116158015906112e5575b80156112d8575b156112805760a435151580611275575b1561123e5760095460e435106112015760e4351515806111f5575b156111b0574261014435111561117657600854600019811461116257600181016008556001604051916001600160601b03198660601b1660208401526001600160601b03198460601b1660348401526001600160601b03198560601b166048840152610c45605c8401606435612257565b610c54605d8401608435612257565b60a435605e84015260c435607e84015260e435609e8401526101043560be8401524260de8401524360fe8401520161011e82015261011e8152610c9961013e82612229565b80516020918201208087526006918290526040872080546001600160a01b03199081166001600160a01b0388811691909117835560018084018054909316878316179092556002830180546001600160b01b0319169188169190911760643560a081901b60ff60a01b169190911760843560a81b60ff60a81b161790915560a435600384015560c435600484015560e4356005840155610104359483019490945561012435600783015542600983015561014435600a830155600b8201805461ffff191698151560081b61ff00169890981790975561018435600d820155909590910361104c576004805460405163ba576ef360e01b81526001600160a01b0385811693820193909352868316602482015260a43560448201529291602091849160649183918c91165af1918215611041578792611007575b50600c01555b600754600160401b811015610ff35784610246826001610dfd94016007556007611e25565b60025485906001600160a01b0316803b15610a8c57604051637253b39360e11b81526001600160a01b0384811660048301528516602482015260e43560448201529082908290606490829084905af1801561058d57610fde575b505060409260018060a01b0382168652600c60205283862062278d0042048752602052838620610e8a60e4358254612267565b905583516001600160a01b0384168152610ea960208201606435611e53565b610eb7858201608435611e53565b60a435606082015260c435608082015260e43560a08201526101843560c08201524260e0820152610144356101008201526001600160a01b0383811692169086907fc9eca21d3e1f8292f16be53a4cbd557da4cd92ea6220b5ce450f98136589f9909061012090a46001600160a01b039081168552600d602090815283862092909116600090815291905220805492600160401b841015610fca57508161024684610f69936001602097018155611e25565b61018435151580610fbd575b610f86575b60018055604051908152f35b807fb92fdedb2eafbdfb4c63efe5e12ad5465c5696045bf8ef323c9bd6624e4f5db2604080516101843581524286820152a2610f7a565b5046610184351415610f75565b634e487b7160e01b81526041600452602490fd5b81610fe891612229565b610598578438610e57565b634e487b7160e01b86526041600452602486fd5b9091506020813d602011611039575b8161102360209383612229565b81010312611034575190600c610dd2565b600080fd5b3d9150611016565b6040513d89823e3d90fd5b6001600160a01b038216158061114e575b156110bd57600c60405160208101906001600160601b03198560601b1682526001600160601b03198760601b16603482015260a4356048820152426068820152436088820152608881526110b260a882612229565b519020910155610dd8565b6004805460405163025364b960e01b81526001600160a01b0385811693820193909352868316602482015260a43560448201529291602091849160649183918c91165af1918215611041578792611119575b50600c0155610dd8565b9091506020813d602011611146575b8161113560209383612229565b81010312611034575190600c61110f565b3d9150611128565b506005546001600160a01b0316331461105d565b634e487b7160e01b86526011600452602486fd5b60405162461bcd60e51b815260206004820152601260248201527124b73b30b634b21032bc3834b930ba34b7b760711b6044820152606490fd5b60405162461bcd60e51b815260206004820152601960248201527f496e76616c6964206d696e757465732076616c756174696f6e000000000000006044820152606490fd5b50610104351515610bd4565b60405162461bcd60e51b815260206004820152601560248201527413dc99195c881d985b1d59481d1bdbc81cdb585b1b605a1b6044820152606490fd5b60405162461bcd60e51b815260206004820152600f60248201526e496e76616c696420616d6f756e747360881b6044820152606490fd5b5060c4351515610bb9565b60405162461bcd60e51b815260206004820152602a60248201527f426f746820746f6b656e732063616e6e6f74206265206e6174697665206f6e2060448201526939b0b6b29031b430b4b760b11b6064820152608490fd5b5046610184351415610ba9565b506001600160a01b0382161515610ba2565b8380fd5b50346102cb57806003193601126102cb576113146122ca565b80546001600160a01b03198116825581906001600160a01b03167f8be0079c531659141344cd1fd0a4f28419497f9722a3daafe3b4186f6b6457e08280a380f35b50346102cb5760203660031901126102cb5761136f611df9565b6113776122ca565b6001600160a01b0316801561139c576001600160601b0360a01b600554161760055580f35b60405162461bcd60e51b815260206004820152600f60248201526e496e76616c6964206164647265737360881b6044820152606490fd5b50346102cb57806003193601126102cb576002546040516001600160a01b039091168152602090f35b50346102cb5760203660031901126102cb57611416611df9565b5080f35b50346102cb5760203660031901126102cb576114346122ca565b60043560095580f35b50346102cb5760203660031901126102cb578061022060405161145f816121f6565b8281528260208201528260408201528260608201528260808201528260a08201528260c08201528260e08201528261010082015282610120820152826101408201528261016082015282610180820152826101a0820152826101c0820152826101e0820152826102008201520152600435815260066020526040812090604051906114e9826121f6565b82546001600160a01b039081168352600184015481166020840152600284015490811660408401526115389060ff9061152b60a082901c83166060870161224b565b60a81c166080840161224b565b600383015460a0830152600483015460c0830152600583015460e08301526006830154610100830152600783015461012083015260088301546101408301526009830154610160830152600a830154610180830152600b8301549060ff82169060058210156116d957509260ff600d92610240956101a0860152818160081c1615156101c086015260101c166101e0840152600c81015461020084015201546102208201526102206040519160018060a01b03815116835260018060a01b03602082015116602084015260018060a01b03604082015116604084015261162660608201516060850190611e53565b61163860808201516080850190611e53565b60a081015160a084015260c081015160c084015260e081015160e08401526101008101516101008401526101208101516101208401526101408101516101408401526101608101516101608401526101808101516101808401526116a66101a08201516101a0850190611e76565b6101c081015115156101c084015260ff6101e0820151166101e08401526102008101516102008401520151610220820152f35b634e487b7160e01b81526021600452602490fd5b50346102cb5760203660031901126102cb5760043567ffffffffffffffff8111610a8c5736602382011215610a8c5780600401359067ffffffffffffffff8211611a40573660248360051b83010111611a4057611748612274565b82546001600160a01b031633148015611ac1575b15611a6957825b82811015611a615760248160051b83010135808552600660205260408520600a8101544211611797575b5050600101611763565b600b015460ff166005811015610665578015908115611a56575b506117bd575b8061178d565b808552600660205260408520600b810186815460ff8160081c169081611a44575b50156119a1575060088201918254612710810290808204612710149015171561191f57611812600591600484015490611eb9565b910154683635c9adc5dea0000081111561197f57506103e8905b1015611933575050808552600660205260408520600b8101805460ff8160101c1660ff811461191f57600162ff0000910160101b169062ff0000191617815561188c611883600a8401936009855491015490611e83565b60011c42612267565b8255805460ff19168155600a54600160401b81101561190b57839260ff7f9deddb45f59cb5786543eaa633ac0f194c80315177f55cb470072ae29163525c936118e560019897610246868b60409801600a55600a611e25565b858b52600b60205242848c20555460101c16905482519182526020820152a25b906117b7565b634e487b7160e01b88526041600452602488fd5b634e487b7160e01b89526011600452602489fd5b606060019493927fe678418be901ac9a27919225bd4d60e450082ef609d1c5e6790e2a201b0e0430928660ff1982541617905554604051908152886020820152426040820152a2611905565b681b1ae4d6e2ef5000001015611998576123289061182c565b6113889061182c565b8093925050600460ff19825416179055807fb558d5482812b2534f438b36f51829f6e03f661867361d72cedc9b2ce486d9596020604051428152a26005546001600160a01b031690816119fa575b505050600190611905565b813b15611a405782916024839260405194859384926332bc3ff360e01b845260048401525af1611a2b575b806119ef565b81611a3591612229565b6112f7578338611a25565b8280fd5b6003915060ff9060101c1610386117de565b6002915014386117b1565b836001805580f35b60405162461bcd60e51b815260206004820152602a60248201527f556e617574686f72697a65643a206f6e6c79206f776e6572206f722057616c6c60448201526932ba29bbb0b826b0b4b760b11b6064820152608490fd5b506005546001600160a01b0316331461175c565b50346102cb57806003193601126102cb5760206040516127108152f35b50346102cb57806003193601126102cb5760206040516103e88152f35b50346102cb57806003193601126102cb576020600954604051908152f35b50346102cb57806003193601126102cb57602060405160038152f35b50346102cb5760203660031901126102cb57600435906007548210156102cb57600754821015610892576020916007825282822001549060031b1c604051908152f35b50346102cb5760603660031901126102cb57611ba6611df9565b90611baf611e0f565b6044359260018060a01b03168252600d602052604082209060018060a01b031660005260205260406000209081548310156102cb576020611bf08484611e25565b90549060031b1c604051908152f35b50346102cb5760403660031901126102cb57600435816024356005811015610a8c5781546001600160a01b031633148015611d5a575b611c3e906121bb565b828252600660205260016040832091600b830160ff1981541660ff831617905514611c67575080f35b6005810154927fe678418be901ac9a27919225bd4d60e450082ef609d1c5e6790e2a201b0e043060606109a16008850196611cb5611ca6828a54611ea6565b91600488015493848094611eb9565b9755604051908152856020820152426040820152a282611cd3575080f35b60028054600183015492909101546001600160a01b0390811694928116929116803b156112f7576040516350da5ecf60e01b81526001600160a01b039384166004820152949092166024850152604484015281908390606490829084905af18015611d4d57611d3f5780f35b611d4891612229565b388180f35b50604051903d90823e3d90fd5b506005546001600160a01b03163314611c35565b50346102cb57806003193601126102cb576003546040516001600160a01b039091168152602090f35b50346102cb5760803660031901126102cb576020611dcc611db6611df9565b611dbe611e0f565b906064359160443591611ed9565b604051908152f35b905034610a8c5781600319360112610a8c576005546001600160a01b03168152602090f35b600435906001600160a01b038216820361103457565b602435906001600160a01b038216820361103457565b8054821015611e3d5760005260206000200190600090565b634e487b7160e01b600052603260045260246000fd5b906002821015611e605752565b634e487b7160e01b600052602160045260246000fd5b906005821015611e605752565b91908203918211611e9057565b634e487b7160e01b600052601160045260246000fd5b81810292918115918404141715611e9057565b8115611ec3570490565b634e487b7160e01b600052601260045260246000fd5b6001600160a01b039182166000908152600d60209081526040808320949093168252929092528120805493915b848110611f17575050505050600090565b611f218183611e25565b90549060031b1c806000526006602052604060002060ff600b820154169060058210159182611e6057801515806121ac575b801561219f575b61218857600d8201548015159081612194575b5061218857600882015492831561217657611f9f611f9060048501549586611e83565b946104aa600386015487611ea6565b925b6002600091015460ff8160a01c1690600282101561216257811591828061214b575b156120215750505050505090611fd98783611ea6565b611fe38288611ea6565b11159182612017575b508161200d575b505b61200457506001905b01611f06565b94505050505090565b9050151538611ff3565b1515915038611fec565b600114918280612134575b1561206b5750505050611e60578791600288921461205e57149182612053575b5050611ff5565b11159050853861204c565b5050505050600190611ffe565b80612107575b156120a157505050611e60578791600288921461205e5710159182612097575050611ff5565b149050853861204c565b9195939291816120ed575b506120bb575b50505050611ff5565b93909192936116d957508691600289921461205e571491826120e3575b5050388080806120b2565b14905084386120d8565b60ff915060a81c16600281101561066557600114386120ac565b5060ff8160a81c16600281101561212057600114612071565b634e487b7160e01b84526021600452602484fd5b5060ff8260a81c166002811015610ae4571561202c565b5060ff8260a81c166002811015610ae45715611fc3565b634e487b7160e01b83526021600452602483fd5b60038301546004840154945092611fa1565b50505050600190611ffe565b905046141538611f6d565b50600a8201544211611f5a565b50600092506002811415611f53565b156121c257565b60405162461bcd60e51b815260206004820152600c60248201526b155b985d5d1a1bdc9a5e995960a21b6044820152606490fd5b610240810190811067ffffffffffffffff82111761221357604052565b634e487b7160e01b600052604160045260246000fd5b90601f8019910116810190811067ffffffffffffffff82111761221357604052565b6002821015611e605752565b6002811015611e605760f81b9052565b91908201809211611e9057565b600260015414612285576002600155565b60405162461bcd60e51b815260206004820152601f60248201527f5265656e7472616e637947756172643a207265656e7472616e742063616c6c006044820152606490fd5b6000546001600160a01b031633036122de57565b606460405162461bcd60e51b815260206004820152602060248201527f4f776e61626c653a2063616c6c6572206973206e6f7420746865206f776e65726044820152fdfea2646970667358221220aec4a4d4f9516ffdfec02a8af5cf75d0280cebc29bc131449d9bfadbe132c0a464736f6c63430008210033","linkReferences":{}},"methodIdentifiers":{"BPS_MAX()":"3eb6e846","LARGE_ORDER_REBOOK_THRESHOLD()":"e895b59a","LARGE_ORDER_THRESHOLD()":"e4d95e2c","MAX_REBOOK_ATTEMPTS()":"270f6a04","MEGA_ORDER_REBOOK_THRESHOLD()":"3921a778","MEGA_ORDER_THRESHOLD()":"b8674044","assetVerifier()":"9e8de3ed","cancelOrder(bytes32)":"7489ec23","createOrder(address,address,address,uint8,uint8,uint256,uint256,uint256,uint256,uint256,uint256,bool,uint256)":"73baee25","feeDistributor()":"0d43e8ad","findMatchingOrder(address,address,uint256,uint256)":"04749b00","getOrder(bytes32)":"5778472a","getOrderCount()":"8d0a5fbb","liquidityPool()":"665a11ca","minimumOrderValue()":"2b8aef73","orderIds(uint256)":"23722084","orders(bytes32)":"9c3f1e90","ordersByPair(address,address,uint256)":"1fd321ed","owner()":"8da5cb5b","processOrderBatch(bytes32[])":"443c0efe","rebookQueue(uint256)":"8d200083","rebookTime(bytes32)":"829c6088","removeFromPairIndex(bytes32)":"fe8576c7","renounceOwnership()":"715018a6","setMinimumOrderValue(uint256)":"5d0ab5aa","setWalletSwapMain(address)":"6ebbabe9","tokenMonthlyVolume(address,uint256)":"8f7c0fbf","transferOwnership(address)":"f2fde38b","updateOrderFill(bytes32,uint256)":"afaf0d8b","updateOrderStatus(bytes32,uint8)":"12d35eed","walletSwapMain()":"01fbac8f","whitelistToken(address)":"6247f6f2"},"id":33}