{"abi":[{"type":"constructor","inputs":[],"stateMutability":"nonpayable"},{"type":"function","name":"HISTORY_SIZE","inputs":[],"outputs":[{"name":"","type":"uint256","internalType":"uint256"}],"stateMutability":"view"},{"type":"function","name":"addLiquidity","inputs":[{"name":"token0","type":"address","internalType":"address"},{"name":"token1","type":"address","internalType":"address"},{"name":"amount","type":"uint256","internalType":"uint256"}],"outputs":[],"stateMutability":"nonpayable"},{"type":"function","name":"authorizedCallers","inputs":[{"name":"","type":"address","internalType":"address"}],"outputs":[{"name":"","type":"bool","internalType":"bool"}],"stateMutability":"view"},{"type":"function","name":"calculateOptimalFill","inputs":[{"name":"token0","type":"address","internalType":"address"},{"name":"token1","type":"address","internalType":"address"},{"name":"orderSize","type":"uint256","internalType":"uint256"}],"outputs":[{"name":"","type":"uint256","internalType":"uint256"}],"stateMutability":"view"},{"type":"function","name":"getAvailableLiquidity","inputs":[{"name":"token0","type":"address","internalType":"address"},{"name":"token1","type":"address","internalType":"address"}],"outputs":[{"name":"","type":"uint256","internalType":"uint256"}],"stateMutability":"view"},{"type":"function","name":"getLiquidityChangeRate","inputs":[{"name":"token0","type":"address","internalType":"address"},{"name":"token1","type":"address","internalType":"address"}],"outputs":[{"name":"","type":"int256","internalType":"int256"}],"stateMutability":"view"},{"type":"function","name":"historyCount","inputs":[{"name":"","type":"address","internalType":"address"},{"name":"","type":"address","internalType":"address"}],"outputs":[{"name":"","type":"uint256","internalType":"uint256"}],"stateMutability":"view"},{"type":"function","name":"historyHead","inputs":[{"name":"","type":"address","internalType":"address"},{"name":"","type":"address","internalType":"address"}],"outputs":[{"name":"","type":"uint256","internalType":"uint256"}],"stateMutability":"view"},{"type":"function","name":"lambda","inputs":[],"outputs":[{"name":"","type":"uint256","internalType":"uint256"}],"stateMutability":"view"},{"type":"function","name":"liquidityHistory","inputs":[{"name":"","type":"address","internalType":"address"},{"name":"","type":"address","internalType":"address"},{"name":"","type":"uint256","internalType":"uint256"}],"outputs":[{"name":"liquidity","type":"uint256","internalType":"uint256"},{"name":"timestamp","type":"uint256","internalType":"uint256"}],"stateMutability":"view"},{"type":"function","name":"owner","inputs":[],"outputs":[{"name":"","type":"address","internalType":"address"}],"stateMutability":"view"},{"type":"function","name":"reduceLiquidity","inputs":[{"name":"token0","type":"address","internalType":"address"},{"name":"token1","type":"address","internalType":"address"},{"name":"amount","type":"uint256","internalType":"uint256"}],"outputs":[],"stateMutability":"nonpayable"},{"type":"function","name":"renounceOwnership","inputs":[],"outputs":[],"stateMutability":"nonpayable"},{"type":"function","name":"setAuthorizedCaller","inputs":[{"name":"caller","type":"address","internalType":"address"},{"name":"authorized","type":"bool","internalType":"bool"}],"outputs":[],"stateMutability":"nonpayable"},{"type":"function","name":"setLambda","inputs":[{"name":"_lambda","type":"uint256","internalType":"uint256"}],"outputs":[],"stateMutability":"nonpayable"},{"type":"function","name":"transferOwnership","inputs":[{"name":"newOwner","type":"address","internalType":"address"}],"outputs":[],"stateMutability":"nonpayable"},{"type":"function","name":"updateVirtualLiquidity","inputs":[{"name":"token0","type":"address","internalType":"address"},{"name":"token1","type":"address","internalType":"address"},{"name":"amount","type":"uint256","internalType":"uint256"}],"outputs":[],"stateMutability":"nonpayable"},{"type":"function","name":"virtualLiquidity","inputs":[{"name":"","type":"address","internalType":"address"},{"name":"","type":"address","internalType":"address"}],"outputs":[{"name":"","type":"uint256","internalType":"uint256"}],"stateMutability":"view"},{"type":"event","name":"AuthorizedCallerSet","inputs":[{"name":"caller","type":"address","indexed":true,"internalType":"address"},{"name":"authorized","type":"bool","indexed":false,"internalType":"bool"}],"anonymous":false},{"type":"event","name":"LiquidityChanged","inputs":[{"name":"token0","type":"address","indexed":true,"internalType":"address"},{"name":"token1","type":"address","indexed":true,"internalType":"address"},{"name":"newLiquidity","type":"uint256","indexed":false,"internalType":"uint256"},{"name":"timestamp","type":"uint256","indexed":false,"internalType":"uint256"}],"anonymous":false},{"type":"event","name":"LiquidityPoolInitialized","inputs":[{"name":"owner","type":"address","indexed":true,"internalType":"address"}],"anonymous":false},{"type":"event","name":"OptimalFillCalculated","inputs":[{"name":"token0","type":"address","indexed":true,"internalType":"address"},{"name":"token1","type":"address","indexed":true,"internalType":"address"},{"name":"amount","type":"uint256","indexed":false,"internalType":"uint256"},{"name":"optimalFill","type":"uint256","indexed":false,"internalType":"uint256"}],"anonymous":false},{"type":"event","name":"OwnershipTransferred","inputs":[{"name":"previousOwner","type":"address","indexed":true,"internalType":"address"},{"name":"newOwner","type":"address","indexed":true,"internalType":"address"}],"anonymous":false}],"bytecode":{"object":"0x6080806040523460905760008054336001600160a01b0319821681178355916001600160a01b03909116907f8be0079c531659141344cd1fd0a4f28419497f9722a3daafe3b4186f6b6457e09080a3600180556706f05b59d3b20000600755337f9031106ecd02b36b036c6c5f92d4e475e623632a9429f8d85c9dfc7ce85a1841600080a2610d5890816100968239f35b600080fdfe6080604052600436101561001257600080fd5b60003560e01c80630d8802c314610718578063172c526d146106c75780633788a63a146106ae578063454bbd291461062f57806350da5ecf146105d3578063536fff6c14610594578063652c462e1461057857806370a656c814610527578063715018a6146104ce5780638da5cb5b146104a5578063965f907814610454578063afbe96e614610420578063d0d89e82146103bf578063dad0be61146103a1578063e4a76726146102ae578063ed082fca14610242578063f2fde38b1461017b5763fc673af6146100e257600080fd5b346101765761012560407f9bf2168d383c9f4e4f2477bcc00eb29f933d24976d3b7208d85a5941d93bd8426101163661076e565b9491610120610b36565b610b18565b61015e858260018060a09896981b038716968760005260026020528560002060018060a01b038316600052602052828660002055610be4565b81519485524260208601526001600160a01b031693a3005b600080fd5b3461017657602036600319011261017657610194610742565b61019c610b36565b6001600160a01b031680156101ee57600080546001600160a01b03198116831782556001600160a01b0316907f8be0079c531659141344cd1fd0a4f28419497f9722a3daafe3b4186f6b6457e09080a3005b60405162461bcd60e51b815260206004820152602660248201527f4f776e61626c653a206e6577206f776e657220697320746865207a65726f206160448201526564647265737360d01b6064820152608490fd5b346101765760203660031901126101765760043561025e610b36565b801561026957600755005b60405162461bcd60e51b815260206004820152601760248201527f4c616d626461206d75737420626520706f7369746976650000000000000000006044820152606490fd5b346101765761036d61030d7f9bf2168d383c9f4e4f2477bcc00eb29f933d24976d3b7208d85a5941d93bd84260406102e53661076e565b94916102ef610b8e565b6000546001600160a01b031633148015610389575b610120906108dc565b94859161034360018060a01b038216968760005260026020528560002060018060a01b03861660005260205285600020546107d2565b9687918760005260026020528560002060018060a01b038316600052602052828660002055610be4565b81519485524260208601526001600160a01b031693a360018055005b5033600090815260036020528490205460ff16610304565b34610176576000366003190112610176576020600754604051908152f35b34610176576103cd3661076e565b9160018060a01b0316600052600460205260406000209060018060a01b03166000526020526040600020600a8210156101765760409161040c916107a8565b506001815491015482519182526020820152f35b3461017657604036600319011261017657602061044c61043e610742565b610446610758565b906109ce565b604051908152f35b346101765760403660031901126101765761046d610742565b610475610758565b6001600160a01b039182166000908152600560209081526040808320949093168252928352819020549051908152f35b34610176576000366003190112610176576000546040516001600160a01b039091168152602090f35b34610176576000366003190112610176576104e7610b36565b600080546001600160a01b0319811682556001600160a01b03167f8be0079c531659141344cd1fd0a4f28419497f9722a3daafe3b4186f6b6457e08280a3005b3461017657604036600319011261017657610540610742565b610548610758565b6001600160a01b039182166000908152600660209081526040808320949093168252928352819020549051908152f35b34610176576000366003190112610176576020604051600a8152f35b34610176576020366003190112610176576001600160a01b036105b5610742565b166000526003602052602060ff604060002054166040519015158152f35b34610176576106106105e43661076e565b916105ed610b8e565b6000546001600160a01b031633148015610616575b61060b906108dc565b61092b565b60018055005b503360009081526003602052604090205460ff16610602565b3461017657604036600319011261017657610648610742565b602435908115158092036101765760207f1eff62a53441c7d0125c22f2a9a324e206b34efa41e19469d7efb9bb703d21a391610682610b36565b60018060a01b0316928360005260038252604060002060ff1981541660ff8316179055604051908152a2005b3461017657602061044c6106c13661076e565b916107f5565b34610176576040366003190112610176576106e0610742565b6106e8610758565b6001600160a01b039182166000908152600260209081526040808320949093168252928352819020549051908152f35b34610176576040366003190112610176576106e8610734610742565b61073c610758565b90610b18565b600435906001600160a01b038216820361017657565b602435906001600160a01b038216820361017657565b6060906003190112610176576004356001600160a01b038116810361017657906024356001600160a01b0381168103610176579060443590565b90600a8110156107bc5760011b0190600090565b634e487b7160e01b600052603260045260246000fd5b919082018092116107df57565b634e487b7160e01b600052601160045260246000fd5b906107ff91610b18565b6001600160a01b03808316600090815260026020908152604080832093851683529290522054919082156108d357610836916109ce565b60008112156108ce57600160ff1b81146107df576000035b6000908061087c57505080915b808311610874575b5080821161086f575090565b905090565b915038610863565b600754908184029184830481036108ba5790610897916107d2565b9182156108a65750049161085b565b634e487b7160e01b81526012600452602490fd5b634e487b7160e01b84526011600452602484fd5b61084e565b50505050600090565b156108e357565b60405162461bcd60e51b81526020600482015260136024820152722ab730baba3437b934bd32b21031b0b63632b960691b6044820152606490fd5b919082039182116107df57565b9061093591610b18565b9160018060a01b03821691826000526002602052604060002060018060a01b038516600052602052604060002054918281116000146109c85750815b82156109c1576109a96040926103437f9bf2168d383c9f4e4f2477bcc00eb29f933d24976d3b7208d85a5941d93bd84295889461091e565b81519485524260208601526001600160a01b031693a3565b5050505050565b91610971565b906109d891610b18565b6001600160a01b03918216600081815260066020908152604080832095851683529490529290922054600211610b1157816000526005602052604060002060018060a01b03821660005260205260406000205490600a8201908183116107df57600983018281116107df576008600094019283116108ba5790610a81610aaa939286865260046020526040862060018060a01b0384168752602052600a604087209106906107a8565b509484526004602052604084209060018060a01b03168452602052600a604084209106906107a8565b5090610abf600184015460018401549061091e565b928315610b0a5754915491818382039312818412811691841390151617610af657600160ff1b8214600019841416610af657500590565b634e487b7160e01b81526011600452602490fd5b5091505090565b5050600090565b9091906001600160a01b038084169082161015610b33579190565b90565b6000546001600160a01b03163303610b4a57565b606460405162461bcd60e51b815260206004820152602060248201527f4f776e61626c653a2063616c6c6572206973206e6f7420746865206f776e65726044820152fd5b600260015414610b9f576002600155565b60405162461bcd60e51b815260206004820152601f60248201527f5265656e7472616e637947756172643a207265656e7472616e742063616c6c006044820152606490fd5b6001600160a01b039081166000818152600560209081526040808320948616835293905282902054825191949092820167ffffffffffffffff811183821017610d0c5760405281526020810190428252846000526004602052604060002060018060a01b038516600052602052610c5f8360406000206107a8565b929092610cf65760019151835551910155600181018091116107df5760008381526005602090815260408083206001600160a01b038616808552908352818420600a9586900690558684526006835281842090845290915290205492908310610cc757505050565b600183018093116107df57600052600660205260406000209060018060a01b0316600052602052604060002055565b634e487b7160e01b600052600060045260246000fd5b634e487b7160e01b600052604160045260246000fdfea2646970667358221220a4c1a8e3bbdd11a7c1d446cc75a702ccacfd5a37d079b8345afe63fb16900f7964736f6c63430008210033","linkReferences":{}},"methodIdentifiers":{"HISTORY_SIZE()":"652c462e","addLiquidity(address,address,uint256)":"e4a76726","authorizedCallers(address)":"536fff6c","calculateOptimalFill(address,address,uint256)":"3788a63a","getAvailableLiquidity(address,address)":"0d8802c3","getLiquidityChangeRate(address,address)":"afbe96e6","historyCount(address,address)":"70a656c8","historyHead(address,address)":"965f9078","lambda()":"dad0be61","liquidityHistory(address,address,uint256)":"d0d89e82","owner()":"8da5cb5b","reduceLiquidity(address,address,uint256)":"50da5ecf","renounceOwnership()":"715018a6","setAuthorizedCaller(address,bool)":"454bbd29","setLambda(uint256)":"ed082fca","transferOwnership(address)":"f2fde38b","updateVirtualLiquidity(address,address,uint256)":"fc673af6","virtualLiquidity(address,address)":"172c526d"},"id":75}