{"abi":[{"type":"function","name":"approve","inputs":[{"name":"spender","type":"address","internalType":"address"},{"name":"id","type":"uint256","internalType":"uint256"}],"outputs":[],"stateMutability":"nonpayable"},{"type":"function","name":"balanceOf","inputs":[{"name":"owner","type":"address","internalType":"address"}],"outputs":[{"name":"","type":"uint256","internalType":"uint256"}],"stateMutability":"view"},{"type":"function","name":"getApproved","inputs":[{"name":"","type":"uint256","internalType":"uint256"}],"outputs":[{"name":"","type":"address","internalType":"address"}],"stateMutability":"view"},{"type":"function","name":"initialize","inputs":[{"name":"_name","type":"string","internalType":"string"},{"name":"_symbol","type":"string","internalType":"string"}],"outputs":[],"stateMutability":"nonpayable"},{"type":"function","name":"isApprovedForAll","inputs":[{"name":"","type":"address","internalType":"address"},{"name":"","type":"address","internalType":"address"}],"outputs":[{"name":"","type":"bool","internalType":"bool"}],"stateMutability":"view"},{"type":"function","name":"name","inputs":[],"outputs":[{"name":"","type":"string","internalType":"string"}],"stateMutability":"view"},{"type":"function","name":"ownerOf","inputs":[{"name":"id","type":"uint256","internalType":"uint256"}],"outputs":[{"name":"owner","type":"address","internalType":"address"}],"stateMutability":"view"},{"type":"function","name":"safeTransferFrom","inputs":[{"name":"from","type":"address","internalType":"address"},{"name":"to","type":"address","internalType":"address"},{"name":"id","type":"uint256","internalType":"uint256"}],"outputs":[],"stateMutability":"nonpayable"},{"type":"function","name":"safeTransferFrom","inputs":[{"name":"from","type":"address","internalType":"address"},{"name":"to","type":"address","internalType":"address"},{"name":"id","type":"uint256","internalType":"uint256"},{"name":"data","type":"bytes","internalType":"bytes"}],"outputs":[],"stateMutability":"nonpayable"},{"type":"function","name":"setApprovalForAll","inputs":[{"name":"operator","type":"address","internalType":"address"},{"name":"approved","type":"bool","internalType":"bool"}],"outputs":[],"stateMutability":"nonpayable"},{"type":"function","name":"supportsInterface","inputs":[{"name":"interfaceId","type":"bytes4","internalType":"bytes4"}],"outputs":[{"name":"","type":"bool","internalType":"bool"}],"stateMutability":"pure"},{"type":"function","name":"symbol","inputs":[],"outputs":[{"name":"","type":"string","internalType":"string"}],"stateMutability":"view"},{"type":"function","name":"tokenURI","inputs":[{"name":"id","type":"uint256","internalType":"uint256"}],"outputs":[{"name":"","type":"string","internalType":"string"}],"stateMutability":"view"},{"type":"function","name":"transferFrom","inputs":[{"name":"from","type":"address","internalType":"address"},{"name":"to","type":"address","internalType":"address"},{"name":"id","type":"uint256","internalType":"uint256"}],"outputs":[],"stateMutability":"nonpayable"},{"type":"event","name":"Approval","inputs":[{"name":"owner","type":"address","indexed":true,"internalType":"address"},{"name":"spender","type":"address","indexed":true,"internalType":"address"},{"name":"id","type":"uint256","indexed":true,"internalType":"uint256"}],"anonymous":false},{"type":"event","name":"ApprovalForAll","inputs":[{"name":"owner","type":"address","indexed":true,"internalType":"address"},{"name":"operator","type":"address","indexed":true,"internalType":"address"},{"name":"approved","type":"bool","indexed":false,"internalType":"bool"}],"anonymous":false},{"type":"event","name":"Transfer","inputs":[{"name":"from","type":"address","indexed":true,"internalType":"address"},{"name":"to","type":"address","indexed":true,"internalType":"address"},{"name":"id","type":"uint256","indexed":true,"internalType":"uint256"}],"anonymous":false}],"bytecode":{"object":"0x60808060405234601557610f0a908161001b8239f35b600080fdfe608080604052600436101561001357600080fd5b60003560e01c90816301ffc9a714610aa45750806306fdde0314610a1c578063081812fc146109e8578063095ea7b31461092957806323b872dd1461091257806342842e0e1461084c5780634cd88b76146104eb5780636352211e1461047c57806370a082311461040857806395d89b4114610320578063a22cb46514610293578063b88d4fde1461015b578063c87b56dd146101195763e985e9c5146100b957600080fd5b34610114576040366003190112610114576100d2610bb3565b6100da610bc9565b9060018060a01b0316600052600560205260406000209060018060a01b0316600052602052602060ff604060002054166040519015158152f35b600080fd5b34610114576020366003190112610114576040516020815260208181606051808284015261014c81604085016080610b6b565b601f01601f1916820101030190f35b3461011457608036600319011261011457610174610bb3565b61017c610bc9565b6044359060643567ffffffffffffffff81116101145736602382011215610114576101b1903690602481600401359101610c19565b906101bd838286610cbb565b803b159283156101d3575b6101d184610e95565b005b604051630a85bd0160e11b81523360048201526001600160a01b0390951660248601526044850152608060648501526020925083918290600090829061021d906084830190610b8e565b03926001600160a01b03165af18015610287576101d191600091610258575b506001600160e01b031916630a85bd0160e11b148280806101c8565b61027a915060203d602011610280575b6102728183610b49565b810190610e75565b8261023c565b503d610268565b6040513d6000823e3d90fd5b34610114576040366003190112610114576102ac610bb3565b6024359081151580920361011457336000526005602052604060002060018060a01b038216600052602052604060002060ff1981541660ff841617905560405191825260018060a01b0316907f17307eab39ab6107e8899845ad3d59bd9653f200f220920489ca2b5937696c3160203392a3005b34610114576000366003190112610114576040516001546000908161034482610b0f565b80855291600181169081156103e15750600114610384575b6103808461036c81860382610b49565b604051918291602083526020830190610b8e565b0390f35b600181527fb10e2d527612073b26eecdfd717e6a320cf44b4afac2b0732d9fcbe2b7fa0cf6939250905b8082106103c75750909150810160200161036c8261035c565b9192600181602092548385880101520191019092916103ae565b60ff191660208087019190915292151560051b8501909201925061036c915083905061035c565b34610114576020366003190112610114576001600160a01b03610429610bb3565b1680156104485760005260036020526020604060002054604051908152f35b60405162461bcd60e51b815260206004820152600c60248201526b5a45524f5f4144445245535360a01b6044820152606490fd5b34610114576020366003190112610114576004356000908152600260205260409020546001600160a01b031680156104b957602090604051908152f35b60405162461bcd60e51b815260206004820152600a6024820152691393d517d3525395115160b21b6044820152606490fd5b346101145760403660031901126101145760043567ffffffffffffffff81116101145761051c903690600401610c60565b60243567ffffffffffffffff81116101145761053c903690600401610c60565b60ff6006541661081157815167ffffffffffffffff81116106fe57610562600054610b0f565b601f81116107a0575b50602092601f821160011461071f5792819293600092610714575b50508160011b916000199060031b1c1916176000555b805167ffffffffffffffff81116106fe576105b8600154610b0f565b601f811161068c575b50602091601f821160011461060b57918192600092610600575b50508160011b916000199060031b1c1916176001555b6006805460ff19166001179055005b0151905082806105db565b601f1982169260016000527fb10e2d527612073b26eecdfd717e6a320cf44b4afac2b0732d9fcbe2b7fa0cf69160005b8581106106745750836001951061065b575b505050811b016001556105f1565b015160001960f88460031b161c1916905582808061064d565b9192602060018192868501518155019401920161063b565b818111156105c1576001600052601f820160051c90602083106106f5575b601f82910160051c039060005b8281106106c55750506105c1565b60008282017fb10e2d527612073b26eecdfd717e6a320cf44b4afac2b0732d9fcbe2b7fa0cf601556001016106b7565b600091506106aa565b634e487b7160e01b600052604160045260246000fd5b015190508380610586565b601f19821693600080527f290decd9548b62a8d60345a988386fc84ba6bc95484008f6362f93160ef3e5639160005b868110610788575083600195961061076f575b505050811b0160005561059c565b015160001960f88460031b161c19169055838080610761565b9192602060018192868501518155019401920161074e565b8181111561056b5760008052601f820160051c9060208310610808575b601f82910160051c039060005b8281106107d857505061056b565b60008282017f290decd9548b62a8d60345a988386fc84ba6bc95484008f6362f93160ef3e56301556001016107ca565b600091506107bd565b60405162461bcd60e51b81526020600482015260136024820152721053149150511657d253925512505312569151606a1b6044820152606490fd5b346101145761085a36610bdf565b6108678183859495610cbb565b823b1591821561087b575b6101d183610e95565b604051630a85bd0160e11b81523360048201526001600160a01b039182166024820152604481019290925260806064830152600060848301819052919360209350849260a4928492165af18015610287576101d1916000916108f3575b506001600160e01b031916630a85bd0160e11b148280610872565b61090c915060203d602011610280576102728183610b49565b826108d8565b34610114576101d161092336610bdf565b91610cbb565b3461011457604036600319011261011457610942610bb3565b6024359081600052600260205260018060a01b03604060002054169081331480156109c5575b61097190610c7e565b600083815260046020526040812080546001600160a01b0319166001600160a01b039390931692831790559091907f8c5be1e5ebec7d5bd14f71427d1e84f3dd0314c0f7b2291e5b200ac8c7c3b9259080a4005b50600082815260056020908152604080832033845290915290205460ff16610968565b34610114576020366003190112610114576004356000526004602052602060018060a01b0360406000205416604051908152f35b34610114576000366003190112610114576040516000805481610a3e82610b0f565b80855291600181169081156103e15750600114610a65576103808461036c81860382610b49565b80805260208120939250905b808210610a8a5750909150810160200161036c8261035c565b919260018160209254838588010152019101909291610a71565b34610114576020366003190112610114576004359063ffffffff60e01b8216809203610114576020916301ffc9a760e01b8114908115610afe575b8115610aed575b5015158152f35b635b5e139f60e01b14905083610ae6565b6380ac58cd60e01b81149150610adf565b90600182811c92168015610b3f575b6020831014610b2957565b634e487b7160e01b600052602260045260246000fd5b91607f1691610b1e565b90601f8019910116810190811067ffffffffffffffff8211176106fe57604052565b60005b838110610b7e5750506000910152565b8181015183820152602001610b6e565b90602091610ba781518092818552858086019101610b6b565b601f01601f1916010190565b600435906001600160a01b038216820361011457565b602435906001600160a01b038216820361011457565b6060906003190112610114576004356001600160a01b038116810361011457906024356001600160a01b0381168103610114579060443590565b92919267ffffffffffffffff82116106fe5760405191610c43601f8201601f191660200184610b49565b829481845281830111610114578281602093846000960137010152565b9080601f8301121561011457816020610c7b93359101610c19565b90565b15610c8557565b60405162461bcd60e51b815260206004820152600e60248201526d1393d517d055551213d49256915160921b6044820152606490fd5b6000838152600260205260409020546001600160a01b039182169291168203610e43576001600160a01b0316908115610e0a578033148015610de7575b8015610dc7575b610d0890610c7e565b806000526003602052604060002080548015610db157600019019055816000526003602052604060002080546000198114610db15760010190558260005260026020526040600020826bffffffffffffffffffffffff60a01b82541617905582600052600460205260406000206bffffffffffffffffffffffff60a01b81541690557fddf252ad1be2c89b69c2b068fc378daa952ba7f163c4a11628f55a4df523b3ef600080a4565b634e487b7160e01b600052601160045260246000fd5b506000838152600460205260409020546001600160a01b03163314610cff565b50600081815260056020908152604080832033845290915290205460ff16610cf8565b60405162461bcd60e51b81526020600482015260116024820152701253959053125117d49150d25412515395607a1b6044820152606490fd5b60405162461bcd60e51b815260206004820152600a60248201526957524f4e475f46524f4d60b01b6044820152606490fd5b9081602091031261011457516001600160e01b0319811681036101145790565b15610e9c57565b60405162461bcd60e51b815260206004820152601060248201526f155394d0519157d49150d2541251539560821b6044820152606490fdfea2646970667358221220e9de71e15f07805c77f6e886606e3710a27e83fcb601869ca81a8a2484d76a1e64736f6c63430008210033","linkReferences":{}},"methodIdentifiers":{"approve(address,uint256)":"095ea7b3","balanceOf(address)":"70a08231","getApproved(uint256)":"081812fc","initialize(string,string)":"4cd88b76","isApprovedForAll(address,address)":"e985e9c5","name()":"06fdde03","ownerOf(uint256)":"6352211e","safeTransferFrom(address,address,uint256)":"42842e0e","safeTransferFrom(address,address,uint256,bytes)":"b88d4fde","setApprovalForAll(address,bool)":"a22cb465","supportsInterface(bytes4)":"01ffc9a7","symbol()":"95d89b41","tokenURI(uint256)":"c87b56dd","transferFrom(address,address,uint256)":"23b872dd"},"id":19}