{"abi":[{"type":"constructor","inputs":[{"name":"_chainA","type":"uint256","internalType":"uint256"},{"name":"_chainB","type":"uint256","internalType":"uint256"},{"name":"_walletSwapA","type":"address","internalType":"address"},{"name":"_walletSwapB","type":"address","internalType":"address"}],"stateMutability":"payable"},{"type":"receive","stateMutability":"payable"},{"type":"function","name":"ORDER_INITIATED_TOPIC","inputs":[],"outputs":[{"name":"","type":"uint256","internalType":"uint256"}],"stateMutability":"view"},{"type":"function","name":"REACTIVE_IGNORE","inputs":[],"outputs":[{"name":"","type":"uint256","internalType":"uint256"}],"stateMutability":"view"},{"type":"function","name":"SERVICE_ADDR","inputs":[],"outputs":[{"name":"","type":"address","internalType":"contract ISystemContract"}],"stateMutability":"view"},{"type":"function","name":"chainA","inputs":[],"outputs":[{"name":"","type":"uint256","internalType":"uint256"}],"stateMutability":"view"},{"type":"function","name":"chainB","inputs":[],"outputs":[{"name":"","type":"uint256","internalType":"uint256"}],"stateMutability":"view"},{"type":"function","name":"getOrder","inputs":[{"name":"chainId","type":"uint256","internalType":"uint256"},{"name":"tIn","type":"address","internalType":"address"},{"name":"tOut","type":"address","internalType":"address"},{"name":"index","type":"uint256","internalType":"uint256"}],"outputs":[{"name":"","type":"tuple","internalType":"struct SwapMatcherRSCv2.Order","components":[{"name":"orderId","type":"bytes32","internalType":"bytes32"},{"name":"maker","type":"address","internalType":"address"},{"name":"tokenIn","type":"address","internalType":"address"},{"name":"tokenOut","type":"address","internalType":"address"},{"name":"typeIn","type":"uint8","internalType":"uint8"},{"name":"typeOut","type":"uint8","internalType":"uint8"},{"name":"amountIn","type":"uint256","internalType":"uint256"},{"name":"amountOut","type":"uint256","internalType":"uint256"},{"name":"timestamp","type":"uint256","internalType":"uint256"},{"name":"chainId","type":"uint256","internalType":"uint256"},{"name":"targetChainId","type":"uint256","internalType":"uint256"}]}],"stateMutability":"view"},{"type":"function","name":"getOrderCount","inputs":[{"name":"chainId","type":"uint256","internalType":"uint256"},{"name":"tIn","type":"address","internalType":"address"},{"name":"tOut","type":"address","internalType":"address"}],"outputs":[{"name":"","type":"uint256","internalType":"uint256"}],"stateMutability":"view"},{"type":"function","name":"manualSubscribe","inputs":[{"name":"chainId","type":"uint256","internalType":"uint256"},{"name":"contractAddr","type":"address","internalType":"address"}],"outputs":[],"stateMutability":"nonpayable"},{"type":"function","name":"owner","inputs":[],"outputs":[{"name":"","type":"address","internalType":"address"}],"stateMutability":"view"},{"type":"function","name":"react","inputs":[{"name":"log","type":"tuple","internalType":"struct IReactive.LogRecord","components":[{"name":"chain_id","type":"uint256","internalType":"uint256"},{"name":"_contract","type":"address","internalType":"address"},{"name":"topic_0","type":"uint256","internalType":"uint256"},{"name":"topic_1","type":"uint256","internalType":"uint256"},{"name":"topic_2","type":"uint256","internalType":"uint256"},{"name":"topic_3","type":"uint256","internalType":"uint256"},{"name":"data","type":"bytes","internalType":"bytes"},{"name":"block_number","type":"uint256","internalType":"uint256"},{"name":"op_code","type":"uint256","internalType":"uint256"},{"name":"block_hash","type":"uint256","internalType":"uint256"},{"name":"tx_hash","type":"uint256","internalType":"uint256"},{"name":"log_index","type":"uint256","internalType":"uint256"}]}],"outputs":[],"stateMutability":"nonpayable"},{"type":"function","name":"reactCount","inputs":[],"outputs":[{"name":"","type":"uint256","internalType":"uint256"}],"stateMutability":"view"},{"type":"function","name":"vm","inputs":[],"outputs":[{"name":"","type":"bool","internalType":"bool"}],"stateMutability":"view"},{"type":"function","name":"walletSwapA","inputs":[],"outputs":[{"name":"","type":"address","internalType":"address"}],"stateMutability":"view"},{"type":"function","name":"walletSwapB","inputs":[],"outputs":[{"name":"","type":"address","internalType":"address"}],"stateMutability":"view"},{"type":"event","name":"Callback","inputs":[{"name":"chainId","type":"uint256","indexed":true,"internalType":"uint256"},{"name":"_contract","type":"address","indexed":true,"internalType":"address"},{"name":"gasLimit","type":"uint64","indexed":false,"internalType":"uint64"},{"name":"payload","type":"bytes","indexed":false,"internalType":"bytes"}],"anonymous":false},{"type":"event","name":"MatchFound","inputs":[{"name":"orderA","type":"bytes32","indexed":true,"internalType":"bytes32"},{"name":"orderB","type":"bytes32","indexed":true,"internalType":"bytes32"},{"name":"timestamp","type":"uint256","indexed":false,"internalType":"uint256"}],"anonymous":false},{"type":"event","name":"OrderStored","inputs":[{"name":"orderId","type":"bytes32","indexed":true,"internalType":"bytes32"},{"name":"chainId","type":"uint256","indexed":false,"internalType":"uint256"},{"name":"tokenIn","type":"address","indexed":false,"internalType":"address"},{"name":"tokenOut","type":"address","indexed":false,"internalType":"address"}],"anonymous":false},{"type":"event","name":"ReactCalled","inputs":[{"name":"chainId","type":"uint256","indexed":false,"internalType":"uint256"},{"name":"topic0","type":"uint256","indexed":false,"internalType":"uint256"},{"name":"blockNumber","type":"uint256","indexed":false,"internalType":"uint256"}],"anonymous":false}],"bytecode":{"object":"0x6080601f61114438819003918201601f19168301916001600160401b038311848410176100d5578084926080946040528339810103126100d05780519060208101519061005a6060610053604084016100eb565b92016100eb565b60058054600195909555600293909355600380546001600160a01b03199081166001600160a01b039485161790915560048054909116929091169190911790556001600160a81b03199091163360ff60a01b19161762ffffff3b1560a01b60ff60a01b1617905560405161104490816101008239f35b600080fd5b634e487b7160e01b600052604160045260246000fd5b51906001600160a01b03821682036100d05756fe6080604052600436101561001b575b361561001957600080fd5b005b6000803560e01c80630d152c2c1461051a57806310a4a506146104f15780633a768463146104cb57806340800c49146104905780634b6dd86f14610472578063578ebb591461032c5780638671b5da146102f1578063874e6bc8146102d35780638da5cb5b146102aa578063a12c915e1461028c578063abc1fd9e1461016c578063c74fb4c21461010a578063dc85ea0b146100e15763e01c7ca7146100c1575061000e565b346100de57806003193601126100de57602060405162ffffff8152f35b80fd5b50346100de57806003193601126100de576003546040516001600160a01b039091168152602090f35b50346100de5760603660031901126100de5761012461055c565b604061012e610577565b92600435815280602052209060018060a01b031660005260205260406000209060018060a01b03166000526020526020604060002054604051908152f35b50346100de5760403660031901126100de5761018661055c565b6005546001600160a01b0316330361025a5762ffffff3b15610256576040516305a6aced60e41b815260048035908201526001600160a01b0390911660248201527f058e802e2eed1657b621419f51940b8d60d9ff78dca249f3908460679669533360448201527fa65f96fc951c35ead38878e0f0b7a3c744a6f5ccc1476b313353ce31712313ad606482018190526084820181905260a482015281808260c4818362ffffff5af180156102495761023b5780f35b610244916105e2565b388180f35b50604051903d90823e3d90fd5b5080fd5b60405162461bcd60e51b815260206004820152600a60248201526927b7363c9037bbb732b960b11b6044820152606490fd5b50346100de57806003193601126100de576020600254604051908152f35b50346100de57806003193601126100de576005546040516001600160a01b039091168152602090f35b50346100de57806003193601126100de576020600154604051908152f35b50346100de57806003193601126100de5760206040517fa65f96fc951c35ead38878e0f0b7a3c744a6f5ccc1476b313353ce31712313ad8152f35b50346100de5760803660031901126100de576103e16103db60406101609361035261055c565b61035a610577565b9082610140855161036a816105af565b82815282602082015282878201528260608201528260808201528260a08201528260c08201528260e0820152826101008201528261012082015201526004358352826020528383209060018060a01b031683526020528282209060018060a01b031682526020522060643590610604565b50610636565b610140604051918051835260018060a01b03602082015116602084015260018060a01b03604082015116604084015260018060a01b03606082015116606084015260ff608082015116608084015260ff60a08201511660a084015260c081015160c084015260e081015160e08401526101008101516101008401526101208101516101208401520151610140820152f35b50346100de57806003193601126100de576020600654604051908152f35b50346100de57806003193601126100de5760206040517f058e802e2eed1657b621419f51940b8d60d9ff78dca249f390846067966953338152f35b50346100de57806003193601126100de57602060ff60055460a01c166040519015158152f35b50346100de57806003193601126100de576004546040516001600160a01b039091168152602090f35b50346100de5760203660031901126100de5760043567ffffffffffffffff81116102565761018060031982360301126102565761055990600401610718565b80f35b602435906001600160a01b038216820361057257565b600080fd5b604435906001600160a01b038216820361057257565b35906001600160a01b038216820361057257565b359060ff8216820361057257565b610160810190811067ffffffffffffffff8211176105cc57604052565b634e487b7160e01b600052604160045260246000fd5b90601f8019910116810190811067ffffffffffffffff8211176105cc57604052565b8054821015610620576000526009602060002091020190600090565b634e487b7160e01b600052603260045260246000fd5b90604051610643816105af565b8254815260018301546001600160a01b0390811660208301526002840154811660408301526003840154908116606083015260ff60a082811c8216608085015260a89290921c1690820152600483015460c0820152600583015460e082015260068301546101008201526007830154610120820152600890920154610140830152565b919091624c4b40815260406020820152825180604083015260005b818110610702575060609293506000838284010152601f8019910116010190565b80602080928701015160608286010152016106e1565b62ffffff33148015610fff575b15610fcb576006546000198114610c38576001016006557f058e802e2eed1657b621419f51940b8d60d9ff78dca249f3908460679669533360408201357f59c4902123db3b8141785fe1d345f34afe2798a1b67b127cb9e23ae711cddf6760606040518535815283602082015260e08601356040820152a103610fc85760c081013590601e1981360301821215610572578181013567ffffffffffffffff811161057257602083830101908036038213610572576101008385019182019190910312610572576107f49061058d565b61080260408484010161058d565b916108116060858301016105a1565b61081f6080868401016105a1565b9360015480843514600014610fc25750600254935b60405160609561084487836105e2565b6002825260208201601f198801368237825115610620578635905281516001101561062057604082979498939201526000955b8051871015610dd75760008151881015610dc35750600587901b81016020015193868a0160e0013580151590610db3575b610da5576000858152602081815260408083206001600160a01b038d811685529083528184209087168452909152812099905b8a5480821015610d8d576108f26103db838e610604565b6101408101518015159081610d81575b50610d645760ff881660ff6080830151161480610d6e575b15610d6457600060ff8b1660011480610d57575b15610c8657508d60c0818d01013560c0830151149081610c72575b505b61095b5750506001905b016108db565b98509950999a505050505050610a65907f8dd725fa9d6cd150017ab9e60318d40616439424e2fade9c1c58854950917dfc610a8c60015480873514600014610c60576003546001600160a01b0316905b8403610c4e576003546001600160a01b0316905b602087810151604051633139d9ab60e11b9281019290925230602483015260608a013560448301526001600160a01b03166064808301919091528152610a066084826105e2565b846040519260018060a01b03169280610a218c3594826106c6565b0390a38551604051633139d9ab60e11b6020820152306024820152604481019190915260808801356001600160a01b0316606482015294610a739086906084820190565b03601f1981018752866105e2565b6040516001600160a01b039091169490918291826106c6565b0390a351907ec414646b48cd4d9d3256391ddee84de51d6b1ad896e9ea6a5550b3b916c9246020606060405193428552013592a36000198101908111610c3857610ad9610ae19184610604565b509183610604565b919091610b4457808203610b70575b505080548015610b5a576000190190610b098282610604565b610b44576008600091828155826001820155826002820155826003820155826004820155826005820155826006820155826007820155015555565b634e487b7160e01b600052600060045260246000fd5b634e487b7160e01b600052603160045260246000fd5b8054825560018082015490830180546001600160a01b03199081166001600160a01b03938416179091556002808401549085018054831691841691909117905560038084018054918601805493841692909416918217845580546001600160a81b03198416831760ff60a01b9091169081178555905460ff60a81b166001600160b01b03199093169091171717905560089081906004810154600485015560058101546005850155600681015460068501556007810154600785015501549101553880610af0565b634e487b7160e01b600052601160045260246000fd5b6004546001600160a01b0316906109bf565b6004546001600160a01b0316906109ab565b60a091508c01013560e0820151148e610949565b60ff8b16158080610d4c575b15610ccb5750508d60c0818d01013560c083015110159081610cb6575b505b61094b565b60a091508c01013560e082015111158e610caf565b60ff8c1660011480610d41575b15610d0e5750508d60c0818d01013560c083015110159081610cfa575061094b565b60a091508c01013560e0820151148e610caf565b80610d34575b15610cb157508d60c0818d01013560c0830151149081610cb6575061094b565b50600160ff8a1614610d14565b5060ff8a1615610cd8565b5060ff8a1615610c92565b50600160ff8a161461092e565b5050600190610955565b5060ff8a1660ff60a0830151161461091a565b90508b35141538610902565b5050945096600191929398505b019592969190610877565b966001919293989450610d9a565b508460e08b8901013514156108a8565b634e487b7160e01b81526032600452602490fd5b5084356000908152602081815260408083206001600160a01b038086168552908352818420908b1684529091529081902090519198929793965094939091610e1e836105af565b60608501358352602083019560018060a01b036080870135168752604084019260018060a01b038b1684528885019060018060a01b038716825260ff608087019116815260ff60a087019b168b5260c0860160a0858a010135815260e087019160c0868b0101358352610100880193610100878c01013585526101208901958b35875260e06101408b01988d01013588528054680100000000000000008110156105cc57610ed191600182018155610604565b999099610b44575189559a516001890180546001600160a01b039283166001600160a01b031991821617909155975160028a018054918316919099161790975599516003880180549b519d5160ff60a81b60a89190911b166001600160b01b0319909c16919097161760ff60a01b60a09d909d1b9c909c169b909b17989098179093557fa99a17044e00645d33552d563bdca938e1668bc2d17ea74b506d4c1d4f3bf2e398606097600894915160048701555160058601555160068501555160078401555191015560408051833581526001600160a01b0397881660208201529190961695810195909552013592a2565b93610834565b50565b60405162461bcd60e51b815260206004820152600c60248201526b155b985d5d1a1bdc9a5e995960a21b6044820152606490fd5b5060ff60055460a01c1661072556fea2646970667358221220033a2cecb81fed3e45efc8b1470e7357fc7daa622e4aca2673a476bd57a93b2c64736f6c63430008210033","linkReferences":{}},"methodIdentifiers":{"ORDER_INITIATED_TOPIC()":"40800c49","REACTIVE_IGNORE()":"8671b5da","SERVICE_ADDR()":"e01c7ca7","chainA()":"874e6bc8","chainB()":"a12c915e","getOrder(uint256,address,address,uint256)":"578ebb59","getOrderCount(uint256,address,address)":"c74fb4c2","manualSubscribe(uint256,address)":"abc1fd9e","owner()":"8da5cb5b","react((uint256,address,uint256,uint256,uint256,uint256,bytes,uint256,uint256,uint256,uint256,uint256))":"0d152c2c","reactCount()":"4b6dd86f","vm()":"3a768463","walletSwapA()":"dc85ea0b","walletSwapB()":"10a4a506"},"id":17}