{"abi":[{"type":"constructor","inputs":[],"stateMutability":"nonpayable"},{"type":"receive","stateMutability":"payable"},{"type":"function","name":"createConversionOrder","inputs":[{"name":"tokenIn","type":"address","internalType":"address"},{"name":"amountIn","type":"uint256","internalType":"uint256"}],"outputs":[{"name":"","type":"bytes32","internalType":"bytes32"}],"stateMutability":"nonpayable"},{"type":"function","name":"orderProcessor","inputs":[],"outputs":[{"name":"","type":"address","internalType":"contract EulerLagrangeOrderProcessor"}],"stateMutability":"view"},{"type":"function","name":"owner","inputs":[],"outputs":[{"name":"","type":"address","internalType":"address"}],"stateMutability":"view"},{"type":"function","name":"renounceOwnership","inputs":[],"outputs":[],"stateMutability":"nonpayable"},{"type":"function","name":"setOrderProcessor","inputs":[{"name":"_orderProcessor","type":"address","internalType":"address"}],"outputs":[],"stateMutability":"nonpayable"},{"type":"function","name":"transferOwnership","inputs":[{"name":"newOwner","type":"address","internalType":"address"}],"outputs":[],"stateMutability":"nonpayable"},{"type":"event","name":"ConversationOrderCreated","inputs":[{"name":"orderId","type":"bytes32","indexed":true,"internalType":"bytes32"},{"name":"tokenIn","type":"address","indexed":true,"internalType":"address"},{"name":"amountIn","type":"uint256","indexed":false,"internalType":"uint256"}],"anonymous":false},{"type":"event","name":"OwnershipTransferred","inputs":[{"name":"previousOwner","type":"address","indexed":true,"internalType":"address"},{"name":"newOwner","type":"address","indexed":true,"internalType":"address"}],"anonymous":false}],"bytecode":{"object":"0x60808060405234605a5760008054336001600160a01b0319821681178355916001600160a01b03909116907f8be0079c531659141344cd1fd0a4f28419497f9722a3daafe3b4186f6b6457e09080a361062d90816100608239f35b600080fdfe6080604052600436101561001b575b361561001957600080fd5b005b60003560e01c80632821bb7c146103145780633b19c327146101d9578063715018a6146101805780638da5cb5b14610157578063d2b152791461012e5763f2fde38b0361000e57346101295760203660031901126101295761007b610357565b61008361036d565b6001600160a01b031680156100d557600080546001600160a01b03198116831782556001600160a01b0316907f8be0079c531659141344cd1fd0a4f28419497f9722a3daafe3b4186f6b6457e09080a3005b60405162461bcd60e51b815260206004820152602660248201527f4f776e61626c653a206e6577206f776e657220697320746865207a65726f206160448201526564647265737360d01b6064820152608490fd5b600080fd5b34610129576000366003190112610129576001546040516001600160a01b039091168152602090f35b34610129576000366003190112610129576000546040516001600160a01b039091168152602090f35b346101295760003660031901126101295761019961036d565b600080546001600160a01b0319811682556001600160a01b03167f8be0079c531659141344cd1fd0a4f28419497f9722a3daafe3b4186f6b6457e08280a3005b34610129576040366003190112610129576101f2610357565b6024359060018060a01b03166102386040516323b872dd60e01b6020820152336024820152306044820152836064820152606481526102326084826103c5565b826103fd565b60018060a01b03600154169060405192636eb1769f60e11b8452306004850152826024850152602084604481855afa938415610308576000946102d4575b5083018093116102be576102b3926040519263095ea7b360e01b602085015260248401526044830152604482526102ae6064836103c5565b6103fd565b602060405160008152f35b634e487b7160e01b600052601160045260246000fd5b9093506020813d602011610300575b816102f0602093836103c5565b8101031261012957519284610276565b3d91506102e3565b6040513d6000823e3d90fd5b346101295760203660031901126101295761032d610357565b61033561036d565b600180546001600160a01b0319166001600160a01b0392909216919091179055005b600435906001600160a01b038216820361012957565b6000546001600160a01b0316330361038157565b606460405162461bcd60e51b815260206004820152602060248201527f4f776e61626c653a2063616c6c6572206973206e6f7420746865206f776e65726044820152fd5b90601f8019910116810190811067ffffffffffffffff8211176103e757604052565b634e487b7160e01b600052604160045260246000fd5b60018060a01b031660409160008084519261041886856103c5565b602084527f5361666545524332303a206c6f772d6c6576656c2063616c6c206661696c6564602085015260208151910182865af13d1561051e573d9067ffffffffffffffff82116103e757845161048e94909261047f601f8201601f1916602001856103c5565b83523d6000602085013e610527565b80519081159182156104fb575b5050156104a55750565b5162461bcd60e51b815260206004820152602a60248201527f5361666545524332303a204552433230206f7065726174696f6e20646964206e6044820152691bdd081cdd58d8d9595960b21b6064820152608490fd5b81925090602091810103126101295760200151801515810361012957388061049b565b9161048e926060915b91929015610589575081511561053b575090565b3b156105445790565b60405162461bcd60e51b815260206004820152601d60248201527f416464726573733a2063616c6c20746f206e6f6e2d636f6e74726163740000006044820152606490fd5b82519091501561059c5750805190602001fd5b6040519062461bcd60e51b8252602060048301528181519182602483015260005b8381106105df5750508160006044809484010152601f80199101168101030190fd5b602082820181015160448784010152859350016105bd56fea264697066735822122077c78aea9fe26ab99d0dba21f9754b357c805825118210f138755738add57de764736f6c63430008210033","linkReferences":{}},"methodIdentifiers":{"createConversionOrder(address,uint256)":"3b19c327","orderProcessor()":"d2b15279","owner()":"8da5cb5b","renounceOwnership()":"715018a6","setOrderProcessor(address)":"2821bb7c","transferOwnership(address)":"f2fde38b"},"id":47}