{"abi":[{"type":"constructor","inputs":[{"name":"_swapRouter","type":"address","internalType":"address"},{"name":"_wnative","type":"address","internalType":"address"}],"stateMutability":"nonpayable"},{"type":"receive","stateMutability":"payable"},{"type":"function","name":"POOL_FEE_TIER","inputs":[],"outputs":[{"name":"","type":"uint24","internalType":"uint24"}],"stateMutability":"view"},{"type":"function","name":"owner","inputs":[],"outputs":[{"name":"","type":"address","internalType":"address"}],"stateMutability":"view"},{"type":"function","name":"renounceOwnership","inputs":[],"outputs":[],"stateMutability":"nonpayable"},{"type":"function","name":"swapRouter","inputs":[],"outputs":[{"name":"","type":"address","internalType":"contract ISwapRouter"}],"stateMutability":"view"},{"type":"function","name":"swapTokenForNative","inputs":[{"name":"tokenIn","type":"address","internalType":"address"},{"name":"amountIn","type":"uint256","internalType":"uint256"}],"outputs":[{"name":"amountOut","type":"uint256","internalType":"uint256"}],"stateMutability":"nonpayable"},{"type":"function","name":"transferOwnership","inputs":[{"name":"newOwner","type":"address","internalType":"address"}],"outputs":[],"stateMutability":"nonpayable"},{"type":"function","name":"wnative","inputs":[],"outputs":[{"name":"","type":"address","internalType":"address"}],"stateMutability":"view"},{"type":"event","name":"OwnershipTransferred","inputs":[{"name":"previousOwner","type":"address","indexed":true,"internalType":"address"},{"name":"newOwner","type":"address","indexed":true,"internalType":"address"}],"anonymous":false},{"type":"event","name":"SwapFailed","inputs":[{"name":"tokenIn","type":"address","indexed":true,"internalType":"address"},{"name":"amountIn","type":"uint256","indexed":false,"internalType":"uint256"},{"name":"reason","type":"string","indexed":false,"internalType":"string"}],"anonymous":false},{"type":"event","name":"Swapped","inputs":[{"name":"tokenIn","type":"address","indexed":true,"internalType":"address"},{"name":"tokenOut","type":"address","indexed":true,"internalType":"address"},{"name":"amountIn","type":"uint256","indexed":false,"internalType":"uint256"},{"name":"amountOut","type":"uint256","indexed":false,"internalType":"uint256"}],"anonymous":false}],"bytecode":{"object":"0x6080346100d657601f610a6438819003918201601f19168301916001600160401b038311848410176100db5780849260409485528339810103126100d657610052602061004b836100f1565b92016100f1565b60008054336001600160a01b0319821681178355604051949290916001600160a01b0316907f8be0079c531659141344cd1fd0a4f28419497f9722a3daafe3b4186f6b6457e09080a3600180546001600160a01b039283166001600160a01b0319918216179091556002805493909216921691909117905561095e90816101068239f35b600080fd5b634e487b7160e01b600052604160045260246000fd5b51906001600160a01b03821682036100d65756fe608080604052600436101561001d575b50361561001b57600080fd5b005b60003560e01c908163011a352814610246575080632cebdeb21461021d5780636765f471146101ee578063715018a6146101955780638da5cb5b1461016c578063c31c9c07146101435763f2fde38b14610077573861000f565b3461013e57602036600319011261013e57610090610261565b610098610833565b6001600160a01b031680156100ea57600080546001600160a01b03198116831782556001600160a01b0316907f8be0079c531659141344cd1fd0a4f28419497f9722a3daafe3b4186f6b6457e09080a3005b60405162461bcd60e51b815260206004820152602660248201527f4f776e61626c653a206e6577206f776e657220697320746865207a65726f206160448201526564647265737360d01b6064820152608490fd5b600080fd5b3461013e57600036600319011261013e576001546040516001600160a01b039091168152602090f35b3461013e57600036600319011261013e576000546040516001600160a01b039091168152602090f35b3461013e57600036600319011261013e576101ae610833565b600080546001600160a01b0319811682556001600160a01b03167f8be0079c531659141344cd1fd0a4f28419497f9722a3daafe3b4186f6b6457e08280a3005b3461013e57604036600319011261013e57602061021561020c610261565b602435906103a8565b604051908152f35b3461013e57600036600319011261013e576002546040516001600160a01b039091168152602090f35b3461013e57600036600319011261013e5780610bb860209252f35b600435906001600160a01b038216820361013e57565b90601f8019910116810190811067ffffffffffffffff82111761029957604052565b634e487b7160e01b600052604160045260246000fd5b3d156102ea573d9067ffffffffffffffff821161029957604051916102de601f8201601f191660200184610277565b82523d6000602084013e565b606090565b600060443d10610356576040513d600319016004823e8051913d602484011167ffffffffffffffff841117610361578282019283519167ffffffffffffffff8311610359573d84016003190185840160200111610359575061035692910160200190610277565b90565b949350505050565b92915050565b919082519283825260005b848110610393575050826000602080949584010152601f8019910116010190565b80602080928401015182828601015201610372565b6001546000916001600160a01b0390911690811561082c57604051636eb1769f60e11b8152306004820152602481018390526001600160a01b03919091169190602081604481865afa9081156108215784916107ef575b508481018091116107db5761048b9060405190602082019363095ea7b360e01b8552602483015260448201526044815261043a606482610277565b848060409485519361044c8786610277565b602085527f5361666545524332303a206c6f772d6c6576656c2063616c6c206661696c65646020860152519082885af16104846102af565b908561088b565b80519081159182156107b4575b50501561075e5760018060a01b0360025416938151610100810181811067ffffffffffffffff82111761074a57835283815260208101958652610bb88382019081523060608301908152426080840190815260a0840185815260c0850189815260e086018a8152600154895163414bf38960e01b815297516001600160a01b0390811660048a01529c518d166024890152955162ffffff16604488015293518b166064870152915160848601525160a48501525160c484015251871660e483015290958591879116815a9361010492602095f180958596610712575b5061062257837f25e268b6e417ca50f83f2b95db36dfd7e9d897f9b0b714668524e848e86353479394955060033d11610612575b6308c379a0146105e0575b600d82608093519283528060208401528201526c2ab735b737bbb71032b93937b960991b6060820152a290565b6105e86102ef565b806105f357506105b3565b61060c9083519384938452806020850152830190610367565b0390a290565b50600485803e845160e01c6105a8565b6002549093906001600160a01b0316803b1561070e578180916024855180948193632e1a7d4d60e01b83528b60048401525af180156107045782906106f4575b8080925087335af16106726102af565b50156106b8576002548151938452602084018590526001600160a01b0316927fa078c4190abe07940190effc1846be0ccf03ad6007bc9e93f9697d0b460befbb9190a390565b5162461bcd60e51b815260206004820152601660248201527513985d1a5d99481d1c985b9cd9995c8819985a5b195960521b6044820152606490fd5b6106fd91610277565b3881610662565b83513d84823e3d90fd5b5080fd5b9095506020813d602011610742575b8161072e60209383610277565b8101031261073e57519438610574565b8480fd5b3d9150610721565b634e487b7160e01b86526041600452602486fd5b5162461bcd60e51b815260206004820152602a60248201527f5361666545524332303a204552433230206f7065726174696f6e20646964206e6044820152691bdd081cdd58d8d9595960b21b6064820152608490fd5b81925090602091810103126107d7576020015180151581036107d7573880610498565b8380fd5b634e487b7160e01b84526011600452602484fd5b90506020813d602011610819575b8161080a60209383610277565b810103126107d75751386103ff565b3d91506107fd565b6040513d86823e3d90fd5b5050905090565b6000546001600160a01b0316330361084757565b606460405162461bcd60e51b815260206004820152602060248201527f4f776e61626c653a2063616c6c6572206973206e6f7420746865206f776e65726044820152fd5b919290156108ed575081511561089f575090565b3b156108a85790565b60405162461bcd60e51b815260206004820152601d60248201527f416464726573733a2063616c6c20746f206e6f6e2d636f6e74726163740000006044820152606490fd5b8251909150156109005750805190602001fd5b60405162461bcd60e51b815260206004820152908190610924906024830190610367565b0390fdfea2646970667358221220e409051aca5f53867eb9048d9fa1f38f5471e161728139b6ced0a73411e3234864736f6c63430008210033","linkReferences":{}},"methodIdentifiers":{"POOL_FEE_TIER()":"011a3528","owner()":"8da5cb5b","renounceOwnership()":"715018a6","swapRouter()":"c31c9c07","swapTokenForNative(address,uint256)":"6765f471","transferOwnership(address)":"f2fde38b","wnative()":"2cebdeb2"},"id":56}