{"abi":[{"type":"constructor","inputs":[{"name":"_trustWallet","type":"address","internalType":"address"},{"name":"_converter","type":"address","internalType":"address"}],"stateMutability":"nonpayable"},{"type":"receive","stateMutability":"payable"},{"type":"function","name":"CONVERSION_THRESHOLD","inputs":[],"outputs":[{"name":"","type":"uint256","internalType":"uint256"}],"stateMutability":"view"},{"type":"function","name":"FEE_RATE","inputs":[],"outputs":[{"name":"","type":"uint256","internalType":"uint256"}],"stateMutability":"view"},{"type":"function","name":"MIN_FEE_MINUTES","inputs":[],"outputs":[{"name":"","type":"uint256","internalType":"uint256"}],"stateMutability":"view"},{"type":"function","name":"SYSTEM_CONTRACT","inputs":[],"outputs":[{"name":"","type":"address","internalType":"address"}],"stateMutability":"view"},{"type":"function","name":"accumulatedFees","inputs":[{"name":"","type":"address","internalType":"address"}],"outputs":[{"name":"","type":"uint256","internalType":"uint256"}],"stateMutability":"view"},{"type":"function","name":"autoCheckAndCoverDebt","inputs":[{"name":"reactiveContract","type":"address","internalType":"address"},{"name":"token","type":"address","internalType":"address"}],"outputs":[],"stateMutability":"nonpayable"},{"type":"function","name":"bulkSetTrustWalletAddresses","inputs":[{"name":"tokens","type":"address[]","internalType":"address[]"},{"name":"wallets","type":"address[]","internalType":"address[]"}],"outputs":[],"stateMutability":"nonpayable"},{"type":"function","name":"calculateFee","inputs":[{"name":"","type":"address","internalType":"address"},{"name":"assetType","type":"uint8","internalType":"enum TrustWalletFeeDistributor.AssetType"},{"name":"amount","type":"uint256","internalType":"uint256"},{"name":"minutesValuation","type":"uint256","internalType":"uint256"}],"outputs":[{"name":"","type":"uint256","internalType":"uint256"}],"stateMutability":"pure"},{"type":"function","name":"contractsWithDebt","inputs":[{"name":"","type":"uint256","internalType":"uint256"}],"outputs":[{"name":"","type":"address","internalType":"address"}],"stateMutability":"view"},{"type":"function","name":"converter","inputs":[],"outputs":[{"name":"","type":"address","internalType":"contract HybridFeeConverter"}],"stateMutability":"view"},{"type":"function","name":"coverReactiveDebt","inputs":[{"name":"reactiveContract","type":"address","internalType":"address"},{"name":"token","type":"address","internalType":"address"}],"outputs":[],"stateMutability":"payable"},{"type":"function","name":"debtCoverageThreshold","inputs":[],"outputs":[{"name":"","type":"uint256","internalType":"uint256"}],"stateMutability":"view"},{"type":"function","name":"debtsCovered","inputs":[{"name":"","type":"address","internalType":"address"}],"outputs":[{"name":"","type":"uint256","internalType":"uint256"}],"stateMutability":"view"},{"type":"function","name":"defaultTrustWallet","inputs":[],"outputs":[{"name":"","type":"address","internalType":"address"}],"stateMutability":"view"},{"type":"function","name":"distributeFee","inputs":[{"name":"token","type":"address","internalType":"address"},{"name":"assetType","type":"uint8","internalType":"enum TrustWalletFeeDistributor.AssetType"},{"name":"amount","type":"uint256","internalType":"uint256"},{"name":"minutesValuation","type":"uint256","internalType":"uint256"},{"name":"sender","type":"address","internalType":"address"},{"name":"orderId","type":"bytes32","internalType":"bytes32"}],"outputs":[{"name":"","type":"uint256","internalType":"uint256"}],"stateMutability":"payable"},{"type":"function","name":"feeHistory","inputs":[{"name":"","type":"uint256","internalType":"uint256"}],"outputs":[{"name":"token","type":"address","internalType":"address"},{"name":"recipient","type":"address","internalType":"address"},{"name":"amount","type":"uint256","internalType":"uint256"},{"name":"timestamp","type":"uint256","internalType":"uint256"},{"name":"orderId","type":"bytes32","internalType":"bytes32"}],"stateMutability":"view"},{"type":"function","name":"getAccumulatedFees","inputs":[{"name":"token","type":"address","internalType":"address"}],"outputs":[{"name":"","type":"uint256","internalType":"uint256"}],"stateMutability":"view"},{"type":"function","name":"getContractWithDebt","inputs":[{"name":"index","type":"uint256","internalType":"uint256"}],"outputs":[{"name":"","type":"address","internalType":"address"}],"stateMutability":"view"},{"type":"function","name":"getContractsWithDebtCount","inputs":[],"outputs":[{"name":"","type":"uint256","internalType":"uint256"}],"stateMutability":"view"},{"type":"function","name":"getFeeHistoryLength","inputs":[],"outputs":[{"name":"","type":"uint256","internalType":"uint256"}],"stateMutability":"view"},{"type":"function","name":"getFeeRecord","inputs":[{"name":"index","type":"uint256","internalType":"uint256"}],"outputs":[{"name":"","type":"tuple","internalType":"struct TrustWalletFeeDistributor.FeeRecord","components":[{"name":"token","type":"address","internalType":"address"},{"name":"recipient","type":"address","internalType":"address"},{"name":"amount","type":"uint256","internalType":"uint256"},{"name":"timestamp","type":"uint256","internalType":"uint256"},{"name":"orderId","type":"bytes32","internalType":"bytes32"}]}],"stateMutability":"view"},{"type":"function","name":"getTotalDebtsCovered","inputs":[{"name":"reactiveContract","type":"address","internalType":"address"}],"outputs":[{"name":"","type":"uint256","internalType":"uint256"}],"stateMutability":"view"},{"type":"function","name":"getTrustWalletForToken","inputs":[{"name":"token","type":"address","internalType":"address"}],"outputs":[{"name":"","type":"address","internalType":"address"}],"stateMutability":"view"},{"type":"function","name":"isNativeToken","inputs":[{"name":"token","type":"address","internalType":"address"}],"outputs":[{"name":"","type":"bool","internalType":"bool"}],"stateMutability":"pure"},{"type":"function","name":"isReactiveContract","inputs":[{"name":"","type":"address","internalType":"address"}],"outputs":[{"name":"","type":"bool","internalType":"bool"}],"stateMutability":"view"},{"type":"function","name":"owner","inputs":[],"outputs":[{"name":"","type":"address","internalType":"address"}],"stateMutability":"view"},{"type":"function","name":"registerReactiveContract","inputs":[{"name":"reactiveContract","type":"address","internalType":"address"}],"outputs":[],"stateMutability":"nonpayable"},{"type":"function","name":"renounceOwnership","inputs":[],"outputs":[],"stateMutability":"nonpayable"},{"type":"function","name":"setDebtCoverageThreshold","inputs":[{"name":"newThreshold","type":"uint256","internalType":"uint256"}],"outputs":[],"stateMutability":"nonpayable"},{"type":"function","name":"setDefaultTrustWallet","inputs":[{"name":"wallet","type":"address","internalType":"address"}],"outputs":[],"stateMutability":"nonpayable"},{"type":"function","name":"setTrustWalletAddress","inputs":[{"name":"token","type":"address","internalType":"address"},{"name":"wallet","type":"address","internalType":"address"}],"outputs":[],"stateMutability":"nonpayable"},{"type":"function","name":"transferOwnership","inputs":[{"name":"newOwner","type":"address","internalType":"address"}],"outputs":[],"stateMutability":"nonpayable"},{"type":"function","name":"trustWalletAddresses","inputs":[{"name":"","type":"address","internalType":"address"}],"outputs":[{"name":"","type":"address","internalType":"address"}],"stateMutability":"view"},{"type":"function","name":"unregisterReactiveContract","inputs":[{"name":"reactiveContract","type":"address","internalType":"address"}],"outputs":[],"stateMutability":"nonpayable"},{"type":"function","name":"withdrawFees","inputs":[{"name":"token","type":"address","internalType":"address"}],"outputs":[],"stateMutability":"nonpayable"},{"type":"event","name":"DebtCoverageThresholdUpdated","inputs":[{"name":"newThreshold","type":"uint256","indexed":false,"internalType":"uint256"}],"anonymous":false},{"type":"event","name":"DebtCovered","inputs":[{"name":"reactiveContract","type":"address","indexed":true,"internalType":"address"},{"name":"amount","type":"uint256","indexed":false,"internalType":"uint256"},{"name":"timestamp","type":"uint256","indexed":false,"internalType":"uint256"}],"anonymous":false},{"type":"event","name":"DefaultTrustWalletSet","inputs":[{"name":"wallet","type":"address","indexed":false,"internalType":"address"}],"anonymous":false},{"type":"event","name":"FeeDistributed","inputs":[{"name":"token","type":"address","indexed":true,"internalType":"address"},{"name":"recipient","type":"address","indexed":true,"internalType":"address"},{"name":"amount","type":"uint256","indexed":false,"internalType":"uint256"},{"name":"orderId","type":"bytes32","indexed":true,"internalType":"bytes32"},{"name":"timestamp","type":"uint256","indexed":false,"internalType":"uint256"}],"anonymous":false},{"type":"event","name":"FeeDistributorInitialized","inputs":[{"name":"owner","type":"address","indexed":true,"internalType":"address"},{"name":"defaultWallet","type":"address","indexed":false,"internalType":"address"}],"anonymous":false},{"type":"event","name":"OwnershipTransferred","inputs":[{"name":"previousOwner","type":"address","indexed":true,"internalType":"address"},{"name":"newOwner","type":"address","indexed":true,"internalType":"address"}],"anonymous":false},{"type":"event","name":"ReactiveContractRegistered","inputs":[{"name":"contractAddr","type":"address","indexed":true,"internalType":"address"},{"name":"isReactive","type":"bool","indexed":false,"internalType":"bool"}],"anonymous":false},{"type":"event","name":"TrustWalletAddressSet","inputs":[{"name":"token","type":"address","indexed":true,"internalType":"address"},{"name":"wallet","type":"address","indexed":false,"internalType":"address"}],"anonymous":false}],"bytecode":{"object":"0x60803461019457601f611c5138819003918201601f19168301916001600160401b0383118484101761019957808492604094855283398101031261019457610052602061004b836101af565b92016101af565b60008054336001600160a01b031982168117835560405193949290916001600160a01b0316907f8be0079c531659141344cd1fd0a4f28419497f9722a3daafe3b4186f6b6457e09080a3662386f26fc100006007556001600160a01b03169081156101525750600280546001600160a01b031916821790556040518181527ff6037bafb2d7efe72a6c8833e19e94cf966f3034294060988897cace3b4bf2659160209133907fb7eb30dc63925b699e137f9113fd2814a6f7613e812de07ea4c56a63f44970b3908490a2604051908152a1600980546001600160a01b0319166001600160a01b0392909216919091179055604051611a8d90816101c48239f35b62461bcd60e51b815260206004820152601660248201527f496e76616c69642064656661756c742077616c6c6574000000000000000000006044820152606490fd5b600080fd5b634e487b7160e01b600052604160045260246000fd5b51906001600160a01b03821682036101945756fe60806040526004361015610036575b361561001957600080fd5b6000805260046020526040600020610032348254611452565b9055005b60003560e01c806309f7259b146111225780630ca0b6d3146110e05780630d3517cf146110b75780630d35a1671461104a578063164e68de14610ef85780632d11c58a14610edc5780632d8897a114610e9d5780632db8cef314610e705780633230616214610e525780633bd7dc5d14610cba57806345b315b014610c475780634e68a51214610c1c5780635135a2ec14610bfa578063524c2891146109a8578063551d4a591461095c578063564201f9146101bd5780636a18a5f91461093e578063715018a6146108e55780637573ca92146108c757806381ae4a701461087b578063862e68171461083a5780638da5cb5b14610811578063916086e014610663578063a16e89411461021a578063a88c0a0614610647578063ad8b1391146105dc578063bd38837b146105b3578063bddddbab14610510578063c420f05914610444578063ec3647551461035d578063f2fde38b14610296578063f43877ab14610254578063fc8d53f41461021a578063fcf36898146101fc5763fcf666640361000e575b346101f75760203660031901126101f7576001600160a01b036101de61119a565b1660005260046020526020604060002054604051908152f35b600080fd5b346101f75760003660031901126101f7576020600354604051908152f35b346101f75760203660031901126101f7576001600160a01b0361023b61119a565b1660005260056020526020604060002054604051908152f35b346101f75760203660031901126101f7576004356006548110156101f75761027d60209161122c565b905460405160039290921b1c6001600160a01b03168152f35b346101f75760203660031901126101f7576102af61119a565b6102b761183a565b6001600160a01b0316801561030957600080546001600160a01b03198116831782556001600160a01b0316907f8be0079c531659141344cd1fd0a4f28419497f9722a3daafe3b4186f6b6457e09080a3005b60405162461bcd60e51b815260206004820152602660248201527f4f776e61626c653a206e6577206f776e657220697320746865207a65726f206160448201526564647265737360d01b6064820152608490fd5b346101f75760203660031901126101f75761037661119a565b61037e61183a565b6001600160a01b0316610392811515611247565b80600052600860205260ff60406000205416156103ab57005b8060005260086020526040600020600160ff198254161790556006546801000000000000000081101561042e578060016103e8920160065561122c565b81549060031b9083821b9160018060a01b03901b19161790557f6899f537de8826f5e893752eade33397c7be98b908e5858a18ba25da7a2c622b602060405160018152a2005b634e487b7160e01b600052604160045260246000fd5b346101f75760203660031901126101f75760a06104966004356000608060405161046d81611286565b828152826020820152826040820152826060820152015261049160035482106113a1565b6111c6565b506040516104a381611286565b600180841b0382541691828252600180851b036001820154166020830190815260028201549060408401918252608060046003850154946060870195865201549401938452604051948552600180871b039051166020850152516040840152516060830152516080820152f35b346101f75760403660031901126101f75761052961119a565b7f894dec398e2419b3582d6a351352f5c67293d9202f01ee15c24f84cb565eaf8060206105546111b0565b9261055d61183a565b6001600160a01b031692610572841515611328565b6001600160a01b0316610586811515611364565b83600052600182526040600020816bffffffffffffffffffffffff60a01b825416179055604051908152a2005b346101f75760003660031901126101f7576009546040516001600160a01b039091168152602090f35b346101f75760203660031901126101f7576001600160a01b036105fd61119a565b166000908152600160205260409020546001600160a01b03168015610632576020905b6040516001600160a01b039091168152f35b506002546020906001600160a01b0316610620565b346101f75760003660031901126101f757602060405160008152f35b346101f75760403660031901126101f75761067c61119a565b6106846111b0565b6001600160a01b039091169061069b821515611247565b8160005260086020526106b560ff604060002054166113e3565b6001600160a01b031660008181526004602052604090205460075411156106d857005b6000806040516020810190632ecd4e7d60e01b8252856024820152602481526107026044826112a2565b519062ffffff5afa6107126112c4565b9080610807575b610720575b005b80516020808301926000928101031261080457505190811515806107ec575b61074557005b600080604051602081019063b760faf960e01b82528660248201526024815261076f6044826112a2565b51908562ffffff5af16107806112c4565b501561071e577f48e5ab2e54781b9981ff25b9e51100f7441e9083e82300d41e1ef9dbb3d86c5b916040916000526004602052816000206107c282825461142f565b9055836000526005602052816000206107dc828254611452565b90558151908152426020820152a2005b5080600052600460205281604060002054101561073f565b80fd5b5080511515610719565b346101f75760003660031901126101f7576000546040516001600160a01b039091168152602090f35b346101f75760803660031901126101f75761085361119a565b5060243560028110156101f7576108736020916064359060443590611763565b604051908152f35b346101f75760203660031901126101f7577f52874ced8e4305fc1ebe94dc5d6205bf67bf916a0c7c4dc05e6b3e42b425b9d060206004356108ba61183a565b80600755604051908152a1005b346101f75760003660031901126101f757602060405162ffffff8152f35b346101f75760003660031901126101f7576108fe61183a565b600080546001600160a01b0319811682556001600160a01b03167f8be0079c531659141344cd1fd0a4f28419497f9722a3daafe3b4186f6b6457e08280a3005b346101f75760003660031901126101f7576020600654604051908152f35b60c03660031901126101f75761097061119a565b60243560028110156101f757608435916001600160a01b03831683036101f7576020926108739260a43592606435916044359161145f565b60403660031901126101f7576109bc61119a565b6109c46111b0565b6001600160a01b03909116906109db821515611247565b8160005260086020526109f560ff604060002054166113e3565b600080806040516020810190632ecd4e7d60e01b825286602482015260248152610a206044826112a2565b519062ffffff5afa610a306112c4565b9080610bf0575b610bd3575b508015610b9857341590600082610b7c575034905b8110610b3857600080604051602081019063b760faf960e01b825287602482015260248152610a816044826112a2565b51908462ffffff5af1610a926112c4565b5015610b02577f48e5ab2e54781b9981ff25b9e51100f7441e9083e82300d41e1ef9dbb3d86c5b92604092610adb575b50836000526005602052816000206107dc828254611452565b60018060a01b0316600052600460205281600020610afa82825461142f565b905584610ac2565b60405162461bcd60e51b815260206004820152600e60248201526d11195c1bdcda5d0819985a5b195960921b6044820152606490fd5b606460405162461bcd60e51b815260206004820152602060248201527f496e73756666696369656e742066756e647320746f20636f76657220646562746044820152fd5b6001600160a01b03841681526004602052604090205490610a51565b60405162461bcd60e51b8152602060048201526013602482015272139bc81bdd5d1cdd185b991a5b99c81919589d606a1b6044820152606490fd5b906020825192818082019485920101031261080457505183610a3c565b5080511515610a37565b346101f75760003660031901126101f7576020604051662386f26fc100008152f35b346101f75760203660031901126101f757602061027d600435610c4260065482106113a1565b61122c565b346101f75760203660031901126101f7577ff6037bafb2d7efe72a6c8833e19e94cf966f3034294060988897cace3b4bf2656020610c8361119a565b610c8b61183a565b6001600160a01b0316610c9f811515611364565b600280546001600160a01b03191682179055604051908152a1005b346101f75760403660031901126101f75760043567ffffffffffffffff81116101f757610ceb9036906004016111fb565b60243567ffffffffffffffff81116101f757610d0b9036906004016111fb565b92610d1461183a565b838303610e155760005b838110610d2757005b600190610d506001600160a01b03610d48610d43848988611304565b611314565b161515611328565b610d6f828060a01b03610d67610d43848a89611304565b161515611364565b610d7d610d43828887611304565b828060a01b03610d91610d43848988611304565b1660005282602052604060002090838060a01b03166bffffffffffffffffffffffff60a01b825416179055610dca610d43828786611304565b7f894dec398e2419b3582d6a351352f5c67293d9202f01ee15c24f84cb565eaf806020610dfb610d43858b8a611304565b60405160a087901b8790039182168152931692a201610d1e565b60405162461bcd60e51b8152602060048201526015602482015274082e4e4c2f240d8cadccee8d040dad2e6dac2e8c6d605b1b6044820152606490fd5b346101f75760003660031901126101f7576020600754604051908152f35b346101f75760203660031901126101f75760206001600160a01b03610e9361119a565b1615604051908152f35b346101f75760203660031901126101f7576001600160a01b03610ebe61119a565b166000526008602052602060ff604060002054166040519015158152f35b346101f75760003660031901126101f757602060405160648152f35b346101f75760203660031901126101f757610f1161119a565b610f1961183a565b6001600160a01b031660008181526004602052604090205490811561100f57600081815260046020908152604080832083905560019091529020546001600160a01b0316908115610ffc575b80610fbb5750600080809381935af1610f7c6112c4565b5015610f8457005b60405162461bcd60e51b815260206004820152600f60248201526e151c985b9cd9995c8819985a5b1959608a1b6044820152606490fd5b60405163a9059cbb60e01b60208201526001600160a01b0392909216602483015260448083019390935291815261071e91610ff76064836112a2565b611892565b6002546001600160a01b03169150610f65565b60405162461bcd60e51b81526020600482015260136024820152724e6f206665657320746f20776974686472617760681b6044820152606490fd5b346101f75760203660031901126101f7576004356003548110156101f75761107360a0916111c6565b50600180831b0381541690600180841b0360018201541690600281015460046003830154920154926040519485526020850152604084015260608301526080820152f35b346101f75760003660031901126101f7576002546040516001600160a01b039091168152602090f35b346101f75760203660031901126101f7576001600160a01b0361110161119a565b166000526001602052602060018060a01b0360406000205416604051908152f35b346101f75760203660031901126101f75761113b61119a565b61114361183a565b6001600160a01b0316611157811515611247565b806000526008602052604060002060ff1981541690557f6899f537de8826f5e893752eade33397c7be98b908e5858a18ba25da7a2c622b602060405160008152a2005b600435906001600160a01b03821682036101f757565b602435906001600160a01b03821682036101f757565b6003548110156111e55760036000526005602060002091020190600090565b634e487b7160e01b600052603260045260246000fd5b9181601f840112156101f75782359167ffffffffffffffff83116101f7576020808501948460051b0101116101f757565b6006548110156111e557600660005260206000200190600090565b1561124e57565b60405162461bcd60e51b815260206004820152601060248201526f125b9d985b1a590818dbdb9d1c9858dd60821b6044820152606490fd5b60a0810190811067ffffffffffffffff82111761042e57604052565b90601f8019910116810190811067ffffffffffffffff82111761042e57604052565b3d156112ff573d9067ffffffffffffffff821161042e57604051916112f3601f8201601f1916602001846112a2565b82523d6000602084013e565b606090565b91908110156111e55760051b0190565b356001600160a01b03811681036101f75790565b1561132f57565b60405162461bcd60e51b815260206004820152600d60248201526c24b73b30b634b2103a37b5b2b760991b6044820152606490fd5b1561136b57565b60405162461bcd60e51b815260206004820152600e60248201526d125b9d985b1a59081dd85b1b195d60921b6044820152606490fd5b156113a857565b60405162461bcd60e51b8152602060048201526013602482015272496e646578206f7574206f6620626f756e647360681b6044820152606490fd5b156113ea57565b60405162461bcd60e51b815260206004820152601760248201527f436f6e7472616374206e6f7420726567697374657265640000000000000000006044820152606490fd5b9190820391821161143c57565b634e487b7160e01b600052601160045260246000fd5b9190820180921161143c57565b90926114719095949560009385611763565b94851561175a576001600160a01b038216938461151a575050508334106114e2578080604092526004602052206114a9848254611452565b90555b604051908382524260208301527f1e1e59ba994a6c1733c7b48707becd3c9ed68e7c24edb9d0e52aa049690f803360403093a490565b60405162461bcd60e51b815260206004820152601060248201526f496e73756666696369656e742066656560801b6044820152606490fd5b600281101561174657806116ca57506040516323b872dd60e01b60208201526001600160a01b0390911660248201523060448201526064808201879052815261156e906115686084826112a2565b84611892565b600954604051636eb1769f60e11b81523060048201526001600160a01b039091166024820181905290602081604481885afa9081156116bf579087918591611684575b506115c36115f7939261156892611452565b60405163095ea7b360e01b60208201526001600160a01b0393909316602484015260448084019190915282526064826112a2565b6009546001600160a01b031690813b156116805760405163866e451760e01b81526001600160a01b0391909116600482015260248101869052919081908390604490829084905af19182611670575b509061166a57808260409252600460205220611663848254611452565b90556114ac565b506114ac565b8161167a916112a2565b38611646565b8280fd5b9150506020813d6020116116b7575b816116a0602093836112a2565b810103126116b3575186906115c36115b1565b8380fd5b3d9150611693565b6040513d86823e3d90fd5b905060019150146116db57506114ac565b833410611701578080604092526004602052206116f9848254611452565b90553861166a565b60405162461bcd60e51b815260206004820152601860248201527f496e73756666696369656e742066656520666f72204e465400000000000000006044820152606490fd5b634e487b7160e01b84526021600452602484fd5b50509250505090565b9190916002811015611824576001146118095760648202821592810460641483171561143c57612710900490801590606481020460641481171561143c57801580611801575b156117f4576117de57600182171561143c57600091156117d5575b808211156117d0575090565b905090565b600191506117c4565b634e487b7160e01b600052601260045260246000fd5b9091506117fe5790565b90565b5060006117a9565b60648082029250811591830414171561143c57612710900490565b634e487b7160e01b600052602160045260246000fd5b6000546001600160a01b0316330361184e57565b606460405162461bcd60e51b815260206004820152602060248201527f4f776e61626c653a2063616c6c6572206973206e6f7420746865206f776e65726044820152fd5b6040805190926118f7926001600160a01b03169060009081906118b587866112a2565b602085527f5361666545524332303a206c6f772d6c6576656c2063616c6c206661696c6564602086015260208151910182855af16118f16112c4565b91611987565b8051908115918215611964575b50501561190e5750565b5162461bcd60e51b815260206004820152602a60248201527f5361666545524332303a204552433230206f7065726174696f6e20646964206e6044820152691bdd081cdd58d8d9595960b21b6064820152608490fd5b81925090602091810103126101f7576020015180151581036101f7573880611904565b919290156119e9575081511561199b575090565b3b156119a45790565b60405162461bcd60e51b815260206004820152601d60248201527f416464726573733a2063616c6c20746f206e6f6e2d636f6e74726163740000006044820152606490fd5b8251909150156119fc5750805190602001fd5b6040519062461bcd60e51b8252602060048301528181519182602483015260005b838110611a3f5750508160006044809484010152601f80199101168101030190fd5b60208282018101516044878401015285935001611a1d56fea26469706673582212202e5c029fc9579f072dd7fecba2edc1dc3f1f00c41ff13555b6f25d6e164a2dd664736f6c63430008210033","linkReferences":{}},"methodIdentifiers":{"CONVERSION_THRESHOLD()":"5135a2ec","FEE_RATE()":"2d11c58a","MIN_FEE_MINUTES()":"a88c0a06","SYSTEM_CONTRACT()":"7573ca92","accumulatedFees(address)":"fcf66664","autoCheckAndCoverDebt(address,address)":"916086e0","bulkSetTrustWalletAddresses(address[],address[])":"3bd7dc5d","calculateFee(address,uint8,uint256,uint256)":"862e6817","contractsWithDebt(uint256)":"f43877ab","converter()":"bd38837b","coverReactiveDebt(address,address)":"524c2891","debtCoverageThreshold()":"32306162","debtsCovered(address)":"fc8d53f4","defaultTrustWallet()":"0d3517cf","distributeFee(address,uint8,uint256,uint256,address,bytes32)":"551d4a59","feeHistory(uint256)":"0d35a167","getAccumulatedFees(address)":"564201f9","getContractWithDebt(uint256)":"4e68a512","getContractsWithDebtCount()":"6a18a5f9","getFeeHistoryLength()":"fcf36898","getFeeRecord(uint256)":"c420f059","getTotalDebtsCovered(address)":"a16e8941","getTrustWalletForToken(address)":"ad8b1391","isNativeToken(address)":"2db8cef3","isReactiveContract(address)":"2d8897a1","owner()":"8da5cb5b","registerReactiveContract(address)":"ec364755","renounceOwnership()":"715018a6","setDebtCoverageThreshold(uint256)":"81ae4a70","setDefaultTrustWallet(address)":"45b315b0","setTrustWalletAddress(address,address)":"bddddbab","transferOwnership(address)":"f2fde38b","trustWalletAddresses(address)":"0ca0b6d3","unregisterReactiveContract(address)":"09f7259b","withdrawFees(address)":"164e68de"},"id":51}