{"abi":[{"type":"function","name":"getHash","inputs":[],"outputs":[{"name":"","type":"bytes32","internalType":"bytes32"}],"stateMutability":"pure"}],"bytecode":{"object":"0x608080604052346013576098908160198239f35b600080fdfe6080806040526004361015601257600080fd5b60003560e01c63d13319c414602657600080fd5b34605d576000366003190112605d57807f058e802e2eed1657b621f4c6666f47d07adc8268c419f51940b8d60d9ff78dca60209252f35b600080fdfea264697066735822122072b8e170ebc11480aaa622172022f7eb4ac5c17c774a6a3da6468db12a7e861264736f6c63430008210033","linkReferences":{}},"methodIdentifiers":{"getHash()":"d13319c4"},"id":57}