{"abi":[{"type":"constructor","inputs":[{"name":"_pool","type":"address","internalType":"address"},{"name":"_proc","type":"address","internalType":"address"},{"name":"_fee","type":"address","internalType":"address"},{"name":"_asset","type":"address","internalType":"address"}],"stateMutability":"nonpayable"},{"type":"receive","stateMutability":"payable"},{"type":"function","name":"SYSTEM_CONTRACT","inputs":[],"outputs":[{"name":"","type":"address","internalType":"address"}],"stateMutability":"view"},{"type":"function","name":"assetVerifier","inputs":[],"outputs":[{"name":"","type":"address","internalType":"contract AssetVerifier"}],"stateMutability":"view"},{"type":"function","name":"authorizedReactiveVM","inputs":[],"outputs":[{"name":"","type":"address","internalType":"address"}],"stateMutability":"view"},{"type":"function","name":"callbackProxy","inputs":[],"outputs":[{"name":"","type":"address","internalType":"address"}],"stateMutability":"view"},{"type":"function","name":"cancelOrder","inputs":[{"name":"orderId","type":"bytes32","internalType":"bytes32"}],"outputs":[],"stateMutability":"nonpayable"},{"type":"function","name":"checkTokenVolumeRequirements","inputs":[],"outputs":[],"stateMutability":"pure"},{"type":"function","name":"createOrder","inputs":[{"name":"tokenIn","type":"address","internalType":"address"},{"name":"tokenOut","type":"address","internalType":"address"},{"name":"typeIn","type":"uint8","internalType":"enum WalletSwapMain.AssetType"},{"name":"typeOut","type":"uint8","internalType":"enum WalletSwapMain.AssetType"},{"name":"amountIn","type":"uint256","internalType":"uint256"},{"name":"amountOut","type":"uint256","internalType":"uint256"},{"name":"minutesValueIn","type":"uint256","internalType":"uint256"},{"name":"minutesValueOut","type":"uint256","internalType":"uint256"},{"name":"slippageTolerance","type":"uint256","internalType":"uint256"},{"name":"duration","type":"uint256","internalType":"uint256"},{"name":"enableRebooking","type":"bool","internalType":"bool"},{"name":"targetChainId","type":"uint256","internalType":"uint256"}],"outputs":[{"name":"","type":"bytes32","internalType":"bytes32"}],"stateMutability":"payable"},{"type":"function","name":"estimateTokenMinutesValue","inputs":[{"name":"","type":"address","internalType":"address"},{"name":"amount","type":"uint256","internalType":"uint256"}],"outputs":[{"name":"","type":"uint256","internalType":"uint256"}],"stateMutability":"pure"},{"type":"function","name":"executeInterChainOrder","inputs":[{"name":"rvmId","type":"address","internalType":"address"},{"name":"orderId","type":"bytes32","internalType":"bytes32"},{"name":"beneficiary","type":"address","internalType":"address"}],"outputs":[],"stateMutability":"nonpayable"},{"type":"function","name":"feeDistributor","inputs":[],"outputs":[{"name":"","type":"address","internalType":"contract TrustWalletFeeDistributor"}],"stateMutability":"view"},{"type":"function","name":"fulfillOrder","inputs":[{"name":"orderId","type":"bytes32","internalType":"bytes32"}],"outputs":[],"stateMutability":"payable"},{"type":"function","name":"fulfillOrderPartial","inputs":[{"name":"orderId","type":"bytes32","internalType":"bytes32"},{"name":"amountToFill","type":"uint256","internalType":"uint256"}],"outputs":[],"stateMutability":"payable"},{"type":"function","name":"getDebtStatus","inputs":[],"outputs":[{"name":"debt","type":"uint256","internalType":"uint256"},{"name":"fees","type":"uint256","internalType":"uint256"},{"name":"can","type":"bool","internalType":"bool"}],"stateMutability":"view"},{"type":"function","name":"liquidityPool","inputs":[],"outputs":[{"name":"","type":"address","internalType":"contract VirtualLiquidityPool"}],"stateMutability":"view"},{"type":"function","name":"manualCoverDebt","inputs":[],"outputs":[],"stateMutability":"nonpayable"},{"type":"function","name":"matchOrders","inputs":[{"name":"orderIdA","type":"bytes32","internalType":"bytes32"},{"name":"orderIdB","type":"bytes32","internalType":"bytes32"}],"outputs":[],"stateMutability":"nonpayable"},{"type":"function","name":"orderProcessor","inputs":[],"outputs":[{"name":"","type":"address","internalType":"contract EulerLagrangeOrderProcessor"}],"stateMutability":"view"},{"type":"function","name":"owner","inputs":[],"outputs":[{"name":"","type":"address","internalType":"address"}],"stateMutability":"view"},{"type":"function","name":"processExpiredOrderRefund","inputs":[{"name":"orderId","type":"bytes32","internalType":"bytes32"}],"outputs":[],"stateMutability":"nonpayable"},{"type":"function","name":"registerForDebtCoverage","inputs":[],"outputs":[],"stateMutability":"nonpayable"},{"type":"function","name":"renounceOwnership","inputs":[],"outputs":[],"stateMutability":"nonpayable"},{"type":"function","name":"setAuthorizedReactiveVM","inputs":[{"name":"_rvm","type":"address","internalType":"address"}],"outputs":[],"stateMutability":"nonpayable"},{"type":"function","name":"setCallbackProxy","inputs":[{"name":"_proxy","type":"address","internalType":"address"}],"outputs":[],"stateMutability":"nonpayable"},{"type":"function","name":"transferOwnership","inputs":[{"name":"newOwner","type":"address","internalType":"address"}],"outputs":[],"stateMutability":"nonpayable"},{"type":"function","name":"updateComponents","inputs":[{"name":"_lp","type":"address","internalType":"address"},{"name":"_proc","type":"address","internalType":"address"},{"name":"_fee","type":"address","internalType":"address"},{"name":"_av","type":"address","internalType":"address"}],"outputs":[],"stateMutability":"nonpayable"},{"type":"event","name":"CrossChainCallbackExecuted","inputs":[{"name":"callbackId","type":"bytes32","indexed":true,"internalType":"bytes32"},{"name":"orderId","type":"bytes32","indexed":true,"internalType":"bytes32"},{"name":"amountOut","type":"uint256","indexed":false,"internalType":"uint256"},{"name":"timestamp","type":"uint256","indexed":false,"internalType":"uint256"}],"anonymous":false},{"type":"event","name":"MatchAttempted","inputs":[{"name":"orderId","type":"bytes32","indexed":true,"internalType":"bytes32"},{"name":"tokenIn","type":"address","indexed":false,"internalType":"address"},{"name":"tokenOut","type":"address","indexed":false,"internalType":"address"}],"anonymous":false},{"type":"event","name":"MatchCalculated","inputs":[{"name":"orderIdA","type":"bytes32","indexed":true,"internalType":"bytes32"},{"name":"orderIdB","type":"bytes32","indexed":true,"internalType":"bytes32"},{"name":"amountAtoB","type":"uint256","indexed":false,"internalType":"uint256"},{"name":"amountBtoA","type":"uint256","indexed":false,"internalType":"uint256"}],"anonymous":false},{"type":"event","name":"OrderAutoMatched","inputs":[{"name":"orderIdA","type":"bytes32","indexed":true,"internalType":"bytes32"},{"name":"orderIdB","type":"bytes32","indexed":true,"internalType":"bytes32"},{"name":"timestamp","type":"uint256","indexed":false,"internalType":"uint256"}],"anonymous":false},{"type":"event","name":"OrderExecuted","inputs":[{"name":"orderId","type":"bytes32","indexed":true,"internalType":"bytes32"},{"name":"taker","type":"address","indexed":true,"internalType":"address"},{"name":"amountOut","type":"uint256","indexed":false,"internalType":"uint256"},{"name":"timestamp","type":"uint256","indexed":false,"internalType":"uint256"}],"anonymous":false},{"type":"event","name":"OrderInitiated","inputs":[{"name":"orderId","type":"bytes32","indexed":true,"internalType":"bytes32"},{"name":"maker","type":"address","indexed":true,"internalType":"address"},{"name":"tokenIn","type":"address","indexed":false,"internalType":"address"},{"name":"tokenOut","type":"address","indexed":false,"internalType":"address"},{"name":"typeIn","type":"uint8","indexed":false,"internalType":"enum WalletSwapMain.AssetType"},{"name":"typeOut","type":"uint8","indexed":false,"internalType":"enum WalletSwapMain.AssetType"},{"name":"amountIn","type":"uint256","indexed":false,"internalType":"uint256"},{"name":"amountOut","type":"uint256","indexed":false,"internalType":"uint256"},{"name":"targetChainId","type":"uint256","indexed":false,"internalType":"uint256"},{"name":"timestamp","type":"uint256","indexed":false,"internalType":"uint256"}],"anonymous":false},{"type":"event","name":"OwnershipTransferred","inputs":[{"name":"previousOwner","type":"address","indexed":true,"internalType":"address"},{"name":"newOwner","type":"address","indexed":true,"internalType":"address"}],"anonymous":false},{"type":"event","name":"WalletSwapMainInitialized","inputs":[{"name":"owner","type":"address","indexed":true,"internalType":"address"}],"anonymous":false}],"bytecode":{"object":"0x60803461013f57601f61317738819003918201601f19168301916001600160401b038311848410176101445780849260809460405283398101031261013f576100478161015a565b906100546020820161015a565b9061006d60606100666040840161015a565b920161015a565b60008054336001600160a01b0319821681178355604051969395939290916001600160a01b0316907f8be0079c531659141344cd1fd0a4f28419497f9722a3daafe3b4186f6b6457e09080a360018055600280546001600160a01b03199081166001600160a01b039384161790915560038054821693831693909317909255600480548316938216939093179092556005805490911692909116919091179055337f4cffe4d53be4a3534a1f029cdd65bb79df5a194cff4a6ffcac96ce15626cc0bd600080a2613008908161016f8239f35b600080fd5b634e487b7160e01b600052604160045260246000fd5b51906001600160a01b038216820361013f5756fe608080604052600436101561001d575b50361561001b57600080fd5b005b600090813560e01c9081630d43e8ad146120d85750806326e5dc5d14611ce257806332bc3ff314611c0857806337559f1e14611bc85780633edab69f14611ae75780634077b1fd146115255780634cebc7da146114fc5780635c913b5f146114d35780636273b356146110be578063665a11ca14611095578063715018a61461103b5780637489ec2314610ec35780637573ca9214610ea55780637fe3826e14610aff57806383dab1b7146109d5578063873d6562146109955780638da5cb5b1461096e5780639ddf1d4f1461081c5780639e8de3ed146107f3578063d2b15279146107ca578063ebef6b751461075d578063ef65b68714610736578063f2fde38b14610670578063fa8e300b1461014f5763fdda7cfb0361000f573461014c578060031936011261014c5780f35b80fd5b50604036600319011261014c5760243560043561016a612710565b600354604051632bbc239560e11b8152600481018390529061024090829060249082906001600160a01b03165afa90811561042b578491610641575b506101a081018051600581101561062d57158015610602575b6101c991506122e2565b6101da61018082015142111561231b565b82156105c7576101ef610140820151846125b4565b60c0820190815110610597576102159061020d60a0840151866126d0565b9051906126e3565b90811561056157604081018051869291906001600160a01b031661045d5750610240853410156123df565b610262828080808960018060a01b038751165af161025c61242b565b5061246b565b843411610436575b6020810180516001600160a01b031661032c57505080808061029794335af161029161242b565b506124fa565b60035483906001600160a01b0316803b156103285781809160446040518094819363afaf0d8b60e01b83528860048401528960248401525af1801561031d57610304575b5050604051918252426020830152600080516020612fb383398151915260403393a36001805580f35b8161030e9161213f565b6103195782386102db565b8280fd5b6040513d84823e3d90fd5b5080fd5b9150916001606084015161033f81612351565b61034881612351565b036103925760405162461bcd60e51b815260206004820152601e60248201527f4e4654207061727469616c2066696c6c206e6f7420737570706f7274656400006044820152606490fd5b905191516040516323b872dd60e01b81529260209284926001600160a01b039283169284928a9284926103cc929133911660048501612371565b03925af1801561042b5784906103ec575b6103e791506124ae565b610297565b506020813d602011610423575b816104066020938361213f565b8101031261041f5761041a6103e79161218b565b6103dd565b8380fd5b3d91506103f9565b6040513d86823e3d90fd5b610458828080806104478a34612703565b335af161045261242b565b50612578565b61026a565b91506001608082015161046f81612351565b61047881612351565b036104c25760405162461bcd60e51b815260206004820152601e60248201527f4e4654207061727469616c2066696c6c206e6f7420737570706f7274656400006044820152606490fd5b905181516040516323b872dd60e01b8152879392909160209183916001600160a01b0391821691839188918391610500918e91163360048501612371565b03925af1801561055657839061051b575b6104589150612393565b506020813d60201161054e575b816105356020938361213f565b81010312610319576105496104589161218b565b610511565b3d9150610528565b6040513d85823e3d90fd5b60405162461bcd60e51b815260206004820152600e60248201526d119a5b1b081d1bdbc81cdb585b1b60921b6044820152606490fd5b60405162461bcd60e51b815260206004820152600860248201526713dd995c999a5b1b60c21b6044820152606490fd5b60405162461bcd60e51b8152602060048201526013602482015272125b9d985b1a5908199a5b1b08185b5bdd5b9d606a1b6044820152606490fd5b505160058110156106195760026101c991146101bf565b634e487b7160e01b85526021600452602485fd5b634e487b7160e01b86526021600452602486fd5b61066391506102403d8111610669575b61065b818361213f565b810190612198565b386101a6565b503d610651565b503461014c57602036600319011261014c5761068a6120fd565b6106926127b9565b6001600160a01b031680156106e25781546001600160a01b03198116821783556001600160a01b03167f8be0079c531659141344cd1fd0a4f28419497f9722a3daafe3b4186f6b6457e08380a380f35b60405162461bcd60e51b815260206004820152602660248201527f4f776e61626c653a206e6577206f776e657220697320746865207a65726f206160448201526564647265737360d01b6064820152608490fd5b503461014c57604036600319011261014c576107506120fd565b5060206040516024358152f35b503461014c578060031936011261014c576107766127b9565b60045481906001600160a01b0316803b156107c75781809160246040518094819363ec36475560e01b83523060048401525af1801561031d576107b65750f35b816107c09161213f565b61014c5780f35b50fd5b503461014c578060031936011261014c576003546040516001600160a01b039091168152602090f35b503461014c578060031936011261014c576005546040516001600160a01b039091168152602090f35b503461014c578060031936011261014c576108356127b9565b80806040516020810190632ecd4e7d60e01b82523060248201526024815261085e60448261213f565b519062ffffff5afa61086e61242b565b9080610964575b61087d575080f35b60208151918180820193849201010312610957575180151590816108ec575b506108a45780f35b60045481906001600160a01b0316803b156107c75781809160446040518094819363524c289160e01b83523060048401528160248401525af1801561031d576107b657505080f35b90506024602060018060a01b03600454166040519283809263564201f960e01b82528760048301525afa90811561055657839161092d575b5010153861089c565b90506020813d60201161095c575b816109486020938361213f565b81010312610957575138610924565b600080fd5b3d915061093b565b5080511515610875565b503461014c578060031936011261014c57546040516001600160a01b039091168152602090f35b503461014c57602036600319011261014c576109af6120fd565b6109b76127b9565b60018060a01b03166001600160601b0360a01b600654161760065580f35b503461014c578060031936011261014c578081806040516020810190632ecd4e7d60e01b825230602482015260248152610a1060448261213f565b519062ffffff5afa91610a2161242b565b9280610af5575b610ad5575b6004805460405163564201f960e01b8152918201839052909350602090849060249082906001600160a01b03165afa908115610ac95790610a96575b60609250818110159081610a8c575b604051928352602083015215156040820152f35b8215159150610a78565b506020823d602011610ac1575b81610ab06020938361213f565b810103126109575760609151610a69565b3d9150610aa3565b604051903d90823e3d90fd5b905060208251928180820194859201010312610957576024915190610a2d565b5082511515610a28565b503461014c57604036600319011261014c57602435600435610b1f612710565b600354604051632bbc239560e11b815260048101839052906001600160a01b031661024082602481845afa918215610e74578592610e7f575b5061024060249160405192838092632bbc239560e11b82528860048301525afa908115610e74578591610e55575b506101a0820151600581101561062d57610e1b576101a0810151600581101561062d57610de15760408201516020820151610cca9391610bd3916001600160a01b039081169116146125d7565b60208101516040830151610bf4916001600160a01b039182169116146125d7565b60808101805190610c0482612351565b610c306060850192835190610c1882612351565b610c2182612351565b610c2a81612351565b14612614565b6060830191825191610c4183612351565b610c556080870193845190610c1882612351565b60018151610c6281612351565b610c6b81612351565b1480610dc4575b15610d6e575050610c8c60c084015160a08601511461268e565b60018151610c9981612351565b610ca281612351565b1480610d51575b15610cfb575050610cc360c083015160a08301511461268e565b8484612851565b7fb826a56a562d221f7194a9944941d79c3e40f036f47e243e05b5205742088eeb6020604051428152a36001805580f35b51610d0581612351565b610d0e81612351565b159081610d35575b5015610cc357610d3060c083015160a08301511015612650565b610cc3565b905051610d4181612351565b610d4a81612351565b1538610d16565b5060018251610d5f81612351565b610d6881612351565b14610ca9565b51610d7881612351565b610d8181612351565b159081610da8575b5015610c8c57610da360c084015160a08601511015612650565b610c8c565b905051610db481612351565b610dbd81612351565b1538610d89565b5060018251610dd281612351565b610ddb81612351565b14610c72565b60405162461bcd60e51b81526020600482015260126024820152714f726465722042206e6f742061637469766560701b6044820152606490fd5b60405162461bcd60e51b81526020600482015260126024820152714f726465722041206e6f742061637469766560701b6044820152606490fd5b610e6e91506102403d81116106695761065b818361213f565b38610b86565b6040513d87823e3d90fd5b6024919250610e9d61024091823d81116106695761065b818361213f565b929150610b58565b503461014c578060031936011261014c57602060405162ffffff8152f35b503461014c57602036600319011261014c57600435610ee0612710565b600354604051632bbc239560e11b8152600481018390529183916001600160a01b031661024084602481845afa93841561055657839461101a575b50610f3060018060a01b03855116331461253d565b803b156103195782809160246040518094819363fe8576c760e01b83528760048401525af1908115610556578391611005575b50506003546001600160a01b031690813b15610319578291602483926040519485938492637489ec2360e01b845260048401525af1801561031d57610ff0575b505060208101516001600160a01b031615610fc1575b506001805580f35b610fca90612766565b8181610fd7575b50610fb9565b808080610fe994335af161045261242b565b3881610fd1565b81610ffa9161213f565b610328578138610fa3565b8161100f9161213f565b610328578138610f63565b6110349194506102403d81116106695761065b818361213f565b9238610f1b565b503461014c578060031936011261014c576110546127b9565b80546001600160a01b03198116825581906001600160a01b03167f8be0079c531659141344cd1fd0a4f28419497f9722a3daafe3b4186f6b6457e08280a380f35b503461014c578060031936011261014c576002546040516001600160a01b039091168152602090f35b503461014c57606036600319011261014c576110d86120fd565b6024356110e3612129565b916110ec612710565b6007546001600160a01b0316331480156114bf575b15611485576006546001600160a01b039081169116811490811561147c575b501561144457600354604051632bbc239560e11b8152600481018390529061024090829060249082906001600160a01b03165afa90811561042b578491611425575b506101a081015160058110156106195761117c90156122e2565b61118d61018082015142111561231b565b6001600160a01b0383169283156113ea5760208201805186929183916001600160a01b0316611292575080809260a0860151905af16111ca61242b565b501561125a575b60035484906001600160a01b0316803b15610328576040516312d35eed60e01b815260048101859052600160248201529082908290604490829084905af1801561031d57611245575b5050604060a0600080516020612fb38339815191529201518151908152426020820152a36001805580f35b8161124f9161213f565b61041f57833861121a565b60405162461bcd60e51b815260206004820152601060248201526f115512081b585d18da0819985a5b195960821b6044820152606490fd5b9050600160608501516112a481612351565b6112ad81612351565b036113235751835160a08501516001600160a01b0391821692909116803b1561131f576112f493858094604051968795869485936323b872dd60e01b855260048501612371565b03925af1801561031d5761130a575b50506111d1565b816113149161213f565b61041f578338611303565b8480fd5b51835160a08501516040516323b872dd60e01b8152945060209385936001600160a01b039081169385938c93859361135f931660048501612371565b03925af1908115610e745785916113b0575b506111d15760405162461bcd60e51b8152602060048201526012602482015271115490cc8c081b585d18da0819985a5b195960721b6044820152606490fd5b90506020813d6020116113e2575b816113cb6020938361213f565b8101031261131f576113dc9061218b565b38611371565b3d91506113be565b60405162461bcd60e51b8152602060048201526013602482015272496e76616c69642062656e656669636961727960681b6044820152606490fd5b61143e91506102403d81116106695761065b818361213f565b38611162565b60405162461bcd60e51b815260206004820152601060248201526f556e617574686f72697a65642052564d60801b6044820152606490fd5b90501538611120565b60405162461bcd60e51b8152602060048201526012602482015271556e617574686f72697a65642050726f787960701b6044820152606490fd5b506006546001600160a01b03163314611101565b503461014c578060031936011261014c576006546040516001600160a01b039091168152602090f35b503461014c578060031936011261014c576007546040516001600160a01b039091168152602090f35b5061018036600319011261014c5761153b6120fd565b611543612113565b90604435600281101561041f5760643590600282101561131f5760843560a4359160c4356101443594851515809603611ae357886101643592611584612710565b6004546001600160a01b03169061159a86612351565b60ff8616986115a88a612351565b60405163862e681760e01b81526001600160a01b03909b1660048c018190529a6115d18b612351565b8a6024820152886044820152826064820152602081608481875afa908115610e745789948c928e928891611aa6575b5082158015611a2757918160c49361162761161f60209897958c6125b4565b3410156123df565b15611a2157885b341115611a1957905b6116408d612351565b61164985612351565b604051868101903360601b82524260348201526034815261166b60548261213f565b519020604051998a96879563551d4a5960e01b8752600487015261168e81612351565b6024860152604485015288606485015233608485015260a48401525af192831561042b578b936119e2575b506003546001600160a01b0316916116d088612351565b6116d98b612351565b6116e286612351565b60ff8616906116f082612351565b6116fd61012435426125b4565b916040519e8f966373baee2560e01b88523360048901526024880152600160a01b60019003169c8d604488015261173381612351565b606487015261174181612351565b60848601528960a48601528a60c486015260e485015260e4356101048501526101043561012485015261014484015261016483015284610184830152815a936101a492602095f19788156119d75789986119a3575b50604051928784528660208501526117ad81612351565b60408401526117bb81612351565b60608301528260808301528360a083015260c08201524260e0820152857f058e802e2eed1657b621f4c6666f47d07adc8268c419f51940b8d60d9ff78dca6101003393a3847fb1b301b1e1e7396b9d3624c636d61927c421ae52bd10bc1bd0ccd6d3a2522ee560408051878152866020820152a26003546040516204749b60e81b815260048101959095526024850193909352604484015260648301526001600160a01b0316602082608481845afa91821561042b57849261196f575b508161188e575b60208360018055604051908152f35b604051632bbc239560e11b8152600481018490529061024082602481845afa908115610e7457602492869261194c575b506102409060405193848092632bbc239560e11b82528760048301525afa918215610e7457906118fa92916020969261192b575b508385612851565b817fb826a56a562d221f7194a9944941d79c3e40f036f47e243e05b5205742088eeb84604051428152a3388061187f565b6119459192506102403d81116106695761065b818361213f565b90386118f2565b61024091925061196890823d81116106695761065b818361213f565b91906118be565b9091506020813d60201161199b575b8161198b6020938361213f565b8101031261095757519038611878565b3d915061197e565b9097506020813d6020116119cf575b816119bf6020938361213f565b8101031261095757519638611796565b3d91506119b2565b6040513d8b823e3d90fd5b925092506020823d602011611a11575b816119ff6020938361213f565b81010312610957578b928a92516116b9565b3d91506119f2565b503490611637565b8961162e565b611a308c612351565b60018c14611a47575b91602094939160c493611627565b93509550955050833410611a61578b8e958a958d93611a39565b60405162461bcd60e51b815260206004820152601860248201527f496e73756666696369656e742066656520666f72204e465400000000000000006044820152606490fd5b965050955050506020833d602011611adb575b81611ac66020938361213f565b8101031261095757898b8e958a955138611600565b3d9150611ab9565b8880fd5b503461014c57608036600319011261014c57611b016120fd565b611b09612113565b611b11612129565b906064359260018060a01b03841680940361131f57611b2e6127b9565b6001600160a01b031680611baf575b506001600160a01b031680611b96575b506001600160a01b031680611b7d575b5080611b67575080f35b6001600160601b0360a01b600554161760055580f35b6001600160601b0360a01b600454161760045538611b5d565b6001600160601b0360a01b600354161760035538611b4d565b6001600160601b0360a01b600254161760025538611b3d565b503461014c57602036600319011261014c57611be26120fd565b611bea6127b9565b60018060a01b03166001600160601b0360a01b600754161760075580f35b503461014c57602036600319011261014c57611c22612710565b600354602490610240906001600160a01b0316611c4033821461253d565b60405192838092632bbc239560e11b825260043560048301525afa90811561031d578291611cc3575b5060208101516001600160a01b031615611c8557506001805580f35b81611c8f82612766565b9182611c9d575b5050610fb9565b51611cbb928291829182916001600160a01b03165af161045261242b565b388181611c96565b611cdc91506102403d81116106695761065b818361213f565b38611c69565b50602036600319011261014c57600435611cfa612710565b600354604051632bbc239560e11b8152600481018390529061024090829060249082906001600160a01b03165afa9081156105565783916120b9575b506101a081015160058110156120a557611d5090156122e2565b611d6161018082015142111561231b565b6040810180516001600160a01b0316611f875750611da58380808060c08601611d8d81513410156123df565b86519051906001600160a01b03165af161025c61242b565b6020810180518491906001600160a01b0316611e5f5750808080611dd39360a0860151335af161029161242b565b60035483906001600160a01b0316803b15610328576040516312d35eed60e01b815260048101859052600160248201529082908290604490829084905af1801561031d57611e4a575b505060c0015190604051918252426020830152600080516020612fb383398151915260403393a36001805580f35b81611e549161213f565b610319578238611e1c565b60016060840151611e6f81612351565b611e7881612351565b03611eec5751825160a08401516001600160a01b039283169290911690823b1561041f57611ec1928492836040518096819582946323b872dd60e01b8452339060048501612371565b03925af1801561031d57611ed7575b5050611dd3565b81611ee19161213f565b610319578238611ed0565b51825160a08401516040516323b872dd60e01b8152935060209284926001600160a01b039182169284928a928492611f2c92909133911660048501612371565b03925af1801561042b578490611f4c575b611f4791506124ae565b611dd3565b506020813d602011611f7f575b81611f666020938361213f565b8101031261041f57611f7a611f479161218b565b611f3d565b3d9150611f59565b60016080830151611f9781612351565b611fa081612351565b0361200e5751815160c08301516001600160a01b0391821692869216803b1561031957611fe593836040518096819582946323b872dd60e01b84523360048501612371565b03925af1801561042b57611ffa575b50611da5565b836120079194929461213f565b9138611ff4565b51815160c08301516040516323b872dd60e01b81529260209284926001600160a01b039283169284928a92849261204a92163360048501612371565b03925af1801561042b57849061206a575b6120659150612393565b611da5565b506020813d60201161209d575b816120846020938361213f565b8101031261041f576120986120659161218b565b61205b565b3d9150612077565b634e487b7160e01b84526021600452602484fd5b6120d291506102403d81116106695761065b818361213f565b38611d36565b9050346103285781600319360112610328576004546001600160a01b03168152602090f35b600435906001600160a01b038216820361095757565b602435906001600160a01b038216820361095757565b604435906001600160a01b038216820361095757565b90601f8019910116810190811067ffffffffffffffff82111761216157604052565b634e487b7160e01b600052604160045260246000fd5b51906001600160a01b038216820361095757565b5190811515820361095757565b908161024091031261095757604051906000610240830167ffffffffffffffff8111848210176122ce576040526121ce82612177565b83526121dc60208301612177565b60208401526121ed60408301612177565b6040840152606082015160028110156103285760608401526080820151600281101561032857608084015260a082015160a084015260c082015160c084015260e082015160e08401526101008201516101008401526101208201516101208401526101408201516101408401526101608201516101608401526101808201516101808401526101a08201516005811015610328576101a08401526122946101c0830161218b565b6101c08401526101e08201519060ff8216820361014c575090610220916101e0840152610200810151610200840152015161022082015290565b634e487b7160e01b82526041600452602482fd5b156122e957565b60405162461bcd60e51b815260206004820152600a6024820152694e6f742041637469766560b01b6044820152606490fd5b1561232257565b60405162461bcd60e51b8152602060048201526007602482015266115e1c1a5c995960ca1b6044820152606490fd5b6002111561235b57565b634e487b7160e01b600052602160045260246000fd5b6001600160a01b03918216815291166020820152604081019190915260600190565b1561239a57565b60405162461bcd60e51b815260206004820152601c60248201527f4d616b6572207061796d656e74206661696c65642028455243323029000000006044820152606490fd5b156123e657565b60405162461bcd60e51b815260206004820152601860248201527f496e73756666696369656e74206e61746976652073656e7400000000000000006044820152606490fd5b3d15612466573d9067ffffffffffffffff8211612161576040519161245a601f8201601f19166020018461213f565b82523d6000602084013e565b606090565b1561247257565b60405162461bcd60e51b815260206004820152601460248201527313585ad95c881c185e5b595b9d0819985a5b195960621b6044820152606490fd5b156124b557565b60405162461bcd60e51b815260206004820152601c60248201527f54616b6572207061796d656e74206661696c65642028455243323029000000006044820152606490fd5b1561250157565b60405162461bcd60e51b815260206004820152601460248201527315185ad95c881c185e5b595b9d0819985a5b195960621b6044820152606490fd5b1561254457565b60405162461bcd60e51b815260206004820152600c60248201526b155b985d5d1a1bdc9a5e995960a21b6044820152606490fd5b1561257f57565b60405162461bcd60e51b815260206004820152600d60248201526c1499599d5b990819985a5b1959609a1b6044820152606490fd5b919082018092116125c157565b634e487b7160e01b600052601160045260246000fd5b156125de57565b60405162461bcd60e51b815260206004820152600e60248201526d0a8ded6cadc40dad2e6dac2e8c6d60931b6044820152606490fd5b1561261b57565b60405162461bcd60e51b815260206004820152600d60248201526c0a8f2e0ca40dad2e6dac2e8c6d609b1b6044820152606490fd5b1561265757565b60405162461bcd60e51b815260206004820152600f60248201526e082dadeeadce840dad2e6dac2e8c6d608b1b6044820152606490fd5b1561269557565b60405162461bcd60e51b815260206004820152601360248201527209c8ca840c2dadeeadce840dad2e6dac2e8c6d606b1b6044820152606490fd5b818102929181159184041417156125c157565b81156126ed570490565b634e487b7160e01b600052601260045260246000fd5b919082039182116125c157565b600260015414612721576002600155565b60405162461bcd60e51b815260206004820152601f60248201527f5265656e7472616e637947756172643a207265656e7472616e742063616c6c006044820152606490fd5b6101408101519081156127b0578060c061278960a06127929401948551906126d0565b910151906126e3565b905190808211156127a9576127a691612703565b90565b5050600090565b60a09150015190565b6000546001600160a01b031633036127cd57565b606460405162461bcd60e51b815260206004820152602060248201527f4f776e61626c653a2063616c6c6572206973206e6f7420746865206f776e65726044820152fd5b1561281857565b60405162461bcd60e51b815260206004820152601160248201527016995c9bc81d1c98591948185b5bdd5b9d607a1b6044820152606490fd5b61014084018051909492939290919060008315612f9e5761288961287a60c08401958651612703565b9461020d60a0850151876126d0565b965b60a086018051909590818110612f78575097945b60c08701908151808811612f50575b5089156128bb8115612811565b84888c8c8a7f47b62e68edd6a899a5b4267ad21d2e1b1dde3bf173c84dd45fbf02bcd136687060408515946128f08615612811565b8151908152866020820152a360408c0180518d91906001600160a01b0316612dd95750518392839283926001600160a01b0316908390612dd0575bf11561042b578a85915b6040880180516001600160a01b0316612c6f575087518392839283926001600160a01b0316908390612c66575bf1156105565789849151818111612c2b575b5050505b518510612bc1576003546001600160a01b0316803b15610319576040516312d35eed60e01b815260048101869052600160248201529083908290604490829084905af1801561055657908391612bac575b50506003546001600160a01b0316803b156103195782809160246040518094819363fe8576c760e01b83528a60048401525af180156105565789918491612b93575b5050612a18915b516125b4565b60c083015111612b1e576003546001600160a01b0316803b15610328576040516312d35eed60e01b815260048101889052600160248201529082908290604490829084905af1801561031d57908291612b09575b50506003546001600160a01b0316803b156103285781809160246040518094819363fe8576c760e01b83528c60048401525af1801561031d57612af4575b505091600080516020612fb3833981519152939184604080955b5181519485524260208601526001600160a01b031693a35181519485524260208601526001600160a01b031693a3565b612aff82809261213f565b61014c5780612aaa565b81612b139161213f565b61014c578038612a6c565b6003546001600160a01b0316803b156103285781809160446040518094819363afaf0d8b60e01b83528c60048401528d60248401525af1801561031d57612b7e575b505091600080516020612fb383398151915293918460408095612ac4565b612b8982809261213f565b61014c5780612b60565b81925090612ba09161213f565b61032857878238612a0b565b81612bb69161213f565b6103285781386129c9565b6003546001600160a01b0316803b156103195782809160446040518094819363afaf0d8b60e01b83528a60048401528b60248401525af180156105565789918491612c12575b5050612a1891612a12565b81925090612c1f9161213f565b61032857878238612c07565b89518392839283926001600160a01b031691612c4691612703565b90828215612c5d575bf11561031d57828938612974565b506108fc612c4f565b506108fc612962565b93505090506080860151612c8281612351565b612c8b81612351565b612d5a579051885186516040516323b872dd60e01b81529360209385936001600160a01b039182169385938b938593612ccb938216911660048501612371565b03925af190811561042b578491612d20575b506129785760405162461bcd60e51b815260206004820152601660248201527510480b4f881088151c985b9cd9995c8819985a5b195960521b6044820152606490fd5b90506020813d602011612d52575b81612d3b6020938361213f565b8101031261041f57612d4c9061218b565b38612cdd565b3d9150612d2e565b5051875185516001600160a01b03928316929081169116823b15612dcc57612d9e928692838e93604051968795869485936323b872dd60e01b855260048501612371565b03925af1801561042b57908491612db7575b5050612978565b81612dc19161213f565b610319578238612db0565b8580fd5b506108fc61292b565b9350608091500151612dea81612351565b612df381612351565b612ed657905187518b516040516323b872dd60e01b81529360209385936001600160a01b039182169385938d938593612e33938216911660048501612371565b03925af1908115612ecb578691612e91575b5015612e53578a8591612935565b60405162461bcd60e51b815260206004820152601660248201527510880b4f881048151c985b9cd9995c8819985a5b195960521b6044820152606490fd5b90506020813d602011612ec3575b81612eac6020938361213f565b81010312612dcc57612ebd9061218b565b38612e45565b3d9150612e9f565b6040513d88823e3d90fd5b505186518a516001600160a01b03928316929081169116823b15612f4c57612f1a928892838d93604051968795869485936323b872dd60e01b855260048501612371565b03925af18015612ecb57908c9291612f36575b50908591612935565b86612f44919792939761213f565b949038612f2d565b8780fd5b96509850612f71612f668760c0870151906126d0565b60a0860151906126e3565b98386128ae565b985050612f98612f8d8960a0860151906126d0565b60c0850151906126e3565b9461289f565b95925060a08101519560c08201519361288b56fe929f377d38460af8f995682428aca3c7136dc6e1c1ab2e211087bc163faadf57a26469706673582212207da8c4a866a374202a725c58d1443413b6b911ef9564fc08331f809d6300d68264736f6c63430008210033","linkReferences":{}},"methodIdentifiers":{"SYSTEM_CONTRACT()":"7573ca92","assetVerifier()":"9e8de3ed","authorizedReactiveVM()":"5c913b5f","callbackProxy()":"4cebc7da","cancelOrder(bytes32)":"7489ec23","checkTokenVolumeRequirements()":"fdda7cfb","createOrder(address,address,uint8,uint8,uint256,uint256,uint256,uint256,uint256,uint256,bool,uint256)":"4077b1fd","estimateTokenMinutesValue(address,uint256)":"ef65b687","executeInterChainOrder(address,bytes32,address)":"6273b356","feeDistributor()":"0d43e8ad","fulfillOrder(bytes32)":"26e5dc5d","fulfillOrderPartial(bytes32,uint256)":"fa8e300b","getDebtStatus()":"83dab1b7","liquidityPool()":"665a11ca","manualCoverDebt()":"9ddf1d4f","matchOrders(bytes32,bytes32)":"7fe3826e","orderProcessor()":"d2b15279","owner()":"8da5cb5b","processExpiredOrderRefund(bytes32)":"32bc3ff3","registerForDebtCoverage()":"ebef6b75","renounceOwnership()":"715018a6","setAuthorizedReactiveVM(address)":"873d6562","setCallbackProxy(address)":"37559f1e","transferOwnership(address)":"f2fde38b","updateComponents(address,address,address,address)":"3edab69f"},"id":53}