{"abi":[{"type":"constructor","inputs":[],"stateMutability":"nonpayable"},{"type":"function","name":"approve","inputs":[{"name":"to","type":"address","internalType":"address"},{"name":"tokenId","type":"uint256","internalType":"uint256"}],"outputs":[],"stateMutability":"nonpayable"},{"type":"function","name":"balanceOf","inputs":[{"name":"owner","type":"address","internalType":"address"}],"outputs":[{"name":"","type":"uint256","internalType":"uint256"}],"stateMutability":"view"},{"type":"function","name":"batchMint","inputs":[{"name":"to","type":"address","internalType":"address"},{"name":"count","type":"uint256","internalType":"uint256"}],"outputs":[],"stateMutability":"nonpayable"},{"type":"function","name":"getApproved","inputs":[{"name":"tokenId","type":"uint256","internalType":"uint256"}],"outputs":[{"name":"","type":"address","internalType":"address"}],"stateMutability":"view"},{"type":"function","name":"isApprovedForAll","inputs":[{"name":"owner","type":"address","internalType":"address"},{"name":"operator","type":"address","internalType":"address"}],"outputs":[{"name":"","type":"bool","internalType":"bool"}],"stateMutability":"view"},{"type":"function","name":"mint","inputs":[{"name":"to","type":"address","internalType":"address"}],"outputs":[{"name":"","type":"uint256","internalType":"uint256"}],"stateMutability":"nonpayable"},{"type":"function","name":"name","inputs":[],"outputs":[{"name":"","type":"string","internalType":"string"}],"stateMutability":"view"},{"type":"function","name":"owner","inputs":[],"outputs":[{"name":"","type":"address","internalType":"address"}],"stateMutability":"view"},{"type":"function","name":"ownerOf","inputs":[{"name":"tokenId","type":"uint256","internalType":"uint256"}],"outputs":[{"name":"","type":"address","internalType":"address"}],"stateMutability":"view"},{"type":"function","name":"renounceOwnership","inputs":[],"outputs":[],"stateMutability":"nonpayable"},{"type":"function","name":"safeTransferFrom","inputs":[{"name":"from","type":"address","internalType":"address"},{"name":"to","type":"address","internalType":"address"},{"name":"tokenId","type":"uint256","internalType":"uint256"}],"outputs":[],"stateMutability":"nonpayable"},{"type":"function","name":"safeTransferFrom","inputs":[{"name":"from","type":"address","internalType":"address"},{"name":"to","type":"address","internalType":"address"},{"name":"tokenId","type":"uint256","internalType":"uint256"},{"name":"data","type":"bytes","internalType":"bytes"}],"outputs":[],"stateMutability":"nonpayable"},{"type":"function","name":"setApprovalForAll","inputs":[{"name":"operator","type":"address","internalType":"address"},{"name":"approved","type":"bool","internalType":"bool"}],"outputs":[],"stateMutability":"nonpayable"},{"type":"function","name":"setBaseURI","inputs":[{"name":"baseURI","type":"string","internalType":"string"}],"outputs":[],"stateMutability":"nonpayable"},{"type":"function","name":"supportsInterface","inputs":[{"name":"interfaceId","type":"bytes4","internalType":"bytes4"}],"outputs":[{"name":"","type":"bool","internalType":"bool"}],"stateMutability":"view"},{"type":"function","name":"symbol","inputs":[],"outputs":[{"name":"","type":"string","internalType":"string"}],"stateMutability":"view"},{"type":"function","name":"tokenByIndex","inputs":[{"name":"index","type":"uint256","internalType":"uint256"}],"outputs":[{"name":"","type":"uint256","internalType":"uint256"}],"stateMutability":"view"},{"type":"function","name":"tokenOfOwnerByIndex","inputs":[{"name":"owner","type":"address","internalType":"address"},{"name":"index","type":"uint256","internalType":"uint256"}],"outputs":[{"name":"","type":"uint256","internalType":"uint256"}],"stateMutability":"view"},{"type":"function","name":"tokenURI","inputs":[{"name":"tokenId","type":"uint256","internalType":"uint256"}],"outputs":[{"name":"","type":"string","internalType":"string"}],"stateMutability":"view"},{"type":"function","name":"totalSupply","inputs":[],"outputs":[{"name":"","type":"uint256","internalType":"uint256"}],"stateMutability":"view"},{"type":"function","name":"transferFrom","inputs":[{"name":"from","type":"address","internalType":"address"},{"name":"to","type":"address","internalType":"address"},{"name":"tokenId","type":"uint256","internalType":"uint256"}],"outputs":[],"stateMutability":"nonpayable"},{"type":"function","name":"transferOwnership","inputs":[{"name":"newOwner","type":"address","internalType":"address"}],"outputs":[],"stateMutability":"nonpayable"},{"type":"event","name":"Approval","inputs":[{"name":"owner","type":"address","indexed":true,"internalType":"address"},{"name":"approved","type":"address","indexed":true,"internalType":"address"},{"name":"tokenId","type":"uint256","indexed":true,"internalType":"uint256"}],"anonymous":false},{"type":"event","name":"ApprovalForAll","inputs":[{"name":"owner","type":"address","indexed":true,"internalType":"address"},{"name":"operator","type":"address","indexed":true,"internalType":"address"},{"name":"approved","type":"bool","indexed":false,"internalType":"bool"}],"anonymous":false},{"type":"event","name":"OwnershipTransferred","inputs":[{"name":"previousOwner","type":"address","indexed":true,"internalType":"address"},{"name":"newOwner","type":"address","indexed":true,"internalType":"address"}],"anonymous":false},{"type":"event","name":"Transfer","inputs":[{"name":"from","type":"address","indexed":true,"internalType":"address"},{"name":"to","type":"address","indexed":true,"internalType":"address"},{"name":"tokenId","type":"uint256","indexed":true,"internalType":"uint256"}],"anonymous":false}],"bytecode":{"object":"0x60806040523461039357604080519081016001600160401b038111828210176102b6576040908152600a825269416c706861204465767360b01b602083015280519081016001600160401b038111828210176102b657604052600881526720a6282420a222ab60c11b602082015281516001600160401b0381116102b657610088600054610398565b601f811161033b575b50602092601f82116001146102d757928192936000926102cc575b50508160011b916000199060031b1c1916176000555b80516001600160401b0381116102b6576100dd600154610398565b601f8111610253575b50602091601f82116001146101ef579181926000926101e4575b50508160011b916000199060031b1c1916176001555b600a8054336001600160a01b0319821681179092556001600160a01b03167f8be0079c531659141344cd1fd0a4f28419497f9722a3daafe3b4186f6b6457e0600080a3610164600c54610398565b601f81116101a0575b7f697066733a2f2f616c706861646576732f000000000000000000000000000022600c556040516119bb90816103f08239f35b601181111561016d57600c6000526101de90601f0160051c7fdf6966c971051c3d54ec59162606531493a51404a002842f56009d7e5cf4a8c76103d2565b3861016d565b015190503880610100565b601f198216926001600052806000209160005b85811061023b57508360019510610222575b505050811b01600155610116565b015160001960f88460031b161c19169055388080610214565b91926020600181928685015181550194019201610202565b818111156100e65760016000526102a7907fb10e2d527612073b26eecdfd717e6a320cf44b4afac2b0732d9fcbe2b7fa0cf690601f840160051c90602085106102ad575b601f82910160051c0391016103d2565b386100e6565b60009150610297565b634e487b7160e01b600052604160045260246000fd5b0151905038806100ac565b601f1982169360008052806000209160005b868110610323575083600195961061030a575b505050811b016000556100c2565b015160001960f88460031b161c191690553880806102fc565b919260206001819286850151815501940192016102e9565b81811115610091576000805261038d907f290decd9548b62a8d60345a988386fc84ba6bc95484008f6362f93160ef3e56390601f840160051c90602085106102ad57601f82910160051c0391016103d2565b38610091565b600080fd5b90600182811c921680156103c8575b60208310146103b257565b634e487b7160e01b600052602260045260246000fd5b91607f16916103a7565b60005b8281106103e157505050565b6000828201556001016103d556fe608080604052600436101561001357600080fd5b60003560e01c90816301ffc9a714610e725750806306fdde0314610dcd578063081812fc14610daf578063095ea7b314610c2657806318160ddd14610c0857806323b872dd14610be45780632f745c5914610b3257806342842e0e14610afd57806343508b0514610aac5780634f6ccce714610a1a57806355f804b3146108675780636352211e146108375780636a627842146107fb57806370a08231146107d0578063715018a6146107735780638da5cb5b1461074a57806395d89b411461067c578063a22cb465146105aa578063b88d4fde14610522578063c87b56dd14610239578063e985e9c5146101de5763f2fde38b1461011157600080fd5b346101d95760203660031901126101d95761012a610f3f565b61013261156f565b6001600160a01b0316801561018557600a80546001600160a01b0319811683179091556001600160a01b03167f8be0079c531659141344cd1fd0a4f28419497f9722a3daafe3b4186f6b6457e0600080a3005b60405162461bcd60e51b815260206004820152602660248201527f4f776e61626c653a206e6577206f776e657220697320746865207a65726f206160448201526564647265737360d01b6064820152608490fd5b600080fd5b346101d95760403660031901126101d9576101f7610f3f565b6101ff610f55565b9060018060a01b0316600052600560205260406000209060018060a01b0316600052602052602060ff604060002054166040519015158152f35b346101d95760203660031901126101d957600435600081815260026020526040902054610270906001600160a01b0316151561114a565b604051600c5491906000816102848561101a565b91828252602082019560018116908160001461050657506001146104a5575b6102af92500382610fa5565b805160009015610487575081908260009372184f03e93ff9f4daa797ed6e38ed64bf6a1f0160401b811015610461575b50806d04ee2d6d415b85acef8100000000600a921015610446575b662386f26fc10000811015610432575b6305f5e100811015610421575b612710811015610412575b6064811015610404575b10156103fa575b6001830191600a602161035e61034886610fc7565b956103566040519788610fa5565b808752610fc7565b602086019690601f19013688378501015b60001901916f181899199a1a9b1b9c1cb0b131b232b360811b8282061a83530490811561039e57600a9061036f565b505060206103c3936103e2936103d26103f69760405197889651809287890190610ef7565b85019151809385840190610ef7565b010103601f198101835282610fa5565b604051918291602083526020830190610f1a565b0390f35b9160010191610333565b60646002910494019361032c565b61271060049104940193610322565b6305f5e10060089104940193610317565b662386f26fc100006010910494019361030a565b6d04ee2d6d415b85acef8100000000602091049401936102fa565b6040945072184f03e93ff9f4daa797ed6e38ed64bf6a1f0160401b90049050600a6102df565b9150506103f691506040519061049e602083610fa5565b81526103e2565b5090600c6000527fdf6966c971051c3d54ec59162606531493a51404a002842f56009d7e5cf4a8c7906000915b8183106104ea5750509060206102af928201016102a3565b60209193508060019154838588010152019101909183926104d2565b60ff19168752506102af92151560051b820160200190506102a3565b346101d95760803660031901126101d95761053b610f3f565b610543610f55565b906064359060443567ffffffffffffffff83116101d957366023840112156101d9576105a8936105806105a3943690602481600401359101610fe3565b9261059361058e8433611233565b611092565b61059e838383611306565b6118c0565b61177b565b005b346101d95760403660031901126101d9576105c3610f3f565b602435908115158092036101d9576001600160a01b03169033821461063757336000526005602052604060002082600052602052604060002060ff1981541660ff83161790556040519081527f17307eab39ab6107e8899845ad3d59bd9653f200f220920489ca2b5937696c3160203392a3005b60405162461bcd60e51b815260206004820152601960248201527f4552433732313a20617070726f766520746f2063616c6c6572000000000000006044820152606490fd5b346101d95760003660031901126101d957604051600060015461069e8161101a565b808452906001811690811561072657506001146106c6575b6103f6836103e281850382610fa5565b91905060016000527fb10e2d527612073b26eecdfd717e6a320cf44b4afac2b0732d9fcbe2b7fa0cf6916000905b80821061070c575090915081016020016103e26106b6565b9192600181602092548385880101520191019092916106f4565b60ff191660208086019190915291151560051b840190910191506103e290506106b6565b346101d95760003660031901126101d957600a546040516001600160a01b039091168152602090f35b346101d95760003660031901126101d95761078c61156f565b600a80546001600160a01b031981169091556000906001600160a01b03167f8be0079c531659141344cd1fd0a4f28419497f9722a3daafe3b4186f6b6457e08280a3005b346101d95760203660031901126101d95760206107f36107ee610f3f565b6111bc565b604051908152f35b346101d95760203660031901126101d9576020610816610f3f565b61081e61156f565b6107f3600b54809261082f826110f4565b600b556115c7565b346101d95760203660031901126101d9576020610855600435611196565b6040516001600160a01b039091168152f35b346101d95760203660031901126101d95760043567ffffffffffffffff81116101d957366023820112156101d9576108a9903690602481600401359101610fe3565b6108b161156f565b805167ffffffffffffffff8111610a04576108cd600c5461101a565b601f8111610992575b50602091601f821160011461091457918192600092610909575b5050600019600383901b1c191660019190911b17600c55005b0151905082806108f0565b601f19821692600c6000527fdf6966c971051c3d54ec59162606531493a51404a002842f56009d7e5cf4a8c79160005b85811061097a57508360019510610961575b505050811b01600c55005b015160001960f88460031b161c19169055828080610956565b91926020600181928685015181550194019201610944565b818111156108d657600c600052601f820160051c90602083106109fb575b601f82910160051c039060005b8281106109cb5750506108d6565b60008282017fdf6966c971051c3d54ec59162606531493a51404a002842f56009d7e5cf4a8c701556001016109bd565b600091506109b0565b634e487b7160e01b600052604160045260246000fd5b346101d95760203660031901126101d957600435600854811015610a5257610a43602091611119565b90549060031b1c604051908152f35b60405162461bcd60e51b815260206004820152602c60248201527f455243373231456e756d657261626c653a20676c6f62616c20696e646578206f60448201526b7574206f6620626f756e647360a01b6064820152608490fd5b346101d95760403660031901126101d957610ac5610f3f565b602435610ad061156f565b60005b818110610adc57005b600190610af7600b54610aee816110f4565b600b55856115c7565b01610ad3565b346101d9576105a86105a3610b1136610f6b565b9060405192610b21602085610fa5565b6000845261059361058e8433611233565b346101d95760403660031901126101d957610b4b610f3f565b60243590610b58816111bc565b821015610b8b5760018060a01b031660005260066020526040600020906000526020526020604060002054604051908152f35b60405162461bcd60e51b815260206004820152602b60248201527f455243373231456e756d657261626c653a206f776e657220696e646578206f7560448201526a74206f6620626f756e647360a81b6064820152608490fd5b346101d9576105a8610bf536610f6b565b91610c0361058e8433611233565b611306565b346101d95760003660031901126101d9576020600854604051908152f35b346101d95760403660031901126101d957610c3f610f3f565b602435906001600160a01b03610c5483611196565b6001600160a01b039092169116818114610d6057803314908115610d3b575b5015610cd057600082815260046020526040902080546001600160a01b031916821790556001600160a01b03610ca883611196565b167f8c5be1e5ebec7d5bd14f71427d1e84f3dd0314c0f7b2291e5b200ac8c7c3b925600080a4005b60405162461bcd60e51b815260206004820152603d60248201527f4552433732313a20617070726f76652063616c6c6572206973206e6f7420746f60448201527f6b656e206f776e6572206f7220617070726f76656420666f7220616c6c0000006064820152608490fd5b600090815260056020908152604080832033845290915290205460ff16905083610c73565b60405162461bcd60e51b815260206004820152602160248201527f4552433732313a20617070726f76616c20746f2063757272656e74206f776e656044820152603960f91b6064820152608490fd5b346101d95760203660031901126101d9576020610855600435611054565b346101d95760003660031901126101d95760405160008054610dee8161101a565b80845290600181169081156107265750600114610e15576103f6836103e281850382610fa5565b60008080527f290decd9548b62a8d60345a988386fc84ba6bc95484008f6362f93160ef3e563939250905b808210610e58575090915081016020016103e26106b6565b919260018160209254838588010152019101909291610e40565b346101d95760203660031901126101d9576004359063ffffffff60e01b82168092036101d95760209163780e9d6360e01b8114908115610eb4575b5015158152f35b6380ac58cd60e01b811491508115610ee6575b8115610ed5575b5083610ead565b6301ffc9a760e01b14905083610ece565b635b5e139f60e01b81149150610ec7565b60005b838110610f0a5750506000910152565b8181015183820152602001610efa565b90602091610f3381518092818552858086019101610ef7565b601f01601f1916010190565b600435906001600160a01b03821682036101d957565b602435906001600160a01b03821682036101d957565b60609060031901126101d9576004356001600160a01b03811681036101d957906024356001600160a01b03811681036101d9579060443590565b90601f8019910116810190811067ffffffffffffffff821117610a0457604052565b67ffffffffffffffff8111610a0457601f01601f191660200190565b929192610fef82610fc7565b91610ffd6040519384610fa5565b8294818452818301116101d9578281602093846000960137010152565b90600182811c9216801561104a575b602083101461103457565b634e487b7160e01b600052602260045260246000fd5b91607f1691611029565b600081815260026020526040902054611077906001600160a01b0316151561114a565b6000908152600460205260409020546001600160a01b031690565b1561109957565b60405162461bcd60e51b815260206004820152602d60248201527f4552433732313a2063616c6c6572206973206e6f7420746f6b656e206f776e6560448201526c1c881bdc88185c1c1c9bdd9959609a1b6064820152608490fd5b60001981146111035760010190565b634e487b7160e01b600052601160045260246000fd5b60085481101561113457600860005260206000200190600090565b634e487b7160e01b600052603260045260246000fd5b1561115157565b60405162461bcd60e51b815260206004820152601860248201527f4552433732313a20696e76616c696420746f6b656e20494400000000000000006044820152606490fd5b6000908152600260205260409020546001600160a01b03166111b981151561114a565b90565b6001600160a01b031680156111dc57600052600360205260406000205490565b60405162461bcd60e51b815260206004820152602960248201527f4552433732313a2061646472657373207a65726f206973206e6f7420612076616044820152683634b21037bbb732b960b91b6064820152608490fd5b906001600160a01b0361124582611196565b6001600160a01b0390931692168281149291908315611285575b50821561126b57505090565b9091506001600160a01b039061128090611054565b161490565b909250600052600560205260406000208160005260205260ff60406000205416913861125f565b156112b357565b60405162461bcd60e51b815260206004820152602560248201527f4552433732313a207472616e736665722066726f6d20696e636f72726563742060448201526437bbb732b960d91b6064820152608490fd5b9061131083611196565b6001600160a01b038381169291611329911683146112ac565b6001600160a01b03811692831561151e578261145d57506008549084600052600960205281604060002055600160401b821015610a045761139c856113838460016000805160206119668339815191529601600855611119565b90919082549060031b91821b91600019901b1916179055565b600090838503611429575b506113c4836001600160a01b036113bd88611196565b16146112ac565b8481526004602052604081206001600160601b0360a01b8154169055828152600360205260408120600019815401905583815260036020526040812060018154019055848152600260205260408120846001600160601b0360a01b82541617905580a4565b611432906111bc565b84825260066020526040822081835260205285604083205585825260076020526040822055386113a7565b83830361147b575b506000805160206119668339815191529061139c565b611484906111bc565b60001981019190821161110357600080516020611966833981519152918560005260076020526040600020548181036114eb575b50856000526007602052600060408120558360005260066020526040600020906000526020526000604081205590611465565b600085815260066020908152604080832085845282528083205484845281842081905583526007909152902055386114b8565b60405162461bcd60e51b8152602060048201526024808201527f4552433732313a207472616e7366657220746f20746865207a65726f206164646044820152637265737360e01b6064820152608490fd5b600a546001600160a01b0316330361158357565b606460405162461bcd60e51b815260206004820152602060248201527f4f776e61626c653a2063616c6c6572206973206e6f7420746865206f776e65726044820152fd5b90602090604051906115d98383610fa5565b600082526001600160a01b0384169384156116e557600082815260026020526040902054611613906001600160a01b031615155b15611919565b600854826000526009855280604060002055600160401b811015610a04576116e3956105a39561164e85611383856001839701600855611119565b600260009161165c866111bc565b848452600682526040842081855282528560408520558584526007825260408420556116a061160d86600052600260205260018060a01b0360406000205416151590565b8383526003815260408320600181540190558483525260408120826001600160601b0360a01b8254161790556000805160206119668339815191528180a461179f565b565b6064846040519062461bcd60e51b825280600483015260248201527f4552433732313a206d696e7420746f20746865207a65726f20616464726573736044820152fd5b60809060208152603260208201527f4552433732313a207472616e7366657220746f206e6f6e20455243373231526560408201527131b2b4bb32b91034b6b83632b6b2b73a32b960711b60608201520190565b1561178257565b60405162461bcd60e51b81528061179b60048201611728565b0390fd5b91823b156118b8576117e5926020926000604051809681958294630a85bd0160e11b84523360048501528460248501526044840152608060648401526084830190610f1a565b03926001600160a01b03165af1809160009161186e575b5090611858573d15611851573d61181281610fc7565b906118206040519283610fa5565b81523d6000602083013e5b8051908161184c5760405162461bcd60e51b81528061179b60048201611728565b602001fd5b606061182b565b6001600160e01b031916630a85bd0160e11b1490565b6020813d6020116118b0575b8161188760209383610fa5565b810103126118ac5751906001600160e01b0319821682036118a95750386117fc565b80fd5b5080fd5b3d915061187a565b505050600190565b919290803b15611910576117e593600060209460405196879586948593630a85bd0160e11b855233600486015260018060a01b031660248501526044840152608060648401526084830190610f1a565b50505050600190565b1561192057565b60405162461bcd60e51b815260206004820152601c60248201527f4552433732313a20746f6b656e20616c7265616479206d696e746564000000006044820152606490fdfeddf252ad1be2c89b69c2b068fc378daa952ba7f163c4a11628f55a4df523b3efa26469706673582212206198d50e7d9355d417f3df391f08b1ccfe962496aec3d45174f37ce89694938364736f6c63430008210033","linkReferences":{}},"methodIdentifiers":{"approve(address,uint256)":"095ea7b3","balanceOf(address)":"70a08231","batchMint(address,uint256)":"43508b05","getApproved(uint256)":"081812fc","isApprovedForAll(address,address)":"e985e9c5","mint(address)":"6a627842","name()":"06fdde03","owner()":"8da5cb5b","ownerOf(uint256)":"6352211e","renounceOwnership()":"715018a6","safeTransferFrom(address,address,uint256)":"42842e0e","safeTransferFrom(address,address,uint256,bytes)":"b88d4fde","setApprovalForAll(address,bool)":"a22cb465","setBaseURI(string)":"55f804b3","supportsInterface(bytes4)":"01ffc9a7","symbol()":"95d89b41","tokenByIndex(uint256)":"4f6ccce7","tokenOfOwnerByIndex(address,uint256)":"2f745c59","tokenURI(uint256)":"c87b56dd","totalSupply()":"18160ddd","transferFrom(address,address,uint256)":"23b872dd","transferOwnership(address)":"f2fde38b"},"id":31}