{"abi":[{"type":"constructor","inputs":[{"name":"_internalConverter","type":"address","internalType":"address"},{"name":"_feeSwapper","type":"address","internalType":"address"}],"stateMutability":"nonpayable"},{"type":"receive","stateMutability":"payable"},{"type":"function","name":"convertFee","inputs":[{"name":"token","type":"address","internalType":"address"},{"name":"amount","type":"uint256","internalType":"uint256"}],"outputs":[],"stateMutability":"nonpayable"},{"type":"function","name":"feeSwapper","inputs":[],"outputs":[{"name":"","type":"address","internalType":"contract FeeSwapper"}],"stateMutability":"view"},{"type":"function","name":"internalConverter","inputs":[],"outputs":[{"name":"","type":"address","internalType":"contract InternalFeeConverter"}],"stateMutability":"view"},{"type":"function","name":"owner","inputs":[],"outputs":[{"name":"","type":"address","internalType":"address"}],"stateMutability":"view"},{"type":"function","name":"renounceOwnership","inputs":[],"outputs":[],"stateMutability":"nonpayable"},{"type":"function","name":"transferOwnership","inputs":[{"name":"newOwner","type":"address","internalType":"address"}],"outputs":[],"stateMutability":"nonpayable"},{"type":"event","name":"ConversionFailed","inputs":[{"name":"token","type":"address","indexed":true,"internalType":"address"},{"name":"amount","type":"uint256","indexed":false,"internalType":"uint256"}],"anonymous":false},{"type":"event","name":"ConvertedExternal","inputs":[{"name":"token","type":"address","indexed":true,"internalType":"address"},{"name":"amount","type":"uint256","indexed":false,"internalType":"uint256"}],"anonymous":false},{"type":"event","name":"ConvertedInternal","inputs":[{"name":"token","type":"address","indexed":true,"internalType":"address"},{"name":"amount","type":"uint256","indexed":false,"internalType":"uint256"}],"anonymous":false},{"type":"event","name":"OwnershipTransferred","inputs":[{"name":"previousOwner","type":"address","indexed":true,"internalType":"address"},{"name":"newOwner","type":"address","indexed":true,"internalType":"address"}],"anonymous":false}],"bytecode":{"object":"0x6080346100d657601f6109aa38819003918201601f19168301916001600160401b038311848410176100db5780849260409485528339810103126100d657610052602061004b836100f1565b92016100f1565b60008054336001600160a01b0319821681178355604051949290916001600160a01b0316907f8be0079c531659141344cd1fd0a4f28419497f9722a3daafe3b4186f6b6457e09080a3600180546001600160a01b039283166001600160a01b031991821617909155600280549390921692169190911790556108a490816101068239f35b600080fd5b634e487b7160e01b600052604160045260246000fd5b51906001600160a01b03821682036100d65756fe608080604052600436101561007f575b50361561001b57600080fd5b6000805481908190819034906001600160a01b03165af161003a610526565b501561004257005b60405162461bcd60e51b815260206004820152601560248201527408cc2d2d8cac840e8de40ccdee4eec2e4c8408aa89605b1b6044820152606490fd5b60003560e01c9081635a37e8be146104b457508063715018a61461045b578063866e4517146101ec5780638da5cb5b146101c3578063d7657d651461019a5763f2fde38b146100ce573861000f565b34610195576020366003190112610195576100e76104d8565b6100ef610566565b6001600160a01b0316801561014157600080546001600160a01b03198116831782556001600160a01b0316907f8be0079c531659141344cd1fd0a4f28419497f9722a3daafe3b4186f6b6457e09080a3005b60405162461bcd60e51b815260206004820152602660248201527f4f776e61626c653a206e6577206f776e657220697320746865207a65726f206160448201526564647265737360d01b6064820152608490fd5b600080fd5b34610195576000366003190112610195576001546040516001600160a01b039091168152602090f35b34610195576000366003190112610195576000546040516001600160a01b039091168152602090f35b34610195576040366003190112610195576102056104d8565b60243560018060a01b0382169161024c6040516323b872dd60e01b6020820152336024820152306044820152836064820152606481526102466084826104ee565b846106a9565b60025460009183916001600160a01b03168281610389575b505082156102a3575b50501561027657005b60207fb9c03c6777a99fabc08efa84b00365c6f1d6c5189d7d9521b0c5eecc04bc8a4491604051908152a2005b816020916102bf6102fd9460018060a01b0360015416896105be565b600154604051633b19c32760e01b81526001600160a01b03928316600482015260248101939093529193849290911690829060009082906044820190565b03925af160009181610355575b50610317575b829061026d565b610322575b83610310565b506001827f21bad96b7d35b96fa9aefc200afca1b562c745cea67a251e12723cd5326358fd6020604051858152a261031c565b9091506020813d602011610381575b81610371602093836104ee565b810103126101955751908561030a565b3d9150610364565b61039391876105be565b600254604051636765f47160e01b81526001600160a01b038381166004830152602482018590529091602091839160449183918991165af184918161041f575b506103df575b82610264565b6103ea575b856103d9565b9150600191847f64b3639539b2727267afa0be0bab9f6fb7fcba4d2fa4c42e649ab1425d4782116020604051858152a26103e4565b91509192506020813d602011610453575b8161043d602093836104ee565b8101031261044f5751849291876103d3565b8380fd5b3d9150610430565b3461019557600036600319011261019557610474610566565b600080546001600160a01b0319811682556001600160a01b03167f8be0079c531659141344cd1fd0a4f28419497f9722a3daafe3b4186f6b6457e08280a3005b34610195576000366003190112610195576002546001600160a01b03168152602090f35b600435906001600160a01b038216820361019557565b90601f8019910116810190811067ffffffffffffffff82111761051057604052565b634e487b7160e01b600052604160045260246000fd5b3d15610561573d9067ffffffffffffffff82116105105760405191610555601f8201601f1916602001846104ee565b82523d6000602084013e565b606090565b6000546001600160a01b0316330361057a57565b606460405162461bcd60e51b815260206004820152602060248201527f4f776e61626c653a2063616c6c6572206973206e6f7420746865206f776e65726044820152fd5b604051636eb1769f60e11b81523060048201526001600160a01b038084166024830152929390926020908490604490829086165afa92831561069d57600093610666575b5082018092116106505760405163095ea7b360e01b60208201526001600160a01b0393909316602484015260448084019290925290825261064e91906106496064836104ee565b6106a9565b565b634e487b7160e01b600052601160045260246000fd5b90926020823d602011610695575b81610681602093836104ee565b810103126106925750519138610602565b80fd5b3d9150610674565b6040513d6000823e3d90fd5b60408051909261070e926001600160a01b03169060009081906106cc87866104ee565b602085527f5361666545524332303a206c6f772d6c6576656c2063616c6c206661696c6564602086015260208151910182855af1610708610526565b9161079e565b805190811591821561077b575b5050156107255750565b5162461bcd60e51b815260206004820152602a60248201527f5361666545524332303a204552433230206f7065726174696f6e20646964206e6044820152691bdd081cdd58d8d9595960b21b6064820152608490fd5b81925090602091810103126101955760200151801515810361019557388061071b565b9192901561080057508151156107b2575090565b3b156107bb5790565b60405162461bcd60e51b815260206004820152601d60248201527f416464726573733a2063616c6c20746f206e6f6e2d636f6e74726163740000006044820152606490fd5b8251909150156108135750805190602001fd5b6040519062461bcd60e51b8252602060048301528181519182602483015260005b8381106108565750508160006044809484010152601f80199101168101030190fd5b6020828201810151604487840101528593500161083456fea26469706673582212209d1204b6654598d16137bcc34ec1ef26992ae7d9263ddcae63e49499c03d1bb164736f6c63430008210033","linkReferences":{}},"methodIdentifiers":{"convertFee(address,uint256)":"866e4517","feeSwapper()":"5a37e8be","internalConverter()":"d7657d65","owner()":"8da5cb5b","renounceOwnership()":"715018a6","transferOwnership(address)":"f2fde38b"},"id":46}