{"abi":[{"type":"constructor","inputs":[],"stateMutability":"nonpayable"},{"type":"function","name":"addLiquidity","inputs":[{"name":"token0","type":"address","internalType":"address"},{"name":"token1","type":"address","internalType":"address"},{"name":"amount","type":"uint256","internalType":"uint256"}],"outputs":[],"stateMutability":"nonpayable"},{"type":"function","name":"calculateOptimalFill","inputs":[{"name":"token0","type":"address","internalType":"address"},{"name":"token1","type":"address","internalType":"address"},{"name":"orderSize","type":"uint256","internalType":"uint256"}],"outputs":[{"name":"","type":"uint256","internalType":"uint256"}],"stateMutability":"view"},{"type":"function","name":"getAvailableLiquidity","inputs":[{"name":"token0","type":"address","internalType":"address"},{"name":"token1","type":"address","internalType":"address"}],"outputs":[{"name":"","type":"uint256","internalType":"uint256"}],"stateMutability":"view"},{"type":"function","name":"getLiquidityChangeRate","inputs":[{"name":"token0","type":"address","internalType":"address"},{"name":"token1","type":"address","internalType":"address"}],"outputs":[{"name":"","type":"int256","internalType":"int256"}],"stateMutability":"view"},{"type":"function","name":"lambda","inputs":[],"outputs":[{"name":"","type":"uint256","internalType":"uint256"}],"stateMutability":"view"},{"type":"function","name":"liquidityHistory","inputs":[{"name":"","type":"address","internalType":"address"},{"name":"","type":"address","internalType":"address"},{"name":"","type":"uint256","internalType":"uint256"}],"outputs":[{"name":"liquidity","type":"uint256","internalType":"uint256"},{"name":"timestamp","type":"uint256","internalType":"uint256"}],"stateMutability":"view"},{"type":"function","name":"owner","inputs":[],"outputs":[{"name":"","type":"address","internalType":"address"}],"stateMutability":"view"},{"type":"function","name":"reduceLiquidity","inputs":[{"name":"token0","type":"address","internalType":"address"},{"name":"token1","type":"address","internalType":"address"},{"name":"amount","type":"uint256","internalType":"uint256"}],"outputs":[],"stateMutability":"nonpayable"},{"type":"function","name":"renounceOwnership","inputs":[],"outputs":[],"stateMutability":"nonpayable"},{"type":"function","name":"setLambda","inputs":[{"name":"_lambda","type":"uint256","internalType":"uint256"}],"outputs":[],"stateMutability":"nonpayable"},{"type":"function","name":"transferOwnership","inputs":[{"name":"newOwner","type":"address","internalType":"address"}],"outputs":[],"stateMutability":"nonpayable"},{"type":"function","name":"updateVirtualLiquidity","inputs":[{"name":"token0","type":"address","internalType":"address"},{"name":"token1","type":"address","internalType":"address"},{"name":"amount","type":"uint256","internalType":"uint256"}],"outputs":[],"stateMutability":"nonpayable"},{"type":"function","name":"virtualLiquidity","inputs":[{"name":"","type":"address","internalType":"address"},{"name":"","type":"address","internalType":"address"}],"outputs":[{"name":"","type":"uint256","internalType":"uint256"}],"stateMutability":"view"},{"type":"event","name":"LiquidityChanged","inputs":[{"name":"token0","type":"address","indexed":true,"internalType":"address"},{"name":"token1","type":"address","indexed":true,"internalType":"address"},{"name":"newLiquidity","type":"uint256","indexed":false,"internalType":"uint256"},{"name":"timestamp","type":"uint256","indexed":false,"internalType":"uint256"}],"anonymous":false},{"type":"event","name":"LiquidityPoolInitialized","inputs":[{"name":"owner","type":"address","indexed":true,"internalType":"address"}],"anonymous":false},{"type":"event","name":"OptimalFillCalculated","inputs":[{"name":"token0","type":"address","indexed":true,"internalType":"address"},{"name":"token1","type":"address","indexed":true,"internalType":"address"},{"name":"amount","type":"uint256","indexed":false,"internalType":"uint256"},{"name":"optimalFill","type":"uint256","indexed":false,"internalType":"uint256"}],"anonymous":false},{"type":"event","name":"OwnershipTransferred","inputs":[{"name":"previousOwner","type":"address","indexed":true,"internalType":"address"},{"name":"newOwner","type":"address","indexed":true,"internalType":"address"}],"anonymous":false}],"bytecode":{"object":"0x6080806040523460905760008054336001600160a01b0319821681178355916001600160a01b03909116907f8be0079c531659141344cd1fd0a4f28419497f9722a3daafe3b4186f6b6457e09080a3600180556706f05b59d3b20000600455337f9031106ecd02b36b036c6c5f92d4e475e623632a9429f8d85c9dfc7ce85a1841600080a2610aab90816100968239f35b600080fdfe6080604052600436101561001257600080fd5b60003560e01c80630d8802c3146104f8578063172c526d146104a75780633788a63a1461048e57806350da5ecf14610469578063715018a6146104105780638da5cb5b146103e7578063afbe96e6146103b3578063d0d89e8214610352578063dad0be6114610334578063e4a7672614610277578063ed082fca1461020b578063f2fde38b146101445763fc673af6146100ab57600080fd5b3461013f576100ee60407f9bf2168d383c9f4e4f2477bcc00eb29f933d24976d3b7208d85a5941d93bd8426100df3661054e565b94916100e9610a1d565b610835565b610127858260018060a09896981b038716968760005260026020528560002060018060a01b03831660005260205282866000205561090b565b81519485524260208601526001600160a01b031693a3005b600080fd5b3461013f57602036600319011261013f5761015d610522565b610165610a1d565b6001600160a01b031680156101b757600080546001600160a01b03198116831782556001600160a01b0316907f8be0079c531659141344cd1fd0a4f28419497f9722a3daafe3b4186f6b6457e09080a3005b60405162461bcd60e51b815260206004820152602660248201527f4f776e61626c653a206e6577206f776e657220697320746865207a65726f206160448201526564647265737360d01b6064820152608490fd5b3461013f57602036600319011261013f57600435610227610a1d565b801561023257600455005b60405162461bcd60e51b815260206004820152601760248201527f4c616d626461206d75737420626520706f7369746976650000000000000000006044820152606490fd5b3461013f576103186102b87f9bf2168d383c9f4e4f2477bcc00eb29f933d24976d3b7208d85a5941d93bd84260406102ae3661054e565b94916100e9610853565b9485916102ee60018060a01b038216968760005260026020528560002060018060a01b03861660005260205285600020546105ba565b9687918760005260026020528560002060018060a01b03831660005260205282866000205561090b565b81519485524260208601526001600160a01b031693a360018055005b3461013f57600036600319011261013f576020600454604051908152f35b3461013f576103603661054e565b9160018060a01b0316600052600360205260406000209060018060a01b03166000526020526040600020805482101561013f5760409161039f91610588565b506001815491015482519182526020820152f35b3461013f57604036600319011261013f5760206103df6103d1610522565b6103d9610538565b90610774565b604051908152f35b3461013f57600036600319011261013f576000546040516001600160a01b039091168152602090f35b3461013f57600036600319011261013f57610429610a1d565b600080546001600160a01b0319811682556001600160a01b03167f8be0079c531659141344cd1fd0a4f28419497f9722a3daafe3b4186f6b6457e08280a3005b3461013f5761048861047a3661054e565b91610483610853565b6106d1565b60018055005b3461013f5760206103df6104a13661054e565b916105dd565b3461013f57604036600319011261013f576104c0610522565b6104c8610538565b6001600160a01b039182166000908152600260209081526040808320949093168252928352819020549051908152f35b3461013f57604036600319011261013f576104c8610514610522565b61051c610538565b90610835565b600435906001600160a01b038216820361013f57565b602435906001600160a01b038216820361013f57565b606090600319011261013f576004356001600160a01b038116810361013f57906024356001600160a01b038116810361013f579060443590565b80548210156105a45760005260206000209060011b0190600090565b634e487b7160e01b600052603260045260246000fd5b919082018092116105c757565b634e487b7160e01b600052601160045260246000fd5b906105e791610835565b6001600160a01b03808316600090815260026020908152604080832093851683529290522054919082156106bb5761061e91610774565b60008112156106b657600160ff1b81146105c7576000035b6000908061066457505080915b80831161065c575b50808211610657575090565b905090565b91503861064b565b600454908184029184830481036106a2579061067f916105ba565b91821561068e57500491610643565b634e487b7160e01b81526012600452602490fd5b634e487b7160e01b84526011600452602484fd5b610636565b50505050600090565b919082039182116105c757565b906106db91610835565b9160018060a01b03821691826000526002602052604060002060018060a01b0385166000526020526040600020549182811160001461076e5750815b82156107675761074f6040926102ee7f9bf2168d383c9f4e4f2477bcc00eb29f933d24976d3b7208d85a5941d93bd8429588946106c4565b81519485524260208601526001600160a01b031693a3565b5050505050565b91610717565b60409161078091610835565b6001600160a01b039182166000908152600360209081528482209290931681529152208054906002821061082e5760001982018281116105c7576107c49082610588565b509160011981019081116105c7576107db91610588565b506107ef60018301546001830154906106c4565b9182156108265754905490600082820392128183128116918313901516176105c757600160ff1b81146000198314166105c7570590565b505050600090565b5050600090565b9091906001600160a01b038084169082161015610850579190565b90565b600260015414610864576002600155565b60405162461bcd60e51b815260206004820152601f60248201527f5265656e7472616e637947756172643a207265656e7472616e742063616c6c006044820152606490fd5b604051906040820182811067ffffffffffffffff8211176108c957604052565b634e487b7160e01b600052604160045260246000fd5b91906108f5576020816001925184550151910155565b634e487b7160e01b600052600060045260246000fd5b6001600160a01b0390811660009081526003602090815260408083209390941682529190915220805490929190600a81106109e0575060005b6009811061099657506109556108a9565b90815242602082015260009280546009101561098257601260208560009361098096975220016108df565b565b634e487b7160e01b84526032600452602484fd5b600181018082116105c7576109ab9085610588565b50906109b78186610588565b6108f5578260019382036109ce575b505001610944565b805482558301549083015538806109c6565b91926109ea6108a9565b918252426020830152680100000000000000008310156108c95782610a1791600161098095018155610588565b906108df565b6000546001600160a01b03163303610a3157565b606460405162461bcd60e51b815260206004820152602060248201527f4f776e61626c653a2063616c6c6572206973206e6f7420746865206f776e65726044820152fdfea2646970667358221220f9cec9970bb9576a038ec8b6088577afcb3554a0eb5eb9493abf51514ce9d6f964736f6c63430008210033","linkReferences":{}},"methodIdentifiers":{"addLiquidity(address,address,uint256)":"e4a76726","calculateOptimalFill(address,address,uint256)":"3788a63a","getAvailableLiquidity(address,address)":"0d8802c3","getLiquidityChangeRate(address,address)":"afbe96e6","lambda()":"dad0be61","liquidityHistory(address,address,uint256)":"d0d89e82","owner()":"8da5cb5b","reduceLiquidity(address,address,uint256)":"50da5ecf","renounceOwnership()":"715018a6","setLambda(uint256)":"ed082fca","transferOwnership(address)":"f2fde38b","updateVirtualLiquidity(address,address,uint256)":"fc673af6","virtualLiquidity(address,address)":"172c526d"},"id":52}