{"abi":[{"type":"function","name":"getState","inputs":[],"outputs":[{"name":"","type":"uint256","internalType":"uint256"},{"name":"","type":"string","internalType":"string"},{"name":"","type":"address","internalType":"address"}],"stateMutability":"view"},{"type":"function","name":"lastMessage","inputs":[],"outputs":[{"name":"","type":"string","internalType":"string"}],"stateMutability":"view"},{"type":"function","name":"lastSender","inputs":[],"outputs":[{"name":"","type":"address","internalType":"address"}],"stateMutability":"view"},{"type":"function","name":"ping","inputs":[{"name":"message","type":"string","internalType":"string"}],"outputs":[],"stateMutability":"nonpayable"},{"type":"function","name":"pingCount","inputs":[],"outputs":[{"name":"","type":"uint256","internalType":"uint256"}],"stateMutability":"view"},{"type":"event","name":"PingReceived","inputs":[{"name":"sender","type":"address","indexed":false,"internalType":"address"},{"name":"message","type":"string","indexed":false,"internalType":"string"},{"name":"timestamp","type":"uint256","indexed":false,"internalType":"uint256"}],"anonymous":false}],"bytecode":{"object":"0x6080604052348015600e575f5ffd5b506109a48061001c5f395ff3fe608060405234801561000f575f5ffd5b5060043610610055575f3560e01c80631865c57d14610059578063256fec881461007957806332970710146100975780633adb191b146100b557806387704569146100d1575b5f5ffd5b6100616100ef565b604051610070939291906103cf565b60405180910390f35b6100816101ae565b60405161008e919061040b565b60405180910390f35b61009f6101d3565b6040516100ac9190610424565b60405180910390f35b6100cf60048036038101906100ca9190610581565b61025f565b005b6100d9610303565b6040516100e691906105c8565b60405180910390f35b5f60605f5f54600160025f9054906101000a900473ffffffffffffffffffffffffffffffffffffffff168180546101259061060e565b80601f01602080910402602001604051908101604052809291908181526020018280546101519061060e565b801561019c5780601f106101735761010080835404028352916020019161019c565b820191905f5260205f20905b81548152906001019060200180831161017f57829003601f168201915b50505050509150925092509250909192565b60025f9054906101000a900473ffffffffffffffffffffffffffffffffffffffff1681565b600180546101e09061060e565b80601f016020809104026020016040519081016040528092919081815260200182805461020c9061060e565b80156102575780601f1061022e57610100808354040283529160200191610257565b820191905f5260205f20905b81548152906001019060200180831161023a57829003601f168201915b505050505081565b5f5f8154809291906102709061066b565b919050555080600190816102849190610863565b503360025f6101000a81548173ffffffffffffffffffffffffffffffffffffffff021916908373ffffffffffffffffffffffffffffffffffffffff1602179055507f56974ac413df383be1b61e723d6f3ba4afc601f3b24d639c4aa85f01b73ab18d3382426040516102f893929190610932565b60405180910390a150565b5f5481565b5f819050919050565b61031a81610308565b82525050565b5f81519050919050565b5f82825260208201905092915050565b8281835e5f83830152505050565b5f601f19601f8301169050919050565b5f61036282610320565b61036c818561032a565b935061037c81856020860161033a565b61038581610348565b840191505092915050565b5f73ffffffffffffffffffffffffffffffffffffffff82169050919050565b5f6103b982610390565b9050919050565b6103c9816103af565b82525050565b5f6060820190506103e25f830186610311565b81810360208301526103f48185610358565b905061040360408301846103c0565b949350505050565b5f60208201905061041e5f8301846103c0565b92915050565b5f6020820190508181035f83015261043c8184610358565b905092915050565b5f604051905090565b5f5ffd5b5f5ffd5b5f5ffd5b5f5ffd5b7f4e487b71000000000000000000000000000000000000000000000000000000005f52604160045260245ffd5b61049382610348565b810181811067ffffffffffffffff821117156104b2576104b161045d565b5b80604052505050565b5f6104c4610444565b90506104d0828261048a565b919050565b5f67ffffffffffffffff8211156104ef576104ee61045d565b5b6104f882610348565b9050602081019050919050565b828183375f83830152505050565b5f610525610520846104d5565b6104bb565b90508281526020810184848401111561054157610540610459565b5b61054c848285610505565b509392505050565b5f82601f83011261056857610567610455565b5b8135610578848260208601610513565b91505092915050565b5f602082840312156105965761059561044d565b5b5f82013567ffffffffffffffff8111156105b3576105b2610451565b5b6105bf84828501610554565b91505092915050565b5f6020820190506105db5f830184610311565b92915050565b7f4e487b71000000000000000000000000000000000000000000000000000000005f52602260045260245ffd5b5f600282049050600182168061062557607f821691505b602082108103610638576106376105e1565b5b50919050565b7f4e487b71000000000000000000000000000000000000000000000000000000005f52601160045260245ffd5b5f61067582610308565b91507fffffffffffffffffffffffffffffffffffffffffffffffffffffffffffffffff82036106a7576106a661063e565b5b600182019050919050565b5f819050815f5260205f209050919050565b5f6020601f8301049050919050565b5f82821b905092915050565b5f6008830261070e7fffffffffffffffffffffffffffffffffffffffffffffffffffffffffffffffff826106d3565b61071886836106d3565b95508019841693508086168417925050509392505050565b5f819050919050565b5f61075361074e61074984610308565b610730565b610308565b9050919050565b5f819050919050565b61076c83610739565b6107806107788261075a565b8484546106df565b825550505050565b5f5f905090565b610797610788565b6107a2818484610763565b505050565b5f5b828110156107c8576107bd5f82840161078f565b6001810190506107a9565b505050565b601f82111561081b578282111561081a576107e7816106b2565b6107f0836106c4565b6107f9856106c4565b6020861015610806575f90505b808301610815828403826107a7565b505050505b5b505050565b5f82821c905092915050565b5f61083b5f1984600802610820565b1980831691505092915050565b5f610853838361082c565b9150826002028217905092915050565b61086c82610320565b67ffffffffffffffff8111156108855761088461045d565b5b61088f825461060e565b61089a8282856107cd565b5f60209050601f8311600181146108cb575f84156108b9578287015190505b6108c38582610848565b86555061092a565b601f1984166108d9866106b2565b5f5b82811015610900578489015182556001820191506020850194506020810190506108db565b8683101561091d5784890151610919601f89168261082c565b8355505b6001600288020188555050505b505050505050565b5f6060820190506109455f8301866103c0565b81810360208301526109578185610358565b90506109666040830184610311565b94935050505056fea2646970667358221220aee9fbf753df5721028361a880aba36ddfb5a4c107adeb2ba6864f782291e71964736f6c63430008210033","linkReferences":{}},"methodIdentifiers":{"getState()":"1865c57d","lastMessage()":"32970710","lastSender()":"256fec88","ping(string)":"3adb191b","pingCount()":"87704569"},"id":0}