{"abi":[{"type":"constructor","inputs":[{"name":"_originChainId","type":"uint256","internalType":"uint256"},{"name":"_originToken","type":"address","internalType":"address"},{"name":"_destinationChainId","type":"uint256","internalType":"uint256"},{"name":"_callbackReceiver","type":"address","internalType":"address"}],"stateMutability":"payable"},{"type":"receive","stateMutability":"payable"},{"type":"function","name":"APPROVAL_TOPIC_0","inputs":[],"outputs":[{"name":"","type":"uint256","internalType":"uint256"}],"stateMutability":"view"},{"type":"function","name":"callbackReceiver","inputs":[],"outputs":[{"name":"","type":"address","internalType":"address"}],"stateMutability":"view"},{"type":"function","name":"coverDebt","inputs":[],"outputs":[],"stateMutability":"nonpayable"},{"type":"function","name":"destinationChainId","inputs":[],"outputs":[{"name":"","type":"uint256","internalType":"uint256"}],"stateMutability":"view"},{"type":"function","name":"manualSubscribe","inputs":[],"outputs":[],"stateMutability":"nonpayable"},{"type":"function","name":"originChainId","inputs":[],"outputs":[{"name":"","type":"uint256","internalType":"uint256"}],"stateMutability":"view"},{"type":"function","name":"originToken","inputs":[],"outputs":[{"name":"","type":"address","internalType":"address"}],"stateMutability":"view"},{"type":"function","name":"pay","inputs":[{"name":"amount","type":"uint256","internalType":"uint256"}],"outputs":[],"stateMutability":"nonpayable"},{"type":"function","name":"react","inputs":[{"name":"log","type":"tuple","internalType":"struct IReactive.LogRecord","components":[{"name":"chain_id","type":"uint256","internalType":"uint256"},{"name":"_contract","type":"address","internalType":"address"},{"name":"topic_0","type":"uint256","internalType":"uint256"},{"name":"topic_1","type":"uint256","internalType":"uint256"},{"name":"topic_2","type":"uint256","internalType":"uint256"},{"name":"topic_3","type":"uint256","internalType":"uint256"},{"name":"data","type":"bytes","internalType":"bytes"},{"name":"block_number","type":"uint256","internalType":"uint256"},{"name":"op_code","type":"uint256","internalType":"uint256"},{"name":"block_hash","type":"uint256","internalType":"uint256"},{"name":"tx_hash","type":"uint256","internalType":"uint256"},{"name":"log_index","type":"uint256","internalType":"uint256"}]}],"outputs":[],"stateMutability":"nonpayable"},{"type":"event","name":"Callback","inputs":[{"name":"chain_id","type":"uint256","indexed":true,"internalType":"uint256"},{"name":"_contract","type":"address","indexed":true,"internalType":"address"},{"name":"gas_limit","type":"uint64","indexed":true,"internalType":"uint64"},{"name":"payload","type":"bytes","indexed":false,"internalType":"bytes"}],"anonymous":false}],"bytecode":{"object":"0x6080601f61077a38819003918201601f19168301916001600160401b0383118484101761010c578084926080946040528339810103126101075780519061004860208201610122565b610059606060408401519301610122565b60028054600080546001600160a01b031990811662ffffff908117835591829052600160208190527f82ea04094b91fdbcc6bc700815069948943553fb456ac308389bf83006127735805460ff19169091179055903b1560ff166001600160a81b03199092169190911763ffffff00179091556003949094556004805485166001600160a01b0393841617905560059290925560068054909316911617905560405161064390816101378239f35b600080fd5b634e487b7160e01b600052604160045260246000fd5b51906001600160a01b03821682036101075756fe608080604052600436101561001d575b50361561001b57600080fd5b005b600090813560e01c9081630ac7f561146104c4575080630d152c2c1461035957806313096a41146103305780631d805b03146103075780635a9125f8146101ee5780635e6d0458146101b35780637a90b9901461011d578063b0750611146100ff5763c290d6910361000f57346100fc5760203660031901126100fc57338152600160205260ff604082205416156100be576100bb60043533610518565b80f35b60405162461bcd60e51b8152602060048201526016602482015275417574686f72697a65642073656e646572206f6e6c7960501b6044820152606490fd5b80fd5b50346100fc57806003193601126100fc576020600554604051908152f35b50346100fc57806003193601126100fc5780546040516326db15bb60e21b8152306004820152906001600160a01b0316602082602481845afa9081156101a857839161016e575b6100bb9250610518565b90506020823d6020116101a0575b81610189602093836104e0565b8101031261019c576100bb915190610164565b8280fd5b3d915061017c565b6040513d85823e3d90fd5b50346100fc57806003193601126100fc5760206040517f8c5be1e5ebec7d5bd14f71427d1e84f3dd0314c0f7b2291e5b200ac8c7c3b9258152f35b50346100fc57806003193601126100fc576002546003546004546001600160a01b0360089390931c83169284929116833b1561019c5760c483928360405196879485936305a6aced60e41b8552600485015260248401527f8c5be1e5ebec7d5bd14f71427d1e84f3dd0314c0f7b2291e5b200ac8c7c3b92560448401527fa65f96fc951c35ead38878e0f0b7a3c744a6f5ccc1476b313353ce31712313ad60648401527fa65f96fc951c35ead38878e0f0b7a3c744a6f5ccc1476b313353ce31712313ad60848401527fa65f96fc951c35ead38878e0f0b7a3c744a6f5ccc1476b313353ce31712313ad60a48401525af180156102fa576102ec5780f35b6102f5916104e0565b388180f35b50604051903d90823e3d90fd5b50346100fc57806003193601126100fc576006546040516001600160a01b039091168152602090f35b50346100fc57806003193601126100fc576004546040516001600160a01b039091168152602090f35b50346100fc5760203660031901126100fc5760043567ffffffffffffffff81116104c05761018060031982360301126104c05760ff600254161561049157604401357f8c5be1e5ebec7d5bd14f71427d1e84f3dd0314c0f7b2291e5b200ac8c7c3b925146103c45780f35b60405190633adb191b60e01b602083015260206024830152601360448301527248656c6c6f2066726f6d205365706f6c69612160681b60648301526064825261040e6084836104e0565b60055460018060a01b0360065416906040519360208552805190816020870152845b82811061047b575050846040818387837f8dd725fa9d6cd150017ab9e60318d40616439424e2fade9c1c58854950917dfc96620f42409a9b010152601f80199101168101030190a480f35b8060208092840101516040828a01015201610430565b60405162461bcd60e51b8152602060048201526007602482015266564d206f6e6c7960c81b6044820152606490fd5b5080fd5b9050346104c057816003193601126104c0576020906003548152f35b90601f8019910116810190811067ffffffffffffffff82111761050257604052565b634e487b7160e01b600052604160045260246000fd5b8147106105d35781610528575050565b600080916020936040519061053d86836104e0565b83825285820191601f19870136843751926001600160a01b03165af13d156105ce573d67ffffffffffffffff81116105025760405190610586601f8201601f19168501836104e0565b81526000833d92013e5b156105985750565b6064906040519062461bcd60e51b82526004820152600f60248201526e151c985b9cd9995c8819985a5b1959608a1b6044820152fd5b610590565b60405162461bcd60e51b8152602060048201526012602482015271496e73756666696369656e742066756e647360701b6044820152606490fdfea2646970667358221220ddc2422570255d7d9d81d04b2c00d0a2aaa043423d9bb9eff692313a866c6cfd64736f6c63430008210033","linkReferences":{}},"methodIdentifiers":{"APPROVAL_TOPIC_0()":"5e6d0458","callbackReceiver()":"1d805b03","coverDebt()":"7a90b990","destinationChainId()":"b0750611","manualSubscribe()":"5a9125f8","originChainId()":"0ac7f561","originToken()":"13096a41","pay(uint256)":"c290d691","react((uint256,address,uint256,uint256,uint256,uint256,bytes,uint256,uint256,uint256,uint256,uint256))":"0d152c2c"},"id":70}