{"abi":[{"type":"function","name":"ping","inputs":[{"name":"message","type":"string","internalType":"string"}],"outputs":[],"stateMutability":"nonpayable"},{"type":"event","name":"CallbackReceived","inputs":[{"name":"sender","type":"address","indexed":false,"internalType":"address"},{"name":"message","type":"string","indexed":false,"internalType":"string"}],"anonymous":false}],"bytecode":{"object":"0x60808060405234601557610171908161001b8239f35b600080fdfe6080600436101561000f57600080fd5b60003560e01c633adb191b1461002457600080fd5b346101205760203660031901126101205760043567ffffffffffffffff811161012057366023820112156101205780600401359067ffffffffffffffff821161012557601f8201601f19908116603f0116830167ffffffffffffffff8111848210176101255760405281835236602483830101116101205781600092602460209301838601378301015260405133815260406020820152815180604083015260005b81811061010a577fadea7c7a8eb5342e197bb3fef5871594ef99304411be60afbe519afc8242857283606081856000838284010152601f80199101168101030190a1005b80602080928601015160608286010152016100c6565b600080fd5b634e487b7160e01b600052604160045260246000fdfea264697066735822122046cadc24bb025a5c18298c6f0598731cbe9bada81c362cea54a0b17f08f2de1b64736f6c63430008210033","linkReferences":{}},"methodIdentifiers":{"ping(string)":"3adb191b"},"id":71}