{"abi":[{"type":"constructor","inputs":[{"name":"_mailbox","type":"address","internalType":"address"},{"name":"_feeCollector","type":"address","internalType":"address"},{"name":"_bridgeFeePercentage","type":"uint256","internalType":"uint256"}],"stateMutability":"nonpayable"},{"type":"receive","stateMutability":"payable"},{"type":"function","name":"BRIDGE_TOPIC","inputs":[],"outputs":[{"name":"","type":"bytes32","internalType":"bytes32"}],"stateMutability":"view"},{"type":"function","name":"GAS_LIMIT","inputs":[],"outputs":[{"name":"","type":"uint64","internalType":"uint64"}],"stateMutability":"view"},{"type":"function","name":"addSupportedChain","inputs":[{"name":"chainId","type":"uint256","internalType":"uint256"},{"name":"hyperlaneDomain","type":"uint32","internalType":"uint32"},{"name":"remoteBridge","type":"address","internalType":"address"}],"outputs":[],"stateMutability":"nonpayable"},{"type":"function","name":"addSupportedToken","inputs":[{"name":"token","type":"address","internalType":"address"},{"name":"name","type":"string","internalType":"string"},{"name":"symbol","type":"string","internalType":"string"}],"outputs":[],"stateMutability":"nonpayable"},{"type":"function","name":"bridgeFeePercentage","inputs":[],"outputs":[{"name":"","type":"uint256","internalType":"uint256"}],"stateMutability":"view"},{"type":"function","name":"bridgeNft","inputs":[{"name":"nft","type":"address","internalType":"address"},{"name":"tokenId","type":"uint256","internalType":"uint256"},{"name":"recipient","type":"address","internalType":"address"},{"name":"targetChainId","type":"uint256","internalType":"uint256"}],"outputs":[{"name":"","type":"bytes32","internalType":"bytes32"}],"stateMutability":"nonpayable"},{"type":"function","name":"bridgeToken","inputs":[{"name":"token","type":"address","internalType":"address"},{"name":"amount","type":"uint256","internalType":"uint256"},{"name":"recipient","type":"address","internalType":"address"},{"name":"targetChainId","type":"uint256","internalType":"uint256"}],"outputs":[{"name":"","type":"bytes32","internalType":"bytes32"}],"stateMutability":"nonpayable"},{"type":"function","name":"chainToHyperlaneDomain","inputs":[{"name":"","type":"uint256","internalType":"uint256"}],"outputs":[{"name":"","type":"uint32","internalType":"uint32"}],"stateMutability":"view"},{"type":"function","name":"dispatchSwapIntent","inputs":[{"name":"orderId","type":"bytes32","internalType":"bytes32"},{"name":"tokenIn","type":"address","internalType":"address"},{"name":"tokenOut","type":"address","internalType":"address"},{"name":"amountIn","type":"uint256","internalType":"uint256"},{"name":"amountOut","type":"uint256","internalType":"uint256"},{"name":"maker","type":"address","internalType":"address"},{"name":"targetChainId","type":"uint256","internalType":"uint256"}],"outputs":[{"name":"messageId","type":"bytes32","internalType":"bytes32"}],"stateMutability":"payable"},{"type":"function","name":"feeCollector","inputs":[],"outputs":[{"name":"","type":"address","internalType":"address"}],"stateMutability":"view"},{"type":"function","name":"getSupportedChains","inputs":[],"outputs":[{"name":"","type":"uint256[]","internalType":"uint256[]"}],"stateMutability":"view"},{"type":"function","name":"getTokenList","inputs":[],"outputs":[{"name":"","type":"address[]","internalType":"address[]"}],"stateMutability":"view"},{"type":"function","name":"getTransfer","inputs":[{"name":"transferId","type":"bytes32","internalType":"bytes32"}],"outputs":[{"name":"","type":"tuple","internalType":"struct ReactiveHyperlaneBridge.BridgeTransfer","components":[{"name":"token","type":"address","internalType":"address"},{"name":"amount","type":"uint256","internalType":"uint256"},{"name":"tokenId","type":"uint256","internalType":"uint256"},{"name":"isNft","type":"bool","internalType":"bool"},{"name":"sender","type":"address","internalType":"address"},{"name":"recipient","type":"address","internalType":"address"},{"name":"sourceChainId","type":"uint256","internalType":"uint256"},{"name":"targetChainId","type":"uint256","internalType":"uint256"},{"name":"timestamp","type":"uint256","internalType":"uint256"},{"name":"completed","type":"bool","internalType":"bool"}]}],"stateMutability":"view"},{"type":"function","name":"handle","inputs":[{"name":"sourceChain","type":"uint32","internalType":"uint32"},{"name":"sender","type":"bytes32","internalType":"bytes32"},{"name":"message","type":"bytes","internalType":"bytes"}],"outputs":[],"stateMutability":"payable"},{"type":"function","name":"mailbox","inputs":[],"outputs":[{"name":"","type":"address","internalType":"contract IMailbox"}],"stateMutability":"view"},{"type":"function","name":"owner","inputs":[],"outputs":[{"name":"","type":"address","internalType":"address"}],"stateMutability":"view"},{"type":"function","name":"remoteBridges","inputs":[{"name":"","type":"uint256","internalType":"uint256"}],"outputs":[{"name":"","type":"address","internalType":"address"}],"stateMutability":"view"},{"type":"function","name":"remoteSwapContracts","inputs":[{"name":"","type":"uint256","internalType":"uint256"}],"outputs":[{"name":"","type":"address","internalType":"address"}],"stateMutability":"view"},{"type":"function","name":"removeSupportedChain","inputs":[{"name":"chainId","type":"uint256","internalType":"uint256"}],"outputs":[],"stateMutability":"nonpayable"},{"type":"function","name":"removeSupportedToken","inputs":[{"name":"token","type":"address","internalType":"address"}],"outputs":[],"stateMutability":"nonpayable"},{"type":"function","name":"renounceOwnership","inputs":[],"outputs":[],"stateMutability":"nonpayable"},{"type":"function","name":"setRemoteSwapContract","inputs":[{"name":"chainId","type":"uint256","internalType":"uint256"},{"name":"swapContract","type":"address","internalType":"address"}],"outputs":[],"stateMutability":"nonpayable"},{"type":"function","name":"supportedChains","inputs":[{"name":"","type":"uint256","internalType":"uint256"}],"outputs":[{"name":"","type":"uint256","internalType":"uint256"}],"stateMutability":"view"},{"type":"function","name":"supportedTokens","inputs":[{"name":"","type":"address","internalType":"address"}],"outputs":[{"name":"","type":"bool","internalType":"bool"}],"stateMutability":"view"},{"type":"function","name":"tokenList","inputs":[{"name":"","type":"uint256","internalType":"uint256"}],"outputs":[{"name":"","type":"address","internalType":"address"}],"stateMutability":"view"},{"type":"function","name":"transferIds","inputs":[{"name":"","type":"uint256","internalType":"uint256"}],"outputs":[{"name":"","type":"bytes32","internalType":"bytes32"}],"stateMutability":"view"},{"type":"function","name":"transferOwnership","inputs":[{"name":"newOwner","type":"address","internalType":"address"}],"outputs":[],"stateMutability":"nonpayable"},{"type":"function","name":"transfers","inputs":[{"name":"","type":"bytes32","internalType":"bytes32"}],"outputs":[{"name":"token","type":"address","internalType":"address"},{"name":"amount","type":"uint256","internalType":"uint256"},{"name":"tokenId","type":"uint256","internalType":"uint256"},{"name":"isNft","type":"bool","internalType":"bool"},{"name":"sender","type":"address","internalType":"address"},{"name":"recipient","type":"address","internalType":"address"},{"name":"sourceChainId","type":"uint256","internalType":"uint256"},{"name":"targetChainId","type":"uint256","internalType":"uint256"},{"name":"timestamp","type":"uint256","internalType":"uint256"},{"name":"completed","type":"bool","internalType":"bool"}],"stateMutability":"view"},{"type":"event","name":"BridgeFeeCollected","inputs":[{"name":"token","type":"address","indexed":true,"internalType":"address"},{"name":"amount","type":"uint256","indexed":false,"internalType":"uint256"},{"name":"collector","type":"address","indexed":true,"internalType":"address"},{"name":"timestamp","type":"uint256","indexed":false,"internalType":"uint256"}],"anonymous":false},{"type":"event","name":"OwnershipTransferred","inputs":[{"name":"previousOwner","type":"address","indexed":true,"internalType":"address"},{"name":"newOwner","type":"address","indexed":true,"internalType":"address"}],"anonymous":false},{"type":"event","name":"ReactiveHyperlaneBridgeInitialized","inputs":[{"name":"owner","type":"address","indexed":true,"internalType":"address"},{"name":"mailbox","type":"address","indexed":false,"internalType":"address"}],"anonymous":false},{"type":"event","name":"SupportedChainAdded","inputs":[{"name":"chainId","type":"uint256","indexed":false,"internalType":"uint256"},{"name":"hyperlaneDomain","type":"uint32","indexed":false,"internalType":"uint32"}],"anonymous":false},{"type":"event","name":"SupportedChainRemoved","inputs":[{"name":"chainId","type":"uint256","indexed":false,"internalType":"uint256"}],"anonymous":false},{"type":"event","name":"SupportedTokenAdded","inputs":[{"name":"token","type":"address","indexed":true,"internalType":"address"},{"name":"name","type":"string","indexed":false,"internalType":"string"},{"name":"symbol","type":"string","indexed":false,"internalType":"string"}],"anonymous":false},{"type":"event","name":"SupportedTokenRemoved","inputs":[{"name":"token","type":"address","indexed":true,"internalType":"address"}],"anonymous":false},{"type":"event","name":"SwapIntentDispatched","inputs":[{"name":"orderId","type":"bytes32","indexed":true,"internalType":"bytes32"},{"name":"messageId","type":"bytes32","indexed":true,"internalType":"bytes32"},{"name":"targetChainId","type":"uint256","indexed":false,"internalType":"uint256"},{"name":"maker","type":"address","indexed":false,"internalType":"address"}],"anonymous":false},{"type":"event","name":"SwapIntentReceived","inputs":[{"name":"orderId","type":"bytes32","indexed":true,"internalType":"bytes32"},{"name":"maker","type":"address","indexed":false,"internalType":"address"},{"name":"sourceChainId","type":"uint256","indexed":false,"internalType":"uint256"}],"anonymous":false},{"type":"event","name":"TokenBridgeCompleted","inputs":[{"name":"transferId","type":"bytes32","indexed":true,"internalType":"bytes32"},{"name":"token","type":"address","indexed":true,"internalType":"address"},{"name":"amount","type":"uint256","indexed":false,"internalType":"uint256"},{"name":"recipient","type":"address","indexed":true,"internalType":"address"},{"name":"sourceChainId","type":"uint256","indexed":false,"internalType":"uint256"},{"name":"timestamp","type":"uint256","indexed":false,"internalType":"uint256"}],"anonymous":false},{"type":"event","name":"TokenBridgeInitiated","inputs":[{"name":"transferId","type":"bytes32","indexed":true,"internalType":"bytes32"},{"name":"token","type":"address","indexed":true,"internalType":"address"},{"name":"amount","type":"uint256","indexed":false,"internalType":"uint256"},{"name":"sender","type":"address","indexed":true,"internalType":"address"},{"name":"recipient","type":"address","indexed":false,"internalType":"address"},{"name":"targetChainId","type":"uint256","indexed":false,"internalType":"uint256"},{"name":"timestamp","type":"uint256","indexed":false,"internalType":"uint256"}],"anonymous":false}],"bytecode":{"object":"0x6080346101fd57601f6128f038819003918201601f19168301916001600160401b03831184841017610202578084926060946040528339810103126101fd5761004781610218565b90604061005660208301610218565b91015160008054336001600160a01b0319821681178355604051959394939290916001600160a01b0316907f8be0079c531659141344cd1fd0a4f28419497f9722a3daafe3b4186f6b6457e09080a3600180556001600160a01b03169283156101bb57506001600160a01b03168015610176576103e88211610131578260018060a01b0319600254161760025560018060a01b031960095416176009556008556040519081527fbfadda23a14377490a90d54a55e5610471dd9eeeb2afd8b1b3cd483cc919927f60203392a26040516126c3908161022d8239f35b60405162461bcd60e51b815260206004820152601760248201527f4665652070657263656e7461676520746f6f20686967680000000000000000006044820152606490fd5b60405162461bcd60e51b815260206004820152601d60248201527f496e76616c69642066656520636f6c6c6563746f7220616464726573730000006044820152606490fd5b62461bcd60e51b815260206004820152601760248201527f496e76616c6964206d61696c626f7820616464726573730000000000000000006044820152606490fd5b600080fd5b634e487b7160e01b600052604160045260246000fd5b51906001600160a01b03821682036101fd5756fe608080604052600436101561001d575b50361561001b57600080fd5b005b600090813560e01c908163091d278814611f84575080630c4844aa14611e085780631b44577b14611dd5578063260958a514611c73578063273cbaa014611bab5780633c64f04b14611afb5780633d8f3bef146118ca578063469c7dd9146118ac578063512de5d91461183c578063548d496f1461180257806356d5d475146112665780635eb59f7114610fd857806368c4ac2614610f99578063715018a614610f3f5780637631919014610df95780638da5cb5b14610dd25780639675f7bf14610bfc5780639ead722214610bb8578063b0dd5dfb14610b85578063c2068fc7146108e1578063c415b95c146108b8578063c4bffe2b14610802578063d5438eae146107d9578063e1a998461461032c578063e4e03fff14610290578063f2fde38b146101c7578063f39e17d51461018c5763f4c18b0f0361000f57346101895760203660031901126101895763ffffffff6040602092600435815260038452205416604051908152f35b80fd5b503461018957806003193601126101895760206040517f5d92f2a197d79e408c4c2a2676bafbdad24a6a1853539e3c6f3978228c6fcfb28152f35b5034610189576020366003190112610189576101e1611fcd565b6101e961240a565b6001600160a01b0316801561023c57600080546001600160a01b03198116831782556001600160a01b0316907f8be0079c531659141344cd1fd0a4f28419497f9722a3daafe3b4186f6b6457e09080a380f35b60405162461bcd60e51b815260206004820152602660248201527f4f776e61626c653a206e6577206f776e657220697320746865207a65726f206160448201526564647265737360d01b6064820152608490fd5b5034610189576040366003190112610189576102aa611fb7565b6102b261240a565b6001600160a01b038116156102ef576004358252600c6020526040822080546001600160a01b0319166001600160a01b0390921691909117905580f35b60405162461bcd60e51b8152602060048201526015602482015274125b9d985b1a59081cddd85c0818dbdb9d1c9858dd605a1b6044820152606490fd5b50346101895761033b36612071565b61034894939192946124a5565b6001600160a01b0382168085526005602052604085205490929060ff16156107a0576001600160a01b03841690610380821515612135565b828652600360205261039d63ffffffff6040882054161515612224565b6008541561079b575b833b1561078c57604051632142170760e11b815233600482015230602482015260448101889052868160648183895af18015610790578790610774575b505060405160208101916001600160601b03199060601b1682528760348201523360601b60548201526001600160601b03198660601b16606882015242607c82015243609c8201526213919560ea1b60bc820152609f815261044660bf82612105565b51902094610570604051610459816120d2565b85815260088860208301858152604084018c81526060850160018152608086019033825260a08701908a825260c088019246845260e08901948d86526101008a01964288526101208b01988d8a528d52600a60205260408d209a60018060a01b039060018060a01b03905116166001600160601b0360a01b8c5416178b555160018b01555160028a015561050060038a0192511515839060ff801983541691151516179055565b518154610100600160a81b03191690881b610100600160a81b0316179055516004870180546001600160a01b0319166001600160a01b0392909216919091179055516005860155516006850155516007840155519101805460ff9215159290921660ff1992909216919091179055565b610579866123bf565b60405191846020840152816040840152876060840152600160808401523360a084015260c083015260c082526105b060e083612105565b828152600360205263ffffffff604082205416838252600760205260018060a01b036040832054166105e3811515612270565b60025460405163138857a360e31b81526001600160a01b039091169260208280610612898786600485016122e1565b0381875afa91821561076957859261072b575b509181610659969361063c60209694471015612306565b60405163fa31de0160e01b815297889586948593600485016122e1565b03925af190811561071f57506106ca575b50604080519586526001600160a01b039390931660208087019190915292850152426060850152909233919083907f66fb945326e007ee9faf2584f611cfbcc02244daa7e4be53cdcfe4a018ef001690608090a460018055604051908152f35b6020813d602011610717575b816106e360209383612105565b8101031261071257507f66fb945326e007ee9faf2584f611cfbcc02244daa7e4be53cdcfe4a018ef001661066a565b600080fd5b3d91506106d6565b604051903d90823e3d90fd5b93915094916020843d602011610761575b8161074960209383612105565b81010312610712579251919490929190610659610625565b3d915061073c565b6040513d87823e3d90fd5b61077d91612105565b8560001261078c5738866103e3565b8580fd5b6040513d89823e3d90fd5b6103a6565b60405162461bcd60e51b8152602060048201526011602482015270139195081b9bdd081cdd5c1c1bdc9d1959607a1b6044820152606490fd5b50346101895780600319360112610189576002546040516001600160a01b039091168152602090f35b503461018957806003193601126101895760405180602060045491828152018091600485527f8a35acfbc15ff81a39ae7d344fd709f28e8600b4aa8c65c6b64bfe7fe36bd19b90855b8181106108a25750505082610861910383612105565b604051928392602084019060208552518091526040840192915b818110610889575050500390f35b825184528594506020938401939092019160010161087b565b825484526020909301926001928301920161084b565b50346101895780600319360112610189576009546040516001600160a01b039091168152602090f35b5034610189576108f036612071565b6108fd94939192946124a5565b6001600160a01b038216808552600560205260408520549092906109239060ff1661235c565b8515906109308215612175565b6001600160a01b03851691610946831515612135565b838752600360205261096363ffffffff6040892054161515612224565b6008549081890291898304141715610b715761271090049661098588826120af565b6040516323b872dd60e01b6020820152336024820152306044820152606480820184905281529098906109c3906109bd608482612105565b876124fb565b80610b17575b506040519060208201926001600160601b03199060601b16835260348201523360601b60548201526001600160601b03198660601b16606882015242607c82015243609c820152609c8152610a1f60bc82612105565b51902094610ad8604051610a32816120d2565b858152600888602083018b81526040840186815260608501878152608086019033825260a08701908a825260c088019246845260e08901948d86526101008a01964288526101208b01988d8a528d52600a60205260408d209a60018060a01b039060018060a01b03905116166001600160601b0360a01b8c5416178b555160018b01555160028a015561050060038a0192511515839060ff801983541691151516179055565b610ae1866123bf565b604051918460208401528760408401528160608401528160808401523360a084015260c083015260c082526105b060e083612105565b600954610b2f9082906001600160a01b031688612462565b857f116f8d682a6cb93b2dc56dc30593788d4150659b792f62d21320667784ec861a604060018060a01b0360095416938151908152426020820152a3386109c9565b634e487b7160e01b87526011600452602487fd5b503461018957602036600319011261018957602090600435815260078252604060018060a01b0391205416604051908152f35b50346101895760203660031901126101895760043590600654821015610189576020610be383612028565b905460405160039290921b1c6001600160a01b03168152f35b503461018957606036600319011261018957610c16611fcd565b60243567ffffffffffffffff8111610dce57610c36903690600401612043565b60443567ffffffffffffffff8111610dca57610c56903690600401612043565b610c5e61240a565b6001600160a01b038516948515610d8d57858752600560205260ff604088205416610d4857858752600560205260408720805460ff19166001179055600654600160401b811015610d345791610d097f5411a73a353a6f1b5cd83f24a126740b93326beeebab7069028611b78f25087196959492610ce5856001610d2e9701600655612028565b81546001600160a01b0393841660039290921b91821b9390911b1916919091179055565b610d2060405195869560408752604087019161239e565b91848303602086015261239e565b0390a280f35b634e487b7160e01b88526041600452602488fd5b60405162461bcd60e51b815260206004820152601760248201527f546f6b656e20616c726561647920737570706f727465640000000000000000006044820152606490fd5b60405162461bcd60e51b8152602060048201526015602482015274496e76616c696420746f6b656e206164647265737360581b6044820152606490fd5b8480fd5b8280fd5b5034610189578060031936011261018957546040516001600160a01b039091168152602090f35b503461018957602036600319011261018957610e13611fcd565b610e1b61240a565b6001600160a01b031680825260056020526040822054610e3d9060ff1661235c565b808252600560205260408220805460ff19169055815b60065480821015610f385782610e6883612028565b905460039190911b1c6001600160a01b031614610e885750600101610e53565b6000198101908111610f245790610ce5610ea4610ebc93612028565b905460039190911b1c6001600160a01b031691612028565b6006548015610f105760001901610ed281612028565b81549060018060a01b039060031b1b191690556006555b7fbea12876694c4055c71f74308f752b9027cf3d554194000a366abddfc239a3068280a280f35b634e487b7160e01b83526031600452602483fd5b634e487b7160e01b84526011600452602484fd5b5050610ee9565b5034610189578060031936011261018957610f5861240a565b600080546001600160a01b0319811682556001600160a01b03167f8be0079c531659141344cd1fd0a4f28419497f9722a3daafe3b4186f6b6457e08280a380f35b50346101895760203660031901126101895760209060ff906040906001600160a01b03610fc4611fcd565b168152600584522054166040519015158152f35b5060e03660031901126101895760043590610ff1611fb7565b91610ffa611fa1565b9160a4356001600160a01b03811691908290036107125760c43594858252600360205261103263ffffffff6040842054161515612224565b858252600360205263ffffffff60408320541690868352600760205260018060a01b0360408420541695611067871515612270565b60408051600160208201529081018790526001600160a01b0392831660608201529116608082015260643560a082015260843560c082015260e08101849052466101008083019190915281526110bf61012082612105565b60025460405163138857a360e31b8152926001600160a01b0390911690602084806110ef868c86600485016122e1565b0381855afa93841561076957859461122a575b509061113697846020949361111982341015612306565b60405163fa31de0160e01b81529a8b9586948593600485016122e1565b03925af194851561121f5782956111eb575b5080341161118d575b60208580867fff647e07f2b94634dc3abe4e3cefd0d0a3ee782bcbdd12076f54a955cdf9f93b60408b89825191825287820152a3604051908152f35b818061119d8193969596346120af565b335af16111a86121e4565b50156111b657903880611151565b60405162461bcd60e51b815260206004820152600d60248201526c1499599d5b990819985a5b1959609a1b6044820152606490fd5b9094506020813d602011611217575b8161120760209383612105565b8101031261071257519338611148565b3d91506111fa565b6040513d84823e3d90fd5b92919093506020833d60201161125e575b8161124860209383612105565b8101031261071257915192909190611136611102565b3d915061123b565b506060366003190112610189576004359063ffffffff82168092036101895760443567ffffffffffffffff81116117fe576112a5903690600401612043565b6002549193916001600160a01b031633036117b957600454836024356001600160a01b0316815b838110611778575b50501561173b578392845b8281106116fa575b50505080602011610dce578390602082019350600160ff61130784612127565b160361142a576101009250810103126107125761132382612127565b503561133160408301611fe3565b9161133e60608201611fe3565b9161134b60c08301611fe3565b604080516001600160a01b039290921680835260e0850135602084018190529096909492909184917f0948e0c20d52629ad029f298c41f25a6464d5cf5aacd3fe5a3cf542e6b80caa79190a2466000908152600c60205260409020546001600160a01b031693846113b857005b60009660a08897948895604051956020870198633613d15b60e01b8a526024880152600180851b03166044870152600180841b0316606486015260808101356084860152013560a484015260c483015260e482015260e4815261141d61010482612105565b51925af15061001b6121e4565b9060c091810103126107125761143f83611fe3565b913590604084013560608501359283151584036107125761146e60a061146760808901611fe3565b9701611fe3565b6001600160a01b03868116600081815260056020526040812054928416999198909793909260ff16156116bf576114a68a1515612135565b898985156116755790503b1561167157604051632142170760e11b81523060048201526001600160a01b038b166024820152604481018790528881606481838e5af180156116665761161c575b509160609593916115c660bc7f45779ad844d266c84214c41442423ab4cb96f9d5e4c6c9fe31945e89495174079997955b85156116155787905b86156115ef57604051611541604082612105565b600381526213919560ea1b6020820152905b60405195869360208501986001600160601b0319908f1b16895260348501526001600160601b0319908d1b1660548401526001600160601b0319908c1b16606883015242607c83015243609c8301526115b581518092602086860191016121c1565b81010301601f198101835282612105565b5190209650156115e75750905b6040519182526020820152426040820152a4005b9050906115d3565b6040516115fd604082612105565b60058152642a37b5b2b760d91b602082015290611553565b869061152d565b916115c660bc8a6116567f45779ad844d266c84214c41442423ab4cb96f9d5e4c6c9fe31945e89495174079b9997959c60609b9997612105565b9a939597995050509193956114f3565b6040513d8b823e3d90fd5b8780fd5b60bc8795936116ba8760609b9997956115c6956116b57f45779ad844d266c84214c41442423ab4cb96f9d5e4c6c9fe31945e89495174079f9d1515612175565b612462565b611524565b60405162461bcd60e51b8152602060048201526013602482015272105cdcd95d081b9bdd081cdd5c1c1bdc9d1959606a1b6044820152606490fd5b61170381611ff7565b90549060031b1c80875260036020528263ffffffff6040892054161461172c57506001016112df565b939450505050903880806112e7565b60405162461bcd60e51b8152602060048201526015602482015274556e6b6e6f776e2073656e6465722062726964676560581b6044820152606490fd5b61178181611ff7565b905460039190911b1c8752600760205260408720546001600160a01b031682146117ad576001016112cc565b505050600138806112d4565b60405162461bcd60e51b815260206004820152601c60248201527f4f6e6c79206d61696c626f782063616e2063616c6c2068616e646c65000000006044820152606490fd5b5080fd5b5034610189576020366003190112610189576004359060045482101561018957602061182d83611ff7565b90549060031b1c604051908152f35b50346101895760203660031901126101895760043590600b5482101561018957600b5482101561189857600b90527f0175b7a638427703f0dbe7bb9bbf987a2551717b34e79f33b5b1008d1fa01db90154604051908152602090f35b634e487b7160e01b81526032600452602490fd5b50346101895780600319360112610189576020600854604051908152f35b50346101895760603660031901126101895760043560243563ffffffff8116809103610dce576118f8611fa1565b61190061240a565b8215611ac3578115611a7e576001600160a01b03811615611a3957828452600360205263ffffffff6040852054166119f4578284526003602052604084208263ffffffff198254161790558284526007602052604084209060018060a01b03166001600160601b0360a01b825416179055600454600160401b8110156119e05791604091816119d06119b98660017f782caeb294cbdcb2a207953754dda8c5f51f365d2ca73c04ed5b8b9975f7a49d9801600455611ff7565b819391549060031b91821b91600019901b19161790565b905582519182526020820152a180f35b634e487b7160e01b84526041600452602484fd5b60405162461bcd60e51b815260206004820152601760248201527f436861696e20616c726561647920737570706f727465640000000000000000006044820152606490fd5b60405162461bcd60e51b815260206004820152601d60248201527f496e76616c69642072656d6f74652062726964676520616464726573730000006044820152606490fd5b60405162461bcd60e51b815260206004820152601860248201527f496e76616c69642048797065726c616e6520646f6d61696e00000000000000006044820152606490fd5b60405162461bcd60e51b815260206004820152601060248201526f125b9d985b1a590818da185a5b88125160821b6044820152606490fd5b5034610189576020366003190112610189576040610140916004358152600a6020522060018060a01b03815416906001810154906002810154600382015460018060a01b0360048401541660058401549160068501549360ff6008600788015497015416966040519889526020890152604088015260ff81161515606088015260018060a01b039060081c16608087015260a086015260c085015260e08401526101008301521515610120820152f35b503461018957806003193601126101895760405180602060065491828152018091600685527ff652222313e28459528d920b65115c16c04f3efc82aaedc97be59f3f377c0d3f90855b818110611c545750505082611c0a910383612105565b604051928392602084019060208552518091526040840192915b818110611c32575050500390f35b82516001600160a01b0316845285945060209384019390920191600101611c24565b82546001600160a01b0316845260209093019260019283019201611bf4565b503461018957602036600319011261018957604081610140926101208351611c9a816120d2565b82815282602082015282858201528260608201528260808201528260a08201528260c08201528260e08201528261010082015201526004358152600a60205220604051611ce6816120d2565b60018060a01b03825416918282526001810154602083019081526002820154604084019081526003830154606085019060ff811615158252608086019060018060a01b039060081c16815260018060a01b036004860154169160a0870192835260058601549360c0880194855260068701549560e0890196875261012060ff600860078b01549a6101008d019b8c5201541699019815158952604051998a525160208a0152516040890152511515606088015260018060a01b03905116608087015260018060a01b0390511660a08601525160c08501525160e084015251610100830152511515610120820152f35b5034610189576020366003190112610189576020906004358152600c8252604060018060a01b0391205416604051908152f35b503461018957602036600319011261018957600435611e2561240a565b808252600360205263ffffffff60408320541615611f495780825260036020526040822063ffffffff1981541690558082526007602052604082206001600160601b0360a01b8154169055815b60045480821015611f1e5782611e8783611ff7565b90549060031b1c14611e9c5750600101611e72565b6000198101908111610f24576119b9611eb7611ec492611ff7565b90549060031b1c92611ff7565b90556004548015610f10577f1078e641ba4952ca3f912ad516e69b623ae23dfc9eb9040895213a5cb7a9824f9160209160001901611f0181611ff7565b8154906000199060031b1b191690556004555b604051908152a180f35b505060207f1078e641ba4952ca3f912ad516e69b623ae23dfc9eb9040895213a5cb7a9824f91611f14565b60405162461bcd60e51b815260206004820152601360248201527210da185a5b881b9bdd081cdd5c1c1bdc9d1959606a1b6044820152606490fd5b9050346117fe57816003193601126117fe5780620f424060209252f35b604435906001600160a01b038216820361071257565b602435906001600160a01b038216820361071257565b600435906001600160a01b038216820361071257565b35906001600160a01b038216820361071257565b60045481101561201257600460005260206000200190600090565b634e487b7160e01b600052603260045260246000fd5b60065481101561201257600660005260206000200190600090565b9181601f840112156107125782359167ffffffffffffffff8311610712576020838186019501011161071257565b6080906003190112610712576004356001600160a01b03811681036107125790602435906044356001600160a01b0381168103610712579060643590565b919082039182116120bc57565b634e487b7160e01b600052601160045260246000fd5b610140810190811067ffffffffffffffff8211176120ef57604052565b634e487b7160e01b600052604160045260246000fd5b90601f8019910116810190811067ffffffffffffffff8211176120ef57604052565b359060ff8216820361071257565b1561213c57565b60405162461bcd60e51b8152602060048201526011602482015270125b9d985b1a59081c9958da5c1a595b9d607a1b6044820152606490fd5b1561217c57565b60405162461bcd60e51b815260206004820152601d60248201527f416d6f756e74206d7573742062652067726561746572207468616e20300000006044820152606490fd5b60005b8381106121d45750506000910152565b81810151838201526020016121c4565b3d1561221f573d9067ffffffffffffffff82116120ef5760405191612213601f8201601f191660200184612105565b82523d6000602084013e565b606090565b1561222b57565b60405162461bcd60e51b815260206004820152601a60248201527f54617267657420636861696e206e6f7420737570706f727465640000000000006044820152606490fd5b1561227757565b60405162461bcd60e51b815260206004820152601c60248201527f52656d6f746520627269646765206e6f7420636f6e66696775726564000000006044820152606490fd5b906020916122d5815180928185528580860191016121c1565b601f01601f1916010190565b612303939263ffffffff606093168252602082015281604082015201906122bc565b90565b1561230d57565b60405162461bcd60e51b815260206004820152602160248201527f496e73756666696369656e742045544820666f722064697370617463682066656044820152606560f81b6064820152608490fd5b1561236357565b60405162461bcd60e51b8152602060048201526013602482015272151bdad95b881b9bdd081cdd5c1c1bdc9d1959606a1b6044820152606490fd5b908060209392818452848401376000828201840152601f01601f1916010190565b600b54600160401b8110156120ef5760018101600b556000600b5482101561189857600b90527f0175b7a638427703f0dbe7bb9bbf987a2551717b34e79f33b5b1008d1fa01db90155565b6000546001600160a01b0316330361241e57565b606460405162461bcd60e51b815260206004820152602060248201527f4f776e61626c653a2063616c6c6572206973206e6f7420746865206f776e65726044820152fd5b60405163a9059cbb60e01b60208201526001600160a01b039290921660248301526044808301939093529181526124a39161249e606483612105565b6124fb565b565b6002600154146124b6576002600155565b60405162461bcd60e51b815260206004820152601f60248201527f5265656e7472616e637947756172643a207265656e7472616e742063616c6c006044820152606490fd5b604080519092612560926001600160a01b031690600090819061251e8786612105565b602085527f5361666545524332303a206c6f772d6c6576656c2063616c6c206661696c6564602086015260208151910182855af161255a6121e4565b916125f0565b80519081159182156125cd575b5050156125775750565b5162461bcd60e51b815260206004820152602a60248201527f5361666545524332303a204552433230206f7065726174696f6e20646964206e6044820152691bdd081cdd58d8d9595960b21b6064820152608490fd5b81925090602091810103126107125760200151801515810361071257388061256d565b919290156126525750815115612604575090565b3b1561260d5790565b60405162461bcd60e51b815260206004820152601d60248201527f416464726573733a2063616c6c20746f206e6f6e2d636f6e74726163740000006044820152606490fd5b8251909150156126655750805190602001fd5b60405162461bcd60e51b8152602060048201529081906126899060248301906122bc565b0390fdfea26469706673582212205d4b48113fccf770515a46132b86218bb1404941692d0828c1177c6ac7a0483564736f6c63430008210033","linkReferences":{}},"methodIdentifiers":{"BRIDGE_TOPIC()":"f39e17d5","GAS_LIMIT()":"091d2788","addSupportedChain(uint256,uint32,address)":"3d8f3bef","addSupportedToken(address,string,string)":"9675f7bf","bridgeFeePercentage()":"469c7dd9","bridgeNft(address,uint256,address,uint256)":"e1a99846","bridgeToken(address,uint256,address,uint256)":"c2068fc7","chainToHyperlaneDomain(uint256)":"f4c18b0f","dispatchSwapIntent(bytes32,address,address,uint256,uint256,address,uint256)":"5eb59f71","feeCollector()":"c415b95c","getSupportedChains()":"c4bffe2b","getTokenList()":"273cbaa0","getTransfer(bytes32)":"260958a5","handle(uint32,bytes32,bytes)":"56d5d475","mailbox()":"d5438eae","owner()":"8da5cb5b","remoteBridges(uint256)":"b0dd5dfb","remoteSwapContracts(uint256)":"1b44577b","removeSupportedChain(uint256)":"0c4844aa","removeSupportedToken(address)":"76319190","renounceOwnership()":"715018a6","setRemoteSwapContract(uint256,address)":"e4e03fff","supportedChains(uint256)":"548d496f","supportedTokens(address)":"68c4ac26","tokenList(uint256)":"9ead7222","transferIds(uint256)":"512de5d9","transferOwnership(address)":"f2fde38b","transfers(bytes32)":"3c64f04b"},"id":63}