{"abi":[{"type":"constructor","inputs":[{"name":"_originChainId","type":"uint256","internalType":"uint256"},{"name":"_originToken","type":"address","internalType":"address"},{"name":"_destinationChainId","type":"uint256","internalType":"uint256"},{"name":"_callbackReceiver","type":"address","internalType":"address"}],"stateMutability":"payable"},{"type":"receive","stateMutability":"payable"},{"type":"function","name":"APPROVAL_TOPIC_0","inputs":[],"outputs":[{"name":"","type":"uint256","internalType":"uint256"}],"stateMutability":"view"},{"type":"function","name":"callbackReceiver","inputs":[],"outputs":[{"name":"","type":"address","internalType":"address"}],"stateMutability":"view"},{"type":"function","name":"destinationChainId","inputs":[],"outputs":[{"name":"","type":"uint256","internalType":"uint256"}],"stateMutability":"view"},{"type":"function","name":"originChainId","inputs":[],"outputs":[{"name":"","type":"uint256","internalType":"uint256"}],"stateMutability":"view"},{"type":"function","name":"originToken","inputs":[],"outputs":[{"name":"","type":"address","internalType":"address"}],"stateMutability":"view"},{"type":"function","name":"pay","inputs":[{"name":"amount","type":"uint256","internalType":"uint256"}],"outputs":[],"stateMutability":"nonpayable"},{"type":"function","name":"react","inputs":[{"name":"log","type":"tuple","internalType":"struct IReactive.LogRecord","components":[{"name":"chain_id","type":"uint256","internalType":"uint256"},{"name":"_contract","type":"address","internalType":"address"},{"name":"topic_0","type":"uint256","internalType":"uint256"},{"name":"topic_1","type":"uint256","internalType":"uint256"},{"name":"topic_2","type":"uint256","internalType":"uint256"},{"name":"topic_3","type":"uint256","internalType":"uint256"},{"name":"data","type":"bytes","internalType":"bytes"},{"name":"block_number","type":"uint256","internalType":"uint256"},{"name":"op_code","type":"uint256","internalType":"uint256"},{"name":"block_hash","type":"uint256","internalType":"uint256"},{"name":"tx_hash","type":"uint256","internalType":"uint256"},{"name":"log_index","type":"uint256","internalType":"uint256"}]}],"outputs":[],"stateMutability":"nonpayable"},{"type":"event","name":"Callback","inputs":[{"name":"chain_id","type":"uint256","indexed":true,"internalType":"uint256"},{"name":"_contract","type":"address","indexed":true,"internalType":"address"},{"name":"gas_limit","type":"uint64","indexed":true,"internalType":"uint64"},{"name":"payload","type":"bytes","indexed":false,"internalType":"bytes"}],"anonymous":false},{"type":"event","name":"FundsReceived","inputs":[{"name":"sender","type":"address","indexed":true,"internalType":"address"},{"name":"amount","type":"uint256","indexed":false,"internalType":"uint256"}],"anonymous":false}],"bytecode":{"object":"0x608080604052600090608081610675803803809161001d82856101d5565b8339810103126101d15780519063ffffff0061003b6020830161020e565b60ff61004e60606040860151950161020e565b60028054610100600160a81b03191685178155875462ffffff6001600160a01b031991821681178a55808a526001602081905260408b2080548719169091179055825460038a9055600480546001600160a01b039889169085168117909155600599909955600680549590971694831694909417909555843b159093166001600160a81b031990921691909117909317928390558554161784559060ff821615610102575b60405161042d90816102288239f35b60089190911c6001600160a01b031691839190833b156101cd5760c4908360405195869485936305a6aced60e41b8552600485015260248401527f8c5be1e5ebec7d5bd14f71427d1e84f3dd0314c0f7b2291e5b200ac8c7c3b92560448401526000805160206106558339815191526064840152600080516020610655833981519152608484015260008051602061065583398151915260a48401525af180156101c2576101b2575b80806100f3565b816101bc916101d5565b386101ab565b6040513d84823e3d90fd5b8280fd5b5080fd5b601f909101601f19168101906001600160401b038211908210176101f857604052565b634e487b7160e01b600052604160045260246000fd5b51906001600160a01b038216820361022257565b600080fdfe6080806040526004361015610049575b50361561001b57600080fd5b6040513481527f8e47b87b0ef542cdfa1659c551d88bad38aa7f452d2bbb349ab7530dfec8be8f60203392a2005b60003560e01c9081630ac7f561146103ba575080630d152c2c1461025757806313096a411461022e5780631d805b03146102055780635e6d0458146101ca578063b0750611146101ac5763c290d691146100a3573861000f565b346101a75760203660031901126101a75733600052600160205260ff604060002054161561017157600080808060043560018060a01b038254165af13d1561016c573d67ffffffffffffffff8111610156576040519061010d601f8201601f1916602001836103d5565b8152600060203d92013e5b1561011f57005b60405162461bcd60e51b815260206004820152600f60248201526e151c985b9cd9995c8819985a5b1959608a1b6044820152606490fd5b634e487b7160e01b600052604160045260246000fd5b610118565b60405162461bcd60e51b815260206004820152600e60248201526d139bdd08185d5d1a1bdc9a5e995960921b6044820152606490fd5b600080fd5b346101a75760003660031901126101a7576020600554604051908152f35b346101a75760003660031901126101a75760206040517f8c5be1e5ebec7d5bd14f71427d1e84f3dd0314c0f7b2291e5b200ac8c7c3b9258152f35b346101a75760003660031901126101a7576006546040516001600160a01b039091168152602090f35b346101a75760003660031901126101a7576004546040516001600160a01b039091168152602090f35b346101a75760203660031901126101a75760043567ffffffffffffffff81116101a75761018060031982360301126101a75760ff600254161561038b57604401357f8c5be1e5ebec7d5bd14f71427d1e84f3dd0314c0f7b2291e5b200ac8c7c3b925146102c057005b604051633adb191b60e01b602082015260206024820152601360448201527248656c6c6f2066726f6d205365706f6c69612160681b6064820152606481526103096084826103d5565b60055460018060a01b03600654169060405160208152835180602083015260005b8181106103755750620f4240945090604081836000837f8dd725fa9d6cd150017ab9e60318d40616439424e2fade9c1c58854950917dfc9684010152601f80199101168101030190a4005b806020809288010151604082860101520161032a565b60405162461bcd60e51b8152602060048201526007602482015266564d206f6e6c7960c81b6044820152606490fd5b346101a75760003660031901126101a7576020906003548152f35b90601f8019910116810190811067ffffffffffffffff8211176101565760405256fea26469706673582212204f6b81d4193e5c7428e50f8665402ba2c8bc7353e38c63bdb502f906954eff8264736f6c63430008210033a65f96fc951c35ead38878e0f0b7a3c744a6f5ccc1476b313353ce31712313ad","linkReferences":{}},"methodIdentifiers":{"APPROVAL_TOPIC_0()":"5e6d0458","callbackReceiver()":"1d805b03","destinationChainId()":"b0750611","originChainId()":"0ac7f561","originToken()":"13096a41","pay(uint256)":"c290d691","react((uint256,address,uint256,uint256,uint256,uint256,bytes,uint256,uint256,uint256,uint256,uint256))":"0d152c2c"},"id":72}